:040000000DEF00F010
:04000800E0EF1EF017
:10001800FF00C0EF1FF0000120EE03F0BB51D9260E
:10002800BC51DA226F0078FFCAF06F0074FFCBF082
:10003800000EC76F60002BF3D9FF60002FF3DAFFC3
:10004800DF50C56F20EE01F0CA51D926CB51DA2214
:10005800DF50C66FB3EC21F060C062F061C063F09E
:10006800010E0001646F60EC20F00001BD6FBD510E
:10007800C86FC96B8BEF00F0BBC060F0BCC061F00B
:100088009CEC21F02F0AD8A44CEF00F04EEF00F0C2
:10009800AAEF00F0000120EE01F0CA51D926CB5199
:1000A800DA221F0EDF6EAAEF00F0BBC060F0BCC002
:1000B80061F09CEC21F0300AD8A465EF00F067EFFE
:1000C80000F0AAEF00F0000120EE01F0CA51D92695
:1000D800CB51DA22200EDF6EAAEF00F0BBC060F031
:1000E800BCC061F09CEC21F0310AD8A47EEF00F08E
:1000F80080EF00F0AAEF00F0000120EE01F0CA51F5
:10010800D926CB51DA221F0EDF6EAAEF00F020EEBF
:1001180001F0CA51D926CB51DA22DF50BD6FBE6B30
:10012800BE51000AD8B49BEF00F0AAEF00F0BD5111
:100138001E0AD8B440EF00F0010AD8B459EF00F015
:100148003F0AD8B472EF00F0AAEF00F0000120EEE9
:1001580001F0CA51D926CB51DA22C651DE18D8B4DB
:10016800B8EF00F0BAEF00F03CEF01F0010EC76FF6
:100178001DEF01F0CAC08AF0CBC08BF01E0E8C6F49
:10018800000E8D6F300E8E6FC8C060F0C9C061F070
:10019800000E636F0A0E626F4AEC20F060C08FF0A9
:1001A80061C090F0000E0001916F000E926F000E7A
:1001B800936F000E946F000E956F000E966F000EF1
:1001C800976F000E986F9FEC16F03CEF01F0C85146
:1001D800C911D8B4F2EF00F0F4EF00F0FAEF00F034
:1001E800CAC07BF0CBC07CF0AFEC19F0CAC08AF073
:1001F800CBC08BF01E0E00018C6F000E8D6F310E80
:100208008E6F000E906F320E8F6F000E916F000E82
:10021800926F000E936F000E946F000E956F000E94
:10022800966F000E976F000E986F9FEC16F03CEFDC
:1002380001F020EE01F0CA51D926CB51DA22DF5065
:10024800BD6FBE6BBE51000AD8B42DEF01F03CEF74
:1002580001F0BD511E0AD8B43CEF01F0010AD8B430
:10026800BEEF00F03F0AD8B4EBEF00F03CEF01F02E
:100278000001C751D8A443EF01F045EF01F0B4EFF6
:1002880004F0CDEF02F0BBC060F0BCC061F09CECA4
:1002980021F0280AD8A453EF01F055EF01F000EF40
:1002A80003F060002BF3D9FF60002FF3DAFF0C0E88
:1002B800DF6E00EF03F0BBC060F0BCC061F09CECE7
:1002C80021F0290AD8A46BEF01F06DEF01F000EFDF
:1002D80003F060002BF3D9FF60002FF3DAFF0D0E57
:1002E800DF6E00EF03F0BBC060F0BCC061F09CECB7
:1002F80021F02A0AD8A483EF01F085EF01F00DEF71
:1003080002F0AFEF01F060002BF3D9FF60002FF38C
:10031800DAFF0B0EDF6E00EF03F060002BF3D9FF5E
:1003280060002FF3DAFF0E0EDF6E00EF03F06000BF
:100338002BF3D9FF60002FF3DAFF100EDF6E00EF0A
:1003480003F060002BF3D9FF60002FF3DAFF0C0EE7
:10035800DF6E00EF03F0BBC060F0BCC061F052EC90
:100368001EF060C0BDF061C0BEF062C0BFF063C0E7
:10037800C0F064C0C1F065C0C2F066C0C3F067C019
:10038800C4F00001C451000AD8B406EF02F0A5EF8A
:1003980001F0C051000AD8B4F1EF01F0A5EF01F067
:1003A800BE51000AD8B4DFEF01F0010AD8B4E6EF75
:1003B80001F0A5EF01F0BD51520AD8B49BEF01F04E
:1003C800A5EF01F0BD51500AD8B487EF01F0010A3A
:1003D800D8B491EF01F0A5EF01F0BF51000AD8B4ED
:1003E800D4EF01F0A5EF01F0C251000AD8B4FFEF35
:1003F80001F0A5EF01F0C151000AD8B4CDEF01F02A
:10040800A5EF01F0C351000AD8B4F8EF01F0A5EF49
:1004180001F0BBC060F0BCC061F09CEC21F02C0A7C
:10042800D8A419EF02F01BEF02F000EF03F0600010
:100438002BF3D9FF60002FF3DAFF0C0EDF6E00EF0D
:1004480003F0BBC060F0BCC061F09CEC21F02D0A49
:10045800D8A431EF02F033EF02F03DEF02F0600074
:100468002BF3D9FF60002FF3DAFF0F0EDF6E00EFDA
:1004780003F0BBC060F0BCC061F09CEC21F02C0A1A
:10048800D8A449EF02F04BEF02F000EF03F0600050
:100498002BF3D9FF60002FF3DAFF0C0EDF6E00EFAD
:1004A80003F0BBC060F0BCC061F09CEC21F02C0AEA
:1004B800D8A461EF02F063EF02F000EF03F06000F0
:1004C8002BF3D9FF60002FF3DAFF0C0EDF6E00EF7D
:1004D80003F0BBC060F0BCC061F09CEC21F02C0ABA
:1004E800D8A479EF02F07BEF02F000EF03F0600090
:1004F8002BF3D9FF60002FF3DAFF0C0EDF6E00EF4D
:1005080003F0BBC060F0BCC061F09CEC21F02E0A87
:10051800D8A491EF02F093EF02F09DEF02F0600093
:100528002BF3D9FF60002FF3DAFF110EDF6E00EF17
:1005380003F0BBC060F0BCC061F09CEC21F02C0A59
:10054800D8A4A9EF02F0ABEF02F000EF03F06000CF
:100558002BF3D9FF60002FF3DAFF0C0EDF6E00EFEC
:1005680003F0BBC060F0BCC061F09CEC21F02C0A29
:10057800D8A4C1EF02F0C3EF02F000EF03F060006F
:100588002BF3D9FF60002FF3DAFF0C0EDF6E00EFBC
:1005980003F060002BF3D9FF60002FF3DAFFDF5080
:1005A800BD6FBE6BBE51000AD8B4DDEF02F000EF9C
:1005B80003F0BD510A0AD8B447EF01F0010AD8B4D4
:1005C8006DEF02F0070AD8B45FEF01F0010AD8B462
:1005D80077EF01F0030AD8B425EF02F0010AD8B486
:1005E80055EF02F01F0AD8B485EF02F0010AD8B41B
:1005F800B5EF02F000EF03F060002BF3D9FF6000C5
:100608002FF3DAFF0001C551DE18D8B40EEF03F05E
:1006180010EF03F0B4EF04F081EF04F0CAC08AF0E1
:10062800CBC08BF01E0E8C6F000E8D6F290E8E6F57
:10063800000E906F140E8F6F000E916F000E926F68
:10064800000E936F000E946F000E956F000E966F5C
:10065800000E976F000E986F9FEC16F0B4EF04F041
:10066800CAC0A9F0CBC0AAF0020ECA25AB6F000E13
:10067800CB21AC6FFAEC0EF0B4EF04F020EE10F0E2
:10068800CA51D926CB51DA22DE04D8A44EEF03F0A2
:1006980050EF03F072EF03F0CAC08AF0CBC08BF0C2
:1006A8001E0E8C6F000E8D6F2D0E8E6F000E906FCC
:1006B800000E8F6F000E916F000E926F000E936FF9
:1006C800000E946F000E956F000E966F000E976FD8
:1006D800000E986F9FEC16F0B4EF04F0CAC085F0D6
:1006E800CBC086F0020ECA25876F000ECB21886F1B
:1006F800C4EC13F0CAC08AF0CBC08BF01E0E000108
:100708008C6F000E8D6F2C0E8E6F000E906F000E8A
:100718008F6F000E916F000E926F000E936F000E98
:10072800946F000E956F000E966F000E976F000E77
:10073800986F9FEC16F0B4EF04F0CAC087F0CBC0F6
:1007480088F0B2EC1EF0CAC08AF0CBC08BF01E0E47
:1007580000018C6F000E8D6F2C0E8E6F000E906F47
:10076800000E8F6F000E916F000E926F000E936F48
:10077800000E946F000E956F000E966F000E976F27
:10078800000E986F9FEC16F0B4EF04F0CAC08CF01E
:10079800CBC08DF0020ECA258E6F000ECB218F6F55
:1007A80018EC09F0CAC08AF0CBC08BF01E0E00010D
:1007B8008C6F000E8D6F2C0E8E6F000E906F000EDA
:1007C8008F6F000E916F000E926F000E936F000EE8
:1007D800946F000E956F000E966F000E976F000EC7
:1007E800986F9FEC16F0B4EF04F020EE10F0CA51A9
:1007F800D926CB51DA22DE04D8A405EF04F007EF9E
:1008080004F029EF04F0CAC08AF0CBC08BF01E0EAA
:100818008C6F000E8D6F2E0E8E6F000E906F000E77
:100828008F6F000E916F000E926F000E936F000E87
:10083800946F000E956F000E966F000E976F000E66
:10084800986F9FEC16F0B4EF04F0CAC068F0CBC004
:1008580069F0020ECA256A6F000ECB216B6F62EC3D
:1008680019F0CAC08AF0CBC08BF01E0E00018C6F45
:10087800000E8D6F2C0E8E6F000E906F000E8F6F16
:10088800000E916F000E926F000E936F000E946F22
:10089800000E956F000E966F000E976F000E986F02
:1008A8009FEC16F0B4EF04F0CAC07BF0CBC07CF02C
:1008B800FAEC19F0CAC08AF0CBC08BF01E0E00010A
:1008C8008C6F000E8D6F2C0E8E6F000E906F000EC9
:1008D8008F6F000E916F000E926F000E936F000ED7
:1008E800946F000E956F000E966F000E976F000EB6
:1008F800986F9FEC16F0B4EF04F060002BF3D9FF6B
:1009080060002FF3DAFFDF50BD6FBE6BBE51000AE7
:10091800D8B491EF04F0B4EF04F0BD510A0AD8B48A
:10092800B4EF04F0010AD8B4CAEF03F0070AD8B448
:1009380012EF03F0010AD8B434EF03F0030AD8B475
:1009480042EF03F0010AD8B4A1EF03F01F0AD8B4AC
:10095800F9EF03F0010AD8B458EF04F0B4EF04F04B
:100968001200000120EE03F0BB51D926BC51DA2257
:100978006F0078FFC0F06F0074FFC1F0600003F3F0
:10098800D9FF600007F3DAFFDF50BF6F65EF05F0AE
:10099800BBC060F0BCC061F09CEC21F00A0AD8A48E
:1009A800D8EF04F0DAEF04F08CEF05F0600003F301
:1009B800D9FF600007F3DAFF010EDF6E8CEF05F058
:1009C800BBC060F0BCC061F09CEC21F00C0AD8A45C
:1009D800F0EF04F0F2EF04F08CEF05F0600003F3A1
:1009E800D9FF600007F3DAFF020EDF6E8CEF05F027
:1009F800BBC060F0BCC061F09CEC21F00B0AD8A42D
:100A080008EF05F00AEF05F08CEF05F0000120EE85
:100A180001F0C051D926C151DA226F0078FF60F089
:100A28006F0074FF61F0DEEC15F0E806D8A41FEF44
:100A380005F021EF05F02BEF05F0600003F3D9FF77
:100A4800600007F3DAFF030EDF6E8CEF05F060003D
:100A580003F3D9FF600007F3DAFF040EDF6E8CEFB3
:100A680005F0BBC060F0BCC061F09CEC21F00B0A43
:100A7800D8A441EF05F043EF05F08CEF05F06000D6
:100A880003F3D9FF600007F3DAFF010EDF6E8CEF86
:100A980005F0BBC060F0BCC061F09CEC21F00B0A13
:100AA800D8A459EF05F05BEF05F08CEF05F0600076
:100AB80003F3D9FF600007F3DAFF010EDF6E8CEF56
:100AC80005F0600003F3D9FF600007F3DAFFDF5099
:100AD800BD6FBE6BBE51000AD8B475EF05F08CEF40
:100AE80005F0BD51000AD8B4CCEF04F0010AD8B41F
:100AF800E4EF04F0030AD8B4FCEF04F0010AD8B418
:100B080035EF05F0070AD8B44DEF05F08CEF05F086
:100B1800600003F3D9FF600007F3DAFF0001BF515B
:100B2800DE18D8B49AEF05F09CEF05F0FFEF06F059
:100B3800D8EF06F0C0C08AF0C1C08BF06A0E8C6F87
:100B4800090E8D6F0C0E8E6F000E906F320E8F6F28
:100B5800000E916F000E926F000E936F000E946F4F
:100B6800000E956F000E966F000E976F000E986F2F
:100B78009FEC16F0FFEF06F0C0C08AF0C1C08BF002
:100B88006A0E8C6F090E8D6F0B0E8E6F000E906FB4
:100B9800000E8F6F000E916F000E926F000E936F14
:100BA800000E946F000E956F000E966F000E976FF3
:100BB800000E986F9FEC16F0FFEF06F0C0C08AF0A9
:100BC800C1C08BF06A0E8C6F090E8D6F0B0E8E6F85
:100BD800000E906F000E8F6F000E916F000E926FD7
:100BE800000E936F000E946F000E956F000E966FB7
:100BF800000E976F000E986F9FEC16F0000120EE24
:100C080003F0C051D926C151DA22030EDE18D8B438
:100C180010EF06F012EF06F0FFEF06F020EE04F0FA
:100C2800C051D926C151DA22DE50DE10D8B41FEFE8
:100C380006F021EF06F0FFEF06F020EE06F0C051B7
:100C4800D926C151DA226F0078FF66F06F0074FF71
:100C580067F020EE01F0C051D926C151DA226F00A9
:100C680078FF60F06F0074FF61F0A4EC21F00001E0
:100C7800686F010E696F20EE04F0C051D926C1518A
:100C8800DA2202D852EF06F00500FA6EDE50FD6E49
:100C9800DE50FE6EF850FF6EFA501200000120EE92
:100CA80003F0C051D926C151DA22030EDF6EFFEFDF
:100CB80006F0C0C08AF0C1C08BF06A0E8C6F090EB6
:100CC8008D6F0B0E8E6F000E906F000E8F6F000EE3
:100CD800916F000E926F000E936F000E946F000ECE
:100CE800956F000E966F000E976F000E986F9FEC31
:100CF80016F0000120EE03F0C051D926C151DA22C6
:100D0800040EDE18D8B48BEF06F08DEF06F0FFEF77
:100D180006F020EE04F0C051D926C151DA22DE5087
:100D2800DE10D8B49AEF06F09CEF06F0FFEF06F05D
:100D380020EE06F0C051D926C151DA226F0078FFA3
:100D480066F06F0074FF67F020EE01F0C051D926FD
:100D5800C151DA226F0078FF60F06F0074FF61F014
:100D6800A4EC21F00001686F000E696F20EE04F01A
:100D7800C051D926C151DA2202D8CDEF06F00500BC
:100D8800FA6EDE50FD6EDE50FE6EF850FF6EFA50C1
:100D98001200000120EE03F0C051D926C151DA2219
:100DA800040EDF6EFFEF06F0600003F3D9FF60006A
:100DB80007F3DAFFDF50BD6FBE6BBE51000AD8B42F
:100DC800E8EF06F0FFEF06F0BD51000AD8B4FFEFD8
:100DD80006F0010AD8B49EEF05F0030AD8B4C0EFB4
:100DE80005F0010AD8B4E2EF05F0070AD8B45DEFC0
:100DF80006F0FFEF06F01200000E0001776F000EFC
:100E0800786F000E796F000E7A6F3701E0B70FEF39
:100E180007F011EF07F0B9EF07F0000120EE01F03D
:100E28007251D9267351DA226F0078FF60F06F0093
:100E380078FF61F06F0078FF62F06F0078FF63F071
:100E48006000CBF1D9FF6000CFF1DAFFDF50646FAB
:100E5800770E656F000E666F780E676F000E686F0D
:100E6800790E696F000E6A6F7A0E6B6F000E6C6FE9
:100E7800C6EC10F06000DFF1E3F76000E3F1E4F79F
:100E88006000E7F1E1F76000EBF1E2F7000120EE26
:100E980005F07251D9267351DA22DF50746F20EEB3
:100EA8000EF07251D9267351DA22DF50756F060E93
:100EB800766FD8907537762F5DEF07F075517411FE
:100EC8003701E56F000120EE06F07251D926735103
:100ED800DA22DF503701E66F000120EE07F0725189
:100EE800D9267351DA22DF503701E76F000120EE6F
:100EF80008F07251D9267351DA22DF503701E86FB2
:100F0800000120EE09F07251D9267351DA22DF5020
:100F18003701E96F000120EE0AF07251D9267351AA
:100F2800DA22DF503701EA6F000120EE0BF0725130
:100F3800D9267351DA22DF503701EB6F000120EE1A
:100F48000CF07251D9267351DA22DF503701EC6F59
:100F5800000120EE0DF07251D9267351DA22DF50CC
:100F68003701ED6FE08717EF09F0D0B7BEEF07F054
:100F7800C0EF07F068EF08F0000120EE01F07251B1
:100F8800D9267351DA226F0078FF60F06F0078FF7E
:100F980061F06F0078FF62F06F0078FF63F0600027
:100FA800CBF1D9FF6000CFF1DAFFDF50646F770E25
:100FB800656F000E666F780E676F000E686F790EAA
:100FC800696F000E6A6F7A0E6B6F000E6C6FC6EC5D
:100FD80010F06000DFF1D3F76000E3F1D4F76000B0
:100FE800E7F1D1F76000EBF1D2F7000120EE05F050
:100FF8007251D9267351DA22DF50746F20EE0EF049
:101008007251D9267351DA22DF50756F060E766F4A
:10101800D8907537762F0CEF08F075517411370199
:10102800D56F000120EE06F07251D9267351DA22ED
:10103800DF503701D66F000120EE07F07251D92634
:101048007351DA22DF503701D76F000120EE08F024
:101058007251D9267351DA22DF503701D86F000157
:1010680020EE09F07251D9267351DA22DF50370188
:10107800D96F000120EE0AF07251D9267351DA2295
:10108800DF503701DA6F000120EE0BF07251D926DC
:101098007351DA22DF503701DB6F000120EE0CF0CC
:1010A8007251D9267351DA22DF503701DC6F000103
:1010B80020EE0DF07251D9267351DA22DF50370134
:1010C800DD6FD087B7EF07F0C0B76DEF08F06FEFAF
:1010D80008F017EF09F0000120EE01F07251D9264F
:1010E8007351DA226F0078FF60F06F0078FF61F0CB
:1010F8006F0078FF62F06F0078FF63F06000CBF15B
:10110800D9FF6000CFF1DAFFDF50646F770E656FAB
:10111800000E666F780E676F000E686F790E696F44
:10112800000E6A6F7A0E6B6F000E6C6FC6EC10F0D3
:101138006000DFF1C3F76000E3F1C4F76000E7F196
:10114800C1F76000EBF1C2F7000120EE05F0725123
:10115800D9267351DA22DF50746F20EE0EF07251E7
:10116800D9267351DA22DF50756F060E766FD89044
:101178007537762FBBEF08F0755174113701C56FBD
:10118800000120EE06F07251D9267351DA22DF50A1
:101198003701C66F000120EE07F07251D92673514E
:1011A800DA22DF503701C76F000120EE08F07251D4
:1011B800D9267351DA22DF503701C86F000120EEBB
:1011C80009F07251D9267351DA22DF503701C96FFD
:1011D800000120EE0AF07251D9267351DA22DF504D
:1011E8003701CA6F000120EE0BF07251D9267351F6
:1011F800DA22DF503701CB6F000120EE0CF072517C
:10120800D9267351DA22DF503701CC6F000120EE66
:101218000DF07251D9267351DA22DF503701CD6FA4
:10122800C087B7EF07F01200010E0001AC6F100E77
:10123800AD6F050EAE6F000EAF6F000EB06F020EF1
:10124800B16F630EB26F630EB36F000EBA6F20EE0C
:1012580006F08E51D9268F51DA22DF50D8B437EFF5
:1012680009F039EF09F0B7EF09F0B9EC21F060C0E7
:101278007FF061C080F0000E0001826F000E816F68
:10128800D7EC1AF0110E0001916F3C0E906FCB0E47
:10129800E82EFED7902FFCD7912FFAD7B9EC21F082
:1012A80060C07FF061C080F0000E0001826F800E88
:1012B800816FD7EC1AF0110E0001916F3C0E906F00
:1012C800CB0EE82EFED7902FFCD7912FFAD7B9EC8A
:1012D80021F060C07FF061C080F0000E0001826FD5
:1012E800060E816FD7EC1AF0110E0001916F3C0EBB
:1012F800906FCB0EE82EFED7902FFCD7912FFAD700
:10130800B9EC21F060C07FF061C080F0000E0001F0
:10131800826F070E816FD7EC1AF0520E0001916FA1
:101328002B0E906F000EE82EFED7902FFCD7912F32
:10133800FAD700F0B9EC21F060C07FF061C080F00E
:10134800000E0001826F0F0E816FD7EC1AF0410E6C
:101358000001916FF00E906F330EE82EFED7902F9C
:10136800FCD7912FFAD7000120EE07F08E51D9262D
:101378008F51DA22DF50D8B4C4EF09F0C6EF09F074
:1013880055EF0AF0B9EC21F060C07FF061C080F041
:10139800060E0001816F8EEC1AF0310E0001916F7C
:1013A800B40E906F650EE82EFED7902FFCD7912FC4
:1013B800FAD700D0B9EC21F060C07FF061C080F0AE
:1013C800000E0001826F1F0E816FD7EC1AF0310EEC
:1013D8000001916FB40E906F650EE82EFED7902F26
:1013E800FCD7912FFAD700D007EF0AF0040E0001BE
:1013F800916F400E906F260EE82EFED7902FFCD7E7
:10140800912FFAD700F0B9EC21F060C07FF061C0ED
:1014180080F07DEC15F0000180A915EF0AF017EFB8
:101428000AF0FAEF09F0B9EC21F060C07FF061C072
:1014380080F0000E0001826F0F0E816FD7EC1AF05A
:10144800310E0001916FB40E906F650EE82EFED735
:10145800902FFCD7912FFAD700D0B9EC21F060C0BB
:101468007FF061C080F0FF0E0001816F8EEC1AF0F2
:10147800110E0001916F3C0E906FCB0EE82EFED737
:10148800902FFCD7912FFAD7020E0001B26F000EF1
:10149800B36FAC0E726F000E736F00EC07F05BEF6A
:1014A8000AF0000EB26F020EB36F4DEF0AF00001A2
:1014B80020EE08F08E51D9268F51DA22DF50D8B4A9
:1014C80068EF0AF06AEF0AF005EF0BF08CC07BF0CA
:1014D8008DC07CF0FAEC19F0B3EC21F060C062F03A
:1014E80061C063F0030E0001646F60EC20F000013E
:1014F800906F90C091F0926B936B946B93C094F043
:1015080092C093F091C092F0916BB3EC21F060C05F
:1015180062F061C063F0040E0001646F60EC20F0BB
:101528000001956F95C096F0976B986B996B97C073
:1015380099F096C098F0976B966BB3EC21F060C069
:1015480062F061C063F0050E0001646F60EC20F08A
:1015580000019A6F9AC09BF09C6B9D6B9E6B9BC021
:101568009EF09D6B9C6B9B6B96519B259F6F975133
:101578009C21A06F98519D21A16F99519E21A26F26
:1015880091519F25A36F9251A021A46F9351A1213E
:10159800A56F9451A221A66FB3EC21F060C062F050
:1015A80061C063F0020E0001646F60EC20F000017E
:1015B800A76FA751A325A86F000EA421A96F000E3D
:1015C800A521AA6F000EA621AB6FB9EC21F060C06F
:1015D8007FF061C080F0A8C081F0A9C082F0AAC0E5
:1015E80083F0ABC084F0FDEC16F0290E0001916F7A
:1015F800960E906F7F0EE82EFED7902FFCD7912F76
:10160800FAD7B3EC21F060C064F061C065F0010E58
:101618000001666F20EE09F08E51D9268F51DA222B
:10162800DF50676FFDEC1FF01200000E0001756FB0
:1016380080AE21EF0BF023EF0BF0D5EF0BF082A675
:1016480028EF0BF02AEF0BF053EF0BF06000CFF10F
:10165800D9FF6000D3F1DAFF020EDF6E6F0010FED3
:1016680060F06F0004FE61F06F0008FE62F08350C6
:1016780093EC11F0000120EE01F07351D92674515A
:10168800DA22600083F1DEFF600087F1DEFF600090
:101698008BF1DEFF60008FF1DEFF74EF0BF060006E
:1016A800CFF1D9FF6000D3F1DAFF010EDF6E6F00D2
:1016B80008FE60F0815070EC1CF0000120EE01F093
:1016C8007351D9267451DA22600083F1DEFF60007D
:1016D80087F1DEFF60008BF1DEFF60008FF1DEFF37
:1016E80020EE05F07351D9267451DA2285500F0B7C
:1016F800DF6E20EE0EF07351D9267451DA2285443C
:10170800E846030BDF6E20EE06F07351D9267451BC
:10171800DA226F001BFEDFFF20EE07F07351D92697
:101728007451DA226F001FFEDFFF20EE08F07351BC
:10173800D9267451DA226F0023FEDFFF20EE09F06C
:101748007351D9267451DA226F0027FEDFFF20EE8D
:101758000AF07351D9267451DA226F002BFEDFFF8D
:1017680020EE0BF07351D9267451DA226F002FFE48
:10177800DFFF20EE0CF07351D9267451DA226F0086
:1017880033FEDFFF20EE0DF07351D9267451DA22B3
:101798006F0037FEDFFF809E010E0001756F91EF2D
:1017A8000CF03701F0AFDBEF0BF0DDEF0BF091EF52
:1017B8000CF0F2A7E2EF0BF0E4EF0BF00DEF0CF0FA
:1017C8006000CFF1D9FF6000D3F1DAFF020EDF6EBF
:1017D8006D00D0FF60F06D00C4FF61F06D00C8FFC0
:1017E80062F0F35193EC11F0000120EE01F0735117
:1017F800D9267451DA22600083F1DEFF600087F198
:10180800DEFF60008BF1DEFF60008FF1DEFF2EEF60
:101818000CF06000CFF1D9FF6000D3F1DAFF010EC0
:10182800DF6E6D00C8FF60F0F15170EC1CF0000134
:1018380020EE01F07351D9267451DA22600083F149
:10184800DEFF600087F1DEFF60008BF1DEFF6000E5
:101858008FF1DEFF20EE05F07351D9267451DA229C
:101868003701F5510F0BDF6E000120EE0EF07351BA
:10187800D9267451DA223701F545E846030BDF6EA5
:10188800000120EE06F07351D9267451DA226D005A
:10189800DBFFDFFF20EE07F07351D9267451DA22FF
:1018A8006D00DFFFDFFF20EE08F07351D926745179
:1018B800DA226D00E3FFDFFF20EE09F07351D9262D
:1018C8007451DA226D00E7FFDFFF20EE0AF0735152
:1018D800D9267451DA226D00EBFFDFFF20EE0BF002
:1018E8007351D9267451DA226D00EFFFDFFF20EE25
:1018F8000CF07351D9267451DA226D00F3FFDFFF23
:1019080020EE0DF07351D9267451DA226D00F7FFDD
:10191800DFFF3701F09FD0EF0BF000017551120087
:101928006F00A0F7E3F06F00A0F7E3F0000120EEEE
:1019380001F07051D9267151DA22DF50020F7E6F03
:101948006000C3F1D9FF6000C7F1DAFFDF50726FA2
:101958007251746F736B20EE01F07051D92671517A
:10196800DA22DF50756F75517313000E741320EE71
:1019780032F07051D9267151DA226000CFF1DEFFC2
:101988006000D3F1DDFF010E7D6F09EF0DF07D5191
:10199800020D70C072F071C073F0F3507227F450EA
:1019A8007323010E7225D96E000E7321DA6EDF5093
:1019B800746F7451766F756B7D51776F786BD890B3
:1019C8007737783777517025D96E78517121DA6E6B
:1019D800DF50796F79517513000E76137D51020D22
:1019E80070C07AF071C07BF0F3507A27F4507B23F3
:1019F800320E7A25D96E000E7B21DA6E6000D7F19F
:101A0800DEFF6000DBF1DDFF7D2B7E517D5DD8A020
:101A180010EF0DF012EF0DF0CBEF0CF07E51020D30
:101A280070C072F071C073F0F3507227F4507323D2
:101A3800320E7225D96E000E7321DA6E000EDE6E3C
:101A4800000EDD6E70C060F071C061F0320E70255E
:101A5800626F000E7121636F010E7E25646F656BE6
:101A6800000E65233FEC16F000017E51020D70C098
:101A780072F071C073F0F3507227F4507323320E72
:101A88007225D96E000E7321DA6E600083F1DEFFD5
:101A9800600087F1DDFF7E51020D70C072F071C0E9
:101AA80073F0F3507227F4507323320E7225D96EF7
:101AB800000E7321DA6E7E51746F756BD89074378F
:101AC800753774517025E16E75517121E26E6F00A2
:101AD8007FFFE7FF7E51020D70C072F071C073F096
:101AE800F3507227F4507323010E7225D96E000E3D
:101AF8007321DA6E7E51020D70C074F071C075F0FA
:101B0800F3507427F4507523320E7425E16E000EDD
:101B18007521E26E6F0098FF76F06F0094FF77F002
:101B280077C076F0776B7651DF6E6000C3F1D9FF2E
:101B38006000C7F1DAFFDF50E1EC20F070C060F020
:101B480071C061F0E50E0001626F000E636FE8EC92
:101B58001CF04F0AD8B4B3EF0DF0B5EF0DF0B7EFA6
:101B68000DF0E9EF0DF0010E00017C6FC7EF0DF0ED
:101B78007C517025D96E000E7121DA6EDF50E1ECD0
:101B880020F000017C2B7C51726F736B7E51020D2B
:101B9800010EF326000EF4227251F35CF450800A11
:101BA800746F7351800A7459D8B0DDEF0DF0DFEF10
:101BB8000DF0BCEF0DF070C060F071C061F0E50E83
:101BC800626F000E636FE8EC1CF01200800E8F6EDF
:101BD8008E50E00B800AD8A4F4EF0DF0F6EF0DF06C
:101BE800ECEF0DF0000E916E000E3701006FF00E55
:101BF8000001606F000E616F000E626F000E636F70
:101C0800010E646FBA0E656F370E666FBB0E676F95
:101C1800370E686FB80E696F370E6A6FB90E6B6F43
:101C2800370E6C6FC6EC10F0000E0001606F000EEE
:101C3800616F000E626F000E636F010E646FA20E7B
:101C4800656F370E666FA30E676F370E686FA00E4D
:101C5800696F370E6A6FA10E6B6F370E6C6FC6EC2B
:101C680010F0500E0001606F000E616F000E626F81
:101C7800000E636F010E646FA60E656F370E666FF8
:101C8800A70E676F370E686FA40E696F370E6A6FFD
:101C9800A50E6B6F370E6C6FC6EC10F0F00E0001DE
:101CA800606F000E616F000E626F000E636F010EB1
:101CB800646FBE0E656F370E666FBF0E676F370EA7
:101CC800686FBC0E696F370E6A6FBD0E6B6F370E8B
:101CD8006C6FC6EC10F0500E0001606F000E616F63
:101CE800000E626F000E636F010E646FAA0E656FBF
:101CF800370E666FAB0E676F370E686FA80E696F89
:101D0800370E6A6FA90E6B6F370E6C6FC6EC10F04A
:101D1800500E0001606F000E616F000E626F000EC2
:101D2800636F010E646FAE0E656F370E666FAF0E90
:101D3800676F370E686FAC0E696F370E6A6FAD0E3E
:101D48006B6F370E6C6FC6EC10F0500E0001606FB1
:101D5800000E616F000E626F000E636F010E646FFC
:101D6800B20E656F370E666FB30E676F370E686F0A
:101D7800B00E696F370E6A6FB10E6B6F370E6C6FEE
:101D8800C6EC10F0500E0001606F000E616F000E7F
:101D9800626F000E636F010E646FB60E656F370ECB
:101DA800666FB70E676F370E686FB40E696F370EC0
:101DB8006A6FB50E6B6F370E6C6FC6EC10F00F0EB6
:101DC8003701036F980E046F810E056F000E8F6E3A
:101DD8006F0038FE72F0E00E00017217D8A4F7EF1A
:101DE8000EF0F9EF0EF0ECEF0EF01200ABC073F04E
:101DF800ACC074F019EC0BF00009D8B406EF0FF082
:101E080008EF0FF0D0EF0FF092EF0FF0A9C08AF0B3
:101E1800AAC08BF01E0E8C6F000E8D6F2A0E8E6F6F
:101E2800000E906F000E8F6F500E916F010E926F23
:101E3800000E936F000E946F000E956F000E966F54
:101E4800000E976F000E986F9FEC16F0F1EF0FF0F1
:101E5800A9C08AF0AAC08BF01E0E8C6F000E8D6F81
:101E68002A0E8E6F000E906F000E8F6F510E916FBD
:101E7800010E926F000E936F000E946F000E956F17
:101E8800000E966F000E976F000E986F9FEC16F07D
:101E9800F1EF0FF0A9C08AF0AAC08BF01E0E8C6F6C
:101EA800000E8D6F2A0E8E6F000E906F000E8F6FD2
:101EB800520E916F000E926F000E936F000E946F8A
:101EC800000E956F000E966F000E976F000E986FBC
:101ED8009FEC16F0F1EF0FF0A9C08AF0AAC08BF0C2
:101EE8001E0E8C6F000E8D6F2C0E8E6F000E906F75
:101EF800000E8F6F000E916F000E926F000E936FA1
:101F0800000E946F000E956F000E966F000E976F7F
:101F1800000E986F9FEC16F0F1EF0FF0000120EE25
:101F280001F0AB51D926AC51DA226F0078FFADF041
:101F38006F0078FFAEF06F0078FFAFF06F0078FFAA
:101F4800B0F0B051000AD8B4C9EF0FF070EF0FF03D
:101F5800AE51000AD8B4B7EF0FF0010AD8B4BEEFFB
:101F68000FF070EF0FF0AD51520AD8B44EEF0FF0EA
:101F780070EF0FF0AD51500AD8B40AEF0FF0010A14
:101F8800D8B42CEF0FF070EF0FF0AF51000AD8B4AF
:101F9800ACEF0FF070EF0FF0A9C08AF0AAC08BF079
:101FA8001E0E00018C6F000E8D6F2C0E8E6F000EB2
:101FB800906F000E8F6F000E916F000E926F000EE3
:101FC800936F000E946F000E956F000E966F000EC3
:101FD800976F000E986F9FEC16F012006F00A0F735
:101FE800E3F06F00A0F7E3F0000E0001E56F000ECC
:101FF8006D6F6D516625686F000E6721696F640EFD
:102008006825D96E000E6921DA6E000EDF6E190E92
:102018006D6111EF10F013EF10F027EF10F06D5114
:10202800020D66C068F067C069F0F3506827F45085
:102038006923960E6825D96E000E6921DA6E000EA6
:10204800DE6E000EDD6E6D2B310E6D652EEF10F01D
:1020580030EF10F0FDEF0FF066C060F067C061F080
:10206800E50E626F000E636FE8EC1CF00001686F0C
:1020780020EE64F06651D9266751DA226000A3F198
:10208800DFFFE551D8B44BEF10F04DEF10F051EFF2
:1020980010F02C0EE56FC5EF10F04F0EE1EC20F0BC
:1020A80066C060F067C061F0E50E0001626F000E67
:1020B800636FE8EC1CF00001686F20EE65F0665174
:1020C800D9266751DA226000A3F1DFFFE551D8B4C1
:1020D80070EF10F072EF10F076EF10F0640EE56F0D
:1020E800C5EF10F0020E6C6FA2EF10F066C060F042
:1020F80067C061F0E50E626F000E636FE8EC1CF0DC
:102108000001686F6C516625696F000E67216A6F60
:10211800640E6925D96E000E6A21DA6E6000A3F19B
:10212800DFFFE551D8B49BEF10F09DEF10F0A1EF61
:1021380010F0180EE56FC5EF10F06C2B20EE65F06F
:102148006651D9266751DA22DF50686F6851020D4F
:10215800060EF326000EF4226C51696F6A6BF35079
:10216800695D6A51800A6B6FF450800A6B59D8A078
:10217800C0EF10F0C2EF10F07AEF10F04F0EE1EC64
:1021880020F01200020E00016419D8A4CEEF10F05E
:10219800D0EF10F05EEF11F060009FF1D9FF600002
:1021A800A3F1DAFF600083F1DFFF60C06DF061C06A
:1021B8006EF062C06FF063C070F06EC06DF06FC0FB
:1021C8006EF070C06FF0706B6DC060F06EC061F043
:1021D8006FC062F070C063F0600097F1D9FF6000D3
:1021E8009BF1DAFF600083F1DFFF60C06DF061C032
:1021F8006EF062C06FF063C070F06EC06DF06FC0BB
:102208006EF070C06FF0706B6DC060F06EC061F002
:102218006FC062F070C063F06051030B716F60C0F3
:102228006DF061C06EF062C06FF063C070F0030EB5
:10223800D8906D376E376F377037E82E1CEF11F076
:102248006DC060F06EC061F06FC062F070C063F086
:102258006051E00B7125716F7151080F716F7151E9
:10226800EB0B6000AFF1D9FF6000B3F1DAFFDF6E6E
:1022780060C06DF061C06EF062C06FF063C070F056
:102288006EC06DF06FC06EF070C06FF0706B6DC097
:1022980060F06EC061F06FC062F070C063F0600003
:1022A800A7F1D9FF6000ABF1DAFF600083F1DFFF2F
:1022B80092EF11F0600097F1D9FF60009BF1DAFF0F
:1022C800000EDF6E60009FF1D9FF6000A3F1DAFF16
:1022D800000EDF6E60C06DF061C06EF062C06FF01E
:1022E80063C070F0050ED8906D376E376F37703752
:1022F800E82E77EF11F06DC060F06EC061F06FC02E
:1023080062F070C063F06000AFF1D9FF6000B3F114
:10231800DAFF600083F1DFFF3CEF11F012000001EB
:10232800686F000E00016F6F000E706F000E716F06
:10233800000E726F6251030B6D6F6239E842070B32
:102348006E6F6151646F656BD89064376537D8904C
:1023580064376537D8906437653764C06FF065C0F7
:1023680070F0000E70BFFF0E716F726F6E516F25A7
:102378006F6F000E7021706F000E7121716F000E6B
:102388007221726F6FC064F070C065F071C066F042
:1023980072C067F0020ED8906437653766376737C2
:1023A800E82ECFEF11F064C06FF065C070F066C022
:1023B80071F067C072F06D516F256F6F000E70215C
:1023C800706F000E7121716F000E7221726F6FC0F5
:1023D80065F070C066F071C067F0646B64C06FF040
:1023E80065C070F066C071F067C072F068516F2503
:1023F8006F6F000E7021706F000E7121716F000EEB
:102408007221726F6FC065F070C066F071C067F0BE
:10241800646B64C06FF065C070F066C071F067C02F
:1024280072F060516F256F6F000E7021706F000E93
:102438007121716F000E7221726F6FC069F070C0E8
:102448006AF071C06BF072C06CF069C060F06AC06D
:1024580061F06BC062F06CC063F01200000E000106
:10246800616F000E606FC2EC20F0A50AD8B43FEF90
:1024780012F041EF12F077EF12F0000E0001616FD9
:10248800000E606FA50E626F0EEC1FF0000E0001CB
:10249800616F010E606F640E626F0EEC1FF0000E2C
:1024A8000001616F020E606F900E626F0EEC1FF0FC
:1024B800000E0001616F030E606F530E626F0EEC29
:1024C8001FF0000E0001616F040E606F030E626F53
:1024D8000EEC1FF0000E0001616F050E606F000E1C
:1024E800626F0EEC1FF0000E0001616F000E606F4E
:1024F800C2EC20F0600093F1D9FF600097F1DAFF99
:10250800DF6E000120EE01F06451D9266551DA2210
:10251800000E616F010E606FC2EC20F0DF6E0001EB
:1025280020EE02F06451D9266551DA22000E616F5F
:10253800020E606FC2EC20F0DF6E000120EE03F0A7
:102548006451D9266551DA22000E616F030E606F5F
:10255800C2EC20F0DF6E000120EE04F06451D926B1
:102568006551DA22000E616F040E606FC2EC20F034
:10257800DF6E000120EE05F06451D9266551DA229C
:10258800000E616F050E606FC2EC20F0DF6E120066
:10259800740E0001606F000E616FFDEC20F060C0EA
:1025A80087F061C088F0000187518811D8B4DFEF47
:1025B80012F0E1EF12F006EF13F0740E606F000EE8
:1025C800616F000E636F000E626FEFEC20F087C042
:1025D80061F088C062F020EE74F000EE63F00E0E39
:1025E8006F006FFFEBFFE806FBE283C072F020ECA0
:1025F8001BF0600013F2D9FF600017F2DAFFDF6EFC
:1026080048EF13F0835134EC21F0600084FF86F02A
:10261800010E00018625606F616B000E6123000EBC
:10262800636F140E626FB3EC17F000016051896F8D
:1026380020EEE2F38951DE18D8A425EF13F027EF36
:1026480013F02DEF13F0835127EC21F0000E49EF22
:1026580013F020EE74F0600084FF86F086510F0DB1
:10266800B50EF324E16E020EF420E26E0E0E6F003A
:102678006FFFE3FFE806FBE220EEE1F3600027F2DC
:10268800DFFF835127EC21F0010E1200150E016EB9
:10269800000E026E4EEC21F001C028F002C029F0B5
:1026A80028502910D8B45BEF13F05DEF13F082EFD8
:1026B80013F0150E016E000E026E000E046E000E71
:1026C800036E41EC21F028C002F029C003F020EE8F
:1026D80015F000EE04F00E0E6F006FFFEBFFE8063A
:1026E800FBE224C013F0A9EC1BF0600097F0D9FFBF
:1026F80060009BF0DAFFDF6EC2EF13F024507DEC30
:1027080021F0600084FF27F0010E2724016E026A81
:10271800000E0222000E046E140E036E0CEC18F06C
:1027280001502A6E20EEE2F32A50DE18D8A49FEF5B
:1027380013F0A1EF13F0A7EF13F0245072EC21F07F
:10274800000EC3EF13F020EE15F0600084FF27F0B1
:1027580027500F0DB50EF324E16E020EF420E26E41
:102768000E0E6F006FFFE3FFE806FBE220EEE1F3D9
:102778006000ABF0DFFF245072EC21F0010E120074
:10278800000120EE08F08751D9268851DA22DF505F
:10279800896F89C08AF08B6B8C6B8D6B8CC08DF0C8
:1027A8008BC08CF08AC08BF08A6B20EE07F08751C3
:1027B800D9268851DA22DF508E6F8EC08FF0906B49
:1027C800916B926B90C092F08FC091F0906B8F6B71
:1027D80020EE06F08751D9268851DA22DF50936F10
:1027E80093C094F0956B966B976B94C097F0966B2B
:1027F800956B946B8F519425986F90519521996F93
:10280800915196219A6F925197219B6F8A519825E1
:102818009C6F8B5199219D6F8C519A219E6F8D5180
:102828009B219F6F20EE09F08751D9268851DA2223
:10283800DF50A06FA0519C25A16F000E9D21A26FB3
:10284800000E9E21A36F000E9F21A46FB9EC21F00A
:1028580060C07FF061C080F0A1C081F0A2C082F0AA
:10286800A3C083F0A4C084F0FDEC16F01200000EA3
:102878000001696F000E686F68C060F069C061F0A0
:10288800000E636F0F0E626F4AEC20F0B50E000168
:102898006025666F020E6121676FBDEC1DF00001B7
:1028A800684B692B69BF62EF14F0695109E1140E96
:1028B800685DD8A062EF14F064EF14F040EF14F0F4
:1028C800000E696F000E686F68C060F069C061F043
:1028D800000E636F110E626F4AEC20F0E90E0001E2
:1028E8006025D96E010E6121DA6E000EDE6E000ED3
:1028F800DD6E68C060F069C061F0000E636F110E94
:10290800626F4AEC20F0EB0E00016025666F010E45
:102918006121676FBDEC1DF00001684B692B69BF31
:102928009FEF14F0695109E10C0E685DD8A09FEF84
:1029380014F0A1EF14F068EF14F0000E6F00A0FF80
:10294800E1F3000E6F00A0FFE2F31200000E2E6EFE
:102958002E50110DEB0EF324D96E010EF420DA6E11
:10296800DF50D8B4BAEF14F0BCEF14F00CEF15F048
:102978002E50110DE90EF324D96E010EF420DA6EF3
:102988000A0EDE5E000EDD5A2E50110DE90EF324FC
:10299800D96E010EF420DA6EDE50DE10D8A4D7EF1F
:1029A80014F0D9EF14F00CEF15F02E50110DEB0EBA
:1029B800F324D96E010EF420DA6E00EE15F00E0E37
:1029C8006F006FFFEBFFE806FBE2010E246E2D0E91
:1029D800256E000E266E4AEC13F0E806D8A4F7EF31
:1029E80014F0F9EF14F000EF15F0010E036E2E50FD
:1029F800DFEC1FF00CEF15F02E50110DE90EF3244B
:102A0800D96E010EF420DA6E010EDE6E000EDD6E58
:102A18002E2A0B0E2E6413EF15F015EF15F0ACEF00
:102A280014F012006000FFF1D9FF600003F2DAFF32
:102A3800100EDF6E000120EE01F07F51D926805183
:102A4800DA22010EDF6E20EE02F07F51D926805186
:102A5800DA22640EDF6E20EE03F07F51D926805112
:102A6800DA22600EDF6E20EE04F07F51D926805105
:102A7800DA22000EDF6E20EE05F07F51D926805154
:102A8800DA22010EDF6E7FC070F080C071F094EC26
:102A98000CF07FC066F080C067F0F2EC0FF0000128
:102AA80020EE6AF07F51D9268051DA22DF50836FF9
:102AB80020EE6BF07F51D9268051DA22DF50846FE7
:102AC80020EE6CF07F51D9268051DA22DF50856FD5
:102AD80020EE6DF07F51D9268051DA22DF50866FC3
:102AE80083C07FF084C080F085C081F086C082F00A
:102AF80012006000FFF1D9FF600003F2DAFF100E48
:102B0800DF6E000120EE01F07F51D9268051DA22D4
:102B1800010EDF6E20EE02F07F51D9268051DA22B5
:102B2800410EDF6E20EE03F07F51D9268051DA2264
:102B3800600EDF6E20EE04F07F51D9268051DA2234
:102B4800000EDF6E20EE05F07F51D9268051DA2283
:102B5800010EDF6E7FC070F080C071F094EC0CF055
:102B68007FC066F080C067F0F2EC0FF0000120EE45
:102B78006AF07F51D9268051DA22DF50816F20EE2A
:102B88006BF07F51D9268051DA22DF50826FE551F0
:102B9800D8B4D1EF15F0D3EF15F0D9EF15F0EE0E4C
:102BA800806FEE0E7F6FDDEF15F081C07FF082C081
:102BB80080F01200000E0001646FE9EF15F0000EBE
:102BC800CCB6010E646F24EF16F0600083F1D9FFD4
:102BD800600087F1DAFFDF50626F636B6351000AB0
:102BE800D8B4F9EF15F024EF16F06251010AD8B401
:102BF800E3EF15F0030AD8B424EF16F0010AD8B4AD
:102C080024EF16F0070AD8B424EF16F0010AD8B456
:102C180024EF16F0030AD8B424EF16F0010AD8B44A
:102C280024EF16F00F0AD8B424EF16F0010AD8B42E
:102C380024EF16F0030AD8B424EF16F024EF16F0A8
:102C480020EE01F06051D9266151DA22DE04D8A4C1
:102C580030EF16F032EF16F03DEF16F06451D8B4AD
:102C680038EF16F03BEF16F0010E3CEF16F0000EB1
:102C7800646F64511200000E00016F6F000E6E6FDA
:102C88008DEF16F0800E6D6F000E6C6F60008BF18B
:102C9800D9FF60008FF1DAFF6F0078FF68F06F00EE
:102CA80074FF69F0020E6227000E6323000E6E1592
:102CB8006A6F800E6F156B6FD8906E376F376C51D7
:102CC8006815666F6D516915676F66516711D8B4DD
:102CD80070EF16F072EF16F074EF16F06E4B6F2B64
:102CE8006A516B11D8B47BEF16F07DEF16F081EFC7
:102CF80016F0210E6E1B100E6F1BD8906D336C33BF
:102D08006C516D11D8A48BEF16F08DEF16F05AEFB9
:102D180016F06407D8A06507642906E16529D8A4D8
:102D280098EF16F09AEF16F046EF16F06EC060F0C6
:102D38006FC061F012000C0E0001996F9A0E666F59
:102D4800000E676FBDEC1DF09A0E0001606F000E5B
:102D5800616F8AC062F08BC063F00BEC21F09A0EB1
:102D68000001606F000E616F8CC062F08DC063F06F
:102D780019EC21F09A0E0001606F000E616F8EC091
:102D880062F088EC21F09A0E0001606F000E616F0E
:102D98008FC062F090C063F0EFEC20F09A0E000153
:102DA800606F000E616F91C062F092C063F093C0D3
:102DB80064F094C065F095C066F096C067F097C05F
:102DC80068F098C069F0A0EC1FF020EE9AF000EED1
:102DD80074F00E0E6F006FFFEBFFE806FBE2000ECB
:102DE8000001836F990E846F000E856FCCEC12F092
:102DF80012006000FFF1D9FF600003F2DAFF110E44
:102E0800DF6E000120EE01F07F51D9268051DA22D1
:102E1800030EDF6E20EE02F07F51D9268051DA22B0
:102E2800620EDF6E20EE03F07F51D9268051DA2240
:102E3800200EDF6E20EE04F07F51D9268051DA2271
:102E4800000EDF6E20EE05F07F51D9268051DA2280
:102E5800010EDF6E20EE06F07F51D9268051DA226E
:102E6800600007F2DFFF20EE07F07F51D92680517E
:102E7800DA2260000BF2DFFF20EE08F07F51D9263E
:102E88008051DA2260000FF2DFFF20EE09F07F5157
:102E9800D9268051DA22600013F2DFFF7FC070F07C
:102EA80080C071F094EC0CF012000001776F000EF6
:102EB8000001786F000E7B6F000E7C6F000E796F3B
:102EC800000E7A6F775134EC21F020EEE2F310EE29
:102ED800E1F3DE50E618D8A474EF17F076EF17F098
:102EE80086EF17F00001775127EC21F020EE78F0FB
:102EF80000EE66F00E0E6F006FFFEBFFE806FBE2D8
:102F0800B2EF17F0600088FF75F0000175510F0DE2
:102F1800B50EF324D96E020EF420DA6E10EE78F0B6
:102F28000E0E6F006FFFE3FFE806FBE2600088FF0C
:102F380075F0010E7525606F616B000E6123000E40
:102F4800636F140E626FB3EC17F00001600080F13C
:102F5800E2F3775127EC21F07AEF17F01200000E18
:102F68000001656F61BFBDEF17F0BBEF17F0C3EF4E
:102F780017F0606D611FD8B0612B010E656F63BFDC
:102F8800CAEF17F0C8EF17F0CEEF17F0626D631FA6
:102F9800D8B0632B62516311D8B4D5EF17F0D7EFCF
:102FA80017F0FBEF17F0010E646FDFEF17F0D89002
:102FB80062376337642B63AFE4EF17F0E6EF17F07F
:102FC800DBEF17F06251605D63516159D8A0EFEFF4
:102FD80017F0F1EF17F0F5EF17F06251605F6351EA
:102FE800615BD89063336233642FE6EF17F0655165
:102FF800D8B401EF18F003EF18F007EF18F0606D80
:10300800611FD8B0612B60C060F061C061F0120030
:10301800000E066E02BE15EF18F013EF18F01BEF46
:1030280018F0016C021ED8B0022A010E066E04BE0A
:1030380022EF18F020EF18F026EF18F0036C041EAA
:10304800D8B0042A03500410D8B42DEF18F02FEF8D
:1030580018F053EF18F0010E056E37EF18F0D890FE
:1030680003360436052A04AE3CEF18F03EEF18F09C
:1030780033EF18F00350015C04500258D8A047EF12
:1030880018F049EF18F04DEF18F00350015E0450A6
:10309800025AD89004320332052E3EEF18F006503B
:1030A800D8B459EF18F05BEF18F05FEF18F0016C27
:1030B800021ED8B0022A01C001F002C002F01200BC
:1030C800BFEC21F060C062F061C063F0010E000146
:1030D800646F92EC21F0BFEC21F060C066F061C033
:1030E80067F0ACEC21F0CBEC21F060C062F061C07D
:1030F80063F0010E0001646F010E656F75EC20F03E
:10310800CBEC21F060C062F061C063F0F6EC21F016
:10311800D1EC21F060C062F061C063F0CBEC21F02B
:1031280060C064F061C065F0EFEC1DF0D7EC21F0F1
:1031380060C062F061C063F0F7EC21F0C5EC21F0EB
:1031480060C062F061C063F07EEC1FF0B3EC21F068
:1031580060C064F061C065F032EC12F0B9EC21F0A7
:1031680060C062F061C063F0BBEC18F01200310E71
:1031780000016665C2EF18F0C4EF18F0C6EF18F04A
:103188000FEF19F066516225646F000E6321656FB9
:10319800640E6425D96E000E6521DA6E000EDF6EAE
:1031A80066516225D96E000E6321DA6E000EDF6E5D
:1031B800190E6661E2EF18F0E4EF18F00CEF19F061
:1031C8006651020D62C064F063C065F0F350642775
:1031D800F4506523960E6425D96E000E6521DA6ECB
:1031E800000EDE6E000EDD6E6651020D62C064F0E8
:1031F80063C065F0F3506427F4506523320E6425EC
:10320800D96E000E6521DA6E000EDE6E000EDD6EE0
:10321800662BBBEF18F012003901A3A716EF19F0BF
:1032280018EF19F010EF19F0000E0001E46F3D01DE
:10323800F9A721EF19F023EF19F032EF19F0000187
:10324800E48302D832EF19F00500FA6EE151FD6E01
:10325800E251FE6EF850FF6EFA5012003D01F9A3DC
:1032680038EF19F03AEF19F049EF19F00001E48549
:1032780002D849EF19F00500FA6EDF51FD6EE051F2
:10328800FE6EF850FF6EFA5012000001E451D8B4F7
:1032980050EF19F052EF19F05FEF19F002D85FEF15
:1032A80019F00500FA6EDD51FD6EDE51FE6EF85024
:1032B800FF6EFA5012003D01E8511200B3EC21F004
:1032C80060C064F061C065F0020E0001666F20EE18
:1032D80009F06A51D9266B51DA22DF50676FFDEC8D
:1032E8001FF0B3EC21F060C064F061C065F0030E1C
:1032F8000001666F20EE08F06A51D9266B51DA2278
:10330800DF50676FFDEC1FF0B3EC21F060C064F094
:1033180061C065F0040E0001666F20EE07F06A5187
:10332800D9266B51DA22DF50676FFDEC1FF0B3EC42
:1033380021F060C064F061C065F0050E0001666FA1
:1033480020EE06F06A51D9266B51DA22DF50676FFA
:10335800FDEC1FF01200B3EC21F060C062F061C018
:1033680063F0010E0001646F60EC20F00009D8B42E
:10337800C0EF19F0C2EF19F0F9EF19F0000120EED3
:1033880003F07B51D9267C51DA221F0EDE6E050E22
:10339800DE6E000EDE6E000EDD6E20EE07F07B5155
:1033A800D9267C51DA22020EDF6E20EE08F07B511E
:1033B800D9267C51DA22AA0EDF6E20EE09F07B5165
:1033C800D9267C51DA22BB0EDF6E20EE10F07B513D
:1033D800D9267C51DA22000EDF6E020E7B25726F31
:1033E800000E7C21736F00EC07F01200010E000143
:1033F8007D6F110E7E6F050E7F6F000E806F000EC1
:10340800816F040E826FB3EC21F060C062F061C07E
:1034180063F0050E0001646F60EC20F00001836F1B
:10342800B3EC21F060C062F061C063F0040E0001EB
:10343800646F60EC20F00001846FB3EC21F060C091
:1034480062F061C063F0030E0001646F60EC20F06D
:103458000001856FB3EC21F060C062F061C063F0D9
:10346800020E0001646F60EC20F00001866F000E10
:103478008B6F7D0E726F000E736F00EC07F01200F9
:10348800A9C08AF0AAC08BF06A0E00018C6F090EE1
:103498008D6F0A0E8E6F000E906F000E8F6F000EEC
:1034A800916F000E926F000E936F000E946F000ED6
:1034B800956F000E966F000E976F000E986F9FEC39
:1034C80016F0000120EE01F0A951D926AA51DA22FE
:1034D8006F0078FF60F06F0074FF61F0DEEC15F0AC
:1034E800E806D8B47AEF1AF07CEF1AF081EF1AF0F8
:1034F800040E0001AB6F84EF1AF0030E0001AB6FEE
:1035080020EE03F0A951D926AA51DA226000AFF2C1
:10351800DFFF12006000FFF1D9FF600003F2DAFF5D
:10352800110EDF6E000120EE01F07F51D926805187
:10353800DA22020EDF6E20EE02F07F51D92680518A
:10354800DA22600EDF6E20EE03F07F51D92680511B
:10355800DA22600EDF6E20EE04F07F51D92680510A
:10356800DA22000EDF6E20EE05F07F51D926805159
:10357800DA22010EDF6E20EE06F07F51D926805147
:10358800DA22600007F2DFFF20EE07F07F51D9262C
:103598008051DA22000EDF6E7FC070F080C071F0BB
:1035A80094EC0CF012006000FFF1D9FF600003F208
:1035B800DAFF110EDF6E000120EE01F07F51D926EF
:1035C8008051DA22020EDF6E20EE02F07F51D926FA
:1035D8008051DA22400EDF6E20EE03F07F51D926AB
:1035E8008051DA22600EDF6E20EE04F07F51D9267A
:1035F8008051DA22000EDF6E20EE05F07F51D926C9
:103608008051DA22010EDF6E20EE06F07F51D926B6
:103618008051DA22600007F2DFFF20EE07F07F51C9
:10362800D9268051DA228251DF6E7FC070F080C0C7
:1036380071F094EC0CF012000001725134EC21F09E
:10364800000E0001736F7351110DEB0EF324D96E48
:10365800010EF420DA6EDF50D8A435EF1BF037EFF7
:103668001BF057EF1BF07351110DE90EF324D96EBF
:10367800010EF420DA6E600087F1DEFF60008BF146
:10368800DDFF20EE63F07351110DEB0EF324E16EB4
:10369800010EF420E26E0E0E6F006FFFE3FFE806E6
:1036A800FBE260EF1BF0732B0B0E73655EEF1BF0F4
:1036B80060EF1BF027EF1BF0725127EC21F000019F
:1036C80073511200A9C08AF0AAC08BF01E0E000127
:1036D8008C6F000E8D6F2F0E8E6F000E906F000E88
:1036E8008F6F000E916F000E926F000E936F000E99
:1036F800946F000E956F000E966F000E976F000E78
:10370800986F9FEC16F0A9C08AF0AAC08BF01E0E25
:1037180000018C6F000E8D6F280E8E6F000E906F5B
:10372800000E8F6F000E916F000E926F000E936F58
:10373800000E946F000E956F000E966F000E976F37
:10374800000E986F9FEC16F0120013507DEC21F0DC
:10375800000E146E1450110DEB0EF324D96E010EE9
:10376800F420DA6EDF50D8A4BCEF1BF0BEEF1BF0DC
:10377800DEEF1BF01450110DE90EF324D96E010E83
:10378800F420DA6E60000BF0DEFF60000FF0DDFF62
:1037980020EE04F01450110DEB0EF324E16E010E2F
:1037A800F420E26E0E0E6F006FFFE3FFE806FBE207
:1037B800E7EF1BF0142A0B0E1464E5EF1BF0E7EF9C
:1037C8001BF0AEEF1BF0135072EC21F014501200F6
:1037D800F1EF1BF0BB822DEF1CF060008BF1D9FFDD
:1037E80060008FF1DAFFDF500001646F656B65518F
:1037F800000AD8B402EF1CF02DEF1CF06451010A46
:10380800D8B4EEEF1BF0030AD8B42DEF1CF0010A70
:10381800D8B42DEF1CF0070AD8B42DEF1CF0010A1C
:10382800D8B42DEF1CF0030AD8B42DEF1CF0010A10
:10383800D8B42DEF1CF00F0AD8B42DEF1CF0010AF4
:10384800D8B42DEF1CF0030AD8B42DEF1CF02DEFDF
:103858001CF0120033EF1CF0BB926FEF1CF06000FD
:103868008BF1D9FF60008FF1DAFFDF500001646F40
:10387800656B6551000AD8B444EF1CF06FEF1CF07B
:103888006451010AD8B430EF1CF0030AD8B46FEFC2
:103898001CF0010AD8B46FEF1CF0070AD8B46FEF18
:1038A8001CF0010AD8B46FEF1CF0030AD8B46FEF0C
:1038B8001CF0010AD8B46FEF1CF00F0AD8B46FEFF0
:1038C8001CF0010AD8B46FEF1CF0030AD8B46FEFEC
:1038D8001CF06FEF1CF012000001666F00016651CA
:1038E800646F656BD89064376537D89064376537EF
:1038F800D8906437653764C06BF065C06CF0000E13
:103908006CBFFF0E6D6F6E6F60C064F0050E656F63
:10391800D8906433652F8CEF1CF064516B256B6F66
:10392800000E6C216C6F000E6D216D6F000E6E2104
:103938006E6F6BC067F06CC068F06DC069F06EC0E8
:103948006AF067C060F068C061F069C062F06AC080
:1039580063F01200000E59EC17F020EECCF00E0EBA
:103968006F00AFFFDBFFE806FBE20001CC51D8B4E3
:10397800C0EF1CF0C2EF1CF0E7EF1CF0CF51D011E4
:10398800D8B4C9EF1CF0CBEF1CF0E7EF1CF0CD5119
:10399800CE11D8B4D2EF1CF0D4EF1CF0E7EF1CF036
:1039A800CC0EBB6F000EBC6F20EECDF002D8E7EF57
:1039B8001CF00500FA6EDE50FD6EDE50FE6EF8500B
:1039C800FF6EFA5012001200000E0001656F000E23
:1039D800646F60008BF1D9FF60008FF1DAFF000E91
:1039E800DF6E14EF1DF0350EE82EFED700F0000153
:1039F800644B652B210E645D4E0E6559D8A007EF08
:103A08001DF009EF1DF014EF1DF060008BF1D9FFD8
:103A180060008FF1DAFFFF0EDF6EEE0E20EF1DF073
:103A280067EC21F00009D8B41CEF1DF01EEF1DF063
:103A3800F7EF1CF010EC19F01200000E3D01EC6FCE
:103A4800000EED6F000EEE6F000EEF6F000EF06FC0
:103A5800000EF16FB00EF26F800EF36F000EF46F70
:103A68008A0EF56F000EF66F000EF76F000EF86FF6
:103A7800000EF96F000EFA6FE80E0001606F430E3A
:103A8800616FE2EC21F0E60E0001606F430E616F9A
:103A9800DDEC21F0EA0E0001606F430E616FE7EC88
:103AA80021F0000E0001E46F1200BBB05EEF1DF0C4
:103AB80061EF1DF0010E62EF1DF0000EFF0A00011C
:103AC800A96FBB50A919FE0BA919BB6E000E8A6F0E
:103AD800010E8B6FB20E8C6F3A0E8D6F0B0E8E6FC0
:103AE800030E906FE80E8F6F000E916F000E926FAD
:103AF800000E936F000E946F000E956F000E966F78
:103B0800000E976F000E986F9FEC16F01200D1EC24
:103B180021F060C0A9F061C0AAF044EC1AF0C5EC2D
:103B280021F060C0A9F061C0AAF066EC1BF0000E9D
:103B380000018A6F010E8B6FB20E8C6F3A0E8D6F7B
:103B48000B0E8E6F030E906FE80E8F6F000E916F45
:103B5800000E926F000E936F000E946F000E956F1B
:103B6800000E966F000E976F000E986F9FEC16F080
:103B7800120060009BF1D9FF60009FF1DAFF000E90
:103B8800DF6E000120EE05F06651D9266751DA2272
:103B9800000EDE6E000EDD6E20EE03F06651D926B3
:103BA8006751DA22000EDE6E000EDD6E20EE07F0A1
:103BB8006651D9266751DA22070EDE6AE806FDE269
:103BC80020EE01F06651D9266751DA22000EDE6E2A
:103BD800000EDD6E120060008BF1D9FF60008FF1DE
:103BE800DAFF000EDF6E000120EE01F06251D926E7
:103BF8006351DA22600093F1DEFF600097F1DDFF88
:103C080020EE03F06251D9266351DA22000EDF6EEE
:103C180020EE06F06251D9266351DA22000EDE6EDC
:103C2800000EDD6E20EE04F06251D9266351DA22CF
:103C3800000EDE6E000EDD6E1200600007F0D9FF88
:103C480060000BF0DAFF000EDF6E20EE05F0015089
:103C5800D9260250DA22000EDE6E000EDD6E20EE4E
:103C680003F00150D9260250DA22000EDE6E000E53
:103C7800DD6E20EE07F00150D9260250DA22070E39
:103C8800DE6AE806FDE220EE01F00150D926025076
:103C9800DA22000EDE6E000EDD6E1200000120EE4C
:103CA80007F06051D9266151DA226F0078FF68F079
:103CB8006F0078FF69F06F0078FF6AF06F0078FF97
:103CC8006BF06F0078FF6CF06F0078FF6DF06F009D
:103CD80078FF6EF06F0078FF6FF068C060F069C021
:103CE80061F06AC062F06BC063F06CC064F06DC0D4
:103CF80065F06EC066F06FC067F01200000EBA6E15
:103D0800000EBB6E000EBC6EC268F80EC36EDF0EEE
:103D1800C46EA70E3A01606FF40E506F4069000E32
:103D2800816F000E516F800E416F000E616F000EA3
:103D3800426F000E526F000E626F436953696369E8
:103D4800446954696469080E846F330E0A6F0B0E58
:103D5800ED6F130E156F160EE76F1200B9EC21F018
:103D680060C07FF061C080F016EC15F07FC089F06C
:103D780080C08AF081C08BF082C08CF0010E0001F7
:103D88008D6F120E8E6F050E8F6F000E906F000EE6
:103D9800916F040E926F89C096F08AC095F08BC01F
:103DA80094F08CC093F0000E9B6F8D0E726F000E16
:103DB800736F00EC07F012006F00E8FF2FF06F0040
:103DC800ECFF30F0390195ADECEF1EF0EEEF1EF090
:103DD800F7EF1EF0A5ADF3EF1EF0F5EF1EF0F7EFCD
:103DE8001EF007EF1FF093AFFCEF1EF0FEEF1EF082
:103DF80007EF1FF0A3AF03EF1FF005EF1FF007EF6A
:103E08001FF031EC20F06000C3F0FBFF6000BFF052
:103E1800FAFF1100000ED2BE010E0001636F61515E
:103E2800030B3901E16F600083F1E0F960008BF169
:103E3800E3F93F0EE517E585D29E550EE66FAA0E0B
:103E4800E66FE583E5B32BEF1FF02DEF1FF026EFAC
:103E58001FF0E595000163B102D0D29E01D0D28E49
:103E68001200D2EC20F0520E0001DC6F2B0EDB6F3B
:103E7800000EE82EFED7DB2FFCD7DC2FFAD700F098
:103E8800D28E3BEC14F064EC18F089EC20F08BEC4B
:103E98001DF0540E0001606F290E616FECEC21F0EB
:103EA800AEEC1CF054EF1FF00DEF00F000016805B8
:103EB800D8A461EF1FF063EF1FF07DEF1FF0695189
:103EC800D8B469EF1FF06BEF1FF075EF1FF0BFEC70
:103ED80021F060C062F061C063F0ECEC1BF07DEF94
:103EE8001FF0BFEC21F060C062F061C063F02EECFF
:103EF8001CF0120060008BF1D9FF60008FF1DAFF2F
:103F08000A0EDF6E000120EE01F06251D9266351DE
:103F1800DA221E0EDF6E20EE02F06251D9266351BE
:103F2800DA22010EDF6E20EE10F06251D9266351BD
:103F3800DA22000EDF6E1200000120EE07F0605159
:103F4800D9266151DA2260008BF1DEFF60008FF123
:103F5800DEFF600093F1DEFF600097F1DEFF600096
:103F68009BF1DEFF60009FF1DEFF6000A3F1DEFF42
:103F78006000A7F1DEFF120000EEE9F110EEFAF1A1
:103F8800EE6AE550E150FCE1E250FAE100EE00F1A2
:103F9800E90EEE6AE806FDE10001E56BE46BE36B10
:103FA800080ED56E000ED66E000ED76E000EF86E97
:103FB800000135EF1FF0046E03507DEC21F0045032
:103FC800110DE90EF324D96E010EF420DA6E000EFD
:103FD800DE6E000EDD6E0450110DEB0EF324016E43
:103FE800010EF420026E21EC1EF0035072EC21F059
:103FF8001200050E0001666104EF20F006EF20F0C4
:1040080016EF20F066516425D96E000E6521DA6E30
:1040180060009FF1DFFF66C060F0616B67C062F00F
:104028000EEC1FF01200000120EE06F06251D926B6
:104038006351DA22600093F1DEFF600097F1DDFF43
:1040480020EE04F06251D9266351DA2260009BF118
:10405800DEFF60009FF1DDFF12003901A39F3150A0
:104068003210D8B43AEF20F03CEF20F049EF20F0BE
:1040780002D849EF20F00500FA6E3150FD6E32503B
:10408800FE6EF850FF6EFA501200120000016051E7
:1040980062036F00CCFF64F06F00D0FF65F06051E1
:1040A8006303F350652761516203F350652764C0C9
:1040B80060F065C061F01200000E0001656F050E2A
:1040C800646169EF20F06BEF20F073EF20F064512A
:1040D8006225D96E000E6321DA6EDF50656F655177
:1040E800120060008BF1D9FF60008FF1DAFF6000E9
:1040F80093F1DFFF000120EE01F06251D9266351F0
:10410800DA22600097F1DFFF1200D1EC21F060C0E5
:1041180062F061C063F0D7EC21F060C064F061C068
:1041280065F0B40E0001666F3E0E676F17EC20F065
:104138001200460EB96EF90EB76E000EB66E390152
:10414800A39F938FF00E0001606F430E616FECEC3C
:1041580021F0890EB86E1200000E3901C06F000EF2
:10416800C16F000EC26F000EC36F000EC46F000E49
:10417800C56F000EC66F000EC76F120000016151B7
:10418800030B3901E16F600083F1E0F93F0EE51799
:10419800E58100F000F03901E3511200F1EC21F063
:1041A800B0EC20F082EC1EF05BEC21F09DEC20F0EE
:1041B80021EC1DF0EAEC0DF012000001606F3901EE
:1041C800A3A9E9EF20F0EBEF20F0E3EF20F0600087
:1041D80083F1EAFD1200000120EE05F06051D926B6
:1041E8006151DA2260008BF1DEFF60008FF1DDFFA4
:1041F8001200000120EE05F06051D9266151DA2243
:104208006F0078FF60F06F0074FF61F0120000012A
:1042180020EE03F06051D9266151DA2260008BF15B
:10422800DEFF60008FF1DDFF1200000120EE01F0DB
:104238006051D9266151DA2260008BF1DEFF6000FF
:104248008FF1DDFF12000001606F00016051D8A4FA
:1042580030EF21F032EF21F033EF21F0D28E12004F
:104268000001606F00016051D8A43DEF21F03FEFDD
:1042780021F040EF21F0D29E120020EE05F001500F
:10428800D9260250DA2260000FF0DEFF600013F03A
:10429800DDFF120020EE05F00150D9260250DA2287
:1042A8006F0078FF01F06F0074FF02F01200600EDB
:1042B8003901D96F000EDB6F000EDD6F080EDF6F5E
:1042C800000EDE6F12003901A3B76DEF21F070EF19
:1042D80021F0010E71EF21F0000E1200016E015065
:1042E800D8A479EF21F07BEF21F07CEF21F0D28E7A
:1042F8001200016E0150D8A484EF21F086EF21F05E
:1043080087EF21F0D29E1200600083F1D9FF600090
:1043180087F1DAFF60008BF1DFFF120060008BF19C
:10432800D9FF60008FF1DAFF600093F1DFFF120020
:10433800600083F1D9FF600087F1DAFFDF501200D7
:10434800600083F1D9FF600087F1DAFFDF501200C7
:1043580066C062F067C063F02EEC1CF012001C0E01
:104368000001606F010E616F1200210E0001606F85
:10437800010E616F1200000E0001606F010E616F87
:1043880012000B0E0001606F010E616F1200010E2A
:104398000001606F010E616F1200030E0001606F73
:1043A800010E616F12000B0E0001606F010E616F4C
:1043B800120060C0DFF061C0E0F0120060C0E1F000
:1043C80061C0E2F0120060C0DDF061C0DEF01200F2
:1043D80060C031F061C032F01200D29A12001200AF
:0A43E8001200120012001200120071
:020000040020DA
:10000000FF0FFF0FFF0FFF0FFF0FFF0FFF0FFF0F80
:020000040030CA
:0A0000008CFFF7FF9FFFFFFFFFFFDB
:00000001FF
