:040000000DEF00F010
:0400080066EF1FF090
:10001800FF0026EF20F0000120EE03F0C351D9269F
:10002800C451DA226F0078FFD2F06F0074FFD3F06A
:10003800000ECF6F60004BF3D9FF60004FF3DAFF7B
:10004800DF50CD6F20EE01F0D251D926D351DA22FC
:10005800DF50CE6F3AEC22F060C062F061C063F00E
:10006800010E0001646FE7EC20F00001C56FC55177
:10007800D06FD16B8BEF00F0C3C060F0C4C061F0EB
:1000880023EC22F02F0AD8A44CEF00F04EEF00F03A
:10009800AAEF00F0000120EE01F0D251D926D35189
:1000A800DA221F0EDF6EAAEF00F0C3C060F0C4C0F2
:1000B80061F023EC22F0300AD8A465EF00F067EF76
:1000C80000F0AAEF00F0000120EE01F0D251D9268D
:1000D800D351DA22200EDF6EAAEF00F0C3C060F021
:1000E800C4C061F023EC22F0310AD8A47EEF00F0FE
:1000F80080EF00F0AAEF00F0000120EE01F0D251ED
:10010800D926D351DA221F0EDF6EAAEF00F020EEB7
:1001180001F0D251D926D351DA22DF50C56FC66B10
:10012800C651000AD8B49BEF00F0AAEF00F0C55101
:100138001E0AD8B440EF00F0010AD8B459EF00F015
:100148003F0AD8B472EF00F0AAEF00F0000120EEE9
:1001580001F0D251D926D351DA22CE51DE18D8B4C3
:10016800B8EF00F0BAEF00F03CEF01F0010ECF6FEE
:100178001DEF01F0D2C08AF0D3C08BF01E0E8C6F39
:10018800000E8D6F300E8E6FD0C060F0D1C061F060
:10019800000E636F0A0E626FD1EC20F060C08FF022
:1001A80061C090F0000E0001916F000E926F000E7A
:1001B800936F000E946F000E956F000E966F000EF1
:1001C800976F000E986F16EC17F03CEF01F0D051C6
:1001D800D111D8B4F2EF00F0F4EF00F0FAEF00F02C
:1001E800D2C083F0D3C084F0D0EC17F0D2C08AF02C
:1001F800D3C08BF01E0E00018C6F000E8D6F310E78
:100208008E6F000E906F320E8F6F000E916F000E82
:10021800926F000E936F000E946F000E956F000E94
:10022800966F000E976F000E986F16EC17F03CEF64
:1002380001F020EE01F0D251D926D351DA22DF5055
:10024800C56FC66BC651000AD8B42DEF01F03CEF5C
:1002580001F0C5511E0AD8B43CEF01F0010AD8B428
:10026800BEEF00F03F0AD8B4EBEF00F03CEF01F02E
:100278000001CF51D8A443EF01F045EF01F0B4EFEE
:1002880004F0CDEF02F0C3C060F0C4C061F023EC0D
:1002980022F0280AD8A453EF01F055EF01F000EF3F
:1002A80003F060004BF3D9FF60004FF3DAFF0C0E48
:1002B800DF6E00EF03F0C3C060F0C4C061F023EC50
:1002C80022F0290AD8A46BEF01F06DEF01F000EFDE
:1002D80003F060004BF3D9FF60004FF3DAFF0D0E17
:1002E800DF6E00EF03F0C3C060F0C4C061F023EC20
:1002F80022F02A0AD8A483EF01F085EF01F00DEF70
:1003080002F0AFEF01F060004BF3D9FF60004FF34C
:10031800DAFF0B0EDF6E00EF03F060004BF3D9FF3E
:1003280060004FF3DAFF0E0EDF6E00EF03F060009F
:100338004BF3D9FF60004FF3DAFF100EDF6E00EFCA
:1003480003F060004BF3D9FF60004FF3DAFF0C0EA7
:10035800DF6E00EF03F0C3C060F0C4C061F0D8ECFA
:100368001EF060C0C5F061C0C6F062C0C7F063C0CF
:10037800C8F064C0C9F065C0CAF066C0CBF067C0F9
:10038800CCF00001CC51000AD8B406EF02F0A5EF7A
:1003980001F0C851000AD8B4F1EF01F0A5EF01F05F
:1003A800C651000AD8B4DFEF01F0010AD8B4E6EF6D
:1003B80001F0A5EF01F0C551520AD8B49BEF01F046
:1003C800A5EF01F0C551500AD8B487EF01F0010A32
:1003D800D8B491EF01F0A5EF01F0C751000AD8B4E5
:1003E800D4EF01F0A5EF01F0CA51000AD8B4FFEF2D
:1003F80001F0A5EF01F0C951000AD8B4CDEF01F022
:10040800A5EF01F0CB51000AD8B4F8EF01F0A5EF41
:1004180001F0C3C060F0C4C061F023EC22F02C0AE4
:10042800D8A419EF02F01BEF02F000EF03F0600010
:100438004BF3D9FF60004FF3DAFF0C0EDF6E00EFCD
:1004480003F0C3C060F0C4C061F023EC22F02D0AB1
:10045800D8A431EF02F033EF02F03DEF02F0600074
:100468004BF3D9FF60004FF3DAFF0F0EDF6E00EF9A
:1004780003F0C3C060F0C4C061F023EC22F02C0A82
:10048800D8A449EF02F04BEF02F000EF03F0600050
:100498004BF3D9FF60004FF3DAFF0C0EDF6E00EF6D
:1004A80003F0C3C060F0C4C061F023EC22F02C0A52
:1004B800D8A461EF02F063EF02F000EF03F06000F0
:1004C8004BF3D9FF60004FF3DAFF0C0EDF6E00EF3D
:1004D80003F0C3C060F0C4C061F023EC22F02C0A22
:1004E800D8A479EF02F07BEF02F000EF03F0600090
:1004F8004BF3D9FF60004FF3DAFF0C0EDF6E00EF0D
:1005080003F0C3C060F0C4C061F023EC22F02E0AEF
:10051800D8A491EF02F093EF02F09DEF02F0600093
:100528004BF3D9FF60004FF3DAFF110EDF6E00EFD7
:1005380003F0C3C060F0C4C061F023EC22F02C0AC1
:10054800D8A4A9EF02F0ABEF02F000EF03F06000CF
:100558004BF3D9FF60004FF3DAFF0C0EDF6E00EFAC
:1005680003F0C3C060F0C4C061F023EC22F02C0A91
:10057800D8A4C1EF02F0C3EF02F000EF03F060006F
:100588004BF3D9FF60004FF3DAFF0C0EDF6E00EF7C
:1005980003F060004BF3D9FF60004FF3DAFFDF5040
:1005A800C56FC66BC651000AD8B4DDEF02F000EF84
:1005B80003F0C5510A0AD8B447EF01F0010AD8B4CC
:1005C8006DEF02F0070AD8B45FEF01F0010AD8B462
:1005D80077EF01F0030AD8B425EF02F0010AD8B486
:1005E80055EF02F01F0AD8B485EF02F0010AD8B41B
:1005F800B5EF02F000EF03F060004BF3D9FF6000A5
:100608004FF3DAFF0001CD51DE18D8B40EEF03F036
:1006180010EF03F0B4EF04F081EF04F0D2C08AF0D9
:10062800D3C08BF01E0E8C6F000E8D6F290E8E6F4F
:10063800000E906F140E8F6F000E916F000E926F68
:10064800000E936F000E946F000E956F000E966F5C
:10065800000E976F000E986F16EC17F0B4EF04F0C9
:10066800D2C0A9F0D3C0AAF0020ED225AB6F000EFB
:10067800D321AC6F71EC0FF0B4EF04F020EE10F062
:10068800D251D926D351DA22DE04D8A44EEF03F092
:1006980050EF03F072EF03F0D2C08AF0D3C08BF0B2
:1006A8001E0E8C6F000E8D6F2D0E8E6F000E906FCC
:1006B800000E8F6F000E916F000E926F000E936FF9
:1006C800000E946F000E956F000E966F000E976FD8
:1006D800000E986F16EC17F0B4EF04F0D2C085F056
:1006E800D3C086F0020ED225876F000ED321886F03
:1006F8003BEC14F0D2C08AF0D3C08BF01E0E000180
:100708008C6F000E8D6F2C0E8E6F000E906F000E8A
:100718008F6F000E916F000E926F000E936F000E98
:10072800946F000E956F000E966F000E976F000E77
:10073800986F16EC17F0B4EF04F0D2C087F0D3C06E
:1007480088F038EC1FF0D2C08AF0D3C08BF01E0EB0
:1007580000018C6F000E8D6F2C0E8E6F000E906F47
:10076800000E8F6F000E916F000E926F000E936F48
:10077800000E946F000E956F000E966F000E976F27
:10078800000E986F16EC17F0B4EF04F0D2C085F0A5
:10079800D3C086F0020ED225876F000ED321886F52
:1007A800B5EC04F0D2C08AF0D3C08BF01E0E000165
:1007B8008C6F000E8D6F2C0E8E6F000E906F000EDA
:1007C8008F6F000E916F000E926F000E936F000EE8
:1007D800946F000E956F000E966F000E976F000EC7
:1007E800986F16EC17F0B4EF04F020EE10F0D25129
:1007F800D926D351DA22DE04D8A405EF04F007EF96
:1008080004F029EF04F0D2C08AF0D3C08BF01E0E9A
:100818008C6F000E8D6F2E0E8E6F000E906F000E77
:100828008F6F000E916F000E926F000E936F000E87
:10083800946F000E956F000E966F000E976F000E66
:10084800986F16EC17F0B4EF04F0D2C068F0D3C07C
:1008580069F0020ED2256A6F000ED3216B6F33EC5C
:100868001AF0D2C08AF0D3C08BF01E0E00018C6F34
:10087800000E8D6F2C0E8E6F000E906F000E8F6F16
:10088800000E916F000E926F000E936F000E946F22
:10089800000E956F000E966F000E976F000E986F02
:1008A80016EC17F0B4EF04F0D2C07BF0D3C07CF0A4
:1008B80080EC1AF0D2C08AF0D3C08BF01E0E000173
:1008C8008C6F000E8D6F2C0E8E6F000E906F000EC9
:1008D8008F6F000E916F000E926F000E936F000ED7
:1008E800946F000E956F000E966F000E976F000EB6
:1008F800986F16EC17F0B4EF04F060004BF3D9FFD3
:1009080060004FF3DAFFDF50C56FC66BC651000AAF
:10091800D8B491EF04F0B4EF04F0C5510A0AD8B482
:10092800B4EF04F0010AD8B4CAEF03F0070AD8B448
:1009380012EF03F0010AD8B434EF03F0030AD8B475
:1009480042EF03F0010AD8B4A1EF03F01F0AD8B4AC
:10095800F9EF03F0010AD8B458EF04F0B4EF04F04B
:100968001200010E0001B46F100EB56F050EB66FC0
:10097800000EB76F000EB86F020EB96F630EBA6F34
:10098800630EBB6F000EC26F20EE06F08751D926AA
:100998008851DA22DF50D8B4D4EF04F0D6EF04F04F
:1009A80054EF05F040EC22F060C07FF061C080F0A9
:1009B800000E0001826F000E816F5DEC1BF0110EBE
:1009C80000018A6F3C0E896FCB0EE82EFED7892F67
:1009D800FCD78A2FFAD740EC22F060C07FF061C0C4
:1009E80080F0000E0001826F800E816F5DEC1BF0BD
:1009F800110E00018A6F3C0E896FCB0EE82EFED7D0
:100A0800892FFCD78A2FFAD740EC22F060C07FF0FC
:100A180061C080F0000E0001826F060E816F5DECF0
:100A28001BF0110E00018A6F3C0E896FCB0EE82E69
:100A3800FED7892FFCD78A2FFAD740EC22F060C066
:100A48007FF061C080F0000E0001826F070E816F99
:100A58005DEC1BF0520E00018A6F2B0E896F000EA1
:100A6800E82EFED7892FFCD78A2FFAD700F040EC62
:100A780022F060C07FF061C080F0000E0001826F3C
:100A88000F0E816F5DEC1BF0410E00018A6FF00EB6
:100A9800896F330EE82EFED7892FFCD78A2FFAD715
:100AA800000120EE07F08751D9268851DA22DF505D
:100AB800D8B461EF05F063EF05F000EF06F040EC05
:100AC80022F060C07FF061C080F0060E0001816FE7
:100AD80014EC1BF0310E00018A6FB40E896F650E9D
:100AE800E82EFED7892FFCD78A2FFAD700D040EC02
:100AF80022F060C07FF061C080F0000E0001826FBC
:100B08001F0E816F5DEC1BF0310E00018A6FB40E71
:100B1800896F650EE82EFED7892FFCD78A2FFAD762
:100B280000D0A4EF05F0040E00018A6F400E896F13
:100B3800260EE82EFED7892FFCD78A2FFAD700F089
:100B480040EC22F060C07FF061C080F0F4EC15F05A
:100B5800000180A9B2EF05F0B4EF05F097EF05F0BA
:100B680040EC22F060C07FF061C080F0000E000110
:100B7800826F0F0E816F5DEC1BF0310E00018A6FE2
:100B8800B40E896F650EE82EFED7892FFCD78A2F01
:100B9800FAD700D040EC22F060C07FF061C080F04E
:100BA800FF0E0001816F14EC1BF0110E00018A6F1B
:100BB8003C0E896FCB0EE82EFED7892FFCD78A2FE3
:100BC800FAD7020E0001BA6F000EBB6F040E0001C7
:100BD8008A6F400E896F260EE82EFED7892FFCD724
:100BE8008A2FFAD700F0B40E0001726F000E736FEF
:100BF80078EC09F013EF06F0000EBA6F020EBB6F27
:100C0800040E00018A6F400E896F260EE82EFED76B
:100C1800892FFCD78A2FFAD700F0F7EF05F00001EB
:100C280020EE08F08751D9268851DA22DF50D8B44F
:100C380020EF06F022EF06F019EF07F0090E000189
:100C48008A6F1E0E896FE40EE82EFED7892FFCD717
:100C58008A2FFAD700F0010E0001A56F110EA66FBA
:100C6800050EA76F000EA86F000EA96F040EAA6FDD
:100C78003AEC22F060C062F061C063F0050E00013A
:100C8800646FE7EC20F00001AB6F3AEC22F060C033
:100C980062F061C063F0040E0001646FE7EC20F0BD
:100CA8000001AC6F3AEC22F060C062F061C063F002
:100CB800030E0001646FE7EC20F00001AD6F3AEC21
:100CC80022F060C062F061C063F0020E0001646F40
:100CD800E7EC20F00001AE6F000EB36FA50E726F47
:100CE800000E736F78EC09F0110E00018A6F3C0E4C
:100CF800896FCB0EE82EFED7892FFCD78A2FFAD71B
:100D08003AEC22F060C062F061C063F0030E0001AB
:100D1800646FE7EC20F00001896F89C08AF08B6B63
:100D28008C6B8D6B8CC08DF08BC08CF08AC08BF077
:100D38008A6B3AEC22F060C062F061C063F0040E86
:100D48000001646FE7EC20F000018E6F8EC08FF019
:100D5800906B916B926B90C092F08FC091F0906BFA
:100D68008F6B3AEC22F060C062F061C063F0050E50
:100D78000001646FE7EC20F00001936F93C094F0DA
:100D8800956B966B976B94C097F0966B956B946B7D
:100D98008F519425986F90519521996F9151962173
:100DA8009A6F925197219B6F8A5198259C6F8B510E
:100DB80099219D6F8C519A219E6F8D519B219F6F18
:100DC8003AEC22F060C062F061C063F0020E0001EC
:100DD800646FE7EC20F00001A06FA0519C25A16F83
:100DE800000E9D21A26F000E9E21A36F000E9F2171
:100DF800A46F40EC22F060C07FF061C080F0A1C019
:100E080081F0A2C082F0A3C083F0A4C084F074EC87
:100E180017F0290E00018A6F960E896F7F0EE82E53
:100E2800FED7892FFCD78A2FFAD73AEC22F060C078
:100E380064F061C065F0010E0001666F20EE09F0F4
:100E48008751D9268851DA22DF50676F84EC20F069
:100E58001200000120EE03F0C351D926C451DA2252
:100E68006F0078FFC8F06F0074FFC9F0600023F3CB
:100E7800D9FF600027F3DAFFDF50C76FDDEF07F017
:100E8800C3C060F0C4C061F023EC22F00A0AD8A401
:100E980050EF07F052EF07F004EF08F0600023F37B
:100EA800D9FF600027F3DAFF010EDF6E04EF08F0C8
:100EB800C3C060F0C4C061F023EC22F00C0AD8A4CF
:100EC80068EF07F06AEF07F004EF08F0600023F31B
:100ED800D9FF600027F3DAFF020EDF6E04EF08F097
:100EE800C3C060F0C4C061F023EC22F00B0AD8A4A0
:100EF80080EF07F082EF07F004EF08F0000120EE22
:100F080001F0C851D926C951DA226F0078FF60F084
:100F18006F0074FF61F055EC16F0E806D8A497EF5F
:100F280007F099EF07F0A3EF07F0600023F3D9FF6C
:100F3800600027F3DAFF030EDF6E04EF08F06000AD
:100F480023F3D9FF600027F3DAFF040EDF6E04EF06
:100F580008F0C3C060F0C4C061F023EC22F00B0AB3
:100F6800D8A4B9EF07F0BBEF07F004EF08F0600072
:100F780023F3D9FF600027F3DAFF010EDF6E04EFD9
:100F880008F0C3C060F0C4C061F023EC22F00B0A83
:100F9800D8A4D1EF07F0D3EF07F004EF08F0600012
:100FA80023F3D9FF600027F3DAFF010EDF6E04EFA9
:100FB80008F0600023F3D9FF600027F3DAFFDF5061
:100FC800C56FC66BC651000AD8B4EDEF07F004EF41
:100FD80008F0C551000AD8B444EF07F0010AD8B4A4
:100FE8005CEF07F0030AD8B474EF07F0010AD8B42D
:100FF800ADEF07F0070AD8B4C5EF07F004EF08F023
:10100800600023F3D9FF600027F3DAFF0001C7511E
:10101800DE18D8B412EF08F014EF08F077EF09F0F3
:1010280050EF09F0C8C08AF0C9C08BF05A0E8C6F17
:101038000E0E8D6F0C0E8E6F000E906F320E8F6F2E
:10104800000E916F000E926F000E936F000E946F5A
:10105800000E956F000E966F000E976F000E986F3A
:1010680016EC17F077EF09F0C8C08AF0C9C08BF00A
:101078005A0E8C6F0E0E8D6F0B0E8E6F000E906FCA
:10108800000E8F6F000E916F000E926F000E936F1F
:10109800000E946F000E956F000E966F000E976FFE
:1010A800000E986F16EC17F077EF09F0C8C08AF0B9
:1010B800C9C08BF05A0E8C6F0E0E8D6F0B0E8E6F93
:1010C800000E906F000E8F6F000E916F000E926FE2
:1010D800000E936F000E946F000E956F000E966FC2
:1010E800000E976F000E986F16EC17F0000120EEB7
:1010F80003F0C851D926C951DA22030EDE18D8B434
:1011080088EF08F08AEF08F077EF09F020EE04F096
:10111800C851D926C951DA22DE50DE10D8B497EF6B
:1011280008F099EF08F077EF09F020EE06F0C851C3
:10113800D926C951DA226F0078FF66F06F0074FF74
:1011480067F020EE01F0C851D926C951DA226F00A4
:1011580078FF60F06F0074FF61F02BEC22F0000163
:10116800686F010E696F20EE04F0C851D926C95185
:10117800DA2202D8CAEF08F00500FA6EDE50FD6EDA
:10118800DE50FE6EF850FF6EFA501200000120EE9D
:1011980003F0C851D926C951DA22030EDF6E77EF62
:1011A80009F0C8C08AF0C9C08BF05A0E8C6F0E0EB9
:1011B8008D6F0B0E8E6F000E906F000E8F6F000EEE
:1011C800916F000E926F000E936F000E946F000ED9
:1011D800956F000E966F000E976F000E986F16ECC5
:1011E80017F0000120EE03F0C851D926C951DA22C0
:1011F800040EDE18D8B403EF09F005EF09F077EF15
:1012080009F020EE04F0C851D926C951DA22DE507F
:10121800DE10D8B412EF09F014EF09F077EF09F0F7
:1012280020EE06F0C851D926C951DA226F0078FF9E
:1012380066F06F0074FF67F020EE01F0C851D92600
:10124800C951DA226F0078FF60F06F0074FF61F017
:101258002BEC22F00001686F000E696F20EE04F09D
:10126800C851D926C951DA2202D845EF09F005003C
:10127800FA6EDE50FD6EDE50FE6EF850FF6EFA50CC
:101288001200000120EE03F0C851D926C951DA2214
:10129800040EDF6E77EF09F0600023F3D9FF6000DA
:1012A80027F3DAFFDF50C56FC66BC651000AD8B402
:1012B80060EF09F077EF09F0C551000AD8B477EF6D
:1012C80009F0010AD8B416EF08F0030AD8B438EFC9
:1012D80008F0010AD8B45AEF08F0070AD8B4D5EFD5
:1012E80008F077EF09F01200000E0001776F000E8A
:1012F800786F000E796F000E7A6F3701E0B787EFCD
:1013080009F089EF09F031EF0AF0000120EE01F051
:101318007251D9267351DA226F0078FF60F06F009E
:1013280078FF61F06F0078FF62F06F0078FF63F07C
:101338006000CBF1D9FF6000CFF1DAFFDF50646FB6
:10134800770E656F000E666F780E676F000E686F18
:10135800790E696F000E6A6F7A0E6B6F000E6C6FF4
:101368003DEC11F06000DFF1E3F76000E3F1E4F732
:101378006000E7F1E1F76000EBF1E2F7000120EE31
:1013880005F07251D9267351DA22DF50746F20EEBE
:101398000EF07251D9267351DA22DF50756F060E9E
:1013A800766FD8907537762FD5EF09F0755174118F
:1013B8003701E56F000120EE06F07251D92673510E
:1013C800DA22DF503701E66F000120EE07F0725194
:1013D800D9267351DA22DF503701E76F000120EE7A
:1013E80008F07251D9267351DA22DF503701E86FBD
:1013F800000120EE09F07251D9267351DA22DF502C
:101408003701E96F000120EE0AF07251D9267351B5
:10141800DA22DF503701EA6F000120EE0BF072513B
:10142800D9267351DA22DF503701EB6F000120EE25
:101438000CF07251D9267351DA22DF503701EC6F64
:10144800000120EE0DF07251D9267351DA22DF50D7
:101458003701ED6FE0878FEF0BF0D0B736EF0AF06A
:1014680038EF0AF0E0EF0AF0000120EE01F07251C7
:10147800D9267351DA226F0078FF60F06F0078FF89
:1014880061F06F0078FF62F06F0078FF63F0600032
:10149800CBF1D9FF6000CFF1DAFFDF50646F770E30
:1014A800656F000E666F780E676F000E686F790EB5
:1014B800696F000E6A6F7A0E6B6F000E6C6F3DECF1
:1014C80011F06000DFF1D3F76000E3F1D4F76000BA
:1014D800E7F1D1F76000EBF1D2F7000120EE05F05B
:1014E8007251D9267351DA22DF50746F20EE0EF054
:1014F8007251D9267351DA22DF50756F060E766F56
:10150800D8907537762F84EF0AF07551741137012A
:10151800D56F000120EE06F07251D9267351DA22F8
:10152800DF503701D66F000120EE07F07251D9263F
:101538007351DA22DF503701D76F000120EE08F02F
:101548007251D9267351DA22DF503701D86F000162
:1015580020EE09F07251D9267351DA22DF50370193
:10156800D96F000120EE0AF07251D9267351DA22A0
:10157800DF503701DA6F000120EE0BF07251D926E7
:101588007351DA22DF503701DB6F000120EE0CF0D7
:101598007251D9267351DA22DF503701DC6F00010E
:1015A80020EE0DF07251D9267351DA22DF5037013F
:1015B800DD6FD0872FEF0AF0C0B7E5EF0AF0E7EF4D
:1015C8000AF08FEF0BF0000120EE01F07251D926DE
:1015D8007351DA226F0078FF60F06F0078FF61F0D6
:1015E8006F0078FF62F06F0078FF63F06000CBF166
:1015F800D9FF6000CFF1DAFFDF50646F770E656FB7
:10160800000E666F780E676F000E686F790E696F4F
:10161800000E6A6F7A0E6B6F000E6C6F3DEC11F066
:101628006000DFF1C3F76000E3F1C4F76000E7F1A1
:10163800C1F76000EBF1C2F7000120EE05F072512E
:10164800D9267351DA22DF50746F20EE0EF07251F2
:10165800D9267351DA22DF50756F060E766FD8904F
:101668007537762F33EF0BF0755174113701C56F4D
:10167800000120EE06F07251D9267351DA22DF50AC
:101688003701C66F000120EE07F07251D926735159
:10169800DA22DF503701C76F000120EE08F07251DF
:1016A800D9267351DA22DF503701C86F000120EEC6
:1016B80009F07251D9267351DA22DF503701C96F08
:1016C800000120EE0AF07251D9267351DA22DF5058
:1016D8003701CA6F000120EE0BF07251D926735101
:1016E800DA22DF503701CB6F000120EE0CF0725187
:1016F800D9267351DA22DF503701CC6F000120EE72
:101708000DF07251D9267351DA22DF503701CD6FAF
:10171800C0872FEF0AF01200000E0001756F80AE2F
:1017280098EF0BF09AEF0BF04CEF0CF082A69FEFBE
:101738000BF0A1EF0BF0CAEF0BF06000CFF1D9FF6F
:101748006000D3F1DAFF020EDF6E6F0010FE60F06A
:101758006F0004FE61F06F0008FE62F083500AEC2F
:1017680012F0000120EE01F07351D9267451DA22EB
:10177800600083F1DEFF600087F1DEFF60008BF11F
:10178800DEFF60008FF1DEFFEBEF0BF06000CFF1C2
:10179800D9FF6000D3F1DAFF010EDF6E6F0008FE9B
:1017A80060F08150F6EC1CF0000120EE01F073515E
:1017B800D9267451DA22600083F1DEFF600087F1D8
:1017C800DEFF60008BF1DEFF60008FF1DEFF20EEB0
:1017D80005F07351D9267451DA2285500F0BDF6E4C
:1017E80020EE0EF07351D9267451DA228544E8466A
:1017F800030BDF6E20EE06F07351D9267451DA22FE
:101808006F001BFEDFFF20EE07F07351D9267451DD
:10181800DA226F001FFEDFFF20EE08F07351D92691
:101828007451DA226F0023FEDFFF20EE09F07351B6
:10183800D9267451DA226F0027FEDFFF20EE0AF066
:101848007351D9267451DA226F002BFEDFFF20EE88
:101858000BF07351D9267451DA226F002FFEDFFF87
:1018680020EE0CF07351D9267451DA226F0033FE42
:10187800DFFF20EE0DF07351D9267451DA226F0084
:1018880037FEDFFF809E010E0001756F08EF0DF037
:101898003701F0AF52EF0CF054EF0CF008EF0DF0F9
:1018A800F2A759EF0CF05BEF0CF084EF0CF060003E
:1018B800CFF1D9FF6000D3F1DAFF020EDF6E6D00C1
:1018C800D0FF60F06D00C4FF61F06D00C8FF62F0EA
:1018D800F3510AEC12F0000120EE01F07351D92601
:1018E8007451DA22600083F1DEFF600087F1DEFFC9
:1018F80060008BF1DEFF60008FF1DEFFA5EF0CF0DA
:101908006000CFF1D9FF6000D3F1DAFF010EDF6E7E
:101918006D00C8FF60F0F151F6EC1CF0000120EEFC
:1019280001F07351D9267451DA22600083F1DEFF89
:10193800600087F1DEFF60008BF1DEFF60008FF151
:10194800DEFF20EE05F07351D9267451DA223701F3
:10195800F5510F0BDF6E000120EE0EF07351D92602
:101968007451DA223701F545E846030BDF6E0001B2
:1019780020EE06F07351D9267451DA226D00DBFF90
:10198800DFFF20EE07F07351D9267451DA226D007B
:10199800DFFFDFFF20EE08F07351D9267451DA22F9
:1019A8006D00E3FFDFFF20EE09F07351D926745173
:1019B800DA226D00E7FFDFFF20EE0AF07351D92627
:1019C8007451DA226D00EBFFDFFF20EE0BF073514C
:1019D800D9267451DA226D00EFFFDFFF20EE0CF0FC
:1019E8007351D9267451DA226D00F3FFDFFF20EE20
:1019F8000DF07351D9267451DA226D00F7FFDFFF1D
:101A08003701F09F47EF0CF00001755112006F008D
:101A1800A0F7EBF06F00A0F7EBF0000120EE01F06B
:101A28007051D9267151DA22DF50020F7E6F6000A3
:101A3800C3F1D9FF6000C7F1DAFFDF50726F72514E
:101A4800746F736B20EE01F07051D9267151DA2250
:101A5800DF50756F75517313000E741320EE32F05A
:101A68007051D9267151DA226000CFF1DEFF600093
:101A7800D3F1DDFF010E7D6F80EF0DF07D51020D7A
:101A880070C072F071C073F0F3507227F450732372
:101A9800010E7225D96E000E7321DA6EDF50746F55
:101AA8007451766F756B7D51776F786BD8907737F7
:101AB800783777517025D96E78517121DA6EDF50F9
:101AC800796F79517513000E76137D51020D70C030
:101AD8007AF071C07BF0F3507A27F4507B23320EF2
:101AE8007A25D96E000E7B21DA6E6000D7F1DEFF11
:101AF8006000DBF1DDFF7D2B7E517D5DD8A087EF97
:101B08000DF089EF0DF042EF0DF07E51020D70C01F
:101B180072F071C073F0F3507227F4507323320ED1
:101B28007225D96E000E7321DA6E000EDE6E000E7D
:101B3800DD6E70C060F071C061F0320E7025626FAA
:101B4800000E7121636F010E7E25646F656B000EB8
:101B58006523B6EC16F000017E51020D70C072F0DC
:101B680071C073F0F3507227F4507323320E72254C
:101B7800D96E000E7321DA6E600083F1DEFF60001B
:101B880087F1DDFF7E51020D70C072F071C073F0F5
:101B9800F3507227F4507323320E7225D96E000E5B
:101BA8007321DA6E7E51746F756BD8907437753700
:101BB80074517025E16E75517121E26E6F007FFFDF
:101BC800E7FF7E51020D70C072F071C073F0F350E0
:101BD8007227F4507323010E7225D96E000E7321FB
:101BE800DA6E7E51020D70C074F071C075F0F3505A
:101BF8007427F4507523320E7425E16E000E75219A
:101C0800E26E6F0098FF76F06F0094FF77F077C070
:101C180076F0776B7651DF6E6000C3F1D9FF600014
:101C2800C7F1DAFFDF5068EC21F070C060F071C0D6
:101C380061F0ED0E0001626F000E636F6EEC1DF037
:101C48004F0AD8B42AEF0EF02CEF0EF02EEF0EF05C
:101C580060EF0EF0010E00017C6F3EEF0EF07C513C
:101C68007025D96E000E7121DA6EDF5068EC21F014
:101C780000017C2B7C51726F736B7E51020D010E3B
:101C8800F326000EF4227251F35CF450800A746F4C
:101C98007351800A7459D8B054EF0EF056EF0EF015
:101CA80033EF0EF070C060F071C061F0ED0E626F3E
:101CB800000E636F6EEC1DF01200800E8F6E8E505A
:101CC800E00B800AD8A46BEF0EF06DEF0EF063EF17
:101CD8000EF0000E916E000E3701006FF00E00013D
:101CE800606F000E616F000E626F000E636F010E71
:101CF800646FBA0E656F370E666FBB0E676F370E6F
:101D0800686FB80E696F370E6A6FB90E6B6F370E52
:101D18006C6F3DEC11F0000E0001606F000E616FFA
:101D2800000E626F000E636F010E646FA20E656F86
:101D3800370E666FA30E676F370E686FA00E696F58
:101D4800370E6A6FA10E6B6F370E6C6F3DEC11F09A
:101D5800500E0001606F000E616F000E626F000E82
:101D6800636F010E646FA60E656F370E666FA70E60
:101D7800676F370E686FA40E696F370E6A6FA50E0E
:101D88006B6F370E6C6F3DEC11F0F00E0001606F59
:101D9800000E616F000E626F000E636F010E646FBC
:101DA800BE0E656F370E666FBF0E676F370E686FB2
:101DB800BC0E696F370E6A6FBD0E6B6F370E6C6F96
:101DC8003DEC11F0500E0001606F000E616F000EC7
:101DD800626F000E636F010E646FAA0E656F370E97
:101DE800666FAB0E676F370E686FA80E696F370E98
:101DF8006A6FA90E6B6F370E6C6F3DEC11F0500EC9
:101E08000001606F000E616F000E626F000E636F5D
:101E1800010E646FAE0E656F370E666FAF0E676F9B
:101E2800370E686FAC0E696F370E6A6FAD0E6B6F49
:101E3800370E6C6F3DEC11F0500E0001606F000E14
:101E4800616F000E626F000E636F010E646FB20E59
:101E5800656F370E666FB30E676F370E686FB00E1B
:101E6800696F370E6A6FB10E6B6F370E6C6F3DEC92
:101E780011F0500E0001606F000E616F000E626F6E
:101E8800000E636F010E646FB60E656F370E666FD6
:101E9800B70E676F370E686FB40E696F370E6A6FCB
:101EA800B50E6B6F370E6C6F3DEC11F00F0E3701EE
:101EB800036F980E046F810E056F000E8F6E6F0012
:101EC80038FE72F0E00E00017217D8A46EEF0FF022
:101ED80070EF0FF063EF0FF01200ABC073F0ACC0FF
:101EE80074F090EC0BF00009D8B47DEF0FF07FEFA1
:101EF8000FF047EF10F009EF10F0A9C08AF0AAC060
:101F08008BF01E0E8C6F000E8D6F2A0E8E6F000EDA
:101F1800906F000E8F6F500E916F010E926F000E32
:101F2800936F000E946F000E956F000E966F000E63
:101F3800976F000E986F16EC17F068EF10F0A9C0B5
:101F48008AF0AAC08BF01E0E8C6F000E8D6F2A0EC1
:101F58008E6F000E906F000E8F6F510E916F010EF5
:101F6800926F000E936F000E946F000E956F000E27
:101F7800966F000E976F000E986F16EC17F068EFCB
:101F880010F0A9C08AF0AAC08BF01E0E8C6F000E4C
:101F98008D6F2A0E8E6F000E906F000E8F6F520E8F
:101FA800916F000E926F000E936F000E946F000EEB
:101FB800956F000E966F000E976F000E986F16ECD7
:101FC80017F068EF10F0A9C08AF0AAC08BF01E0EB7
:101FD8008C6F000E8D6F2C0E8E6F000E906F000EA2
:101FE8008F6F000E916F000E926F000E936F000EB0
:101FF800946F000E956F000E966F000E976F000E8F
:10200800986F16EC17F068EF10F0000120EE01F061
:10201800AB51D926AC51DA226F0078FFADF06F00D2
:1020280078FFAEF06F0078FFAFF06F0078FFB0F088
:10203800B051000AD8B440EF10F0E7EF0FF0AE51FE
:10204800000AD8B42EEF10F0010AD8B435EF10F01A
:10205800E7EF0FF0AD51520AD8B4C5EF0FF0E7EF34
:102068000FF0AD51500AD8B481EF0FF0010AD8B47F
:10207800A3EF0FF0E7EF0FF0AF51000AD8B423EF4A
:1020880010F0E7EF0FF0A9C08AF0AAC08BF01E0E7F
:1020980000018C6F000E8D6F2C0E8E6F000E906FEE
:1020A800000E8F6F000E916F000E926F000E936FEF
:1020B800000E946F000E956F000E966F000E976FCE
:1020C800000E986F16EC17F012006F00A0F7EBF0F7
:1020D8006F00A0F7EBF0000E0001ED6F000E6D6FC2
:1020E8006D516625686F000E6721696F640E68255B
:1020F800D96E000E6921DA6E000EDF6E190E6D6161
:1021080088EF10F08AEF10F09EEF10F06D51020D7D
:1021180066C068F067C069F0F3506827F450692317
:10212800960E6825D96E000E6921DA6E000EDE6EF5
:10213800000EDD6E6D2B310E6D65A5EF10F0A7EF6B
:1021480010F074EF10F066C060F067C061F0ED0E3B
:10215800626F000E636F6EEC1DF00001686F20EE79
:1021680064F06651D9266751DA226000A3F1DFFFD7
:10217800ED51D8B4C2EF10F0C4EF10F0C8EF10F072
:102188002C0EED6F3CEF11F04F0E68EC21F066C09D
:1021980060F067C061F0ED0E0001626F000E636FC2
:1021A8006EEC1DF00001686F20EE65F06651D926CF
:1021B8006751DA226000A3F1DFFFED51D8B4E7EFF1
:1021C80010F0E9EF10F0EDEF10F0640EED6F3CEF5A
:1021D80011F0020E6C6F19EF11F066C060F067C065
:1021E80061F0ED0E626F000E636F6EEC1DF0000182
:1021F800686F6C516625696F000E67216A6F640EFF
:102208006925D96E000E6A21DA6E6000A3F1DFFF3E
:10221800ED51D8B412EF11F014EF11F018EF11F0DE
:10222800180EED6F3CEF11F06C2B20EE65F0665147
:10223800D9266751DA22DF50686F6851020D060E01
:10224800F326000EF4226C51696F6A6BF350695DD6
:102258006A51800A6B6FF450800A6B59D8A037EF27
:1022680011F039EF11F0F1EF10F04F0E68EC21F09A
:102278001200020E00016419D8A445EF11F047EFCF
:1022880011F0D5EF11F060009FF1D9FF6000A3F1C4
:10229800DAFF600083F1DFFF60C06DF061C06EF0AF
:1022A80062C06FF063C070F06EC06DF06FC06EF00A
:1022B80070C06FF0706B6DC060F06EC061F06FC081
:1022C80062F070C063F0600097F1D9FF60009BF185
:1022D800DAFF600083F1DFFF60C06DF061C06EF06F
:1022E80062C06FF063C070F06EC06DF06FC06EF0CA
:1022F80070C06FF0706B6DC060F06EC061F06FC041
:1023080062F070C063F06051030B716F60C06DF0D4
:1023180061C06EF062C06FF063C070F0030ED890B9
:102328006D376E376F377037E82E93EF11F06DC049
:1023380060F06EC061F06FC062F070C063F0605111
:10234800E00B7125716F7151080F716F7151EB0BB3
:102358006000AFF1D9FF6000B3F1DAFFDF6E60C053
:102368006DF061C06EF062C06FF063C070F06EC057
:102378006DF06FC06EF070C06FF0706B6DC060F084
:102388006EC061F06FC062F070C063F06000A7F1CA
:10239800D9FF6000ABF1DAFF600083F1DFFF09EFDE
:1023A80012F0600097F1D9FF60009BF1DAFF000E90
:1023B800DF6E60009FF1D9FF6000A3F1DAFF000E25
:1023C800DF6E60C06DF061C06EF062C06FF063C018
:1023D80070F0050ED8906D376E376F377037E82E6E
:1023E800EEEF11F06DC060F06EC061F06FC062F08A
:1023F80070C063F06000AFF1D9FF6000B3F1DAFF9D
:10240800600083F1DFFFB3EF11F012000001686F85
:10241800000E00016F6F000E706F000E716F000EDE
:10242800726F6251030B6D6F6239E842070B6E6F72
:102438006151646F656BD89064376537D89064379D
:102448006537D8906437653764C06FF065C070F041
:10245800000E70BFFF0E716F726F6E516F256F6F38
:10246800000E7021706F000E7121716F000E7221C5
:10247800726F6FC064F070C065F071C066F072C0B2
:1024880067F0020ED8906437653766376737E82EED
:1024980046EF12F064C06FF065C070F066C071F06E
:1024A80067C072F06D516F256F6F000E7021706FED
:1024B800000E7121716F000E7221726F6FC065F08E
:1024C80070C066F071C067F0646B64C06FF065C07F
:1024D80070F066C071F067C072F068516F256F6F59
:1024E800000E7021706F000E7121716F000E722145
:1024F800726F6FC065F070C066F071C067F0646B92
:1025080064C06FF065C070F066C071F067C072F0AB
:1025180060516F256F6F000E7021706F000E712172
:10252800716F000E7221726F6FC069F070C06AF02F
:1025380071C06BF072C06CF069C060F06AC061F085
:102548006BC062F06CC063F01200000E0001616F96
:10255800000E606F49EC21F0A50AD8B4B6EF12F06E
:10256800B8EF12F0EEEF12F0000E0001616F000EEE
:10257800606FA50E626F94EC1FF0000E0001616F92
:10258800010E606F0A0E626F94EC1FF0000E0001DE
:10259800616F020E606F900E626F94EC1FF0000E78
:1025A8000001616F030E606F530E626F94EC1FF0B1
:1025B800000E0001616F040E606F030E626F94ECF1
:1025C8001FF0000E0001616F050E606F000E626F54
:1025D80094EC1FF0000E0001616F000E606F49EC73
:1025E80021F0600093F1D9FF600097F1DAFFDF6E08
:1025F800000120EE01F06451D9266551DA22000E5F
:10260800616F010E606F49EC21F0DF6E000120EE72
:1026180002F06451D9266551DA22000E616F020E6C
:10262800606F49EC21F0DF6E000120EE03F0645189
:10263800D9266551DA22000E616F030E606F49ECEE
:1026480021F0DF6E000120EE04F06451D9266551B7
:10265800DA22000E616F040E606F49EC21F0DF6E24
:10266800000120EE05F06451D9266551DA22000EEA
:10267800616F050E606F49EC21F0DF6E1200740E79
:102688000001606F000E616F84EC21F060C087F07C
:1026980061C088F0000187518811D8B456EF13F053
:1026A80058EF13F07DEF13F0740E606F000E616F3A
:1026B800000E636F000E626F76EC21F087C061F048
:1026C80088C062F020EE74F000EE63F00E0E6F002A
:1026D8006FFFEBFFE806FBE283C072F0A6EC1BF08D
:1026E800600013F2D9FF600017F2DAFFDF6EBFEF68
:1026F80013F08351BBEC21F0600084FF86F0010EDB
:1027080000018625606F616B000E6123000E636F08
:10271800140E626F84EC18F000016051896F20EE8E
:10272800E2F38951DE18D8A49CEF13F09EEF13F062
:10273800A4EF13F08351AEEC21F0000EC0EF13F0BC
:1027480020EE74F0600084FF86F086510F0DB50E00
:10275800F324E16E020EF420E26E0E0E6F006FFF9E
:10276800E3FFE806FBE220EEE1F3600027F2DFFF7B
:102778008351AEEC21F0010E1200150E016E000E11
:10278800026ED5EC21F001C028F002C029F02850D3
:102798002910D8B4D2EF13F0D4EF13F0F9EF13F0F7
:1027A800150E016E000E026E000E046E000E036E12
:1027B800C8EC21F028C002F029C003F020EE15F083
:1027C80000EE04F00E0E6F006FFFEBFFE806FBE271
:1027D80024C013F02FEC1CF0600097F0D9FF6000C4
:1027E8009BF0DAFFDF6E39EF14F0245004EC22F08E
:1027F800600084FF27F0010E2724016E026A000E94
:102808000222000E046E140E036EDDEC18F0015067
:102818002A6E20EEE2F32A50DE18D8A416EF14F040
:1028280018EF14F01EEF14F02450F9EC21F0000E0C
:102838003AEF14F020EE15F0600084FF27F02750DF
:102848000F0DB50EF324E16E020EF420E26E0E0EAB
:102858006F006FFFE3FFE806FBE220EEE1F36000A4
:10286800ABF0DFFF2450F9EC21F0010E120000015B
:1028780020EE08F08751D9268851DA22DF50896F77
:1028880089C08AF08B6B8C6B8D6B8CC08DF08BC084
:102898008CF08AC08BF08A6B20EE07F08751D9261E
:1028A8008851DA22DF508E6F8EC08FF0906B916B5B
:1028B800926B90C092F08FC091F0906B8F6B20EE6E
:1028C80006F08751D9268851DA22DF50936F93C0DA
:1028D80094F0956B966B976B94C097F0966B956B8D
:1028E800946B8F519425986F90519521996F9151C0
:1028F80096219A6F925197219B6F8A5198259C6FC8
:102908008B5199219D6F8C519A219E6F8D519B21DE
:102918009F6F20EE09F08751D9268851DA22DF50BF
:10292800A06FA0519C25A16F000E9D21A26F000EE3
:102938009E21A36F000E9F21A46F40EC22F060C07F
:102948007FF061C080F0A1C081F0A2C082F0A3C076
:1029580083F0A4C084F074EC17F01200000E00019C
:10296800696F000E686F68C060F069C061F0000EA2
:10297800636F0F0E626FD1EC20F0B50E0001602579
:10298800666F020E6121676F43EC1EF00001684B11
:10299800692B69BFD9EF14F0695109E1140E685D1C
:1029A800D8A0D9EF14F0DBEF14F0B7EF14F0000E55
:1029B800696F000E686F68C060F069C061F0000E52
:1029C800636F110E626FD1EC20F0E90E00016025F3
:1029D800D96E010E6121DA6E000EDE6E000EDD6E1C
:1029E80068C060F069C061F0000E636F110E626F1D
:1029F800D1EC20F0EB0E00016025666F010E61211D
:102A0800676F43EC1EF00001684B692B69BF16EF36
:102A180015F0695109E10C0E685DD8A016EF15F0A4
:102A280018EF15F0DFEF14F0000E6F00A0FFE1F3D0
:102A3800000E6F00A0FFE2F31200000E2E6E2E5063
:102A4800110DEB0EF324D96E010EF420DA6EDF506F
:102A5800D8B431EF15F033EF15F083EF15F02E50A1
:102A6800110DE90EF324D96E010EF420DA6E0A0E68
:102A7800DE5E000EDD5A2E50110DE90EF324D96EDC
:102A8800010EF420DA6EDE50DE10D8A44EEF15F0F9
:102A980050EF15F083EF15F02E50110DEB0EF324C7
:102AA800D96E010EF420DA6E00EE15F00E0E6F00EE
:102AB8006FFFEBFFE806FBE2010E246E2D0E256E7C
:102AC800000E266EC1EC13F0E806D8A46EEF15F0E0
:102AD80070EF15F077EF15F0010E036E2E5066ECCF
:102AE80020F083EF15F02E50110DE90EF324D96E66
:102AF800010EF420DA6E010EDE6E000EDD6E2E2A57
:102B08000B0E2E648AEF15F08CEF15F023EF15F0FD
:102B180012006000FFF1D9FF600003F2DAFF100E27
:102B2800DF6E000120EE01F07F51D9268051DA22B4
:102B3800010EDF6E20EE02F07F51D9268051DA2295
:102B4800640EDF6E20EE03F07F51D9268051DA2221
:102B5800600EDF6E20EE04F07F51D9268051DA2214
:102B6800000EDF6E20EE05F07F51D9268051DA2263
:102B7800010EDF6E7FC070F080C071F00BEC0DF0BD
:102B88007FC066F080C067F069EC10F0000120EEAD
:102B98006AF07F51D9268051DA22DF50836F20EE08
:102BA8006BF07F51D9268051DA22DF50846F20EEF6
:102BB8006CF07F51D9268051DA22DF50856F20EEE4
:102BC8006DF07F51D9268051DA22DF50866F83C09D
:102BD8007FF084C080F085C081F086C082F012004A
:102BE8006000FFF1D9FF600003F2DAFF100EDF6E1C
:102BF800000120EE01F07F51D9268051DA22010E22
:102C0800DF6E20EE02F07F51D9268051DA22410E84
:102C1800DF6E20EE03F07F51D9268051DA22600E54
:102C2800DF6E20EE04F07F51D9268051DA22000EA3
:102C3800DF6E20EE05F07F51D9268051DA22010E91
:102C4800DF6E7FC070F080C071F00BEC0DF07FC0BC
:102C580066F080C067F069EC10F0000120EE6AF0C1
:102C68007F51D9268051DA22DF50816F20EE6BF038
:102C78007F51D9268051DA22DF50826FED51D8B4C6
:102C880048EF16F04AEF16F050EF16F0EE0E806F90
:102C9800EE0E7F6F54EF16F081C07FF082C080F097
:102CA8001200000E0001646F60EF16F0000ECCB643
:102CB800010E646F9BEF16F0600083F1D9FF60008E
:102CC80087F1DAFFDF50626F636B6351000AD8B493
:102CD80070EF16F09BEF16F06251010AD8B45AEF64
:102CE80016F0030AD8B49BEF16F0010AD8B49BEF8C
:102CF80016F0070AD8B49BEF16F0010AD8B49BEF78
:102D080016F0030AD8B49BEF16F0010AD8B49BEF6B
:102D180016F00F0AD8B49BEF16F0010AD8B49BEF4F
:102D280016F0030AD8B49BEF16F09BEF16F020EECE
:102D380001F06051D9266151DA22DE04D8A4A7EF48
:102D480016F0A9EF16F0B4EF16F06451D8B4AFEF4F
:102D580016F0B2EF16F0010EB3EF16F0000E646F26
:102D680064511200000E00016F6F000E6E6F04EFC9
:102D780017F0800E6D6F000E6C6F60008BF1D9FF3D
:102D880060008FF1DAFF6F0078FF68F06F0074FF62
:102D980069F0020E6227000E6323000E6E156A6F3B
:102DA800800E6F156B6FD8906E376F376C51681542
:102DB800666F6D516915676F66516711D8B4E7EF93
:102DC80016F0E9EF16F0EBEF16F06E4B6F2B6A5129
:102DD8006B11D8B4F2EF16F0F4EF16F0F8EF16F026
:102DE800210E6E1B100E6F1BD8906D336C336C5117
:102DF8006D11D8A402EF17F004EF17F0D1EF16F019
:102E08006407D8A06507642906E16529D8A40FEFEF
:102E180017F011EF17F0BDEF16F06EC060F06FC03D
:102E280061F012000C0E0001996F9A0E666F000E89
:102E3800676F43EC1EF09A0E0001606F000E616F21
:102E48008AC062F08BC063F092EC21F09A0E000108
:102E5800606F000E616F8CC062F08DC063F0A0ECF3
:102E680021F09A0E0001606F000E616F8EC062F053
:102E78000FEC22F09A0E0001606F000E616F8FC098
:102E880062F090C063F076EC21F09A0E0001606F5A
:102E9800000E616F91C062F092C063F093C064F05D
:102EA80094C065F095C066F096C067F097C068F06A
:102EB80098C069F046EC20F020EE9AF000EE74F02D
:102EC8000E0E6F006FFFEBFFE806FBE2000E00013D
:102ED800836F990E846F000E856F43EC13F0120018
:102EE8006000FFF1D9FF600003F2DAFF110EDF6E18
:102EF800000120EE01F07F51D9268051DA22030E1D
:102F0800DF6E20EE02F07F51D9268051DA22620E60
:102F1800DF6E20EE03F07F51D9268051DA22200E91
:102F2800DF6E20EE04F07F51D9268051DA22000EA0
:102F3800DF6E20EE05F07F51D9268051DA22010E8E
:102F4800DF6E20EE06F07F51D9268051DA2260002C
:102F580007F2DFFF20EE07F07F51D9268051DA22F1
:102F680060000BF2DFFF20EE08F07F51D926805178
:102F7800DA2260000FF2DFFF20EE09F07F51D92638
:102F88008051DA22600013F2DFFF7FC070F080C04A
:102F980071F00BEC0DF0120040EC22F060C07FF0F5
:102FA80061C080F0F4EC15F07FC085F080C086F039
:102FB80085C087F03AEC22F060C062F061C063F02F
:102FC800010E0001646FE7EC20F00009D8B4EFEFC0
:102FD80017F0F1EF17F029EF18F0000120EE03F0D9
:102FE8008351D9268451DA221F0EDE6E050EDE6E5D
:102FF800000EDE6E000EDD6E20EE07F08351D9263E
:103008008451DA22020EDF6E20EE08F08351D926B1
:103018008451DA22000EDF6E20EE09F08351D926A2
:103028008451DA2260001FF2DFFF20EE10F0835196
:10303800D9268451DA22000EDF6E020E8325726FC4
:10304800000E8421736F78EC09F012000001776F8D
:10305800000E0001786F000E7B6F000E7C6F000E73
:10306800796F000E7A6F7751BBEC21F020EEE2F316
:1030780010EEE1F3DE50E618D8A445EF18F047EF5C
:1030880018F057EF18F000017751AEEC21F020EE60
:1030980078F000EE66F00E0E6F006FFFEBFFE806AB
:1030A800FBE283EF18F0600088FF75F000017551AE
:1030B8000F0DB50EF324D96E020EF420DA6E10EE61
:1030C80078F00E0E6F006FFFE3FFE806FBE260008A
:1030D80088FF75F0010E7525606F616B000E612326
:1030E800000E636F140E626F84EC18F0000160002C
:1030F80080F1E2F37751AEEC21F04BEF18F01200BB
:10310800000E0001656F61BF8EEF18F08CEF18F0AC
:1031180094EF18F0606D611FD8B0612B010E656FD8
:1031280063BF9BEF18F099EF18F09FEF18F0626DEE
:10313800631FD8B0632B62516311D8B4A6EF18F09F
:10314800A8EF18F0CCEF18F0010E646FB0EF18F08C
:10315800D89062376337642B63AFB5EF18F0B7EFD9
:1031680018F0ACEF18F06251605D63516159D8A056
:10317800C0EF18F0C2EF18F0C6EF18F06251605FA8
:103188006351615BD89063336233642FB7EF18F0F3
:103198006551D8B4D2EF18F0D4EF18F0D8EF18F082
:1031A800606D611FD8B0612B60C060F061C061F0D4
:1031B8001200000E066E02BEE6EF18F0E4EF18F0FB
:1031C800ECEF18F0016C021ED8B0022A010E066E50
:1031D80004BEF3EF18F0F1EF18F0F7EF18F0036CF6
:1031E800041ED8B0042A03500410D8B4FEEF18F017
:1031F80000EF19F024EF19F0010E056E08EF19F031
:10320800D89003360436052A04AE0DEF19F00FEFF7
:1032180019F004EF19F00350015C04500258D8A0CB
:1032280018EF19F01AEF19F01EEF19F00350015EAC
:103238000450025AD89004320332052E0FEF19F0C9
:103248000650D8B42AEF19F02CEF19F030EF19F026
:10325800016C021ED8B0022A01C001F002C002F0BF
:10326800120046EC22F060C062F061C063F0010E0B
:103278000001646F19EC22F046EC22F060C066F0A1
:1032880061C067F033EC22F052EC22F060C062F0CB
:1032980061C063F0010E0001646F010E656FFCEC04
:1032A80020F052EC22F060C062F061C063F07DEC67
:1032B80022F058EC22F060C062F061C063F052EC7A
:1032C80022F060C064F061C065F075EC1EF05EEC41
:1032D80022F060C062F061C063F07EEC22F04CEC3A
:1032E80022F060C062F061C063F004EC20F03AECB8
:1032F80022F060C064F061C065F0A9EC12F040EC07
:1033080022F060C062F061C063F08CEC19F012002A
:10331800310E0001666593EF19F095EF19F097EFFC
:1033280019F0E0EF19F066516225646F000E632111
:10333800656F640E6425D96E000E6521DA6E000E85
:10334800DF6E66516225D96E000E6321DA6E000EBB
:10335800DF6E190E6661B3EF19F0B5EF19F0DDEF06
:1033680019F06651020D62C064F063C065F0F35055
:103378006427F4506523960E6425D96E000E6521E6
:10338800DA6E000EDE6E000EDD6E6651020D62C052
:1033980064F063C065F0F3506427F4506523320E7F
:1033A8006425D96E000E6521DA6E000EDE6E000E01
:1033B800DD6E662B8CEF19F012003901A3A7E7EF39
:1033C80019F0E9EF19F0E1EF19F0000E0001EC6FC8
:1033D8003D01F9A7F2EF19F0F4EF19F003EF1AF035
:1033E8000001EC8302D803EF1AF00500FA6EE951E8
:1033F800FD6EEA51FE6EF850FF6EFA5012003D0164
:10340800F9A309EF1AF00BEF1AF01AEF1AF00001FE
:10341800EC8502D81AEF1AF00500FA6EE751FD6E36
:10342800E851FE6EF850FF6EFA5012000001EC51A0
:10343800D8B421EF1AF023EF1AF030EF1AF002D8BF
:1034480030EF1AF00500FA6EE551FD6EE651FE6E9A
:10345800F850FF6EFA5012003D01E85112003AECA4
:1034680022F060C064F061C065F0020E0001666F72
:1034780020EE09F06A51D9266B51DA22DF50676FC6
:1034880084EC20F03AEC22F060C064F061C065F092
:10349800030E0001666F20EE08F06A51D9266B51C1
:1034A800DA22DF50676F84EC20F03AEC22F060C03B
:1034B80064F061C065F0040E0001666F20EE07F04D
:1034C8006A51D9266B51DA22DF50676F84EC20F0FD
:1034D8003AEC22F060C064F061C065F0050E0001AE
:1034E800666F20EE06F06A51D9266B51DA22DF505A
:1034F800676F84EC20F01200010E00017D6F110E41
:103508007E6F050E7F6F000E806F000E816F040EB8
:10351800826F3AEC22F060C062F061C063F0050E81
:103528000001646FE7EC20F00001836F3AEC22F0B1
:1035380060C062F061C063F0040E0001646FE7ECE4
:1035480020F00001846F3AEC22F060C062F061C0A4
:1035580063F0030E0001646FE7EC20F00001856F53
:103568003AEC22F060C062F061C063F0020E000124
:10357800646FE7EC20F00001866F000E8B6F7D0E04
:10358800726F000E736F78EC09F01200A9C08AF010
:10359800AAC08BF05A0E00018C6F0E0E8D6F0A0EAA
:1035A8008E6F000E906F000E8F6F000E916F000EE1
:1035B800926F000E936F000E946F000E956F000EC1
:1035C800966F000E976F000E986F16EC17F00001BB
:1035D80020EE01F0A951D926AA51DA226F0078FF0E
:1035E80060F06F0074FF61F055EC16F0E806D8B48F
:1035F80000EF1BF002EF1BF007EF1BF0040E0001B9
:10360800AB6F0AEF1BF0030E0001AB6F20EE03F067
:10361800A951D926AA51DA226000AFF2DFFF1200C1
:103628006000FFF1D9FF600003F2DAFF110EDF6ED0
:10363800000120EE01F07F51D9268051DA22020ED6
:10364800DF6E20EE02F07F51D9268051DA22600E1B
:10365800DF6E20EE03F07F51D9268051DA22600E0A
:10366800DF6E20EE04F07F51D9268051DA22000E59
:10367800DF6E20EE05F07F51D9268051DA22010E47
:10368800DF6E20EE06F07F51D9268051DA226000E5
:1036980007F2DFFF20EE07F07F51D9268051DA22AA
:1036A800000EDF6E7FC070F080C071F00BEC0DF083
:1036B80012006000FFF1D9FF600003F2DAFF110E7B
:1036C800DF6E000120EE01F07F51D9268051DA2209
:1036D800020EDF6E20EE02F07F51D9268051DA22E9
:1036E800400EDF6E20EE03F07F51D9268051DA229A
:1036F800600EDF6E20EE04F07F51D9268051DA2269
:10370800000EDF6E20EE05F07F51D9268051DA22B7
:10371800010EDF6E20EE06F07F51D9268051DA22A5
:10372800600007F2DFFF20EE07F07F51D9268051B5
:10373800DA228251DF6E7FC070F080C071F00BEC2E
:103748000DF0120000017251BBEC21F0000E0001D7
:10375800736F7351110DEB0EF324D96E010EF42023
:10376800DA6EDF50D8A4BBEF1BF0BDEF1BF0DDEF26
:103778001BF07351110DE90EF324D96E010EF420DC
:10378800DA6E600087F1DEFF60008BF1DDFF20EE6E
:1037980063F07351110DEB0EF324E16E010EF4206A
:1037A800E26E0E0E6F006FFFE3FFE806FBE2E6EF46
:1037B8001BF0732B0B0E7365E4EF1BF0E6EF1BF0A9
:1037C800ADEF1BF07251AEEC21F000017351120005
:1037D800A9C08AF0AAC08BF01E0E00018C6F000EE3
:1037E8008D6F2F0E8E6F000E906F000E8F6F000E74
:1037F800916F000E926F000E936F000E946F000E83
:10380800956F000E966F000E976F000E986F16EC6E
:1038180017F0A9C08AF0AAC08BF01E0E00018C6FA9
:10382800000E8D6F280E8E6F000E906F000E8F6F3A
:10383800000E916F000E926F000E936F000E946F42
:10384800000E956F000E966F000E976F000E986F22
:1038580016EC17F01200135004EC22F0000E146E50
:103868001450110DEB0EF324D96E010EF420DA6E0C
:10387800DF50D8A442EF1CF044EF1CF064EF1CF0BA
:103888001450110DE90EF324D96E010EF420DA6EEE
:1038980060000BF0DEFF60000FF0DDFF20EE04F0AB
:1038A8001450110DEB0EF324E16E010EF420E26EBC
:1038B8000E0E6F006FFFE3FFE806FBE26DEF1CF0F2
:1038C800142A0B0E14646BEF1CF06DEF1CF034EF30
:1038D8001CF01350F9EC21F01450120077EF1CF093
:1038E800BB82B3EF1CF060008BF1D9FF60008FF151
:1038F800DAFFDF500001646F656B6551000AD8B4C8
:1039080088EF1CF0B3EF1CF06451010AD8B474EFCF
:103918001CF0030AD8B4B3EF1CF0010AD8B4B3EF13
:103928001CF0070AD8B4B3EF1CF0010AD8B4B3EFFF
:103938001CF0030AD8B4B3EF1CF0010AD8B4B3EFF3
:103948001CF00F0AD8B4B3EF1CF0010AD8B4B3EFD7
:103958001CF0030AD8B4B3EF1CF0B3EF1CF012004C
:10396800B9EF1CF0BB92F5EF1CF060008BF1D9FFAA
:1039780060008FF1DAFFDF500001646F656B6551FD
:10398800000AD8B4CAEF1CF0F5EF1CF06451010A24
:10399800D8B4B6EF1CF0030AD8B4F5EF1CF0010A4E
:1039A800D8B4F5EF1CF0070AD8B4F5EF1CF0010AFB
:1039B800D8B4F5EF1CF0030AD8B4F5EF1CF0010AEF
:1039C800D8B4F5EF1CF00F0AD8B4F5EF1CF0010AD3
:1039D800D8B4F5EF1CF0030AD8B4F5EF1CF0F5EFF6
:1039E8001CF012000001666F00016651646F656B80
:1039F800D89064376537D89064376537D89064377E
:103A0800653764C06BF065C06CF0000E6CBFFF0ECC
:103A18006D6F6E6F60C064F0050E656FD89064338B
:103A2800652F12EF1DF064516B256B6F000E6C2132
:103A38006C6F000E6D216D6F000E6E216E6F6BC086
:103A480067F06CC068F06DC069F06EC06AF067C05E
:103A580060F068C061F069C062F06AC063F012008B
:103A6800000E2AEC18F020EED4F00E0E6F00AFFF17
:103A7800DBFFE806FBE20001D451D8B446EF1DF0A5
:103A880048EF1DF06DEF1DF0D751D811D8B44FEFA6
:103A98001DF051EF1DF06DEF1DF0D551D611D8B4C2
:103AA80058EF1DF05AEF1DF06DEF1DF0D40EC36FE7
:103AB800000EC46F20EED5F002D86DEF1DF00500A2
:103AC800FA6EDE50FD6EDE50FE6EF850FF6EFA5054
:103AD80012001200000E0001656F000E646F600096
:103AE8008BF1D9FF60008FF1DAFF000EDF6E9AEFDD
:103AF8001DF0350EE82EFED700F00001644B652B53
:103B0800210E645D4E0E6559D8A08DEF1DF08FEF24
:103B18001DF09AEF1DF060008BF1D9FF60008FF166
:103B2800DAFFFF0EDF6EEE0EA6EF1DF0EEEC21F0D1
:103B38000009D8B4A2EF1DF0A4EF1DF07DEF1DF031
:103B4800E1EC19F01200000E3D01EC6F000EED6F74
:103B5800000EEE6F000EEF6F000EF06F000EF16FAB
:103B6800B00EF26F800EF36F000EF46F8A0EF56FD1
:103B7800000EF66F000EF76F000EF86F000EF96F6B
:103B8800000EFA6FF60E0001606F440E616F69EC6B
:103B980022F0F40E0001606F440E616F64EC22F0B5
:103BA800F80E0001606F440E616F6EEC22F0000E9B
:103BB8000001EC6F1200BBB0E4EF1DF0E7EF1DF061
:103BC800010EE8EF1DF0000EFF0A0001A96FBB50BF
:103BD800A919FE0BA919BB6E000E8A6F010E8B6F17
:103BE800BE0E8C6F3B0E8D6F0B0E8E6F030E906F9B
:103BF800E80E8F6F000E916F000E926F000E936F9C
:103C0800000E946F000E956F000E966F000E976F62
:103C1800000E986F16EC17F0120058EC22F060C0F6
:103C2800A9F061C0AAF0CAEC1AF04CEC22F060C00E
:103C3800A9F061C0AAF0ECEC1BF0000E00018A6F3D
:103C4800010E8B6FBE0E8C6F3B0E8D6F0B0E8E6F41
:103C5800030E906FE80E8F6F000E916F000E926F3B
:103C6800000E936F000E946F000E956F000E966F06
:103C7800000E976F000E986F16EC17F01200600098
:103C88009BF1D9FF60009FF1DAFF000EDF6E0001A3
:103C980020EE05F06651D9266751DA22000EDE6E55
:103CA800000EDD6E20EE03F06651D9266751DA2248
:103CB800000EDE6E000EDD6E20EE07F06651D9268E
:103CC8006751DA22070EDE6AE806FDE220EE01F00F
:103CD8006651D9266751DA22000EDE6E000EDD6EBF
:103CE800120060008BF1D9FF60008FF1DAFF000E3F
:103CF800DF6E000120EE01F06251D9266351DA220D
:103D0800600093F1DEFF600097F1DDFF20EE03F025
:103D18006251D9266351DA22000EDF6E20EE06F0DA
:103D28006251D9266351DA22000EDE6E000EDD6E76
:103D380020EE04F06251D9266351DA22000EDE6EBD
:103D4800000EDD6E1200600007F0D9FF60000BF076
:103D5800DAFF000EDF6E20EE05F00150D926025082
:103D6800DA22000EDE6E000EDD6E20EE03F001504A
:103D7800D9260250DA22000EDE6E000EDD6E20EE2D
:103D880007F00150D9260250DA22070EDE6AE8064B
:103D9800FDE220EE01F00150D9260250DA22000E91
:103DA800DE6E000EDD6E1200000120EE07F060519D
:103DB800D9266151DA226F0078FF68F06F0078FF2A
:103DC80069F06F0078FF6AF06F0078FF6BF06F00A2
:103DD80078FF6CF06F0078FF6DF06F0078FF6EF081
:103DE8006F0078FF6FF068C060F069C061F06AC06A
:103DF80062F06BC063F06CC064F06DC065F06EC0BB
:103E080066F06FC067F01200000EBA6E000EBB6E4F
:103E1800000EBC6EC268F80EC36EDF0EC46EA70E2D
:103E28003A01606FF40E506F4069000E816F000E0A
:103E3800516F800E416F000E616F000E426F000ED1
:103E4800526F000E626F436953696369446954692C
:103E58006469080E846F330E0A6F0B0EED6F130E34
:103E6800156F160EE76F120040EC22F060C07FF06D
:103E780061C080F08DEC15F07FC089F080C08AF0B9
:103E880081C08BF082C08CF0010E00018D6F120E84
:103E98008E6F050E8F6F000E906F000E916F040EDF
:103EA800926F89C096F08AC095F08BC094F08CC050
:103EB80093F0000E9B6F8D0E726F000E736F78EC8F
:103EC80009F012006F00E8FF2FF06F00ECFF30F0F0
:103ED800390195AD72EF1FF074EF1FF07DEF1FF001
:103EE800A5AD79EF1FF07BEF1FF07DEF1FF08DEF91
:103EF8001FF093AF82EF1FF084EF1FF08DEF1FF0DC
:103F0800A3AF89EF1FF08BEF1FF08DEF1FF0B8EC18
:103F180020F06000C3F0FBFF6000BFF0FAFF110063
:103F2800000ED2BE010E0001636F6151030B39010F
:103F3800E16F600083F1E0F960008BF1E3F93F0E77
:103F4800E517E585D29E550EE66FAA0EE66FE58366
:103F5800E5B3B1EF1FF0B3EF1FF0ACEF1FF0E5953D
:103F6800000163B102D0D29E01D0D28E120059EC6A
:103F780021F0520E0001E46F2B0EE36F000EE82EC5
:103F8800FED7E32FFCD7E42FFAD700F0D28EB2EC9D
:103F980014F035EC19F010EC21F011EC1EF0420E83
:103FA8000001606F2A0E616F73EC22F034EC1DF093
:103FB800DAEF1FF00DEF00F000016805D8A4E7EF75
:103FC8001FF0E9EF1FF003EF20F06951D8B4EFEFCD
:103FD8001FF0F1EF1FF0FBEF1FF046EC22F060C07E
:103FE80062F061C063F072EC1CF003EF20F046EC65
:103FF80022F060C062F061C063F0B4EC1CF0120003
:1040080060008BF1D9FF60008FF1DAFF0A0EDF6ED6
:10401800000120EE01F06251D9266351DA221E0E0A
:10402800DF6E20EE02F06251D9266351DA22010ECA
:10403800DF6E20EE10F06251D9266351DA22000EAD
:10404800DF6E120000EEE9F110EEFAF1EE6AE550CB
:10405800E150FCE1E250FAE100EE00F1E90EEE6A0F
:10406800E806FDE10001ED6BEC6BEB6B336A080EC3
:10407800D56E000ED66E000ED76E000EF86E0001DB
:10408800BBEF1FF0000120EE07F06051D926615107
:10409800DA2260008BF1DEFF60008FF1DEFF600046
:1040A80093F1DEFF600097F1DEFF60009BF1DEFF19
:1040B80060009FF1DEFF6000A3F1DEFF6000A7F162
:1040C800DEFF1200046E035004EC22F00450110DC0
:1040D800E90EF324D96E010EF420DA6E000EDE6EBE
:1040E800000EDD6E0450110DEB0EF324016E010E6F
:1040F800F420026EA7EC1EF00350F9EC21F0120038
:10410800050E000166618BEF20F08DEF20F09DEF2A
:1041180020F066516425D96E000E6521DA6E6000C4
:104128009FF1DFFF66C060F0616B67C062F094ECDE
:104138001FF01200000120EE06F06251D9266351EB
:10414800DA22600093F1DEFF600097F1DDFF20EED8
:1041580004F06251D9266351DA2260009BF1DEFF38
:1041680060009FF1DDFF12003901A39F315032102A
:10417800D8B4C1EF20F0C3EF20F0D0EF20F002D880
:10418800D0EF20F00500FA6E3150FD6E3250FE6E11
:10419800F850FF6EFA5012001200000160516203DD
:1041A8006F00CCFF64F06F00D0FF65F060516303CF
:1041B800F350652761516203F350652764C060F0CE
:1041C80065C061F01200000E0001656F050E6461A4
:1041D800F0EF20F0F2EF20F0FAEF20F064516225C2
:1041E800D96E000E6321DA6EDF50656F65511200DB
:1041F80060008BF1D9FF60008FF1DAFF600093F166
:10420800DFFF000120EE01F06251D9266351DA2266
:10421800600097F1DFFF120058EC22F060C062F0F6
:1042280061C063F05EEC22F060C064F061C065F0CC
:10423800C00E0001666F3F0E676F9EEC20F0120003
:10424800460EB96EF90EB76E000EB66E3901A39F11
:10425800938FFE0E0001606F440E616F73EC22F0C5
:10426800890EB86E1200000E3901C06F000EC16FC2
:10427800000EC26F000EC36F000EC46F000EC56F34
:10428800000EC66F000EC76F120000016151030BCC
:104298003901E16F600083F1E0F93F0EE517E58130
:1042A80000F000F03901E351120078EC22F037EC0D
:1042B80021F008EC1FF0E2EC21F024EC21F0A7EC4F
:1042C8001DF061EC0EF012000001606F3901A3A926
:1042D80070EF21F072EF21F06AEF21F0600083F1B6
:1042E800EAFD1200000120EE05F06051D926615167
:1042F800DA2260008BF1DEFF60008FF1DDFF120033
:10430800000120EE05F06051D9266151DA226F00D4
:1043180078FF60F06F0074FF61F01200000120EE7A
:1043280003F06051D9266151DA2260008BF1DEFF7B
:1043380060008FF1DDFF1200000120EE01F06051F6
:10434800D9266151DA2260008BF1DEFF60008FF11F
:10435800DDFF12000001606F00016051D8A4B7EFC3
:1043680021F0B9EF21F0BAEF21F0D28E120000014E
:10437800606F00016051D8A4C4EF21F0C6EF21F0AE
:10438800C7EF21F0D29E120020EE05F00150D92689
:104398000250DA2260000FF0DEFF600013F0DDFF4C
:1043A800120020EE05F00150D9260250DA226F00E3
:1043B80078FF01F06F0074FF02F01200600E3901FF
:1043C800D96F000EDB6F000EDD6F080EDF6F000E79
:1043D800DE6F12003901A3B7F4EF21F0F7EF21F0F7
:1043E800010EF8EF21F0000E1200016E0150D8A462
:1043F80000EF22F002EF22F003EF22F0D28E12003B
:10440800016E0150D8A40BEF22F00DEF22F00EEF51
:1044180022F0D29E1200600083F1D9FF600087F17C
:10442800DAFF60008BF1DFFF120060008BF1D9FF2B
:1044380060008FF1DAFF600093F1DFFF1200600087
:1044480083F1D9FF600087F1DAFFDF5012006000C6
:1044580083F1D9FF600087F1DAFFDF50120066C0F0
:1044680062F067C063F0B4EC1CF012001C0E00018F
:10447800606F010E616F1200210E0001606F010E66
:10448800616F1200000E0001606F010E616F120073
:104498000B0E0001606F010E616F1200010E00012A
:1044A800606F010E616F1200030E0001606F010E54
:1044B800616F12000B0E0001606F010E616F120038
:1044C80060C0E7F061C0E8F0120060C0E9F061C0C8
:1044D800EAF0120060C0E5F061C0E6F0120060C0CA
:1044E80031F061C032F01200D29A120012001200AC
:0844F800120012001200120074
:020000040020DA
:10000000FF0FFF0FFF0FFF0FFF0FFF0FFF0FFF0F80
:020000040030CA
:0A0000008CFFF7FF9FFFFFFFFFFFDB
:00000001FF
