:040000000DEF00F010
:0400080032EF29F0BA
:10001800FF0034EF2AF0000120EE03F0B151D92699
:10002800B251DA226F0078FFDFF06F0074FFE0F062
:1000380060007FF3D9FF600083F3DAFFDF50CF6FF2
:1000480089EF03F0B1C060F0B2C061F02AEC2CF087
:10005800280AD8A432EF00F034EF00F0FCEF03F0E8
:1000680060007FF3D9FF600083F3DAFF1F0EDF6EB5
:10007800FCEF03F0B1C060F0B2C061F02AEC2CF0E4
:10008800290AD8A44AEF00F04CEF00F0FCEF03F087
:1000980060007FF3D9FF600083F3DAFF200EDF6E84
:1000A800FCEF03F060007FF3D9FF600083F3DAFF11
:1000B800210EDF6EFCEF03F060007FF3D9FF6000D4
:1000C80083F3DAFF2B0EDF6EFCEF03F060007FF3A3
:1000D800D9FF600083F3DAFF350EDF6EFCEF03F023
:1000E80060007FF3D9FF600083F3DAFF360EDF6E1E
:1000F800FCEF03F0B1C060F0B2C061F02AEC2CF064
:100108000001B36FB46BB451000AD8B48EEF00F09D
:10011800FCEF03F0B3512A0AD8B474EF00F0010AD7
:10012800D8B456EF00F01D0AD8B460EF00F0770A93
:10013800D8B46AEF00F0FCEF03F0B1C060F0B2C0D1
:1001480061F02AEC2CF02C0AD8A4ADEF00F0AFEF48
:1001580000F0FCEF03F060007FF3D9FF600083F349
:10016800DAFF220EDF6EFCEF03F0B1C060F0B2C020
:1001780061F02AEC2CF02D0AD8A4C5EF00F0C7EFE7
:1001880000F0D1EF00F060007FF3D9FF600083F347
:10019800DAFF230EDF6EFCEF03F0B1C060F0B2C0EF
:1001A80061F02AEC2CF02A0AD8A4DDEF00F0DFEF8A
:1001B80000F0FCEF03F060007FF3D9FF600083F3E9
:1001C800DAFF210EDF6EFCEF03F0B1C060F0B2C0C1
:1001D80061F02AEC2CF02E0AD8A4F5EF00F0F7EF26
:1001E80000F0FCEF03F060007FF3D9FF600083F3B9
:1001F800DAFF240EDF6EFCEF03F0B1C060F0B2C08E
:1002080061F02AEC2CF02F0AD8A40DEF01F00FEFC3
:1002180001F019EF01F060007FF3D9FF600083F36C
:10022800DAFF250EDF6EFCEF03F0B1C060F0B2C05C
:1002380061F02AEC2CF02A0AD8A425EF01F027EF68
:1002480001F0FCEF03F060007FF3D9FF600083F357
:10025800DAFF230EDF6EFCEF03F0B1C060F0B2C02E
:1002680061F02AEC2CF0300AD8A43DEF01F03FEF02
:1002780001F0FCEF03F060007FF3D9FF600083F327
:10028800DAFF260EDF6EFCEF03F0B1C060F0B2C0FB
:1002980061F02AEC2CF0310AD8A455EF01F057EFA1
:1002A80001F061EF01F060007FF3D9FF600083F394
:1002B800DAFF270EDF6EFCEF03F0B1C060F0B2C0CA
:1002C80061F02AEC2CF02A0AD8A46DEF01F06FEF48
:1002D80001F0FCEF03F060007FF3D9FF600083F3C7
:1002E800DAFF250EDF6EFCEF03F0B1C060F0B2C09C
:1002F80061F02AEC2CF0320AD8A485EF01F087EFE0
:1003080001F0FCEF03F060007FF3D9FF600083F396
:10031800DAFF280EDF6EFCEF03F0B1C060F0B2C068
:1003280061F02AEC2CF0330AD8A49DEF01F09FEF7E
:1003380001F0A9EF01F060007FF3D9FF600083F3BB
:10034800DAFF290EDF6EFCEF03F0B1C060F0B2C037
:1003580061F02AEC2CF02A0AD8A4B5EF01F0B7EF27
:1003680001F0FCEF03F060007FF3D9FF600083F336
:10037800DAFF270EDF6EFCEF03F0B1C060F0B2C009
:1003880061F02AEC2CF0340AD8A4CDEF01F0CFEFBD
:1003980001F0FCEF03F060007FF3D9FF600083F306
:1003A800DAFF2A0EDF6EFCEF03F0B1C060F0B2C0D6
:1003B80061F02AEC2CF0350AD8A4E5EF01F0E7EF5C
:1003C80001F0F1EF01F060007FF3D9FF600083F3E3
:1003D800DAFF200EDF6EFCEF03F0B1C060F0B2C0B0
:1003E80061F02AEC2CF02A0AD8A4FDEF01F0FFEF07
:1003F80001F0FCEF03F060007FF3D9FF600083F3A6
:10040800DAFF290EDF6EFCEF03F0B1C060F0B2C076
:1004180061F02AEC2CF0370AD8A415EF02F017EF98
:1004280002F0FCEF03F060007FF3D9FF600083F374
:10043800DAFF2C0EDF6EFCEF03F0B1C060F0B2C043
:1004480061F02AEC2CF0380AD8A42DEF02F02FEF37
:1004580002F039EF02F060007FF3D9FF600083F308
:10046800DAFF2D0EDF6EFCEF03F0B1C060F0B2C012
:1004780061F02AEC2CF02A0AD8A445EF02F047EFE5
:1004880002F0FCEF03F060007FF3D9FF600083F314
:10049800DAFF2B0EDF6EFCEF03F0B1C060F0B2C0E4
:1004A80061F02AEC2CF0390AD8A45DEF02F05FEF76
:1004B80002F0FCEF03F060007FF3D9FF600083F3E4
:1004C800DAFF2E0EDF6EFCEF03F0B1C060F0B2C0B1
:1004D80061F02AEC2CF03A0AD8A475EF02F077EF15
:1004E80002F081EF02F060007FF3D9FF600083F330
:1004F800DAFF2F0EDF6EFCEF03F0B1C060F0B2C080
:1005080061F02AEC2CF02A0AD8A48DEF02F08FEFC4
:1005180002F0FCEF03F060007FF3D9FF600083F383
:10052800DAFF2D0EDF6EFCEF03F0B1C060F0B2C051
:1005380061F02AEC2CF03B0AD8A4A5EF02F0A7EF53
:1005480002F0FCEF03F060007FF3D9FF600083F353
:10055800DAFF300EDF6EFCEF03F0B1C060F0B2C01E
:1005680061F02AEC2CF03C0AD8A4BDEF02F0BFEFF2
:1005780002F0C9EF02F060007FF3D9FF600083F357
:10058800DAFF310EDF6EFCEF03F0B1C060F0B2C0ED
:1005980061F02AEC2CF02A0AD8A4D5EF02F0D7EFA4
:1005A80002F0FCEF03F060007FF3D9FF600083F3F3
:1005B800DAFF2F0EDF6EFCEF03F0B1C060F0B2C0BF
:1005C80061F02AEC2CF03D0AD8A4EDEF02F0EFEF31
:1005D80002F0FCEF03F060007FF3D9FF600083F3C3
:1005E800DAFF320EDF6EFCEF03F0B1C060F0B2C08C
:1005F80061F02AEC2CF03E0AD8A405EF03F007EFCF
:1006080003F011EF03F060007FF3D9FF600083F37C
:10061800DAFF330EDF6EFCEF03F0B1C060F0B2C05A
:1006280061F02AEC2CF02A0AD8A41DEF03F01FEF82
:1006380003F0FCEF03F060007FF3D9FF600083F361
:10064800DAFF310EDF6EFCEF03F0B1C060F0B2C02C
:1006580061F02AEC2CF03F0AD8A435EF03F037EF0D
:1006680003F0FCEF03F060007FF3D9FF600083F331
:10067800DAFF340EDF6EFCEF03F0B1C060F0B2C0F9
:1006880061F02AEC2CF0400AD8A44DEF03F04FEFAC
:1006980003F059EF03F060007FF3D9FF600083F3A4
:1006A800DAFF200EDF6EFCEF03F0B1C060F0B2C0DD
:1006B80061F02AEC2CF02A0AD8A465EF03F067EF62
:1006C80003F0FCEF03F060007FF3D9FF600083F3D1
:1006D800DAFF330EDF6EFCEF03F0B1C060F0B2C09A
:1006E80061F02AEC2CF02A0AD8A47DEF03F07FEF02
:1006F80003F0FCEF03F060007FF3D9FF600083F3A1
:10070800DAFF200EDF6EFCEF03F060007FF3D9FF05
:10071800600083F3DAFFDF50B36FB46BB451000AA3
:10072800D8B499EF03F0FCEF03F0B3511E0AD8B424
:1007380026EF00F0010AD8B43EEF00F03F0AD8B423
:100748007EEF00F0010AD8B4A1EF00F0030AD8B494
:10075800B9EF00F0010AD8B4E9EF00F0070AD8B4FD
:1007680001EF01F0010AD8B431EF01F0030AD8B45F
:1007780049EF01F0010AD8B479EF01F00F0AD8B4B3
:1007880091EF01F0010AD8B4C1EF01F0030AD8B41F
:10079800D9EF01F0010AD8B409EF02F0070AD8B47A
:1007A80021EF02F0010AD8B451EF02F0030AD8B4DD
:1007B80069EF02F0010AD8B499EF02F01F0AD8B421
:1007C800B1EF02F0010AD8B4E1EF02F0030AD8B49D
:1007D800F9EF02F0010AD8B429EF03F0070AD8B4F8
:1007E80041EF03F0010AD8B471EF03F0FCEF03F016
:1007F80060007FF3D9FF600083F3DAFF0001CF5177
:10080800DE18D8B40AEF04F00CEF04F0D0EF0BF0C8
:1008180059EF0BF059EC2CF0020E00016025D96E4F
:10082800000E6121DA6E10EE01F0DF51E126E05191
:10083800E2220E0E6F006FFFE3FFE806FBE2DFC067
:100848008AF0E0C08BF01E0E8C6F000E8D6F290EA3
:100858008E6F000E906F000E8F6F000E916F000E5E
:10086800926F000E936F000E946F000E956F000E3E
:10087800966F000E976F000E986FA2EC20F0D0EFE5
:100888000BF020EE0AF0DF51D926E051DA22DF50D2
:10089800D8B451EF04F053EF04F06FEF04F047ECD5
:1008A8002CF060C064F061C065F0010E0001666F55
:1008B80020EE0AF0DF51D926E051DA22DF50676FC7
:1008C8008BEC2AF0000120EE0AF0DF51D926E05126
:1008D800DA22000EDF6E20EE07F0DF51D926E05154
:1008E800DA22DF50D8B47BEF04F07DEF04F09FEFFD
:1008F80004F0DFC08AF0E0C08BF01E0E8C6F000E93
:100908008D6F2B0E8E6F000E906F000E8F6F000E86
:10091800916F000E926F000E936F000E946F000E91
:10092800956F000E966F000E976F000E986FA2ECF1
:1009380020F0D0EF0BF020EE08F0DF51D926E0517F
:10094800DA22DF50D8B4ABEF04F0ADEF04F0CFEF0C
:1009580004F0DFC08AF0E0C08BF01E0E8C6F000E32
:100968008D6F360E8E6F000E906F000E8F6F000E1B
:10097800916F000E926F000E936F000E946F000E31
:10098800956F000E966F000E976F000E986FA2EC91
:1009980020F0D0EF0BF020EE09F0DF51D926E0511E
:1009A800DA22DF50D8B4DBEF04F0DDEF04F0FFEF1C
:1009B80004F0DFC08AF0E0C08BF01E0E8C6F000ED2
:1009C8008D6F410E8E6F000E906F000E8F6F000EB0
:1009D800916F000E926F000E936F000E946F000ED1
:1009E800956F000E966F000E976F000E986FA2EC31
:1009F80020F0D0EF0BF0DFC08AF0E0C08BF01E0EC5
:100A08008C6F000E8D6F2A0E8E6F000E906F000E89
:100A18008F6F000E916F000E926F000E936F000E95
:100A2800946F000E956F000E966F000E976F000E74
:100A3800986FA2EC20F0D0EF0BF0200ECF19D8A4BD
:100A480028EF05F02AEF05F037EF05F04DEC2CF014
:100A580060C07FF061C080F0000E0001826F000E60
:100A6800816F29EC25F0DFC08AF0E0C08BF01E0E04
:100A780000018C6F000E8D6F2C0E8E6F000E906F24
:100A8800320E8F6F000E916F000E926F000E936FF3
:100A9800000E946F000E956F000E966F000E976F04
:100AA800000E986FA2EC20F0D0EF0BF04DEC2CF07C
:100AB80060C07FF061C080F043EC20F000017F51FE
:100AC8008011D8A46AEF05F06CEF05F08CEF05F003
:100AD800DFC08AF0E0C08BF01E0E8C6F000E8D6FA9
:100AE8002D0E8E6F000E906F000E8F6F000E916F9F
:100AF800000E926F000E936F000E946F000E956FAC
:100B0800000E966F000E976F000E986FA2EC20F003
:100B1800DFC08AF0E0C08BF01E0E00018C6F000E63
:100B28008D6F2A0E8E6F000E906F000E8F6F000E65
:100B3800916F000E926F000E936F000E946F000E6F
:100B4800956F000E966F000E976F000E986FA2ECCF
:100B580020F0D0EF0BF0220ECF19D8A4B6EF05F095
:100B6800B8EF05F0C5EF05F04DEC2CF060C07FF054
:100B780061C080F0000E0001826F800E816F29EC49
:100B880025F0DFC08AF0E0C08BF01E0E00018C6FEC
:100B9800000E8D6F2E0E8E6F000E906F320E8F6FBF
:100BA800000E916F000E926F000E936F000E946FFF
:100BB800000E956F000E966F000E976F000E986FDF
:100BC800A2EC20F0D0EF0BF04DEC2CF060C07FF0E1
:100BD80061C080F043EC20F0800E00017F19801185
:100BE800D8A4F9EF05F0FBEF05F01BEF06F0DFC026
:100BF8008AF0E0C08BF01E0E8C6F000E8D6F2F0EEA
:100C08008E6F000E906F000E8F6F000E916F000EAA
:100C1800926F000E936F000E946F000E956F000E8A
:100C2800966F000E976F000E986FA2EC20F0DFC051
:100C38008AF0E0C08BF01E0E00018C6F000E8D6FE5
:100C48002A0E8E6F000E906F000E8F6F000E916F40
:100C5800000E926F000E936F000E946F000E956F4A
:100C6800000E966F000E976F000E986FA2EC20F0A2
:100C7800D0EF0BF0240ECF19D8A445EF06F047EFBC
:100C880006F054EF06F04DEC2CF060C07FF061C028
:100C980080F0000E0001826F060E816F29EC25F0AE
:100CA800DFC08AF0E0C08BF01E0E00018C6F000ED2
:100CB8008D6F300E8E6F000E906F320E8F6F000E9C
:100CC800916F000E926F000E936F000E946F000EDE
:100CD800956F000E966F000E976F000E986FA2EC3E
:100CE80020F0D0EF0BF04DEC2CF060C07FF061C02D
:100CF80080F043EC20F0060E00017F198011D8A483
:100D080088EF06F08AEF06F0AAEF06F0DFC08AF057
:100D1800E0C08BF01E0E8C6F000E8D6F310E8E6F43
:100D2800000E906F000E8F6F000E916F000E926F85
:100D3800000E936F000E946F000E956F000E966F65
:100D4800000E976F000E986FA2EC20F0DFC08AF0BB
:100D5800E0C08BF01E0E00018C6F000E8D6F2A0E06
:100D68008E6F000E906F000E8F6F000E916F000E49
:100D7800926F000E936F000E946F000E956F000E29
:100D8800966F000E976F000E986FA2EC20F0D0EFD0
:100D98000BF0260ECF19D8A4D4EF06F0D6EF06F044
:100DA800E3EF06F04DEC2CF060C07FF061C080F0FE
:100DB800000E0001826F070E816F29EC25F0DFC05D
:100DC8008AF0E0C08BF01E0E00018C6F000E8D6F54
:100DD800320E8E6F000E906F320E8F6F000E916F75
:100DE800000E926F000E936F000E946F000E956FB9
:100DF800000E966F000E976F000E986FA2EC20F011
:100E0800D0EF0BF04DEC2CF060C07FF061C080F0AB
:100E180043EC20F0070E00017F198011D8A417EFCA
:100E280007F019EF07F039EF07F0DFC08AF0E0C0EC
:100E38008BF01E0E8C6F000E8D6F330E8E6F000EB2
:100E4800906F000E8F6F000E916F000E926F000E64
:100E5800936F000E946F000E956F000E966F000E44
:100E6800976F000E986FA2EC20F0DFC08AF0E0C008
:100E78008BF01E0E00018C6F000E8D6F2A0E8E6F88
:100E8800000E906F000E8F6F000E916F000E926F24
:100E9800000E936F000E946F000E956F000E966F04
:100EA800000E976F000E986FA2EC20F0D0EF0BF0B9
:100EB800280ECF19D8A463EF07F065EF07F072EF9B
:100EC80007F04DEC2CF060C07FF061C080F0000EA0
:100ED8000001826F0F0E816F29EC25F0DFC08AF0C8
:100EE800E0C08BF01E0E00018C6F000E8D6F340E6B
:100EF8008E6F000E906F320E8F6F000E916F000E86
:100F0800926F000E936F000E946F000E956F000E97
:100F1800966F000E976F000E986FA2EC20F0D0EF3E
:100F28000BF04DEC2CF060C07FF061C080F043EC1A
:100F380020F00F0E00017F198011D8A4A6EF07F04A
:100F4800A8EF07F0D0EF07F020EE07F0DF51D92621
:100F5800E051DA22000EDF6EDFC08AF0E0C08BF0CD
:100F68001E0E8C6F000E8D6F350E8E6F000E906FFB
:100F7800000E8F6F000E916F000E926F000E936F30
:100F8800000E946F000E956F000E966F000E976F0F
:100F9800000E986FA2EC20F0DFC08AF0E0C08BF062
:100FA8001E0E00018C6F000E8D6F2A0E8E6F000EC4
:100FB800906F000E8F6F000E916F000E926F000EF3
:100FC800936F000E946F000E956F000E966F000ED3
:100FD800976F000E986FA2EC20F0D0EF0BF0200E68
:100FE800CF19D8A4FAEF07F0FCEF07F007EF08F0E5
:100FF8004DEC2CF060C07FF061C080F0060E00015F
:10100800816FE0EC24F0DFC08AF0E0C08BF01E0EA8
:1010180000018C6F000E8D6F370E8E6F000E906F73
:10102800320E8F6F000E916F000E926F000E936F4D
:10103800000E946F000E956F000E966F000E976F5E
:10104800000E986FA2EC20F0D0EF0BF04DEC2CF0D6
:1010580060C07FF061C080F063EC23F0060AD8A47A
:1010680038EF08F03AEF08F05DEF08F0DFC08AF0DB
:10107800E0C08BF01E0E00018C6F000E8D6F380ED5
:101088008E6F000E906F000E8F6F000E916F000E26
:10109800926F000E936F000E946F000E956F000E06
:1010A800966F000E976F000E986FA2EC20F0D0EFAD
:1010B8000BF0DFC08AF0E0C08BF01E0E00018C6FD1
:1010C800000E8D6F360E8E6F000E906F000E8F6FB4
:1010D800000E916F000E926F000E936F000E946FCA
:1010E800000E956F000E966F000E976F000E986FAA
:1010F800A2EC20F0D0EF0BF02C0ECF19D8A487EF7C
:1011080008F089EF08F096EF08F04DEC2CF060C07D
:101118007FF061C080F0000E0001826F1F0E816FAA
:1011280029EC25F0DFC08AF0E0C08BF01E0E00012C
:101138008C6F000E8D6F390E8E6F000E906F320E11
:101148008F6F000E916F000E926F000E936F000E5E
:10115800946F000E956F000E966F000E976F000E3D
:10116800986FA2EC20F0D0EF0BF04DEC2CF060C0A3
:101178007FF061C080F043EC20F01F0E00017F1962
:101188008011D8A4CAEF08F0CCEF08F0EEEF08F011
:10119800DFC08AF0E0C08BF01E0E8C6F000E8D6FE2
:1011A8003A0E8E6F000E906F000E8F6F000E916FCB
:1011B800000E926F000E936F000E946F000E956FE5
:1011C800000E966F000E976F000E986FA2EC20F03D
:1011D800D0EF0BF0DFC08AF0E0C08BF01E0E8C6FF2
:1011E800000E8D6F380E8E6F000E906F000E8F6F91
:1011F800000E916F000E926F000E936F000E946FA9
:10120800000E956F000E966F000E976F000E986F88
:10121800A2EC20F0D0EF0BF0DFC08AF0E0C08BF03A
:101228001E0E8C6F000E8D6F3B0E8E6F000E906F32
:10123800280E8F6F000E916F000E926F000E936F45
:10124800000E946F000E956F000E966F000E976F4C
:10125800000E986FA2EC20F0D0EF0BF04DEC2CF0C4
:1012680060C07FF061C080F021EC1FF0000180A118
:1012780040EF09F042EF09F064EF09F0DFC08AF0AF
:10128800E0C08BF01E0E8C6F000E8D6F3C0E8E6FC3
:10129800000E906F000E8F6F000E916F000E926F10
:1012A800000E936F000E946F000E956F000E966FF0
:1012B800000E976F000E986FA2EC20F0D0EF0BF0A5
:1012C800DFC08AF0E0C08BF01E0E8C6F000E8D6FB1
:1012D8003A0E8E6F000E906F000E8F6F000E916F9A
:1012E800000E926F000E936F000E946F000E956FB4
:1012F800000E966F000E976F000E986FA2EC20F00C
:10130800D0EF0BF0300ECF19D8A48DEF09F08FEF86
:1013180009F09CEF09F04DEC2CF060C07FF061C043
:1013280080F0000E0001826F0F0E816F29EC25F00E
:10133800DFC08AF0E0C08BF01E0E00018C6F000E3B
:101348008D6F3D0E8E6F000E906F320E8F6F000EF8
:10135800916F000E926F000E936F000E946F000E47
:10136800956F000E966F000E976F000E986FA2ECA7
:1013780020F0D0EF0BF04DEC2CF060C07FF061C096
:1013880080F043EC20F00F0E00017F198011D8A4E3
:10139800D0EF09F0D2EF09F0F4EF09F0DFC08AF0DE
:1013A800E0C08BF01E0E8C6F000E8D6F3E0E8E6FA0
:1013B800000E906F000E8F6F000E916F000E926FEF
:1013C800000E936F000E946F000E956F000E966FCF
:1013D800000E976F000E986FA2EC20F0D0EF0BF084
:1013E800DFC08AF0E0C08BF01E0E8C6F000E8D6F90
:1013F8003C0E8E6F000E906F000E8F6F000E916F77
:10140800000E926F000E936F000E946F000E956F92
:10141800000E966F000E976F000E986FA2EC20F0EA
:10142800D0EF0BF0320ECF19D8A41DEF0AF01FEF42
:101438000AF02AEF0AF04DEC2CF060C07FF061C092
:1014480080F0FF0E0001816FE0EC24F0DFC08AF02D
:10145800E0C08BF01E0E00018C6F000E8D6F3F0EEA
:101468008E6F000E906F320E8F6F000E916F000E10
:10147800926F000E936F000E946F000E956F000E22
:10148800966F000E976F000E986FA2EC20F0D0EFC9
:101498000BF04DEC2CF060C07FF061C080F063EC85
:1014A80023F0DFC08AF0E0C08BF01E0E00018C6FC5
:1014B800000E8D6F3E0E8E6F000E906F000E8F6FB8
:1014C800000E916F000E926F000E936F000E946FD6
:1014D800000E956F000E966F000E976F000E986FB6
:1014E800A2EC20F0D0EF0BF059EC2CF060C07BF0B0
:1014F80061C07CF04CEC24F047EC2CF060C062F04A
:1015080061C063F0030E0001646FEEEC2AF0000185
:10151800B36FB3C0B4F0B56BB66BB76BB6C0B7F00A
:10152800B5C0B6F0B4C0B5F0B46B47EC2CF060C0F1
:1015380062F061C063F0040E0001646FEEEC2AF003
:101548000001B86FB8C0B9F0BA6BBB6BBC6BBAC05E
:10155800BCF0B9C0BBF0BA6BB96B47EC2CF060C0FB
:1015680062F061C063F0050E0001646FEEEC2AF0D2
:101578000001BD6FBDC0BEF0BF6BC06BC16BBEC00C
:10158800C1F0C06BBF6BBE6BB951BE25C26FBA51FB
:10159800BF21C36FBB51C021C46FBC51C121C56FEE
:1015A800B451C225C66FB551C321C76FB651C42106
:1015B800C86FB751C521C96F47EC2CF060C062F005
:1015C80061C063F0020E0001646FEEEC2AF00001C6
:1015D800CA6FCA51C625CB6F000EC721CC6F000E4B
:1015E800C821CD6F000EC921CE6F4DEC2CF060C024
:1015F8007FF061C080F0CBC081F0CCC082F0CDC05C
:1016080083F0CEC084F000EC21F0000120EE09F058
:10161800DF51D926E051DA22000EDF6EDFC08AF0F2
:10162800E0C08BF01E0E8C6F000E8D6F2A0E8E6F31
:10163800000E906F000E8F6F000E916F000E926F6C
:10164800000E936F000E946F000E956F000E966F4C
:10165800000E976F000E986FA2EC20F0D0EF0BF001
:1016680059EC2CF060C08AF061C08BF0A20E00012A
:101678008C6F170E8D6F2C0E8E6F000E906F000EF4
:101688008F6F000E916F000E926F000E936F000E19
:10169800946F000E956F000E966F000E976F000EF8
:1016A800986FA2EC20F0D0EF0BF060007FF3D9FF29
:1016B800600083F3DAFFDF50B36FB46BB451000AF4
:1016C800D8B469EF0BF0D0EF0BF0B3511E0AD8B4C1
:1016D800D0EF0BF0010AD8B40EEF04F03F0AD8B4EB
:1016E80045EF04F0010AD8B421EF05F0030AD8B495
:1016F8005AEF05F0010AD8B4AFEF05F0070AD8B4DD
:10170800E8EF05F0010AD8B43EEF06F0030AD8B4B2
:1017180077EF06F0010AD8B4CDEF06F00F0AD8B477
:1017280006EF07F0010AD8B45CEF07F0030AD8B453
:1017380095EF07F0010AD8B4F3EF07F0070AD8B419
:101748002AEF08F0010AD8B480EF08F0030AD8B4E9
:10175800B9EF08F0010AD8B410EF09F01F0AD8B49D
:1017680032EF09F0010AD8B486EF09F0030AD8B4B9
:10177800BFEF09F0010AD8B416EF0AF0070AD8B487
:101788004DEF0AF0010AD8B478EF0AF0030AD8B48A
:1017980034EF0BF0D0EF0BF01200000120EE03F055
:1017A800B151D926B251DA226F0078FFC0F06F002C
:1017B80074FFC1F0000EBD6F600003F3D9FF600035
:1017C80007F3DAFFDF50BB6F20EE01F0C051D926D6
:1017D800C151DA22DF50BC6F47EC2CF060C062F0D8
:1017E80061C063F0010E0001646FEEEC2AF00001A5
:1017F800B36FB351BE6FBF6B4DEF0CF0B1C060F06B
:10180800B2C061F02AEC2CF02F0AD8A40EEF0CF02D
:1018180010EF0CF06CEF0CF0000120EE01F0C0515D
:10182800D926C151DA221F0EDF6E6CEF0CF0B1C061
:1018380060F0B2C061F02AEC2CF0300AD8A427EF8F
:101848000CF029EF0CF06CEF0CF0000120EE01F029
:10185800C051D926C151DA22200EDF6E6CEF0CF090
:10186800B1C060F0B2C061F02AEC2CF0310AD8A403
:1018780040EF0CF042EF0CF06CEF0CF0000120EEA2
:1018880001F0C051D926C151DA221F0EDF6E6CEF6C
:101898000CF020EE01F0C051D926C151DA22DF50F8
:1018A800B36FB46BB451000AD8B45DEF0CF06CEFB1
:1018B8000CF0B3511E0AD8B402EF0CF0010AD8B4E8
:1018C8001BEF0CF03F0AD8B434EF0CF06CEF0CF0BF
:1018D800000120EE01F0C051D926C151DA22BC51D5
:1018E800DE18D8B47AEF0CF07CEF0CF0FEEF0CF0B9
:1018F800010EBD6FDFEF0CF0C0C08AF0C1C08BF0E5
:10190800A20E8C6F170E8D6F300E8E6FBEC060F0FA
:10191800BFC061F0000E636F0A0E626FD8EC2AF048
:1019280060C08FF061C090F0000E0001916F000E52
:10193800926F000E936F000E946F000E956F000E5D
:10194800966F000E976F000E986FA2EC20F0FEEFD6
:101958000CF0BE51BF11D8B4B4EF0CF0B6EF0CF0D8
:10196800BCEF0CF0C0C07BF0C1C07CF001EC24F0EF
:10197800C0C08AF0C1C08BF0A20E00018C6F170E98
:101988008D6F310E8E6F000E906F320E8F6F000EBE
:10199800916F000E926F000E936F000E946F000E01
:1019A800956F000E966F000E976F000E986FA2EC61
:1019B80020F0FEEF0CF020EE01F0C051D926C15105
:1019C800DA22DF50B36FB46BB451000AD8B4EFEF2A
:1019D8000CF0FEEF0CF0B3511E0AD8B4FEEF0CF079
:1019E800010AD8B480EF0CF03F0AD8B4ADEF0CF080
:1019F800FEEF0CF00001BD51D8A405EF0DF007EF84
:101A08000DF059EF10F08FEF0EF0B1C060F0B2C0DA
:101A180061F02AEC2CF0280AD8A415EF0DF017EF86
:101A28000DF0C2EF0EF0600003F3D9FF600007F37A
:101A3800DAFF0C0EDF6EC2EF0EF0B1C060F0B2C07C
:101A480061F02AEC2CF0290AD8A42DEF0DF02FEF25
:101A58000DF0C2EF0EF0600003F3D9FF600007F34A
:101A6800DAFF0D0EDF6EC2EF0EF0B1C060F0B2C04B
:101A780061F02AEC2CF02A0AD8A445EF0DF047EFC4
:101A88000DF0CFEF0DF071EF0DF0600003F3D9FF0B
:101A9800600007F3DAFF0B0EDF6EC2EF0EF0600096
:101AA80003F3D9FF600007F3DAFF0E0EDF6EC2EF13
:101AB8000EF0600003F3D9FF600007F3DAFF100EA1
:101AC800DF6EC2EF0EF0600003F3D9FF600007F38A
:101AD800DAFF0C0EDF6EC2EF0EF0B1C060F0B2C0DC
:101AE80061F0A4EC28F060C0B3F061C0B4F062C04B
:101AF800B5F063C0B6F064C0B7F065C0B8F066C0B2
:101B0800B9F067C0BAF00001BA51000AD8B4C8EFFA
:101B18000DF067EF0DF0B651000AD8B4B3EF0DF031
:101B280067EF0DF0B451000AD8B4A1EF0DF0010A27
:101B3800D8B4A8EF0DF067EF0DF0B351520AD8B43E
:101B48005DEF0DF067EF0DF0B351500AD8B449EFCF
:101B58000DF0010AD8B453EF0DF067EF0DF0B55151
:101B6800000AD8B496EF0DF067EF0DF0B851000AEF
:101B7800D8B4C1EF0DF067EF0DF0B751000AD8B433
:101B88008FEF0DF067EF0DF0B951000AD8B4BAEF36
:101B98000DF067EF0DF0B1C060F0B2C061F02AEC53
:101BA8002CF02C0AD8A4DBEF0DF0DDEF0DF0C2EF1E
:101BB8000EF0600003F3D9FF600007F3DAFF0C0EA4
:101BC800DF6EC2EF0EF0B1C060F0B2C061F02AEC77
:101BD8002CF02D0AD8A4F3EF0DF0F5EF0DF0FFEF80
:101BE8000DF0600003F3D9FF600007F3DAFF0F0E72
:101BF800DF6EC2EF0EF0B1C060F0B2C061F02AEC47
:101C08002CF02C0AD8A40BEF0EF00DEF0EF0C2EF5B
:101C18000EF0600003F3D9FF600007F3DAFF0C0E43
:101C2800DF6EC2EF0EF0B1C060F0B2C061F02AEC16
:101C38002CF02C0AD8A423EF0EF025EF0EF0C2EFFB
:101C48000EF0600003F3D9FF600007F3DAFF0C0E13
:101C5800DF6EC2EF0EF0B1C060F0B2C061F02AECE6
:101C68002CF02C0AD8A43BEF0EF03DEF0EF0C2EF9B
:101C78000EF0600003F3D9FF600007F3DAFF0C0EE3
:101C8800DF6EC2EF0EF0B1C060F0B2C061F02AECB6
:101C98002CF02E0AD8A453EF0EF055EF0EF05FEF9C
:101CA8000EF0600003F3D9FF600007F3DAFF110EAE
:101CB800DF6EC2EF0EF0B1C060F0B2C061F02AEC86
:101CC8002CF02C0AD8A46BEF0EF06DEF0EF0C2EFDB
:101CD8000EF0600003F3D9FF600007F3DAFF0C0E83
:101CE800DF6EC2EF0EF0B1C060F0B2C061F02AEC56
:101CF8002CF02C0AD8A483EF0EF085EF0EF0C2EF7B
:101D08000EF0600003F3D9FF600007F3DAFF0C0E52
:101D1800DF6EC2EF0EF0600003F3D9FF600007F337
:101D2800DAFFDF50B36FB46BB451000AD8B49FEF39
:101D38000EF0C2EF0EF0B3510A0AD8B409EF0DF055
:101D4800010AD8B42FEF0EF0070AD8B421EF0DF02E
:101D5800010AD8B439EF0DF0030AD8B4E7EF0DF053
:101D6800010AD8B417EF0EF01F0AD8B447EF0EF0E7
:101D7800010AD8B477EF0EF0C2EF0EF0600003F35B
:101D8800D9FF600007F3DAFF0001BB51DE18D8B4B1
:101D9800D0EF0EF0D2EF0EF059EF10F026EF10F062
:101DA800C0C08AF0C1C08BF0A20E8C6F170E8D6F69
:101DB800290E8E6F000E906F140E8F6F000E916FAC
:101DC800000E926F000E936F000E946F000E956FC9
:101DD800000E966F000E976F000E986FA2EC20F021
:101DE80059EF10F0C0C0A9F0C1C0AAF0020EC0257A
:101DF800AB6F000EC121AC6F9EEC18F059EF10F0DC
:101E080020EE10F0C051D926C151DA22DE04D8A440
:101E180010EF0FF012EF0FF034EF0FF0C0C08AF0A0
:101E2800C1C08BF0A20E8C6F170E8D6F2D0E8E6FAA
:101E3800000E906F000E8F6F000E916F000E926F64
:101E4800000E936F000E946F000E956F000E966F44
:101E5800000E976F000E986FA2EC20F059EF10F06B
:101E6800C0C085F0C1C086F0020EC025876F000E85
:101E7800C121886F68EC1DF0C0C08AF0C1C08BF02A
:101E8800A20E00018C6F170E8D6F2C0E8E6F000E38
:101E9800906F000E8F6F000E916F000E926F000E04
:101EA800936F000E946F000E956F000E966F000EE4
:101EB800976F000E986FA2EC20F059EF10F0C0C099
:101EC80087F0C1C088F004EC29F0C0C08AF0C1C016
:101ED8008BF0A20E00018C6F170E8D6F2C0E8E6F7B
:101EE800000E906F000E8F6F000E916F000E926FB4
:101EF800000E936F000E946F000E956F000E966F94
:101F0800000E976F000E986FA2EC20F059EF10F0BA
:101F180041EC2CF060C062F061C063F071EC2AF013
:101F280041EC2CF060C0A9F061C0AAF0D0EC29F017
:101F380059EF10F020EE10F0C051D926C151DA2225
:101F4800DE04D8A4AAEF0FF0ACEF0FF0CEEF0FF03D
:101F5800C0C08AF0C1C08BF0A20E8C6F170E8D6FB7
:101F68002E0E8E6F000E906F000E8F6F000E916F09
:101F7800000E926F000E936F000E946F000E956F17
:101F8800000E966F000E976F000E986FA2EC20F06F
:101F980059EF10F0C0C068F0C1C069F0020EC0254A
:101FA8006A6F000EC1216B6FB4EC23F0C0C08AF0D9
:101FB800C1C08BF0A20E00018C6F170E8D6F2C0E16
:101FC8008E6F000E906F000E8F6F000E916F000ED7
:101FD800926F000E936F000E946F000E956F000EB7
:101FE800966F000E976F000E986FA2EC20F059EFD5
:101FF80010F0C0C07BF0C1C07CF04CEC24F0C0C035
:102008008AF0C1C08BF0A20E00018C6F170E8D6F85
:102018002C0E8E6F000E906F000E8F6F000E916F5A
:10202800000E926F000E936F000E946F000E956F66
:10203800000E966F000E976F000E986FA2EC20F0BE
:1020480059EF10F0600003F3D9FF600007F3DAFFDF
:10205800DF50B36FB46BB451000AD8B436EF10F048
:1020680059EF10F0B3510A0AD8B459EF10F0010A29
:10207800D8B48CEF0FF0070AD8B4D4EF0EF0010AE9
:10208800D8B4F6EF0EF0030AD8B404EF0FF0010A43
:10209800D8B463EF0FF01F0AD8B49EEF0FF0010A0F
:1020A800D8B4FDEF0FF059EF10F01200000120EE48
:1020B80003F0B151D926B251DA226F0078FFB6F099
:1020C8006F0074FFB7F06000DBF2D9FF6000DFF249
:1020D800DAFFDF50B56F0AEF11F0B1C060F0B2C09F
:1020E80061F02AEC2CF00A0AD8A47DEF10F07FEFFB
:1020F80010F031EF11F06000DBF2D9FF6000DFF281
:10210800DAFF010EDF6E31EF11F0B1C060F0B2C03E
:1021180061F02AEC2CF00C0AD8A495EF10F097EF98
:1021280010F031EF11F06000DBF2D9FF6000DFF250
:10213800DAFF020EDF6E31EF11F0B1C060F0B2C00D
:1021480061F02AEC2CF00B0AD8A4ADEF10F0AFEF39
:1021580010F031EF11F0000120EE01F0B651D92650
:10216800B751DA226F0078FF60F06F0074FF61F0FA
:1021780082EC1FF0E806D8A4C4EF10F0C6EF10F008
:10218800D0EF10F06000DBF2D9FF6000DFF2DAFF79
:10219800030EDF6E31EF11F06000DBF2D9FF600053
:1021A800DFF2DAFF040EDF6E31EF11F0B1C060F03C
:1021B800B2C061F02AEC2CF00B0AD8A4E6EF10F0BC
:1021C800E8EF10F031EF11F06000DBF2D9FF6000AA
:1021D800DFF2DAFF010EDF6E31EF11F0B1C060F00F
:1021E800B2C061F02AEC2CF00B0AD8A4FEEF10F074
:1021F80000EF11F031EF11F06000DBF2D9FF600061
:10220800DFF2DAFF010EDF6E31EF11F06000DBF272
:10221800D9FF6000DFF2DAFFDF50B36FB46BB4515F
:10222800000AD8B41AEF11F031EF11F0B351000AD7
:10223800D8B471EF10F0010AD8B489EF10F0030A8E
:10224800D8B4A1EF10F0010AD8B4DAEF10F0070AF9
:10225800D8B4F2EF10F031EF11F06000DBF2D9FFE3
:102268006000DFF2DAFF0001B551DE18D8B43FEFA5
:1022780011F041EF11F0A4EF12F07DEF12F0B6C0AB
:102288008AF0B7C08BF0B40E8C6F200E8D6F0C0ED9
:102298008E6F000E906F320E8F6F000E916F000ED2
:1022A800926F000E936F000E946F000E956F000EE4
:1022B800966F000E976F000E986FA2EC20F0A4EFB7
:1022C80012F0B6C08AF0B7C08BF0B40E8C6F200E37
:1022D8008D6F0B0E8E6F000E906F000E8F6F000EBD
:1022E800916F000E926F000E936F000E946F000EA8
:1022F800956F000E966F000E976F000E986FA2EC08
:1023080020F0A4EF12F0B6C08AF0B7C08BF0B40E7C
:102318008C6F200E8D6F0B0E8E6F000E906F000E5F
:102328008F6F000E916F000E926F000E936F000E6C
:10233800946F000E956F000E966F000E976F000E4B
:10234800986FA2EC20F0000120EE03F0B651D926D8
:10235800B751DA22030EDE18D8B4B5EF11F0B7EF93
:1023680011F0A4EF12F020EE04F0B651D926B751BF
:10237800DA22DE50DE10D8B4C4EF11F0C6EF11F047
:10238800A4EF12F020EE06F0B651D926B751DA22A2
:102398006F0078FF66F06F0074FF67F020EE01F0C1
:1023A800B651D926B751DA226F0078FF60F06F0076
:1023B80074FF61F032EC2CF00001686F010E696F58
:1023C80020EE04F0B651D926B751DA2202D8F7EF39
:1023D80011F00500FA6EDE50FD6EDE50FE6EF8500C
:1023E800FF6EFA501200000120EE03F0B651D92614
:1023F800B751DA22030EDF6EA4EF12F0B6C08AF0EE
:10240800B7C08BF0B40E8C6F200E8D6F0B0E8E6FD5
:10241800000E906F000E8F6F000E916F000E926F7E
:10242800000E936F000E946F000E956F000E966F5E
:10243800000E976F000E986FA2EC20F0000120EEBE
:1024480003F0B651D926B751DA22040EDE18D8B4F3
:1024580030EF12F032EF12F0A4EF12F020EE04F099
:10246800B651D926B751DA22DE50DE10D8B43FEF84
:1024780012F041EF12F0A4EF12F020EE06F0B65180
:10248800D926B751DA226F0078FF66F06F0074FF23
:1024980067F020EE01F0B651D926B751DA226F0065
:1024A80078FF60F06F0074FF61F032EC2CF00001EF
:1024B800686F000E696F20EE04F0B651D926B75147
:1024C800DA2202D872EF12F00500FA6EDE50FD6EC5
:1024D800DE50FE6EF850FF6EFA501200000120EE3A
:1024E80003F0B651D926B751DA22040EDF6EA4EFF5
:1024F80012F06000DBF2D9FF6000DFF2DAFFDF5094
:10250800B36FB46BB451000AD8B48DEF12F0A4EFD6
:1025180012F0B351000AD8B4A4EF12F0010AD8B4EB
:1025280043EF11F0030AD8B465EF11F0010AD8B4EB
:1025380087EF11F0070AD8B402EF12F0A4EF12F0F7
:102548001200000E0001776F000E786F000E796F91
:10255800000E7A6F3701E0B7B4EF12F0B6EF12F061
:102568005EEF13F0000120EE01F07251D92673518D
:10257800DA226F0078FF60F06F0078FF61F06F007B
:1025880078FF62F06F0078FF63F06000CBF1D9FF4D
:102598006000CFF1DAFFDF50646F770E656F000ED1
:1025A800666F780E676F000E686F790E696F000EA0
:1025B8006A6F7A0E6B6F000E6C6F6AEC1AF060002F
:1025C800DFF1E3F76000E3F1E4F76000E7F1E1F73A
:1025D8006000EBF1E2F7000120EE05F07251D92618
:1025E8007351DA22DF50746F20EE0EF07251D92643
:1025F8007351DA22DF50756F060E766FD8907537F3
:10260800762F02EF13F0755174113701E56F000151
:1026180020EE06F07251D9267351DA22DF503701C5
:10262800E66F000120EE07F07251D9267351DA22C5
:10263800DF503701E76F000120EE08F07251D9260C
:102648007351DA22DF503701E86F000120EE09F0FC
:102658007251D9267351DA22DF503701E96F000130
:1026680020EE0AF07251D9267351DA22DF50370171
:10267800EA6F000120EE0BF07251D9267351DA226D
:10268800DF503701EB6F000120EE0CF07251D926B4
:102698007351DA22DF503701EC6F000120EE0DF0A4
:1026A8007251D9267351DA22DF503701ED6FE08776
:1026B800BCEF14F0D0B763EF13F065EF13F00DEF34
:1026C80014F0000120EE01F07251D9267351DA227C
:1026D8006F0078FF60F06F0078FF61F06F0078FF9F
:1026E80062F06F0078FF63F06000CBF1D9FF600003
:1026F800CFF1DAFFDF50646F770E656F000E666FFB
:10270800780E676F000E686F790E696F000E6A6F3A
:102718007A0E6B6F000E6C6F6AEC1AF06000DFF1D6
:10272800D3F76000E3F1D4F76000E7F1D1F7600078
:10273800EBF1D2F7000120EE05F07251D926735162
:10274800DA22DF50746F20EE0EF07251D9267351E1
:10275800DA22DF50756F060E766FD8907537762FB0
:10276800B1EF13F0755174113701D56F000120EEE8
:1027780006F07251D9267351DA22DF503701D66F2D
:10278800000120EE07F07251D9267351DA22DF508A
:102798003701D76F000120EE08F07251D926735126
:1027A800DA22DF503701D86F000120EE09F07251AC
:1027B800D9267351DA22DF503701D96F000120EE94
:1027C8000AF07251D9267351DA22DF503701DA6FD5
:1027D800000120EE0BF07251D9267351DA22DF5036
:1027E8003701DB6F000120EE0CF07251D9267351CE
:1027F800DA22DF503701DC6F000120EE0DF0725154
:10280800D9267351DA22DF503701DD6FD0875CEFAC
:1028180013F0C0B712EF14F014EF14F0BCEF14F07B
:10282800000120EE01F07251D9267351DA226F00AF
:1028380078FF60F06F0078FF61F06F0078FF62F05A
:102848006F0078FF63F06000CBF1D9FF6000CFF133
:10285800DAFFDF50646F770E656F000E666F780ED3
:10286800676F000E686F790E696F000E6A6F7A0ED7
:102878006B6F000E6C6F6AEC1AF06000DFF1C3F743
:102888006000E3F1C4F76000E7F1C1F76000EBF125
:10289800C2F7000120EE05F07251D9267351DA22F1
:1028A800DF50746F20EE0EF07251D9267351DA2280
:1028B800DF50756F060E766FD8907537762F60EFFC
:1028C80014F0755174113701C56F000120EE06F040
:1028D8007251D9267351DA22DF503701C66F0001D1
:1028E80020EE07F07251D9267351DA22DF503701F2
:1028F800C76F000120EE08F07251D9267351DA2211
:10290800DF503701C86F000120EE09F07251D92657
:102918007351DA22DF503701C96F000120EE0AF047
:102928007251D9267351DA22DF503701CA6F00017C
:1029380020EE0BF07251D9267351DA22DF5037019D
:10294800CB6F000120EE0CF07251D9267351DA22B8
:10295800DF503701CC6F000120EE0DF07251D926FF
:102968007351DA22DF503701CD6FC0875CEF13F067
:102978001200000E0001756F80AEC5EF14F0C7EFAE
:1029880014F079EF15F082A6CCEF14F0CEEF14F026
:10299800F7EF14F06000CFF1D9FF6000D3F1DAFF50
:1029A800020EDF6E6F0010FE60F06F0004FE61F033
:1029B8006F0008FE62F0835037EC1BF0000120EE38
:1029C80001F07351D9267451DA22600083F1DEFFD9
:1029D800600087F1DEFF60008BF1DEFF60008FF1A1
:1029E800DEFF18EF15F06000CFF1D9FF6000D3F1DA
:1029F800DAFF010EDF6E6F0008FE60F08150C2EC56
:102A080026F0000120EE01F07351D9267451DA2224
:102A1800600083F1DEFF600087F1DEFF60008BF16C
:102A2800DEFF60008FF1DEFF20EE05F07351D9263E
:102A38007451DA2285500F0BDF6E20EE0EF07351C1
:102A4800D9267451DA228544E846030BDF6E20EE5E
:102A580006F07351D9267451DA226F001BFEDFFF8E
:102A680020EE07F07351D9267451DA226F001FFE49
:102A7800DFFF20EE08F07351D9267451DA226F0077
:102A880023FEDFFF20EE09F07351D9267451DA22B4
:102A98006F0027FEDFFF20EE0AF07351D92674512C
:102AA800DA226F002BFEDFFF20EE0BF07351D926E0
:102AB8007451DA226F002FFEDFFF20EE0CF0735105
:102AC800D9267451DA226F0033FEDFFF20EE0DF0B5
:102AD8007351D9267451DA226F0037FEDFFF809ECA
:102AE800010E0001756F35EF16F03701F0AF7FEF7B
:102AF80015F081EF15F035EF16F0F2A786EF15F017
:102B080088EF15F0B1EF15F06000CFF1D9FF600044
:102B1800D3F1DAFF020EDF6E6D00D0FF60F06D00BA
:102B2800C4FF61F06D00C8FF62F0F35137EC1BF091
:102B3800000120EE01F07351D9267451DA226000A9
:102B480083F1DEFF600087F1DEFF60008BF1DEFFBE
:102B580060008FF1DEFFD2EF15F06000CFF1D9FFF2
:102B68006000D3F1DAFF010EDF6E6D00C8FF60F080
:102B7800F151C2EC26F0000120EE01F07351D92684
:102B88007451DA22600083F1DEFF600087F1DEFF16
:102B980060008BF1DEFF60008FF1DEFF20EE05F0B4
:102BA8007351D9267451DA223701F5510F0BDF6EB4
:102BB800000120EE0EF07351D9267451DA22370144
:102BC800F545E846030BDF6E000120EE06F0735171
:102BD800D9267451DA226D00DBFFDFFF20EE07F003
:102BE8007351D9267451DA226D00DFFFDFFF20EE22
:102BF80008F07351D9267451DA226D00E3FFDFFF24
:102C080020EE09F07351D9267451DA226D00E7FFDE
:102C1800DFFF20EE0AF07351D9267451DA226D00D5
:102C2800EBFFDFFF20EE0BF07351D9267451DA2247
:102C38006D00EFFFDFFF20EE0CF07351D9267451C1
:102C4800DA226D00F3FFDFFF20EE0DF07351D92675
:102C58007451DA226D00F7FFDFFF3701F09F74EF40
:102C680015F00001755112006F00A0F7F8F06F0021
:102C7800A0F7F8F0000120EE01F07051D92671514B
:102C8800DA22DF50020F7E6F6000C3F1D9FF6000C7
:102C9800C7F1DAFFDF50726F7251746F736B20EEF9
:102CA80001F07051D9267151DA22DF50756F7551D4
:102CB8007313000E741320EE32F07051D92671513F
:102CC800DA226000CFF1DEFF6000D3F1DDFF010EF4
:102CD8007D6FADEF16F07D51020D70C072F071C0BE
:102CE80073F0F3507227F4507323010E7225D96ED6
:102CF800000E7321DA6EDF50746F7451766F756B46
:102D08007D51776F786BD890773778377751702502
:102D1800D96E78517121DA6EDF50796F7951751358
:102D2800000E76137D51020D70C07AF071C07BF0F1
:102D3800F3507A27F4507B23320E7A25D96E000E91
:102D48007B21DA6E6000D7F1DEFF6000DBF1DDFF8A
:102D58007D2B7E517D5DD8A0B4EF16F0B6EF16F04E
:102D68006FEF16F07E51020D70C072F071C073F0F3
:102D7800F3507227F4507323320E7225D96E000E69
:102D88007321DA6E000EDE6E000EDD6E70C060F02C
:102D980071C061F0320E7025626F000E7121636F91
:102DA800010E7E25646F656B000E6523E3EC1FF052
:102DB80000017E51020D70C072F071C073F0F350C3
:102DC8007227F4507323320E7225D96E000E7321C8
:102DD800DA6E600083F1DEFF600087F1DDFF7E516F
:102DE800020D70C072F071C073F0F3507227F45086
:102DF8007323320E7225D96E000E7321DA6E7E515E
:102E0800746F756BD8907437753774517025E16E8F
:102E180075517121E26E6F007FFFE7FF7E51020D51
:102E280070C072F071C073F0F3507227F4507323BE
:102E3800010E7225D96E000E7321DA6E7E51020DD5
:102E480070C074F071C075F0F3507427F450752396
:102E5800320E7425E16E000E7521E26E6F0098FF48
:102E680076F06F0094FF77F077C076F0776B765145
:102E7800DF6E6000C3F1D9FF6000C7F1DAFFDF50F1
:102E88006FEC2BF070C060F071C061F0FA0E0001B9
:102E9800626F000E636F3AEC27F04F0AD8B457EF11
:102EA80017F059EF17F05BEF17F08DEF17F0010EE1
:102EB80000017C6F6BEF17F07C517025D96E000E06
:102EC8007121DA6EDF506FEC2BF000017C2B7C5106
:102ED800726F736B7E51020D010EF326000EF42201
:102EE8007251F35CF450800A746F7351800A7459FC
:102EF800D8B081EF17F083EF17F060EF17F070C0CC
:102F080060F071C061F0FA0E626F000E636F3AEC08
:102F180027F01200800E8F6E8E50E00B800AD8A426
:102F280098EF17F09AEF17F090EF17F0000E916EE8
:102F3800000E3701006FF00E0001606F000E616F28
:102F4800000E626F000E636F010E646FBA0E656F3C
:102F5800370E666FBB0E676F370E686FB80E696FF6
:102F6800370E6A6FB90E6B6F370E6C6F6AEC1AF01A
:102F7800000E0001606F000E616F000E626F000EA0
:102F8800636F010E646FA20E656F370E666FA30E36
:102F9800676F370E686FA00E696F370E6A6FA10EE4
:102FA8006B6F370E6C6F6AEC1AF0500E0001606F91
:102FB800000E616F000E626F000E636F010E646F8A
:102FC800A60E656F370E666FA70E676F370E686FB0
:102FD800A40E696F370E6A6FA50E6B6F370E6C6F94
:102FE8006AEC1AF0F00E0001606F000E616F000EBF
:102FF800626F000E636F010E646FBE0E656F370E51
:10300800666FBF0E676F370E686FBC0E696F370E3D
:103018006A6FBD0E6B6F370E6C6F6AEC1AF0500E4C
:103028000001606F000E616F000E626F000E636F2B
:10303800010E646FAA0E656F370E666FAB0E676F71
:10304800370E686FA80E696F370E6A6FA90E6B6F1F
:10305800370E6C6F6AEC1AF0500E0001606F000EAC
:10306800616F000E626F000E636F010E646FAE0E2B
:10307800656F370E666FAF0E676F370E686FAC0EF1
:10308800696F370E6A6FAD0E6B6F370E6C6F6AEC37
:103098001AF0500E0001606F000E616F000E626F33
:1030A800000E636F010E646FB20E656F370E666FA8
:1030B800B30E676F370E686FB00E696F370E6A6FA1
:1030C800B10E6B6F370E6C6F6AEC1AF0500E000180
:1030D800606F000E616F000E626F000E636F010E6D
:1030E800646FB60E656F370E666FB70E676F370E73
:1030F800686FB40E696F370E6A6FB50E6B6F370E57
:103108006C6F6AEC1AF00F0E3701036F980E046F9C
:10311800810E056F000E8F6E6F0038FE72F0E00EA4
:1031280000017217D8A49BEF18F09DEF18F090EFEC
:1031380018F01200ABC073F0ACC074F0BDEC14F022
:103148000009D8B4AAEF18F0ACEF18F074EF19F032
:1031580036EF19F0A9C08AF0AAC08BF0A20E8C6FC6
:10316800170E8D6F2A0E8E6F000E906F000E8F6FE8
:10317800500E916F010E926F000E936F000E946FB8
:10318800000E956F000E966F000E976F000E986FE9
:10319800A2EC20F095EF19F0A9C08AF0AAC08BF034
:1031A800A20E8C6F170E8D6F2A0E8E6F000E906F09
:1031B800000E8F6F510E916F010E926F000E936F7C
:1031C800000E946F000E956F000E966F000E976FAD
:1031D800000E986FA2EC20F095EF19F0A9C08AF0C4
:1031E800AAC08BF0A20E8C6F170E8D6F2A0E8E6FF1
:1031F800000E906F000E8F6F520E916F000E926F3F
:10320800000E936F000E946F000E956F000E966F70
:10321800000E976F000E986FA2EC20F095EF19F052
:10322800A9C08AF0AAC08BF0A20E8C6F170E8D6F02
:103238002C0E8E6F000E906F000E8F6F000E916F28
:10324800000E926F000E936F000E946F000E956F34
:10325800000E966F000E976F000E986FA2EC20F08C
:1032680095EF19F0000120EE01F0AB51D926AC51D1
:10327800DA226F0078FFADF06F0078FFAEF06F00D4
:1032880078FFAFF06F0078FFB0F0B051000AD8B403
:103298006DEF19F014EF19F0AE51000AD8B45BEFD6
:1032A80019F0010AD8B462EF19F014EF19F0AD5112
:1032B800520AD8B4F2EF18F014EF19F0AD51500AD1
:1032C800D8B4AEEF18F0010AD8B4D0EF18F014EF64
:1032D80019F0AF51000AD8B450EF19F014EF19F0F3
:1032E800A9C08AF0AAC08BF0A20E00018C6F170E3D
:1032F8008D6F2C0E8E6F000E906F000E8F6F000E6C
:10330800916F000E926F000E936F000E946F000E77
:10331800956F000E966F000E976F000E986FA2ECD7
:1033280020F012006F00A0F7F8F06F00A0F7F8F097
:10333800000E0001FA6F000E6D6F6D516625686F03
:10334800000E6721696F640E6825D96E000E692129
:10335800DA6E000EDF6E190E6D61B5EF19F0B7EF7A
:1033680019F0CBEF19F06D51020D66C068F067C017
:1033780069F0F3506827F4506923960E6825D96ED2
:10338800000E6921DA6E000EDE6E000EDD6E6D2B0A
:10339800310E6D65D2EF19F0D4EF19F0A1EF19F0E5
:1033A80066C060F067C061F0FA0E626F000E636F6E
:1033B8003AEC27F00001686F20EE64F06651D926D8
:1033C8006751DA226000A3F1DFFFFA51D8B4EFEFBA
:1033D80019F0F1EF19F0F5EF19F02C0EFA6F69EF0B
:1033E8001AF04F0E6FEC2BF066C060F067C061F00A
:1033F800FA0E0001626F000E636F3AEC27F00001CD
:10340800686F20EE65F06651D9266751DA226000B0
:10341800A3F1DFFFFA51D8B414EF1AF016EF1AF03F
:103428001AEF1AF0640EFA6F69EF1AF0020E6C6F59
:1034380046EF1AF066C060F067C061F0FA0E626F7E
:10344800000E636F3AEC27F00001686F6C51662537
:10345800696F000E67216A6F640E6925D96E000EC8
:103468006A21DA6E6000A3F1DFFFFA51D8B43FEFAA
:103478001AF041EF1AF045EF1AF0180EFA6F69EFDB
:103488001AF06C2B20EE65F06651D9266751DA22C6
:10349800DF50686F6851020D060EF326000EF42205
:1034A8006C51696F6A6BF350695D6A51800A6B6F82
:1034B800F450800A6B59D8A064EF1AF066EF1AF03E
:1034C8001EEF1AF04F0E6FEC2BF01200020E0001E7
:1034D8006419D8A472EF1AF074EF1AF002EF1BF017
:1034E80060009FF1D9FF6000A3F1DAFF600083F16B
:1034F800DFFF60C06DF061C06EF062C06FF063C046
:1035080070F06EC06DF06FC06EF070C06FF0706BD1
:103518006DC060F06EC061F06FC062F070C063F0A3
:10352800600097F1D9FF60009BF1DAFF600083F13A
:10353800DFFF60C06DF061C06EF062C06FF063C005
:1035480070F06EC06DF06FC06EF070C06FF0706B91
:103558006DC060F06EC061F06FC062F070C063F063
:103568006051030B716F60C06DF061C06EF062C096
:103578006FF063C070F0030ED8906D376E376F37F9
:103588007037E82EC0EF1AF06DC060F06EC061F0C1
:103598006FC062F070C063F06051E00B7125716F0D
:1035A8007151080F716F7151EB0B6000AFF1D9FFCA
:1035B8006000B3F1DAFFDF6E60C06DF061C06EF0DD
:1035C80062C06FF063C070F06EC06DF06FC06EF0D7
:1035D80070C06FF0706B6DC060F06EC061F06FC04E
:1035E80062F070C063F06000A7F1D9FF6000ABF132
:1035F800DAFF600083F1DFFF36EF1BF0600097F120
:10360800D9FF60009BF1DAFF000EDF6E60009FF1CA
:10361800D9FF6000A3F1DAFF000EDF6E60C06DF025
:1036280061C06EF062C06FF063C070F0050ED89094
:103638006D376E376F377037E82E1BEF1BF06DC094
:1036480060F06EC061F06FC062F070C063F060003F
:10365800AFF1D9FF6000B3F1DAFF600083F1DFFF5B
:10366800E0EF1AF012000001686F000E00016F6FA2
:10367800000E706F000E716F000E726F6251030BB7
:103688006D6F6239E842070B6E6F6151646F656B4D
:10369800D89064376537D89064376537D8906437E1
:1036A800653764C06FF065C070F0000E70BFFF0E24
:1036B800716F726F6E516F256F6F000E7021706F92
:1036C800000E7121716F000E7221726F6FC064F06D
:1036D80070C065F071C066F072C067F0020ED890D5
:1036E8006437653766376737E82E73EF1BF064C0B9
:1036F8006FF065C070F066C071F067C072F06D5110
:103708006F256F6F000E7021706F000E7121716F41
:10371800000E7221726F6FC065F070C066F071C0E4
:1037280067F0646B64C06FF065C070F066C071F0DC
:1037380067C072F068516F256F6F000E7021706F4F
:10374800000E7121716F000E7221726F6FC065F0EB
:1037580070C066F071C067F0646B64C06FF065C0DC
:1037680070F066C071F067C072F060516F256F6FBE
:10377800000E7021706F000E7121716F000E7221A2
:10378800726F6FC069F070C06AF071C06BF072C080
:103798006CF069C060F06AC061F06BC062F06CC028
:1037A80063F01200000E0001616F000E606F50ECB4
:1037B8002BF0A50AD8B4E3EF1BF0E5EF1BF01BEFE5
:1037C8001CF0000E0001616F000E606FA50E626FA5
:1037D80060EC29F0000E0001616F010E606F640E4D
:1037E800626F60EC29F0000E0001616F020E606FDD
:1037F800900E626F60EC29F0000E0001616F030EFD
:10380800606F530E626F60EC29F0000E0001616F6B
:10381800040E606F030E626F60EC29F0000E000169
:10382800616F050E606F000E626F60EC29F0000E8C
:103838000001616F000E606F50EC2BF0600093F197
:10384800D9FF600097F1DAFFDF6E000120EE01F08A
:103858006451D9266551DA22000E616F010E606F3E
:1038680050EC2BF0DF6E000120EE02F06451D926F7
:103878006551DA22000E616F020E606F50EC2BF07A
:10388800DF6E000120EE03F06451D9266551DA227B
:10389800000E616F030E606F50EC2BF0DF6E0001BD
:1038A80020EE04F06451D9266551DA22000E616FCA
:1038B800040E606F50EC2BF0DF6E000120EE05F077
:1038C8006451D9266551DA22000E616F050E606FCA
:1038D80050EC2BF0DF6E1200740E0001606F000ECA
:1038E800616F8BEC2BF060C087F061C088F000013D
:1038F80087518811D8B483EF1CF085EF1CF0AAEF2C
:103908001CF0740E606F000E616F000E636F000E86
:10391800626F7DEC2BF087C061F088C062F020EE0A
:1039280074F000EE63F00E0E6F006FFFEBFFE80619
:10393800FBE283C072F072EC25F0600013F2D9FF4D
:10394800600017F2DAFFDF6EECEF1CF08351C2EC77
:103958002BF06000C4FF86F0010E00018625606F21
:10396800616B000E6123000E636F140E626FB6EC7C
:1039780021F000016051896F20EEF2F38951DE18C1
:10398800D8A4C9EF1CF0CBEF1CF0D1EF1CF0835189
:10399800B5EC2BF0000EEDEF1CF020EE74F060009B
:1039A800C4FF86F086510F0DC50EF324E16E020E9A
:1039B800F420E26E0E0E6F006FFFE3FFE806FBE2F5
:1039C80020EEF1F3600027F2DFFF8351B5EC2BF016
:1039D800010E1200150E016E000E026EDCEC2BF0CB
:1039E80001C028F002C029F028502910D8B4FFEFF0
:1039F8001CF001EF1DF026EF1DF0150E016E000EF4
:103A0800026E000E046E000E036ECFEC2BF028C081
:103A180002F029C003F020EE15F000EE04F00E0EBF
:103A28006F006FFFEBFFE806FBE224C013F0FBEC2E
:103A380025F0600097F0D9FF60009BF0DAFFDF6E99
:103A480066EF1DF024500BEC2CF06000C4FF27F04B
:103A5800010E2724016E026A000E0222000E046E77
:103A6800140E036E0FEC22F001502A6E20EEF2F3D2
:103A78002A50DE18D8A443EF1DF045EF1DF04BEF98
:103A88001DF0245000EC2CF0000E67EF1DF020EE26
:103A980015F06000C4FF27F027500F0DC50EF32462
:103AA800E16E020EF420E26E0E0E6F006FFFE3FF70
:103AB800E806FBE220EEF1F36000ABF0DFFF2450F4
:103AC80000EC2CF0010E1200000120EE08F08751E6
:103AD800D9268851DA22DF50896F89C08AF08B6B2A
:103AE8008C6B8D6B8CC08DF08BC08CF08AC08BF08A
:103AF8008A6B20EE07F08751D9268851DA22DF50E9
:103B08008E6F8EC08FF0906B916B926B90C092F01D
:103B18008FC091F0906B8F6B20EE06F08751D926FD
:103B28008851DA22DF50936F93C094F0956B966BAF
:103B3800976B94C097F0966B956B946B8F51942507
:103B4800986F90519521996F915196219A6F925142
:103B580097219B6F8A5198259C6F8B5199219D6F56
:103B68008C519A219E6F8D519B219F6F20EE09F0F9
:103B78008751D9268851DA22DF50A06FA0519C25A1
:103B8800A16F000E9D21A26F000E9E21A36F000E53
:103B98009F21A46F4DEC2CF060C07FF061C080F0D5
:103BA800A1C081F0A2C082F0A3C083F0A4C084F0B9
:103BB80000EC21F01200000E0001696F000E686F22
:103BC80068C060F069C061F0000E636F0F0E626F2D
:103BD800D8EC2AF0C50E00016025666F020E61213F
:103BE800676F0FEC28F00001684B692B69BF06EF7F
:103BF8001EF0695109E1140E685DD8A006EF1EF0A9
:103C080008EF1EF0E4EF1DF0000E696F000E686FFC
:103C180068C060F069C061F0000E636F110E626FDA
:103C2800D8EC2AF0F90E00016025D96E010E612149
:103C3800DA6E000EDE6E000EDD6E68C060F069C0E0
:103C480061F0000E636F110E626FD8EC2AF0FB0E64
:103C580000016025666F010E6121676F0FEC28F087
:103C68000001684B692B69BF43EF1EF0695109E1F8
:103C78000C0E685DD8A043EF1EF045EF1EF00CEF68
:103C88001EF0000E6F00A0FFF1F3000E6F00A0FF02
:103C9800F2F31200000E2E6E2E50110DFB0EF324BF
:103CA800D96E010EF420DA6EDF50D8B45EEF1EF044
:103CB80060EF1EF0B0EF1EF02E50110DF90EF32438
:103CC800D96E010EF420DA6E0A0EDE5E000EDD5AA1
:103CD8002E50110DF90EF324D96E010EF420DA6E70
:103CE800DE50DE10D8A47BEF1EF07DEF1EF0B0EFA3
:103CF8001EF02E50110DFB0EF324D96E010EF42088
:103D0800DA6E00EE15F00E0E6F006FFFEBFFE8069F
:103D1800FBE2010E246E2D0E256E000E266EEEECD3
:103D28001CF0E806D8A49BEF1EF09DEF1EF0A4EF50
:103D38001EF0010E036E2E5053EC2AF0B0EF1EF069
:103D48002E50110DF90EF324D96E010EF420DA6EFF
:103D5800010EDE6E000EDD6E2E2A0B0E2E64B7EFFE
:103D68001EF0B9EF1EF050EF1EF012006000FFF1D8
:103D7800D9FF600003F2DAFF100EDF6E000120EEBB
:103D880001F07F51D9268051DA22010EDF6E20EE34
:103D980002F07F51D9268051DA22640EDF6E20EEC0
:103DA80003F07F51D9268051DA22600EDF6E20EEB3
:103DB80004F07F51D9268051DA22000EDF6E20EE02
:103DC80005F07F51D9268051DA22010EDF6E7FC0BF
:103DD80070F080C071F038EC16F07FC066F080C0DB
:103DE80067F096EC19F0000120EE6AF07F51D926B1
:103DF8008051DA22DF50836F20EE6BF07F51D92695
:103E08008051DA22DF50846F20EE6CF07F51D92682
:103E18008051DA22DF50856F20EE6DF07F51D92670
:103E28008051DA22DF50866F83C07FF084C080F033
:103E380085C081F086C082F012006000FFF1D9FFD2
:103E4800600003F2DAFF100EDF6E000120EE01F0D1
:103E58007F51D9268051DA22010EDF6E20EE02F062
:103E68007F51D9268051DA22410EDF6E20EE03F011
:103E78007F51D9268051DA22600EDF6E20EE04F0E1
:103E88007F51D9268051DA22000EDF6E20EE05F030
:103E98007F51D9268051DA22010EDF6E7FC070F083
:103EA80080C071F038EC16F07FC066F080C067F013
:103EB80096EC19F0000120EE6AF07F51D926805166
:103EC800DA22DF50816F20EE6BF07F51D9268051C6
:103ED800DA22DF50826FFA51D8B475EF1FF077EF0E
:103EE8001FF07DEF1FF0EE0E806FEE0E7F6F81EFFB
:103EF8001FF081C07FF082C080F01200000E000128
:103F0800646F8DEF1FF0000ECCB6010E646FC8EF22
:103F18001FF0600083F1D9FF600087F1DAFFDF50FE
:103F2800626F636B6351000AD8B49DEF1FF0C8EF4E
:103F38001FF06251010AD8B487EF1FF0030AD8B402
:103F4800C8EF1FF0010AD8B4C8EF1FF0070AD8B4A9
:103F5800C8EF1FF0010AD8B4C8EF1FF0030AD8B49D
:103F6800C8EF1FF0010AD8B4C8EF1FF00F0AD8B481
:103F7800C8EF1FF0010AD8B4C8EF1FF0030AD8B47D
:103F8800C8EF1FF0C8EF1FF020EE01F06051D926EE
:103F98006151DA22DE04D8A4D4EF1FF0D6EF1FF067
:103FA800E1EF1FF06451D8B4DCEF1FF0DFEF1FF032
:103FB800010EE0EF1FF0000E646F64511200000E56
:103FC80000016F6F000E6E6F31EF20F0800E6D6F85
:103FD800000E6C6F60008BF1D9FF60008FF1DAFF83
:103FE8006F0078FF68F06F0074FF69F0020E6227B7
:103FF800000E6323000E6E156A6F800E6F156B6FCF
:10400800D8906E376F376C516815666F6D516915AA
:10401800676F66516711D8B414EF20F016EF20F0DF
:1040280018EF20F06E4B6F2B6A516B11D8B41FEF4D
:1040380020F021EF20F025EF20F0210E6E1B100E4E
:104048006F1BD8906D336C336C516D11D8A42FEF62
:1040580020F031EF20F0FEEF1FF06407D8A06507CD
:10406800642906E16529D8A43CEF20F03EEF20F052
:10407800EAEF1FF06EC060F06FC061F012006000E0
:10408800FFF1D9FF600003F2DAFF100EDF6E0001C6
:1040980020EE01F07F51D9268051DA22010EDF6E21
:1040A80020EE02F07F51D9268051DA22400EDF6ED1
:1040B80020EE03F07F51D9268051DA22600EDF6EA0
:1040C80020EE04F07F51D9268051DA22000EDF6EEF
:1040D80020EE05F07F51D9268051DA22010EDF6EDD
:1040E8007FC070F080C071F038EC16F07FC066F0C9
:1040F80080C067F096EC19F0000120EE6AF07F515D
:10410800D9268051DA22DF50816F20EE6BF07F5183
:10411800D9268051DA22DF50826FFA51D8B497EF4E
:1041280020F099EF20F09DEF20F07F698069A1EFE2
:1041380020F081C07FF082C080F012000C0E0001D8
:10414800996F9A0E666F000E676F0FEC28F09A0E43
:104158000001606F000E616F8AC062F08BC063F06F
:1041680099EC2BF09A0E0001606F000E616F8CC005
:1041780062F08DC063F0A7EC2BF09A0E0001606F1F
:10418800000E616F8EC062F016EC2CF09A0E0001E2
:10419800606F000E616F8FC062F090C063F07DECBD
:1041A8002BF09A0E0001606F000E616F91C062F0F3
:1041B80092C063F093C064F094C065F095C066F057
:1041C80096C067F097C068F098C069F014EC2AF0C0
:1041D80020EE9AF000EE74F00E0E6F006FFFEBFF0A
:1041E800E806FBE2000E0001836F990E846F000E53
:1041F800856F70EC1CF012006000FFF1D9FF6000C1
:1042080003F2DAFF110EDF6E000120EE01F07F519C
:10421800D9268051DA22030EDF6E20EE02F07F519C
:10422800D9268051DA22620EDF6E20EE03F07F512C
:10423800D9268051DA22200EDF6E20EE04F07F515D
:10424800D9268051DA22000EDF6E20EE05F07F516C
:10425800D9268051DA22010EDF6E20EE06F07F515A
:10426800D9268051DA22600007F2DFFF20EE07F03E
:104278007F51D9268051DA2260000BF2DFFF20EE51
:1042880008F07F51D9268051DA2260000FF2DFFF53
:1042980020EE09F07F51D9268051DA22600013F20E
:1042A800DFFF7FC070F080C071F038EC16F01200AC
:1042B8000001776F000E0001786F000E7B6F000E13
:1042C8007C6F000E796F000E7A6F7751C2EC2BF07D
:1042D80020EEF2F310EEF1F3DE50E618D8A477EFF3
:1042E80021F079EF21F089EF21F000017751B5EC49
:1042F8002BF020EE78F000EE66F00E0E6F006FFFE8
:10430800EBFFE806FBE2B5EF21F06000C8FF75F0AF
:10431800000175510F0DC50EF324D96E020EF4205D
:10432800DA6E10EE78F00E0E6F006FFFE3FFE8060E
:10433800FBE26000C8FF75F0010E7525606F616BC8
:10434800000E6123000E636F140E626FB6EC21F04D
:104358000001600080F1F2F37751B5EC2BF07DEFAE
:1043680021F01200000E0001656F61BFC0EF21F05F
:10437800BEEF21F0C6EF21F0606D611FD8B0612B50
:10438800010E656F63BFCDEF21F0CBEF21F0D1EFC8
:1043980021F0626D631FD8B0632B62516311D8B4EA
:1043A800D8EF21F0DAEF21F0FEEF21F0010E646F73
:1043B800E2EF21F0D89062376337642B63AFE7EF01
:1043C80021F0E9EF21F0DEEF21F06251605D6351E9
:1043D8006159D8A0F2EF21F0F4EF21F0F8EF21F0C5
:1043E8006251605F6351615BD89063336233642FBD
:1043F800E9EF21F06551D8B404EF22F006EF22F07E
:104408000AEF22F0606D611FD8B0612B60C060F0C8
:1044180061C061F01200000E066E02BE18EF22F0B5
:1044280016EF22F01EEF22F0016C021ED8B0022A0D
:10443800010E066E04BE25EF22F023EF22F029EFCD
:1044480022F0036C041ED8B0042A03500410D8B418
:1044580030EF22F032EF22F056EF22F0010E056E17
:104468003AEF22F0D89003360436052A04AE3FEF1F
:1044780022F041EF22F036EF22F00350015C0450A5
:104488000258D8A04AEF22F04CEF22F050EF22F069
:104498000350015E0450025AD89004320332052EAC
:1044A80041EF22F00650D8B45CEF22F05EEF22F024
:1044B80062EF22F0016C021ED8B0022A01C001F09E
:1044C80002C002F0120053EC2CF060C062F061C030
:1044D80063F0010E0001646F20EC2CF053EC2CF01B
:1044E80060C066F061C067F03AEC2CF05FEC2CF02D
:1044F80060C062F061C063F0010E0001646F010EDC
:10450800656F03EC2BF05FEC2CF060C062F061C0CB
:1045180063F08AEC2CF065EC2CF060C062F061C0AE
:1045280063F05FEC2CF060C064F061C065F041ECB2
:1045380028F06BEC2CF060C062F061C063F08BEC8B
:104548002CF059EC2CF060C062F061C063F0F2EC22
:1045580029F047EC2CF060C064F061C065F0D6EC3F
:104568001BF04DEC2CF060C062F061C063F0BEEC53
:1045780022F01200000E0001666F66516225646F1A
:10458800000E6321656F640E6425D96E000E6521E7
:10459800DA6E000EDF6E66516225D96E000E632159
:1045A800DA6E000EDF6E190E6661DDEF22F0DFEFC6
:1045B80022F007EF23F06651020D62C064F063C079
:1045C80065F0F3506427F4506523960E6425D96E80
:1045D800000E6521DA6E000EDE6E000EDD6E66518D
:1045E800020D62C064F063C065F0F3506427F450B4
:1045F8006523320E6425D96E000E6521DA6E000E31
:10460800DE6E000EDD6E662B310E66650EEF23F052
:1046180010EF23F0C1EF22F012003901A3A717EF22
:1046280023F019EF23F011EF23F0000E0001F96FCA
:104638003D01F9A722EF23F024EF23F033EF23F015
:104648000001F98302D833EF23F00500FA6EF65122
:10465800FD6EF751FE6EF850FF6EFA5012003D01E4
:10466800F9A339EF23F03BEF23F04AEF23F00001E1
:10467800F98502D84AEF23F00500FA6EF451FD6E71
:10468800F551FE6EF850FF6EFA5012000001F95114
:10469800D8B451EF23F053EF23F060EF23F002D8A2
:1046A80060EF23F00500FA6EF251FD6EF351FE6ED5
:1046B800F850FF6EFA5012003D01E85112006000F8
:1046C800FFF1D9FF600003F2DAFF100EDF6E000180
:1046D80020EE01F07F51D9268051DA22010EDF6EDB
:1046E80020EE02F07F51D9268051DA22600EDF6E6B
:1046F80020EE03F07F51D9268051DA22600EDF6E5A
:1047080020EE04F07F51D9268051DA22000EDF6EA8
:1047180020EE05F07F51D9268051DA22010EDF6E96
:104728007FC070F080C071F038EC16F07FC066F082
:1047380080C067F096EC19F00001FA51D8B4A7EFE1
:1047480023F0A9EF23F0ACEF23F0000EB3EF23F032
:1047580020EE6AF07F51D9268051DA22DF5012000C
:1047680047EC2CF060C064F061C065F0020E0001F7
:10477800666F20EE09F06A51D9266B51DA22DF50B4
:10478800676F8BEC2AF047EC2CF060C064F061C0D6
:1047980065F0030E0001666F20EE08F06A51D92615
:1047A8006B51DA22DF50676F8BEC2AF047EC2CF064
:1047B80060C064F061C065F0040E0001666F20EE11
:1047C80007F06A51D9266B51DA22DF50676F8BECFC
:1047D8002AF047EC2CF060C064F061C065F0050E6B
:1047E8000001666F20EE06F06A51D9266B51DA2275
:1047F800DF50676F8BEC2AF0120047EC2CF060C09A
:1048080062F061C063F0010E0001646FEEEC2AF003
:104818000009D8B412EF24F014EF24F04BEF24F081
:10482800000120EE03F07B51D9267C51DA221F0EBD
:10483800DE6E050EDE6E000EDE6E000EDD6E20EE04
:1048480007F07B51D9267C51DA22020EDF6E20EE6A
:1048580008F07B51D9267C51DA22AA0EDF6E20EEB1
:1048680009F07B51D9267C51DA22BB0EDF6E20EE8F
:1048780010F07B51D9267C51DA22000EDF6E020E31
:104888007B25726F000E7C21736FA5EC12F012006D
:10489800010E00017D6F110E7E6F050E7F6F000EF9
:1048A800806F000E816F040E826F47EC2CF060C0A1
:1048B80062F061C063F0050E0001646FEEEC2AF04F
:1048C8000001836F47EC2CF060C062F061C063F0B8
:1048D800040E0001646FEEEC2AF00001846F47ECCF
:1048E8002CF060C062F061C063F0030E0001646FD9
:1048F800EEEC2AF00001856F47EC2CF060C062F006
:1049080061C063F0020E0001646FEEEC2AF0000152
:10491800866F000E8B6F7D0E726F000E736FA5ECA5
:1049280012F01200A9C08AF0AAC08BF0B40E0001E0
:104938008C6F200E8D6F0A0E8E6F000E906F000E1A
:104948008F6F000E916F000E926F000E936F000E26
:10495800946F000E956F000E966F000E976F000E05
:10496800986FA2EC20F0000120EE01F0A951D926A1
:10497800AA51DA226F0078FF60F06F0074FF61F0CF
:1049880082EC1FF0E806D8B4CCEF24F0CEEF24F088
:10499800D3EF24F0040E0001AB6FD6EF24F0030E22
:1049A8000001AB6F20EE03F0A951D926AA51DA22F3
:1049B8006000AFF2DFFF12006000FFF1D9FF600076
:1049C80003F2DAFF110EDF6E000120EE01F07F51D5
:1049D800D9268051DA22020EDF6E20EE02F07F51D6
:1049E800D9268051DA22600EDF6E20EE03F07F5167
:1049F800D9268051DA22600EDF6E20EE04F07F5156
:104A0800D9268051DA22000EDF6E20EE05F07F51A4
:104A1800D9268051DA22010EDF6E20EE06F07F5192
:104A2800D9268051DA22600007F2DFFF20EE07F076
:104A38007F51D9268051DA22000EDF6E7FC070F0D8
:104A480080C071F038EC16F012006000FFF1D9FF59
:104A5800600003F2DAFF110EDF6E000120EE01F0B4
:104A68007F51D9268051DA22020EDF6E20EE02F045
:104A78007F51D9268051DA22400EDF6E20EE03F0F6
:104A88007F51D9268051DA22600EDF6E20EE04F0C5
:104A98007F51D9268051DA22000EDF6E20EE05F014
:104AA8007F51D9268051DA22010EDF6E20EE06F002
:104AB8007F51D9268051DA22600007F2DFFF20EE0D
:104AC80007F07F51D9268051DA228251DF6E7FC0EC
:104AD80070F080C071F038EC16F0120000017251CD
:104AE800C2EC2BF0000E0001736F7351110DFB0E19
:104AF800F324D96E010EF420DA6EDF50D8A487EFC4
:104B080025F089EF25F0A9EF25F07351110DF90E65
:104B1800F324D96E010EF420DA6E600087F1DEFF0F
:104B280060008BF1DDFF20EE63F07351110DFB0E79
:104B3800F324E16E010EF420E26E0E0E6F006FFF9B
:104B4800E3FFE806FBE2B2EF25F0732B0B0E73656B
:104B5800B0EF25F0B2EF25F079EF25F07251B5EC02
:104B68002BF0000173511200A9C08AF0AAC08BF083
:104B7800A20E00018C6F170E8D6F2F0E8E6F000E18
:104B8800906F000E8F6F000E916F000E926F000EE7
:104B9800936F000E946F000E956F000E966F000EC7
:104BA800976F000E986FA2EC20F0A9C08AF0AAC0F7
:104BB8008BF0A20E00018C6F170E8D6F280E8E6F72
:104BC800000E906F000E8F6F000E916F000E926FA7
:104BD800000E936F000E946F000E956F000E966F87
:104BE800000E976F000E986FA2EC20F01200135081
:104BF8000BEC2CF0000E146E1450110DFB0EF32468
:104C0800D96E010EF420DA6EDF50D8A40EEF26F02C
:104C180010EF26F030EF26F01450110DF90EF324A2
:104C2800D96E010EF420DA6E60000BF0DEFF600032
:104C38000FF0DDFF20EE04F01450110DFB0EF324ED
:104C4800E16E010EF420E26E0E0E6F006FFFE3FFBF
:104C5800E806FBE239EF26F0142A0B0E146437EF4E
:104C680026F039EF26F000EF26F0135000EC2CF078
:104C78001450120043EF26F0BB827FEF26F060004D
:104C88008BF1D9FF60008FF1DAFFDF500001646F0C
:104C9800656B6551000AD8B454EF26F07FEF26F013
:104CA8006451010AD8B440EF26F0030AD8B47FEF64
:104CB80026F0010AD8B47FEF26F0070AD8B47FEFB0
:104CC80026F0010AD8B47FEF26F0030AD8B47FEFA4
:104CD80026F0010AD8B47FEF26F00F0AD8B47FEF88
:104CE80026F0010AD8B47FEF26F0030AD8B47FEF84
:104CF80026F07FEF26F0120085EF26F0BB92C1EF79
:104D080026F060008BF1D9FF60008FF1DAFFDF50E9
:104D18000001646F656B6551000AD8B496EF26F000
:104D2800C1EF26F06451010AD8B482EF26F0030AD5
:104D3800D8B4C1EF26F0010AD8B4C1EF26F0070AAB
:104D4800D8B4C1EF26F0010AD8B4C1EF26F0030A9F
:104D5800D8B4C1EF26F0010AD8B4C1EF26F00F0A83
:104D6800D8B4C1EF26F0010AD8B4C1EF26F0030A7F
:104D7800D8B4C1EF26F0C1EF26F012000001666F2B
:104D880000016651646F656BD89064376537D890B9
:104D980064376537D8906437653764C06BF065C091
:104DA8006CF0000E6CBFFF0E6D6F6E6F60C064F02C
:104DB800050E656FD8906433652FDEEF26F06451D9
:104DC8006B256B6F000E6C216C6F000E6D216D6F83
:104DD800000E6E216E6F6BC067F06CC068F06DC01E
:104DE80069F06EC06AF067C060F068C061F069C0C1
:104DF80062F06AC063F01200000E5CEC21F020EE55
:104E0800E1F00E0E6F00AFFFDBFFE806FBE20001EA
:104E1800E151D8B412EF27F014EF27F039EF27F05B
:104E2800E451E511D8B41BEF27F01DEF27F039EF57
:104E380027F0E251E311D8B424EF27F026EF27F04A
:104E480039EF27F0E10EB16F000EB26F20EEE2F0FD
:104E580002D839EF27F00500FA6EDE50FD6EDE50FD
:104E6800FE6EF850FF6EFA5012001200000E00019C
:104E7800656F000E646F60008BF1D9FF60008FF1E1
:104E8800DAFF000EDF6E66EF27F0350EE82EFED74C
:104E980000F00001644B652B210E645D4E0E6559D0
:104EA800D8A059EF27F05BEF27F066EF27F06000F6
:104EB8008BF1D9FF60008FF1DAFFFF0EDF6EEE0E87
:104EC80072EF27F0F5EC2BF00009D8B46EEF27F05D
:104ED80070EF27F049EF27F011EC23F01200000ED5
:104EE8003D01EC6F000EED6F000EEE6F000EEF6FE0
:104EF800000EF06F000EF16FB00EF26F800EF36FC0
:104F0800000EF46F8A0EF56F000EF66F000EF76F45
:104F1800000EF86F000EF96F000EFA6F100E000108
:104F2800606F590E616F76EC2CF00E0E0001606F09
:104F3800590E616F71EC2CF0120E0001606F590E62
:104F4800616F7BEC2CF0000E0001F96F1200BBB012
:104F5800B0EF27F0B3EF27F0010EB4EF27F0000E03
:104F6800FF0A0001A96FBB50A919FE0BA919BB6E56
:104F7800000E8A6F010E8B6F560E8C6F4F0E8D6F61
:104F88000B0E8E6F030E906FE80E8F6F000E916FF1
:104F9800000E926F000E936F000E946F000E956FC7
:104FA800000E966F000E976F000E986FA2EC20F01F
:104FB800120065EC2CF060C0A9F061C0AAF096EC74
:104FC80024F059EC2CF060C0A9F061C0AAF0B8EC4C
:104FD80025F0000E00018A6F010E8B6F560E8C6F44
:104FE8004F0E8D6F0B0E8E6F030E906FE80E8F6F46
:104FF800000E916F000E926F000E936F000E946F6B
:10500800000E956F000E966F000E976F000E986F4A
:10501800A2EC20F0120060009BF1D9FF60009FF124
:10502800DAFF000EDF6E000120EE05F06651D9268A
:105038006751DA22000EDE6E000EDD6E20EE03F000
:105048006651D9266751DA22000EDE6E000EDD6E3B
:1050580020EE07F06651D9266751DA22070EDE6A7C
:10506800E806FDE220EE01F06651D9266751DA2202
:10507800000EDE6E000EDD6E120060008BF1D9FFAF
:1050880060008FF1DAFF000EDF6E000120EE01F004
:105098006251D9266351DA22600093F1DEFF600085
:1050A80097F1DDFF20EE03F06251D9266351DA2231
:1050B800000EDF6E20EE06F06251D9266351DA2227
:1050C800000EDE6E000EDD6E20EE04F06251D92671
:1050D8006351DA22000EDE6E000EDD6E12006000F3
:1050E80007F0D9FF60000BF0DAFF000EDF6E20EE4C
:1050F80005F00150D9260250DA22000EDE6E000EAD
:10510800DD6E20EE03F00150D9260250DA22000E9F
:10511800DE6E000EDD6E20EE07F00150D92602503B
:10512800DA22070EDE6AE806FDE220EE01F0015001
:10513800D9260250DA22000EDE6E000EDD6E120055
:10514800000120EE07F06051D9266151DA226F0084
:1051580078FF68F06F0078FF69F06F0078FF6AF0F9
:105168006F0078FF6BF06F0078FF6CF06F0078FFCE
:105178006DF06F0078FF6EF06F0078FF6FF068C019
:1051880060F069C061F06AC062F06BC063F06CC027
:1051980064F06DC065F06EC066F06FC067F0120015
:1051A800000EBA6E000EBB6E000EBC6EC268F80E22
:1051B800C36EDF0EC46EA70E3A01606FF40E506F17
:1051C8004069000E816F000E516F800E416F000E16
:1051D800616F000E426F000E526F000E626F4369DE
:1051E80053696369446954696469080E846F330EAE
:1051F8000A6F0B0EED6F130E156F160EE76F120088
:105208004DEC2CF060C07FF061C080F0BAEC1EF06D
:105218007FC089F080C08AF081C08BF082C08CF09A
:10522800010E00018D6F120E8E6F050E8F6F000E2E
:10523800906F000E916F040E926F89C096F08AC02D
:1052480095F08BC094F08CC093F0000E9B6F8D0E80
:10525800726F000E736FA5EC12F012006F00E8FF7A
:105268002FF06F00ECFF30F0390195AD3EEF29F0DB
:1052780040EF29F049EF29F0A5AD45EF29F047EFB8
:1052880029F049EF29F059EF29F093AF4EEF29F0B3
:1052980050EF29F059EF29F0A3AF55EF29F057EF58
:1052A80029F059EF29F0BFEC2AF06000C3F0FBFFAA
:1052B8006000BFF0FAFF1100000ED2BE010E00011F
:1052C800636F6151030B3901E16F600083F1E0F90D
:1052D80060008BF1E3F93F0EE517E585D29E550E88
:1052E800E66FAA0EE66FE583E5B37DEF29F07FEF61
:1052F80029F078EF29F0E595000163B102D0D29E3C
:1053080001D0D28E120060EC2BF0520E0001F16F2A
:105318002B0EF06F000EE82EFED7F02FFCD7F12FE2
:10532800FAD700F0D28EDFEC1DF067EC22F017EC14
:105338002BF0DDEC27F09C0E0001606F3C0E616FD6
:1053480080EC2CF000EC27F0A6EF29F00DEF00F030
:1053580000016805D8A4B3EF29F0B5EF29F0CFEF25
:1053680029F06951D8B4BBEF29F0BDEF29F0C7EF98
:1053780029F053EC2CF060C062F061C063F03EECA1
:1053880026F0CFEF29F053EC2CF060C062F061C03A
:1053980063F080EC26F01200A9C08AF0AAC08BF056
:1053A8001E0E00018C6F000E8D6F280E8E6F000E82
:1053B800906F000E8F6F000E916F000E926F000EAF
:1053C800936F000E946F000E956F000E966F000E8F
:1053D800976F000E986FA2EC20F0120060008BF11E
:1053E800D9FF60008FF1DAFF0A0EDF6E000120EEB0
:1053F80001F06251D9266351DA221E0EDF6E20EECB
:1054080002F06251D9266351DA22010EDF6E20EED6
:1054180010F06251D9266351DA22000EDF6E1200B5
:10542800000120EE07F06051D9266151DA226000B0
:105438008BF1DEFF60008FF1DEFF600093F1DEFF8D
:10544800600097F1DEFF60009BF1DEFF60009FF1D6
:10545800DEFF6000A3F1DEFF6000A7F1DEFF1200AF
:1054680000EEF9F110EEFAF1EE6AE550E150FCE1D8
:10547800E250FAE100EE00F1F90EEE6AE806FDE10D
:105488000001FA6BF96BF86B080ED56E000ED66E3C
:10549800000ED76E000EF86E000187EF29F0046E3B
:1054A80003500BEC2CF00450110DF90EF324D96EB7
:1054B800010EF420DA6E000EDE6E000EDD6E045072
:1054C800110DFB0EF324016E010EF420026E73EC35
:1054D80028F0035000EC2CF0120060008BF1D9FF8B
:1054E80060008FF1DAFF1E0EDF6E000120EE01F082
:1054F8006251D9266351DA22010EDF6E20EE0FF0D9
:105508006251D9266351DA22000EDF6E1200050EB1
:105518000001666192EF2AF094EF2AF0A4EF2AF0D6
:1055280066516425D96E000E6521DA6E60009FF120
:10553800DFFF66C060F0616B67C062F060EC29F065
:105548001200000120EE06F06251D9266351DA22DA
:10555800600093F1DEFF600097F1DDFF20EE04F0BC
:105568006251D9266351DA2260009BF1DEFF6000A8
:105578009FF1DDFF12003901A39F31503210D8B4DA
:10558800C8EF2AF0CAEF2AF0D7EF2AF002D8D7EFEF
:105598002AF00500FA6E3150FD6E3250FE6EF8505A
:1055A800FF6EFA50120012000001605162036F0092
:1055B800CCFF64F06F00D0FF65F060516303F350D7
:1055C800652761516203F350652764C060F065C0C8
:1055D80061F01200000E0001656F050E6461F7EFBF
:1055E8002AF0F9EF2AF001EF2BF064516225D96E09
:1055F800000E6321DA6EDF50656F6551120060009E
:105608008BF1D9FF60008FF1DAFF600093F1DFFFC3
:10561800000120EE01F06251D9266351DA226000C0
:1056280097F1DFFF120065EC2CF060C062F061C0FA
:1056380063F06BEC2CF060C064F061C065F0580E4C
:105648000001666F530E676FA5EC2AF01200460E34
:10565800B96EF90EB76E000EB66E3901A39F938F1F
:10566800180E0001606F590E616F80EC2CF0890EE6
:10567800B86E1200000E3901C06F000EC16F000E27
:10568800C26F000EC36F000EC46F000EC56F000E10
:10569800C66F000EC76F120000016151030B39017C
:1056A800E16F600083F1E0F93F0EE517E58100F056
:1056B80000F03901E351120085EC2CF03EEC2BF0A0
:1056C800D4EC28F0E9EC2BF02BEC2BF073EC27F062
:1056D8008EEC17F012000001606F3901A3A977EF73
:1056E8002BF079EF2BF071EF2BF0600083F1EAFDDE
:1056F8001200000120EE05F06051D9266151DA222E
:1057080060008BF1DEFF60008FF1DDFF1200000109
:1057180020EE05F06051D9266151DA226F0078FF3A
:1057280060F06F0074FF61F01200000120EE03F0DA
:105738006051D9266151DA2260008BF1DEFF6000EA
:105748008FF1DDFF1200000120EE01F06051D92633
:105758006151DA2260008BF1DEFF60008FF1DDFF1E
:1057680012000001606F00016051D8A4BEEF2BF059
:10577800C0EF2BF0C1EF2BF0D28E12000001606F4A
:1057880000016051D8A4CBEF2BF0CDEF2BF0CEEF7A
:105798002BF0D29E120020EE05F00150D9260250BF
:1057A800DA2260000FF0DEFF600013F0DDFF120068
:1057B80020EE05F00150D9260250DA226F0078FF5A
:1057C80001F06F0074FF02F01200600E3901D96F0A
:1057D800000EDB6F000EDD6F080EDF6F000EDE6F50
:1057E80012003901A3B7FBEF2BF0FEEF2BF0010EEF
:1057F800FFEF2BF0000E1200016E0150D8A407EF46
:105808002CF009EF2CF00AEF2CF0D28E1200016E6A
:105818000150D8A412EF2CF014EF2CF015EF2CF057
:10582800D29E1200600083F1D9FF600087F1DAFF91
:1058380060008BF1DFFF120060008BF1D9FF600080
:105848008FF1DAFF600093F1DFFF1200600083F14F
:10585800D9FF600087F1DAFFDF501200600083F1A2
:10586800D9FF600087F1DAFFDF50120066C062F0EE
:1058780067C063F080EC26F01200E90E0001606F4B
:10588800010E616F12001C0E0001606F010E616F46
:105898001200210E0001606F010E616F1200000EF0
:1058A8000001606F010E616F12000B0E0001606F46
:1058B800010E616F1200010E0001606F010E616F31
:1058C8001200030E0001606F010E616F12000B0ED3
:1058D8000001606F010E616F120060C0F4F061C0DA
:1058E800F5F0120060C0F6F061C0F7F0120060C079
:1058F800F2F061C0F3F0120060C031F061C032F024
:105908001200D29A120012001200120012001200A5
:0259180012007B
:020000040020DA
:10000000FF0FFF0FFF0FFF0FFF0FFF0FFF0FFF0F80
:020000040030CA
:0A0000008CFFF7FF9FFFFFFFFFFFDB
:00000001FF
