:040000000DEF00F010
:04000800C5EF16F03A
:10001800FF00E5EF17F0000120EE03F0B151D926FB
:10002800B251DA226F0078FFBEF06F0074FFBFF0A4
:10003800000EBD6F6000FBF2D9FF6000FFF2DAFF2F
:10004800DF50BB6F20EE01F0BE51D926BF51DA2236
:10005800DF50BC6F7BEF00F0B1C060F0B2C061F060
:100068009EEC19F02F0AD8A43CEF00F03EEF00F008
:100078009AEF00F0000120EE01F0BE51D926BF51E1
:10008800DA221F0EDF6E9AEF00F0B1C060F0B2C046
:1000980061F09EEC19F0300AD8A455EF00F057EF44
:1000A80000F09AEF00F0000120EE01F0BE51D926D1
:1000B800BF51DA22200EDF6E9AEF00F0B1C060F077
:1000C800B2C061F09EEC19F0310AD8A46EEF00F0CE
:1000D80070EF00F09AEF00F0000120EE01F0BE5141
:1000E800D926BF51DA221F0EDF6E9AEF00F020EEFC
:1000F80001F0BE51D926BF51DA22DF50B36FB46B7D
:10010800B451000AD8B48BEF00F09AEF00F0B35165
:100118001E0AD8B430EF00F0010AD8B449EF00F055
:100128003F0AD8B462EF00F09AEF00F0000120EE29
:1001380001F0BE51D926BF51DA22BC51DE18D8B41D
:10014800A8EF00F0AAEF00F018EF01F0010EBD6F64
:10015800F9EF00F0BEC08AF0BFC08BF01E0E8C6FA6
:10016800000E8D6F300E8E6F000E906F320E8F6FF7
:10017800000E916F000E926F000E936F000E946F39
:10018800000E956F000E966F000E976F000E986F19
:10019800D9EC10F018EF01F0BEC07BF0BFC07CF0C6
:1001A800F3EC16F0BEC08AF0BFC08BF01E0E000143
:1001B8008C6F000E8D6F310E8E6F000E906F320EA9
:1001C8008F6F000E916F000E926F000E936F000EEE
:1001D800946F000E956F000E966F000E976F000ECD
:1001E800986FD9EC10F018EF01F020EE01F0BE5135
:1001F800D926BF51DA22DF50B36FB46BB451000A6D
:10020800D8B409EF01F018EF01F0B3511E0AD8B4C1
:1002180018EF01F0010AD8B4AEEF00F03F0AD8B4E5
:10022800D0EF00F018EF01F00001BD51D8A41FEF86
:1002380001F021EF01F077EF04F091EF02F0B1C087
:1002480060F0B2C061F09EEC19F0280AD8A42FEF34
:1002580001F031EF01F0C4EF02F06000FBF2D9FFCA
:100268006000FFF2DAFF0C0EDF6EC4EF02F0B1C0DF
:1002780060F0B2C061F09EEC19F0290AD8A447EFEB
:1002880001F049EF01F0C4EF02F06000FBF2D9FF82
:100298006000FFF2DAFF0D0EDF6EC4EF02F0B1C0AE
:1002A80060F0B2C061F09EEC19F02A0AD8A45FEFA2
:1002B80001F061EF01F0E9EF01F08BEF01F0600070
:1002C800FBF2D9FF6000FFF2DAFF0B0EDF6EC4EF1E
:1002D80002F06000FBF2D9FF6000FFF2DAFF0E0EB9
:1002E800DF6EC4EF02F06000FBF2D9FF6000FFF29E
:1002F800DAFF100EDF6EC4EF02F06000FBF2D9FFE8
:100308006000FFF2DAFF0C0EDF6EC4EF02F0B1C03E
:1003180060F0B2C061F065EC16F060C0B3F061C087
:10032800B4F062C0B5F063C0B6F064C0B7F065C0A1
:10033800B8F066C0B9F067C0BAF00001BA51000A57
:10034800D8B4E2EF01F081EF01F0B651000AD8B459
:10035800CDEF01F081EF01F0B451000AD8B4BBEF42
:1003680001F0010AD8B4C2EF01F081EF01F0B351F6
:10037800520AD8B477EF01F081EF01F0B351500A77
:10038800D8B463EF01F0010AD8B46DEF01F081EF42
:1003980001F0B551000AD8B4B0EF01F081EF01F0D7
:1003A800B851000AD8B4DBEF01F081EF01F0B75182
:1003B800000AD8B4A9EF01F081EF01F0B951000AA1
:1003C800D8B4D4EF01F081EF01F0B1C060F0B2C051
:1003D80061F09EEC19F02C0AD8A4F5EF01F0F7EFC4
:1003E80001F0C4EF02F06000FBF2D9FF6000FFF2F9
:1003F800DAFF0C0EDF6EC4EF02F0B1C060F0B2C0DD
:1004080061F09EEC19F02D0AD8A40DEF02F00FEF61
:1004180002F019EF02F06000FBF2D9FF6000FFF272
:10042800DAFF0F0EDF6EC4EF02F0B1C060F0B2C0A9
:1004380061F09EEC19F02C0AD8A425EF02F027EF02
:1004480002F0C4EF02F06000FBF2D9FF6000FFF297
:10045800DAFF0C0EDF6EC4EF02F0B1C060F0B2C07C
:1004680061F09EEC19F02C0AD8A43DEF02F03FEFA2
:1004780002F0C4EF02F06000FBF2D9FF6000FFF267
:10048800DAFF0C0EDF6EC4EF02F0B1C060F0B2C04C
:1004980061F09EEC19F02C0AD8A455EF02F057EF42
:1004A80002F0C4EF02F06000FBF2D9FF6000FFF237
:1004B800DAFF0C0EDF6EC4EF02F0B1C060F0B2C01C
:1004C80061F09EEC19F02C0AD8A46DEF02F06FEFE2
:1004D80002F0C4EF02F06000FBF2D9FF6000FFF207
:1004E800DAFF0C0EDF6EC4EF02F0B1C060F0B2C0EC
:1004F80061F09EEC19F02C0AD8A485EF02F087EF82
:1005080002F0C4EF02F06000FBF2D9FF6000FFF2D6
:10051800DAFF0C0EDF6EC4EF02F06000FBF2D9FFC9
:100528006000FFF2DAFFDF50B36FB46BB451000A1A
:10053800D8B4A1EF02F0C4EF02F0B3510A0AD8B45C
:1005480023EF01F0010AD8B449EF02F0070AD8B442
:100558003BEF01F0010AD8B453EF01F0030AD8B415
:1005680001EF02F0010AD8B431EF02F01F0AD8B443
:1005780061EF02F0010AD8B479EF02F0C4EF02F09B
:100588006000FBF2D9FF6000FFF2DAFF0001BB5107
:10059800DE18D8B4D2EF02F0D4EF02F077EF04F00F
:1005A80044EF04F0BEC08AF0BFC08BF01E0E8C6F03
:1005B800000E8D6F290E8E6F000E906F320E8F6FAA
:1005C800000E916F000E926F000E936F000E946FE5
:1005D800000E956F000E966F000E976F000E986FC5
:1005E800D9EC10F077EF04F0BEC0A9F0BFC0AAF0B4
:1005F800020EBE25AB6F000EBF21AC6F66EC0BF090
:1006080077EF04F020EE10F0BE51D926BF51DA2260
:10061800DE04D8A412EF03F014EF03F036EF03F072
:10062800BEC08AF0BFC08BF01E0E8C6F000E8D6F9F
:100638002D0E8E6F000E906F000E8F6F000E916F53
:10064800000E926F000E936F000E946F000E956F60
:10065800000E966F000E976F000E986FD9EC10F091
:1006680077EF04F0BEC060F0BFC061F0020EBE2597
:10067800626F000EBF21636FEFEC19F0BEC08AF005
:10068800BFC08BF01E0E00018C6F000E8D6F2C0EFC
:100698008E6F000E906F000E8F6F000E916F000E20
:1006A800926F000E936F000E946F000E956F000E00
:1006B800966F000E976F000E986FD9EC10F077EFD9
:1006C80004F0BEC07BF0BFC07CF0A9EC17F0BEC040
:1006D8008AF0BFC08BF01E0E00018C6F000E8D6F6C
:1006E8002C0E8E6F000E906F000E8F6F000E916FA4
:1006F800000E926F000E936F000E946F000E956FB0
:10070800000E966F000E976F000E986FD9EC10F0E0
:1007180077EF04F0BEC08CF0BFC08DF0020EBE258E
:100728008E6F000EBF218F6F16EC10F0BEC08AF0DE
:10073800BFC08BF01E0E00018C6F000E8D6F2C0E4B
:100748008E6F000E906F000E8F6F000E916F000E6F
:10075800926F000E936F000E946F000E956F000E4F
:10076800966F000E976F000E986FD9EC10F000018D
:1007780020EE10F0BE51D926BF51DA22DE04D8A4EB
:10078800C8EF03F0CAEF03F0ECEF03F0BEC08AF045
:10079800BFC08BF01E0E8C6F000E8D6F2E0E8E6FED
:1007A800000E906F000E8F6F000E916F000E926F0B
:1007B800000E936F000E946F000E956F000E966FEB
:1007C800000E976F000E986FD9EC10F077EF04F0D9
:1007D800BEC068F0BFC069F0020EBE256A6F000E89
:1007E800BF216B6F91EC12F0BEC08AF0BFC08BF0D6
:1007F8001E0E00018C6F000E8D6F2C0E8E6F000E7A
:10080800906F000E8F6F000E916F000E926F000EAA
:10081800936F000E946F000E956F000E966F000E8A
:10082800976F000E986FD9EC10F077EF04F0BEC008
:1008380066F0BFC067F06EEC13F0BEC08AF0BFC0B0
:100848008BF01E0E00018C6F000E8D6F2C0E8E6FBC
:10085800000E906F000E8F6F000E916F000E926F5A
:10086800000E936F000E946F000E956F000E966F3A
:10087800000E976F000E986FD9EC10F077EF04F028
:100888006000FBF2D9FF6000FFF2DAFFDF50B36FC0
:10089800B46BB451000AD8B454EF04F077EF04F005
:1008A800B3510A0AD8B477EF04F0010AD8B48EEF2E
:1008B80003F0070AD8B4D6EF02F0010AD8B4F8EF6B
:1008C80002F0030AD8B406EF03F0010AD8B465EFC2
:1008D80003F01F0AD8B4BBEF03F0010AD8B41BEF2A
:1008E80004F077EF04F01200000120EE03F0B1519C
:1008F800D926B251DA226F0078FFB6F06F0074FF84
:10090800B7F06000DBF2D9FF6000DFF2DAFFDF50FA
:10091800B56F28EF05F0B1C060F0B2C061F09EEC91
:1009280019F00A0AD8A49BEF04F09DEF04F04FEFEA
:1009380005F06000DBF2D9FF6000DFF2DAFF010E9C
:10094800DF6E4FEF05F0B1C060F0B2C061F09EEC11
:1009580019F00C0AD8A4B3EF04F0B5EF04F04FEF88
:1009680005F06000DBF2D9FF6000DFF2DAFF020E6B
:10097800DF6E4FEF05F0B1C060F0B2C061F09EECE1
:1009880019F00B0AD8A4CBEF04F0CDEF04F04FEF29
:1009980005F0000120EE01F0B651D926B751DA2250
:1009A8006F0078FF60F06F0074FF61F078EC10F072
:1009B800E806D8A4E2EF04F0E4EF04F0EEEF04F068
:1009C8006000DBF2D9FF6000DFF2DAFF030EDF6EB2
:1009D8004FEF05F06000DBF2D9FF6000DFF2DAFFCD
:1009E800040EDF6E4FEF05F0B1C060F0B2C061F0E9
:1009F8009EEC19F00B0AD8A404EF05F006EF05F0F9
:100A08004FEF05F06000DBF2D9FF6000DFF2DAFF9C
:100A1800010EDF6E4FEF05F0B1C060F0B2C061F0BB
:100A28009EEC19F00B0AD8A41CEF05F01EEF05F098
:100A38004FEF05F06000DBF2D9FF6000DFF2DAFF6C
:100A4800010EDF6E4FEF05F06000DBF2D9FF6000AA
:100A5800DFF2DAFFDF50B36FB46BB451000AD8B4D9
:100A680038EF05F04FEF05F0B351000AD8B48FEF17
:100A780004F0010AD8B4A7EF04F0030AD8B4BFEF12
:100A880004F0010AD8B4F8EF04F0070AD8B410EF5C
:100A980005F04FEF05F06000DBF2D9FF6000DFF2F0
:100AA800DAFF0001B551DE18D8B45DEF05F05FEF4D
:100AB80005F0C2EF06F09BEF06F0B6C08AF0B7C0AB
:100AC8008BF0F00E8C6F080E8D6F0C0E8E6F000E73
:100AD800906F320E8F6F000E916F000E926F000EA6
:100AE800936F000E946F000E956F000E966F000EB8
:100AF800976F000E986FD9EC10F0C2EF06F0B6C0F1
:100B08008AF0B7C08BF0F00E8C6F080E8D6F0B0E4D
:100B18008E6F000E906F000E8F6F000E916F000E9B
:100B2800926F000E936F000E946F000E956F000E7B
:100B3800966F000E976F000E986FD9EC10F0C2EF09
:100B480006F0B6C08AF0B7C08BF0F00E8C6F080EB6
:100B58008D6F0B0E8E6F000E906F000E8F6F000E54
:100B6800916F000E926F000E936F000E946F000E3F
:100B7800956F000E966F000E976F000E986FD9EC68
:100B880010F0000120EE03F0B651D926B751DA2251
:100B9800030EDE18D8B4D3EF05F0D5EF05F0C2EF99
:100BA80006F020EE04F0B651D926B751DA22DE500D
:100BB800DE10D8B4E2EF05F0E4EF05F0C2EF06F07E
:100BC80020EE06F0B651D926B751DA226F0078FF29
:100BD80066F06F0074FF67F020EE01F0B651D92679
:100BE800B751DA226F0078FF60F06F0074FF61F090
:100BF800A6EC19F00001686F010E696F20EE04F091
:100C0800B651D926B751DA2202D815EF06F00500F9
:100C1800FA6EDE50FD6EDE50FE6EF850FF6EFA5032
:100C28001200000120EE03F0B651D926B751DA229E
:100C3800030EDF6EC2EF06F0B6C08AF0B7C08BF0C5
:100C4800F00E8C6F080E8D6F0B0E8E6F000E906F6E
:100C5800000E8F6F000E916F000E926F000E936F53
:100C6800000E946F000E956F000E966F000E976F32
:100C7800000E986FD9EC10F0000120EE03F0B65189
:100C8800D926B751DA22040EDE18D8B44EEF06F092
:100C980050EF06F0C2EF06F020EE04F0B651D92668
:100CA800B751DA22DE50DE10D8B45DEF06F05FEF00
:100CB80006F0C2EF06F020EE06F0B651D926B7517D
:100CC800DA226F0078FF66F06F0074FF67F020EE9D
:100CD80001F0B651D926B751DA226F0078FF60F0DB
:100CE8006F0074FF61F0A6EC19F00001686F000E48
:100CF800696F20EE04F0B651D926B751DA2202D82E
:100D080090EF06F00500FA6EDE50FD6EDE50FE6EC6
:100D1800F850FF6EFA501200000120EE03F0B651B1
:100D2800D926B751DA22040EDF6EC2EF06F0600052
:100D3800DBF2D9FF6000DFF2DAFFDF50B36FB46B8C
:100D4800B451000AD8B4ABEF06F0C2EF06F0B351C5
:100D5800000AD8B4C2EF06F0010AD8B461EF05F072
:100D6800030AD8B483EF05F0010AD8B4A5EF05F05B
:100D7800070AD8B420EF06F0C2EF06F01200000E02
:100D88000001776F000E786F000E796F000E7A6F92
:100D98003701E0B7D2EF06F0D4EF06F07CEF07F0AA
:100DA800000120EE01F07251D9267351DA226F004A
:100DB80078FF60F06F0078FF61F06F0078FF62F0F5
:100DC8006F0078FF63F06000CBF1D9FF6000CFF1CE
:100DD800DAFFDF50646F770E656F000E666F780E6E
:100DE800676F000E686F790E696F000E6A6F7A0E72
:100DF8006B6F000E6C6F3DEC0CF06000DFF1E3F7F9
:100E08006000E3F1E4F76000E7F1E1F76000EBF17F
:100E1800E2F7000120EE05F07251D9267351DA226B
:100E2800DF50746F20EE0EF07251D9267351DA221A
:100E3800DF50756F060E766FD8907537762F20EFD6
:100E480007F0755174113701E56F000120EE06F0C7
:100E58007251D9267351DA22DF503701E66F00014B
:100E680020EE07F07251D9267351DA22DF5037018C
:100E7800E76F000120EE08F07251D9267351DA228B
:100E8800DF503701E86F000120EE09F07251D926D2
:100E98007351DA22DF503701E96F000120EE0AF0C2
:100EA8007251D9267351DA22DF503701EA6F0001F7
:100EB80020EE0BF07251D9267351DA22DF50370138
:100EC800EB6F000120EE0CF07251D9267351DA2233
:100ED800DF503701EC6F000120EE0DF07251D9267A
:100EE8007351DA22DF503701ED6FE087DAEF08F04F
:100EF800D0B781EF07F083EF07F02BEF08F0000180
:100F080020EE01F07251D9267351DA226F0078FF72
:100F180060F06F0078FF61F06F0078FF62F06F009B
:100F280078FF63F06000CBF1D9FF6000CFF1DAFF02
:100F3800DF50646F770E656F000E666F780E676F0F
:100F4800000E686F790E696F000E6A6F7A0E6B6F0C
:100F5800000E6C6F3DEC0CF06000DFF1D3F7600021
:100F6800E3F1D4F76000E7F1D1F76000EBF1D2F7D5
:100F7800000120EE05F07251D9267351DA22DF50B4
:100F8800746F20EE0EF07251D9267351DA22DF50B9
:100F9800756F060E766FD8907537762FCFEF07F0FE
:100FA800755174113701D56F000120EE06F07251AA
:100FB800D9267351DA22DF503701D66F000120EEAF
:100FC80007F07251D9267351DA22DF503701D76FF3
:100FD800000120EE08F07251D9267351DA22DF5051
:100FE8003701D86F000120EE09F07251D9267351EC
:100FF800DA22DF503701D96F000120EE0AF0725172
:10100800D9267351DA22DF503701DA6F000120EE5A
:101018000BF07251D9267351DA22DF503701DB6F9A
:10102800000120EE0CF07251D9267351DA22DF50FC
:101038003701DC6F000120EE0DF07251D926735193
:10104800DA22DF503701DD6FD0877AEF07F0C0B7BB
:1010580030EF08F032EF08F0DAEF08F0000120EE88
:1010680001F07251D9267351DA226F0078FF60F0CF
:101078006F0078FF61F06F0078FF62F06F0078FF13
:1010880063F06000CBF1D9FF6000CFF1DAFFDF50E9
:10109800646F770E656F000E666F780E676F000ECF
:1010A800686F790E696F000E6A6F7A0E6B6F000EAB
:1010B8006C6F3DEC0CF06000DFF1C3F76000E3F10A
:1010C800C4F76000E7F1C1F76000EBF1C2F7000177
:1010D80020EE05F07251D9267351DA22DF50746F71
:1010E80020EE0EF07251D9267351DA22DF50756F57
:1010F800060E766FD8907537762F7EEF08F075510B
:1011080074113701C56F000120EE06F07251D9261F
:101118007351DA22DF503701C66F000120EE07F065
:101128007251D9267351DA22DF503701C76F000197
:1011380020EE08F07251D9267351DA22DF503701B8
:10114800C86F000120EE09F07251D9267351DA22D6
:10115800DF503701C96F000120EE0AF07251D9261D
:101168007351DA22DF503701CA6F000120EE0BF00D
:101178007251D9267351DA22DF503701CB6F000143
:1011880020EE0CF07251D9267351DA22DF50370164
:10119800CC6F000120EE0DF07251D9267351DA227E
:1011A800DF503701CD6FC0877AEF07F01200000ECD
:1011B8000001756F80AEE3EF08F0E5EF08F097EFF8
:1011C80009F082A6EAEF08F0ECEF08F015EF09F055
:1011D8006000CFF1D9FF6000D3F1DAFF020EDF6EB5
:1011E8006F0010FE60F06F0004FE61F06F0008FEF3
:1011F80062F083500AEC0DF0000120EE01F073510B
:10120800D9267451DA22600083F1DEFF600087F18D
:10121800DEFF60008BF1DEFF60008FF1DEFF36EF4E
:1012280009F06000CFF1D9FF6000D3F1DAFF010EB9
:10123800DF6E6F0008FE60F08150BCEC14F0000116
:1012480020EE01F07351D9267451DA22600083F13F
:10125800DEFF600087F1DEFF60008BF1DEFF6000DB
:101268008FF1DEFF20EE05F07351D9267451DA2292
:1012780085500F0BDF6E20EE0EF07351D926745196
:10128800DA228544E846030BDF6E20EE06F0735140
:10129800D9267451DA226F001BFEDFFF20EE07F01B
:1012A8007351D9267451DA226F001FFEDFFF20EE3A
:1012B80008F07351D9267451DA226F0023FEDFFF3C
:1012C80020EE09F07351D9267451DA226F0027FEF7
:1012D800DFFF20EE0AF07351D9267451DA226F002D
:1012E8002BFEDFFF20EE0BF07351D9267451DA2262
:1012F8006F002FFEDFFF20EE0CF07351D9267451DA
:10130800DA226F0033FEDFFF20EE0DF07351D9268D
:101318007451DA226F0037FEDFFF809E010E000154
:10132800756F53EF0AF03701F0AF9DEF09F09FEFAB
:1013380009F053EF0AF0F2A7A4EF09F0A6EF09F0BD
:10134800CFEF09F06000CFF1D9FF6000D3F1DAFFE9
:10135800020EDF6E6D00D0FF60F06D00C4FF61F01B
:101368006D00C8FF62F0F3510AEC0DF0000120EEA9
:1013780001F07351D9267451DA22600083F1DEFF3F
:10138800600087F1DEFF60008BF1DEFF60008FF107
:10139800DEFFF0EF09F06000CFF1D9FF6000D3F174
:1013A800DAFF010EDF6E6D00C8FF60F0F151BCEC92
:1013B80014F0000120EE01F07351D9267451DA229D
:1013C800600083F1DEFF600087F1DEFF60008BF1D3
:1013D800DEFF60008FF1DEFF20EE05F07351D926A5
:1013E8007451DA223701F5510F0BDF6E000120EE40
:1013F8000EF07351D9267451DA223701F545E846C3
:10140800030BDF6E000120EE06F07351D9267451EC
:10141800DA226D00DBFFDFFF20EE07F07351D926DB
:101428007451DA226D00DFFFDFFF20EE08F0735100
:10143800D9267451DA226D00E3FFDFFF20EE09F0B0
:101448007351D9267451DA226D00E7FFDFFF20EED1
:101458000AF07351D9267451DA226D00EBFFDFFFD1
:1014680020EE0BF07351D9267451DA226D00EFFF8C
:10147800DFFF20EE0CF07351D9267451DA226D008B
:10148800F3FFDFFF20EE0DF07351D9267451DA22F5
:101498006D00F7FFDFFF3701F09F92EF09F00001C1
:1014A80075511200800E8F6E8E50E00B800AD8A402
:1014B80060EF0AF062EF0AF058EF0AF0000E916E42
:1014C800000E3701006FF00E0001606F000E616FB3
:1014D800000E626F000E636F010E646FBA0E656FC7
:1014E800370E666FBB0E676F370E686FB80E696F81
:1014F800370E6A6FB90E6B6F370E6C6F3DEC0CF0E0
:10150800000E0001606F000E616F000E626F000E2A
:10151800636F010E646FA20E656F370E666FA30EC0
:10152800676F370E686FA00E696F370E6A6FA10E6E
:101538006B6F370E6C6F3DEC0CF0050E0001606FA1
:10154800000E616F000E626F000E636F010E646F14
:10155800A60E656F370E666FA70E676F370E686F3A
:10156800A40E696F370E6A6FA50E6B6F370E6C6F1E
:101578003DEC0CF0F00E0001606F000E616F000E84
:10158800626F000E636F010E646FBE0E656F370EDB
:10159800666FBF0E676F370E686FBC0E696F370EC8
:1015A8006A6FBD0E6B6F370E6C6F3DEC0CF0050E5D
:1015B8000001606F000E616F000E626F000E636FB6
:1015C800010E646FAA0E656F370E666FAB0E676FFC
:1015D800370E686FA80E696F370E6A6FA90E6B6FAA
:1015E800370E6C6F3DEC0CF0050E0001606F000EBD
:1015F800616F000E626F000E636F010E646FAE0EB6
:10160800656F370E666FAF0E676F370E686FAC0E7B
:10161800696F370E6A6FAD0E6B6F370E6C6F3DECEE
:101628000CF0050E0001606F000E616F000E626F16
:10163800000E636F010E646FB20E656F370E666F32
:10164800B30E676F370E686FB00E696F370E6A6F2B
:10165800B10E6B6F370E6C6F3DEC0CF0050E000190
:10166800606F000E616F000E626F000E636F010EF7
:10167800646FB60E656F370E666FB70E676F370EFD
:10168800686FB40E696F370E6A6FB50E6B6F370EE1
:101698006C6F3DEC0CF00F0E3701036F980E046F62
:1016A800810E056F000E8F6E6F0038FE72F0E00E2F
:1016B80000017217D8A463EF0BF065EF0BF058EF39
:1016C8000BF01200ABC073F0ACC074F0DBEC08F0A8
:1016D8000009D8B472EF0BF074EF0BF03CEF0CF08C
:1016E800FEEF0BF0A9C08AF0AAC08BF01E0E8C6F1B
:1016F800000E8D6F2A0E8E6F000E906F000E8F6F8A
:10170800500E916F010E926F000E936F000E946F42
:10171800000E956F000E966F000E976F000E986F73
:10172800D9EC10F03CEF0CF0A9C08AF0AAC08BF0FD
:101738001E0E8C6F000E8D6F2A0E8E6F000E906F2E
:10174800000E8F6F510E916F010E926F000E936F06
:10175800000E946F000E956F000E966F000E976F37
:10176800000E986FD9EC10F03CEF0CF0A9C08AF08D
:10177800AAC08BF01E0E8C6F000E8D6F2A0E8E6F16
:10178800000E906F000E8F6F520E916F000E926FC9
:10179800000E936F000E946F000E956F000E966FFB
:1017A800000E976F000E986FD9EC10F03CEF0CF01C
:1017B800A9C08AF0AAC08BF01E0E8C6F000E8D6F28
:1017C8002C0E8E6F000E906F000E8F6F000E916FB3
:1017D800000E926F000E936F000E946F000E956FBF
:1017E800000E966F000E976F000E986FD9EC10F0F0
:1017F8003CEF0CF0000120EE01F0AB51D926AC51C2
:10180800DA226F0078FFADF06F0078FFAEF06F005E
:1018180078FFAFF06F0078FFB0F0B051000AD8B48D
:1018280035EF0CF0DCEF0BF0AE51000AD8B423EF23
:101838000CF0010AD8B42AEF0CF0DCEF0BF0AD5134
:10184800520AD8B4BAEF0BF0DCEF0BF0AD51500AE6
:10185800D8B476EF0BF0010AD8B498EF0BF0DCEFB0
:101868000BF0AF51000AD8B418EF0CF0DCEF0BF016
:101878001200020E00016419D8A445EF0CF047EFDE
:101888000CF0D5EF0CF060009FF1D9FF6000A3F1D8
:10189800DAFF600083F1DFFF60C06DF061C06EF0B9
:1018A80062C06FF063C070F06EC06DF06FC06EF014
:1018B80070C06FF0706B6DC060F06EC061F06FC08B
:1018C80062F070C063F0600097F1D9FF60009BF18F
:1018D800DAFF600083F1DFFF60C06DF061C06EF079
:1018E80062C06FF063C070F06EC06DF06FC06EF0D4
:1018F80070C06FF0706B6DC060F06EC061F06FC04B
:1019080062F070C063F06051030B716F60C06DF0DE
:1019180061C06EF062C06FF063C070F0030ED890C3
:101928006D376E376F377037E82E93EF0CF06DC058
:1019380060F06EC061F06FC062F070C063F060511B
:10194800E00B7125716F7151080F716F7151EB0BBD
:101958006000AFF1D9FF6000B3F1DAFFDF6E60C05D
:101968006DF061C06EF062C06FF063C070F06EC061
:101978006DF06FC06EF070C06FF0706B6DC060F08E
:101988006EC061F06FC062F070C063F06000A7F1D4
:10199800D9FF6000ABF1DAFF600083F1DFFF09EFE8
:1019A8000DF0600097F1D9FF60009BF1DAFF000E9F
:1019B800DF6E60009FF1D9FF6000A3F1DAFF000E2F
:1019C800DF6E60C06DF061C06EF062C06FF063C022
:1019D80070F0050ED8906D376E376F377037E82E78
:1019E800EEEF0CF06DC060F06EC061F06FC062F099
:1019F80070C063F06000AFF1D9FF6000B3F1DAFFA7
:101A0800600083F1DFFFB3EF0CF012000001686F94
:101A1800000E00016F6F000E706F000E716F000EE8
:101A2800726F6251030B6D6F6239E842070B6E6F7C
:101A38006151646F656BD89064376537D8906437A7
:101A48006537D8906437653764C06FF065C070F04B
:101A5800000E70BFFF0E716F726F6E516F256F6F42
:101A6800000E7021706F000E7121716F000E7221CF
:101A7800726F6FC064F070C065F071C066F072C0BC
:101A880067F0020ED8906437653766376737E82EF7
:101A980046EF0DF064C06FF065C070F066C071F07D
:101AA80067C072F06D516F256F6F000E7021706FF7
:101AB800000E7121716F000E7221726F6FC065F098
:101AC80070C066F071C067F0646B64C06FF065C089
:101AD80070F066C071F067C072F068516F256F6F63
:101AE800000E7021706F000E7121716F000E72214F
:101AF800726F6FC065F070C066F071C067F0646B9C
:101B080064C06FF065C070F066C071F067C072F0B5
:101B180060516F256F6F000E7021706F000E71217C
:101B2800716F000E7221726F6FC069F070C06AF039
:101B380071C06BF072C06CF069C060F06AC061F08F
:101B48006BC062F06CC063F01200000E0001616FA0
:101B5800000E606FDDEC18F0A50AD8B4B6EF0DF0F2
:101B6800B8EF0DF0EEEF0DF0000E0001616F000E02
:101B7800606FA50E626F1CEC17F0000E0001616F1C
:101B8800010E606F0A0E626F1CEC17F0000E000168
:101B9800616F020E606F050E626F1CEC17F0000E8D
:101BA8000001616F030E606F050E626F1CEC17F089
:101BB800000E0001616F040E606F050E626F1CEC71
:101BC80017F0000E0001616F050E606F050E626F61
:101BD8001CEC17F0000E0001616F000E606FDDEC69
:101BE80018F0600093F1D9FF600097F1DAFFDF6E1B
:101BF800000120EE01F06451D9266551DA22000E69
:101C0800616F010E606FDDEC18F0DF6E000120EEF1
:101C180002F06451D9266551DA22000E616F020E76
:101C2800606FDDEC18F0DF6E000120EE03F0645108
:101C3800D9266551DA22000E616F030E606FDDEC64
:101C480018F0DF6E000120EE04F06451D9266551CA
:101C5800DA22000E616F040E606FDDEC18F0DF6EA3
:101C6800000120EE05F06451D9266551DA22000EF4
:101C7800616F050E606FDDEC18F0DF6E1200740EF8
:101C88000001606F000E616F0AEC19F060C087F008
:101C980061C088F0000187518811D8B456EF0EF062
:101CA80058EF0EF07DEF0EF0740E606F000E616F4E
:101CB800000E636F000E626FFCEC18F087C061F0D5
:101CC80088C062F020EE74F000EE63F00E0E6F0034
:101CD8006FFFEBFFE806FBE283C072F028EC13F01D
:101CE800600013F2D9FF600017F2DAFFDF6EBFEF72
:101CF8000EF0835141EC19F06000CCF886F0010E2B
:101D080000018625606F616B000E6123000E636F12
:101D18000C0E626F91EC11F000016051896F20EE9A
:101D280034F28951DE18D8A49CEF0EF09EEF0EF025
:101D3800A4EF0EF0835134EC19F0000EC0EF0EF052
:101D480020EE74F06000CCF886F086510F0D7F0EFF
:101D5800F324E16E010EF420E26E0E0E6F006FFFA9
:101D6800E3FFE806FBE220EE33F2600027F2DFFF34
:101D7800835134EC19F0010E1200150E016E000E9D
:101D8800026E5BEC19F001C028F002C029F028505F
:101D98002910D8B4D2EF0EF0D4EF0EF0F9EF0EF010
:101DA800150E016E000E026E000E046E000E036E1C
:101DB8004EEC19F028C002F029C003F020EE15F00F
:101DC80000EE04F00E0E6F006FFFEBFFE806FBE27B
:101DD80024C013F0F5EC13F0600097F0D9FF600011
:101DE8009BF0DAFFDF6E39EF0FF024507FEC19F02B
:101DF8006000CCF827F0010E2724016E026A000E5D
:101E08000222000E046E0C0E036EEAEC11F0015073
:101E18002A6E20EE34F22A50DE18D8A416EF0FF0FE
:101E280018EF0FF01EEF0FF0245074EC19F0000EAD
:101E38003AEF0FF020EE15F06000CCF827F02750AD
:101E48000F0D7F0EF324E16E010EF420E26E0E0EEC
:101E58006F006FFFE3FFE806FBE220EE33F260005D
:101E6800ABF0DFFF245074EC19F0010E1200000EE5
:101E78000001696F000E686F68C060F069C061F0AA
:101E8800000E636F0F0E626F65EC18F07F0E000195
:101E98006025666F010E6121676FD0EC15F00001B7
:101EA800684B692B69BF62EF0FF0695109E10C0EAD
:101EB800685DD8A062EF0FF064EF0FF040EF0FF00D
:101EC800000E696F000E686F68C060F069C061F04D
:101ED800000E636F110E626F65EC18F0F70E0001CB
:101EE8006025D96E000E6121DA6E000EDE6E000EDE
:101EF800DD6E68C060F069C061F0000E636F110E9E
:101F0800626F65EC18F0F90E00016025666F000E2F
:101F18006121676FD0EC15F00001684B692B69BF30
:101F28009FEF0FF0695109E1080E685DD8A09FEF97
:101F38000FF0A1EF0FF068EF0FF0000E6F00A0FF99
:101F480033F2000E6F00A0FF34F21200000E2E6E66
:101F58002E50110DF90EF324D96E000EF420DA6E0E
:101F6800DF50D8B4BAEF0FF0BCEF0FF00CEF10F061
:101F78002E50110DF70EF324D96E000EF420DA6EF0
:101F88000A0EDE5E000EDD5A2E50110DF70EF324F8
:101F9800D96E000EF420DA6EDE50DE10D8A4D7EF2A
:101FA8000FF0D9EF0FF00CEF10F02E50110DF90EC5
:101FB800F324D96E000EF420DA6E00EE15F00E0E42
:101FC8006F006FFFEBFFE806FBE2010E246E2D0E9B
:101FD800256E000E266EC1EC0EF0E806D8A4F7EFC9
:101FE8000FF0F9EF0FF000EF10F0010E036E2E5016
:101FF800C7EC17F00CEF10F02E50110DF70EF3246C
:10200800D96E000EF420DA6E010EDE6E000EDD6E63
:102018002E2A070E2E6413EF10F015EF10F0ACEF18
:102028000FF01200010E0001916F100E926F050E55
:10203800936F000E946F000E956F020E966F630EED
:10204800976F630E986F20EE07F08E51D9268F5147
:10205800DA22DF50D8B433EF10F035EF10F04CEF40
:1020680010F0010E976F010E986F910E726F000EAF
:10207800736FC3EC06F0020E0001976F000E986FA5
:10208800910E726F000E736FC3EC06F052EF10F0F2
:10209800000E976F020E986F44EF10F0000120EECB
:1020A80009F08E51D9268F51DA22DF50906FB5ECA6
:1020B80019F060C064F061C065F0010E0001666F40
:1020C80090C067F000EC18F000019051D8B46FEFA1
:1020D80010F071EF10F077EF10F08CC07BF08DC02E
:1020E8007CF0F3EC16F01200000E0001646F83EF31
:1020F80010F0000ECCB6010E646FBEEF10F0600059
:1021080083F1D9FF600087F1DAFFDF50626F636BFC
:102118006351000AD8B493EF10F0BEEF10F062518B
:10212800010AD8B47DEF10F0030AD8B4BEEF10F05E
:10213800010AD8B4BEEF10F0070AD8B4BEEF10F009
:10214800010AD8B4BEEF10F0030AD8B4BEEF10F0FD
:10215800010AD8B4BEEF10F00F0AD8B4BEEF10F0E1
:10216800010AD8B4BEEF10F0030AD8B4BEEF10F0DD
:10217800BEEF10F020EE01F06051D9266151DA224D
:10218800DE04D8A4CAEF10F0CCEF10F0D7EF10F0AF
:102198006451D8B4D2EF10F0D5EF10F0010ED6EF9D
:1021A80010F0000E646F64511200080E0001996F60
:1021B8009A0E666F000E676FD0EC15F09A0E00014C
:1021C800606F000E616F8AC062F08BC063F018EC1C
:1021D80019F09A0E0001606F000E616F8CC062F0FA
:1021E8008DC063F026EC19F09A0E0001606F000EA6
:1021F800616F8EC062F08AEC19F09A0E0001606F70
:10220800000E616F8FC062F090C063F0FCEC18F0B4
:102218009A0E0001606F000E616F91C062F092C06B
:1022280063F093C064F094C065F095C066F096C002
:1022380067F097C068F098C069F089EC17F020EE55
:102248009AF000EE74F00E0E6F006FFFEBFFE806D9
:10225800FBE2000E0001836F990E846F000E856FFC
:1022680043EC0EF012000001776F000E0001786F4A
:10227800000E7B6F000E7C6F000E796F000E7A6F78
:10228800775141EC19F020EE34F210EE33F2DE50C3
:10229800E618D8A452EF11F054EF11F064EF11F0E2
:1022A8000001775134EC19F020EE78F000EE66F07A
:1022B8000E0E6F006FFFEBFFE806FBE290EF11F0E8
:1022C8006000D0F875F0000175510F0D7F0EF324F2
:1022D800D96E010EF420DA6E10EE78F00E0E6F0053
:1022E8006FFFE3FFE806FBE26000D0F875F0010E2F
:1022F8007525606F616B000E6123000E636F0C0E15
:10230800626F91EC11F00001600080F134F27751B6
:1023180034EC19F058EF11F01200000E0001656F4F
:1023280061BF9BEF11F099EF11F0A1EF11F0606D13
:10233800611FD8B0612B010E656F63BFA8EF11F064
:10234800A6EF11F0ACEF11F0626D631FD8B0632BEC
:1023580062516311D8B4B3EF11F0B5EF11F0D9EFB2
:1023680011F0010E646FBDEF11F0D890623763373A
:10237800642B63AFC2EF11F0C4EF11F0B9EF11F0A5
:102388006251605D63516159D8A0CDEF11F0CFEF74
:1023980011F0D3EF11F06251605F6351615BD89027
:1023A80063336233642FC4EF11F06551D8B4DFEFA3
:1023B80011F0E1EF11F0E5EF11F0606D611FD8B099
:1023C800612B60C060F061C061F01200000E066E03
:1023D80002BEF3EF11F0F1EF11F0F9EF11F0016C1B
:1023E800021ED8B0022A010E066E04BE00EF12F0DB
:1023F800FEEF11F004EF12F0036C041ED8B0042AAB
:1024080003500410D8B40BEF12F00DEF12F031EFB7
:1024180012F0010E056E15EF12F0D890033604364F
:10242800052A04AE1AEF12F01CEF12F011EF12F0A9
:102438000350015C04500258D8A025EF12F027EF92
:1024480012F02BEF12F00350015E0450025AD8909C
:1024580004320332052E1CEF12F00650D8B437EFC1
:1024680012F039EF12F03DEF12F0016C021ED8B0F5
:10247800022A01C001F002C002F01200BBEC19F000
:1024880060C062F061C063F0010E0001646F94ECFB
:1024980019F0BBEC19F060C066F061C067F0AEECF3
:1024A80019F0C7EC19F060C062F061C063F0010E6A
:1024B8000001646F010E656F90EC18F0C7EC19F01D
:1024C80060C062F061C063F0F0EC19F0CDEC19F077
:1024D80060C062F061C063F0C7EC19F060C064F0DE
:1024E80061C065F002EC16F0D3EC19F060C062F040
:1024F80061C063F0F1EC19F0C1EC19F060C062F052
:1025080061C063F067EC17F0B5EC19F060C064F0D7
:1025180061C065F0A9EC0DF01200B5EC19F060C0CF
:1025280064F061C065F0020E0001666F20EE09F0EC
:102538006A51D9266B51DA22DF50676F00EC18F028
:10254800B5EC19F060C064F061C065F0030E0001DD
:10255800666F20EE08F06A51D9266B51DA22DF50F7
:10256800676F00EC18F0B5EC19F060C064F061C05A
:1025780065F0040E0001666F20EE07F06A51D92657
:102588006B51DA22DF50676F00EC18F0B5EC19F0E8
:1025980060C064F061C065F0050E0001666F20EE52
:1025A80006F06A51D9266B51DA22DF50676F00ECCA
:1025B80018F01200A9C08AF0AAC08BF0F00E000132
:1025C8008C6F080E8D6F0A0E8E6F000E906F000EC6
:1025D8008F6F000E916F000E926F000E936F000EBA
:1025E800946F000E956F000E966F000E976F000E99
:1025F800986FD9EC10F0000120EE01F0A951D9260E
:10260800AA51DA226F0078FF60F06F0074FF61F062
:1026180078EC10F0E806D8B414EF13F016EF13F0C6
:102628001BEF13F0040E0001AB6F1EEF13F0030E47
:102638000001AB6F20EE03F0A951D926AA51DA2286
:102648006000AFF2DFFF12000001725141EC19F097
:10265800000E0001736F7351110DF90EF324D96E3A
:10266800000EF420DA6EDF50D8A43DEF13F03FEFF0
:1026780013F05FEF13F07351110DF70EF324D96EB9
:10268800000EF420DA6E600087F1DEFF60008BF147
:10269800DDFF20EE63F07351110DF90EF324E16EA6
:1026A800000EF420E26E0E0E6F006FFFE3FFE806E7
:1026B800FBE268EF13F0732B070E736566EF13F0F8
:1026C80068EF13F02FEF13F0725134EC19F000019A
:1026D80073511200010E0001686F110E696F050E2B
:1026E8006A6F000E6B6F000E6C6F040E6D6FB5ECA9
:1026F80019F060C062F061C063F0050E0001646FFC
:102708007BEC18F000016E6FB5EC19F060C062F058
:1027180061C063F0040E0001646F7BEC18F00001E7
:102728006F6FB5EC19F060C062F061C063F0030E22
:102738000001646F7BEC18F00001706FB5EC19F0C4
:1027480060C062F061C063F0020E0001646F7BEC50
:1027580018F00001716F000E766F1200A9C08AF0A0
:10276800AAC08BF01E0E00018C6F000E8D6F2F0E0D
:102778008E6F000E906F000E8F6F000E916F000E1F
:10278800926F000E936F000E946F000E956F000EFF
:10279800966F000E976F000E986FD9EC10F0A9C0D5
:1027A8008AF0AAC08BF01E0E00018C6F000E8D6F90
:1027B800280E8E6F000E906F000E8F6F000E916FB7
:1027C800000E926F000E936F000E946F000E956FBF
:1027D800000E966F000E976F000E986FD9EC10F0F0
:1027E800120013507FEC19F0000E146E1450110DE6
:1027F800F90EF324D96E000EF420DA6EDF50D8A457
:1028080008EF14F00AEF14F02AEF14F01450110D29
:10281800F70EF324D96E000EF420DA6E60000BF088
:10282800DEFF60000FF0DDFF20EE04F01450110D04
:10283800F90EF324E16E000EF420E26E0E0E6F0026
:102848006FFFE3FFE806FBE233EF14F0142A070EEC
:10285800146431EF14F033EF14F0FAEF13F013505F
:1028680074EC19F0145012003DEF14F0BB8279EFAC
:1028780014F060008BF1D9FF60008FF1DAFFDF50B0
:102888000001646F656B6551000AD8B44EEF14F00F
:1028980079EF14F06451010AD8B43AEF14F0030A3E
:1028A800D8B479EF14F0010AD8B479EF14F0070A14
:1028B800D8B479EF14F0010AD8B479EF14F0030A08
:1028C800D8B479EF14F0010AD8B479EF14F00F0AEC
:1028D800D8B479EF14F0010AD8B479EF14F0030AE8
:1028E800D8B479EF14F079EF14F012007FEF14F0F8
:1028F800BB92BBEF14F060008BF1D9FF60008FF141
:10290800DAFFDF500001646F656B6551000AD8B4C7
:1029180090EF14F0BBEF14F06451010AD8B47CEFC7
:1029280014F0030AD8B4BBEF14F0010AD8B4BBEF13
:1029380014F0070AD8B4BBEF14F0010AD8B4BBEFFF
:1029480014F0030AD8B4BBEF14F0010AD8B4BBEFF3
:1029580014F00F0AD8B4BBEF14F0010AD8B4BBEFD7
:1029680014F0030AD8B4BBEF14F0BBEF14F0120054
:102978000001666F00016651646F656BD89064371B
:102988006537D89064376537D8906437653764C041
:102998006BF065C06CF0000E6CBFFF0E6D6F6E6F54
:1029A80060C064F0050E656FD8906433652FD8EF6A
:1029B80014F064516B256B6F000E6C216C6F000E68
:1029C8006D216D6F000E6E216E6F6BC067F06CC06D
:1029D80068F06DC069F06EC06AF067C060F068C0EA
:1029E80061F069C062F06AC063F01200000E37EC53
:1029F80011F020EEC0F00E0E6F00AFFFDBFFE8060F
:102A0800FBE20001C051D8B40CEF15F00EEF15F041
:102A180033EF15F0C351C411D8B415EF15F017EF03
:102A280015F033EF15F0C151C211D8B41EEF15F0EF
:102A380020EF15F033EF15F0C00EB16F000EB26F36
:102A480020EEC1F002D833EF15F00500FA6EDE5023
:102A5800FD6EDE50FE6EF850FF6EFA501200120046
:102A6800000E3D01EC6F000EED6F000EEE6F000ED4
:102A7800EF6F000EF06F000EF16FB00EF26F800E68
:102A8800F36F000EF46F8A0EF56F000EF66F000EEE
:102A9800F76F000EF86F000EF96F000EFA6F000E58
:102AA8000001606F000E616FDEEC19F0000E00018E
:102AB800606F000E616FD9EC19F0000E0001606FB5
:102AC800000E616FE3EC19F0000E0001CF6F1200E9
:102AD800BBB071EF15F074EF15F0010E75EF15F03E
:102AE800000EFF0A0001A96FBB50A919FE0BA91916
:102AF800BB6ED00E8A6F000E8B6FD80E8C6F2A0EAD
:102B08008D6F0B0E8E6F030E906FE80E8F6F000E99
:102B1800916F000E926F000E936F000E946F000E6F
:102B2800956F000E966F000E976F000E986FD9EC98
:102B380010F01200CDEC19F060C0A9F061C0AAF045
:102B4800DEEC12F0C1EC19F060C0A9F061C0AAF087
:102B5800B2EC13F0D00E00018A6F000E8B6FD80E06
:102B68008C6F2A0E8D6F0B0E8E6F030E906FE80E12
:102B78008F6F000E916F000E926F000E936F000E14
:102B8800946F000E956F000E966F000E976F000EF3
:102B9800986FD9EC10F0120060009BF1D9FF60002B
:102BA8009FF1DAFF000EDF6E000120EE05F066519E
:102BB800D9266751DA22000EDE6E000EDD6E20EE99
:102BC80003F06651D9266751DA22000EDE6E000E38
:102BD800DD6E20EE07F06651D9266751DA22070E1E
:102BE800DE6AE806FDE220EE01F06651D92667515B
:102BF800DA22000EDE6E000EDD6E120060008BF130
:102C0800D9FF60008FF1DAFF000EDF6E000120EEC1
:102C180001F06251D9266351DA22600093F1DEFF98
:102C2800600097F1DDFF20EE03F06251D926635171
:102C3800DA22000EDF6E20EE06F06251D9266351CB
:102C4800DA22000EDE6E000EDD6E20EE04F0625118
:102C5800D9266351DA22000EDE6E000EDD6E1200F8
:102C6800600007F0D9FF60000BF0DAFF000EDF6E9E
:102C780020EE05F00150D9260250DA22000EDE6E51
:102C8800000EDD6E20EE03F00150D9260250DA2244
:102C9800000EDE6E000EDD6E20EE07F00150D92624
:102CA8000250DA22070EDE6AE806FDE220EE01F0A5
:102CB8000150D9260250DA22000EDE6E000EDD6EBB
:102CC8001200000120EE07F06051D9266151DA2286
:102CD8006F0078FF68F06F0078FF69F06F0078FF89
:102CE8006AF06F0078FF6BF06F0078FF6CF06F0090
:102CF80078FF6DF06F0078FF6EF06F0078FF6FF06F
:102D080068C060F069C061F06AC062F06BC063F0CF
:102D18006CC064F06DC065F06EC066F06FC067F09F
:102D28001200000EBA6E000EBB6E000EBC6EC268BA
:102D3800F80EC36EDF0EC46EA70E3A01606FF40E74
:102D4800506F4069000E816F000E516F800E416F09
:102D5800000E616F000E426F000E526F000E626F20
:102D6800436953696369446954696469080E846FE7
:102D7800330E0A6F0B0EED6F130E156F160EE76FFD
:102D880012006F00E8FF2FF06F00ECFF30F0390100
:102D980095ADD1EF16F0D3EF16F0DCEF16F0A5AD38
:102DA800D8EF16F0DAEF16F0DCEF16F0ECEF16F0CD
:102DB80093AFE1EF16F0E3EF16F0ECEF16F0A3AFE8
:102DC800E8EF16F0EAEF16F0ECEF16F034EC18F036
:102DD8006000C3F0FBFF6000BFF0FAFF1100B5EC24
:102DE80019F060C062F061C063F0010E0001646F09
:102DF8007BEC18F00009D8B404EF17F006EF17F0D1
:102E08001BEF17F01F0E00017E6F050E7F6F000E7F
:102E1800806F000E816F020E826FAA0E836FBB0E49
:102E2800846F7D0E726F000E736FC3EC06F0120094
:102E3800000ED2BE010E0001636F6151030B390110
:102E4800E16F600083F1E0F960008BF1E3F93F0E78
:102E5800E517E585D29E550EE66FAA0EE66FE58367
:102E6800E5B339EF17F03BEF17F034EF17F0E595BE
:102E7800000163B102D0D29E01D0D28E12000001AF
:102E88006805D8A44AEF17F04CEF17F066EF17F073
:102E98006951D8B452EF17F054EF17F05EEF17F0FE
:102EA800BBEC19F060C062F061C063F038EC14F05C
:102EB80066EF17F0BBEC19F060C062F061C063F018
:102EC8007AEC14F0120060008BF1D9FF60008FF1EA
:102ED800DAFF0A0EDF6E000120EE01F06251D926FA
:102EE8006351DA221E0EDF6E20EE02F06251D926FF
:102EF8006351DA22010EDF6E20EE10F06251D926FE
:102F08006351DA22000EDF6E1200000120EE07F096
:102F18006051D9266151DA2260008BF1DEFF600032
:102F28008FF1DEFF600093F1DEFF600097F1DEFFB6
:102F380060009BF1DEFF60009FF1DEFF6000A3F1FF
:102F4800DEFF6000A7F1DEFF1200010E0001816FB5
:102F5800120E826F050E836F000E846F000E856F50
:102F6800040E866F7DC08AF0000E896F000E886F90
:102F7800000E876F000E8F6F810E726F000E736FD9
:102F8800C3EC06F01200046E03507FEC19F00450F5
:102F9800110DF70EF324D96E000EF420DA6E000E30
:102FA800DE6E000EDD6E0450110DF90EF324016E75
:102FB800000EF420026E34EC16F0035074EC19F095
:102FC800120000EEF7F010EE3EF1EE6AE550E15027
:102FD800FCE1E250FAE100EECFF0220EEE6AE806DC
:102FE800FDE1080ED56E000ED66E000ED76E000EEF
:102FF800F86E00014DEF18F0050E0001666107EF4D
:1030080018F009EF18F019EF18F066516425D96E19
:10301800000E6521DA6E60009FF1DFFF66C060F088
:10302800616B67C062F01CEC17F01200000120EE23
:1030380006F06251D9266351DA22600093F1DEFF6F
:10304800600097F1DDFF20EE04F06251D92663514C
:10305800DA2260009BF1DEFF60009FF1DDFF1200C5
:103068003901A39F31503210D8B43DEF18F03FEF2B
:1030780018F04CEF18F002D84CEF18F00500FA6E73
:103088003150FD6E3250FE6EF850FF6EFA5012004D
:103098001200EDEC18F0D28E3BEC0FF042EC12F07F
:1030A800A4EC18F09EEC15F0540E0001606F1F0E92
:1030B800616FE8EC19F0FAEC14F05FEF18F00DEF1F
:1030C80000F00001605162036F00CCFF64F06F00F4
:1030D800D0FF65F060516303F350652761516203C7
:1030E800F350652764C060F065C061F01200000EFF
:1030F8000001656F050E646184EF18F086EF18F023
:103108008EEF18F064516225D96E000E6321DA6ED5
:10311800DF50656F6551120060008BF1D9FF6000C8
:103128008FF1DAFF600093F1DFFF000120EE01F07C
:103138006251D9266351DA22600097F1DFFF12004D
:10314800CDEC19F060C062F061C063F0D3EC19F007
:1031580060C064F061C065F0860E0001666F2E0ED7
:10316800676F1AEC18F01200460EB96EF90EB76EBA
:10317800000EB66E3901A39F938FE40E0001606FB5
:10318800330E616FE8EC19F0890EB86E1200000E6C
:103198003901C06F000EC16F000EC26F000EC36F01
:1031A800000EC46F000EC56F000EC66F000EC76F0D
:1031B800120000016151030B3901E16F600083F1D6
:1031C800E0F93F0EE517E58100F000F03901E35121
:1031D8001200EDEC19F0CBEC18F095EC16F068EC59
:1031E80019F0B8EC18F034EC15F056EC0AF01200AF
:1031F800000120EE05F06051D9266151DA22600005
:103208008BF1DEFF60008FF1DDFF1200000120EE80
:1032180005F06051D9266151DA226F0078FF60F01D
:103228006F0074FF61F01200000120EE03F060519E
:10323800D9266151DA2260008BF1DEFF60008FF140
:10324800DDFF1200000120EE01F06051D926615126
:10325800DA2260008BF1DEFF60008FF1DDFF1200E3
:103268000001606F00016051D8A43DEF19F03FEFF5
:1032780019F040EF19F0D28E12000001606F0001C2
:103288006051D8A44AEF19F04CEF19F04DEF19F03E
:10329800D29E120020EE05F00150D9260250DA2203
:1032A80060000FF0DEFF600013F0DDFF120020EE7B
:1032B80005F00150D9260250DA226F0078FF01F09C
:1032C8006F0074FF02F01200600E3901D96F000E12
:1032D800DB6F000EDD6F080EDF6F000EDE6F120071
:1032E800016E0150D8A47BEF19F07DEF19F07EEF45
:1032F80019F0D28E1200016E0150D8A486EF19F091
:1033080088EF19F089EF19F0D29E1200600083F15E
:10331800D9FF600087F1DAFF60008BF1DFFF120050
:1033280060008BF1D9FF60008FF1DAFF600093F144
:10333800DFFF1200600083F1D9FF600087F1DAFF38
:10334800DF501200600083F1D9FF600087F1DAFFD7
:10335800DF50120066C062F067C063F07AEC14F0C8
:103368001200EC0E0001606F000E616F1200D00EAB
:103378000001606F000E616F1200DB0E0001606FCC
:10338800000E616F1200D10E0001606F000E616FB8
:103398001200D30E0001606F000E616F1200DB0E89
:1033A8000001606F000E616F120060C0F3F061C031
:1033B800F4F0120060C0F5F061C0F6F0120060C0D1
:1033C800F1F061C0F2F0120060C031F061C032F07B
:0E33D8001200D29A120012001200120012000F
:020000040020DA
:10000000FF0FFF0FFF0FFF0FFF0FFF0FFF0FFF0F80
:020000040030CA
:0A0000008CFFF7FF9FFFFFFFFFFFDB
:00000001FF
