:040000000DEF00F010
:04000800E4EF1EF013
:10001800FF00E6EF1FF0000120EE03F0B151D926F2
:10002800B251DA226F0078FFBEF06F0074FFBFF0A4
:10003800000EBD6F6000FBF2D9FF6000FFF2DAFF2F
:10004800DF50BB6F20EE01F0BE51D926BF51DA2236
:10005800DF50BC6F7BEF00F0B1C060F0B2C061F060
:10006800AFEC21F02F0AD8A43CEF00F03EEF00F0EF
:100078009AEF00F0000120EE01F0BE51D926BF51E1
:10008800DA221F0EDF6E9AEF00F0B1C060F0B2C046
:1000980061F0AFEC21F0300AD8A455EF00F057EF2B
:1000A80000F09AEF00F0000120EE01F0BE51D926D1
:1000B800BF51DA22200EDF6E9AEF00F0B1C060F077
:1000C800B2C061F0AFEC21F0310AD8A46EEF00F0B5
:1000D80070EF00F09AEF00F0000120EE01F0BE5141
:1000E800D926BF51DA221F0EDF6E9AEF00F020EEFC
:1000F80001F0BE51D926BF51DA22DF50B36FB46B7D
:10010800B451000AD8B48BEF00F09AEF00F0B35165
:100118001E0AD8B430EF00F0010AD8B449EF00F055
:100128003F0AD8B462EF00F09AEF00F0000120EE29
:1001380001F0BE51D926BF51DA22BC51DE18D8B41D
:10014800A8EF00F0AAEF00F018EF01F0010EBD6F64
:10015800F9EF00F0BEC08AF0BFC08BF01E0E8C6FA6
:10016800000E8D6F300E8E6F000E906F320E8F6FF7
:10017800000E916F000E926F000E936F000E946F39
:10018800000E956F000E966F000E976F000E986F19
:100198001BEC18F018EF01F0BEC07BF0BFC07CF07C
:1001A80012EC1FF0BEC08AF0BFC08BF01E0E00011B
:1001B8008C6F000E8D6F310E8E6F000E906F320EA9
:1001C8008F6F000E916F000E926F000E936F000EEE
:1001D800946F000E956F000E966F000E976F000ECD
:1001E800986F1BEC18F018EF01F020EE01F0BE51EB
:1001F800D926BF51DA22DF50B36FB46BB451000A6D
:10020800D8B409EF01F018EF01F0B3511E0AD8B4C1
:1002180018EF01F0010AD8B4AEEF00F03F0AD8B4E5
:10022800D0EF00F018EF01F00001BD51D8A41FEF86
:1002380001F021EF01F077EF04F091EF02F0B1C087
:1002480060F0B2C061F0AFEC21F0280AD8A42FEF1B
:1002580001F031EF01F0C4EF02F06000FBF2D9FFCA
:100268006000FFF2DAFF0C0EDF6EC4EF02F0B1C0DF
:1002780060F0B2C061F0AFEC21F0290AD8A447EFD2
:1002880001F049EF01F0C4EF02F06000FBF2D9FF82
:100298006000FFF2DAFF0D0EDF6EC4EF02F0B1C0AE
:1002A80060F0B2C061F0AFEC21F02A0AD8A45FEF89
:1002B80001F061EF01F0E9EF01F08BEF01F0600070
:1002C800FBF2D9FF6000FFF2DAFF0B0EDF6EC4EF1E
:1002D80002F06000FBF2D9FF6000FFF2DAFF0E0EB9
:1002E800DF6EC4EF02F06000FBF2D9FF6000FFF29E
:1002F800DAFF100EDF6EC4EF02F06000FBF2D9FFE8
:100308006000FFF2DAFF0C0EDF6EC4EF02F0B1C03E
:1003180060F0B2C061F056EC1EF060C0B3F061C08E
:10032800B4F062C0B5F063C0B6F064C0B7F065C0A1
:10033800B8F066C0B9F067C0BAF00001BA51000A57
:10034800D8B4E2EF01F081EF01F0B651000AD8B459
:10035800CDEF01F081EF01F0B451000AD8B4BBEF42
:1003680001F0010AD8B4C2EF01F081EF01F0B351F6
:10037800520AD8B477EF01F081EF01F0B351500A77
:10038800D8B463EF01F0010AD8B46DEF01F081EF42
:1003980001F0B551000AD8B4B0EF01F081EF01F0D7
:1003A800B851000AD8B4DBEF01F081EF01F0B75182
:1003B800000AD8B4A9EF01F081EF01F0B951000AA1
:1003C800D8B4D4EF01F081EF01F0B1C060F0B2C051
:1003D80061F0AFEC21F02C0AD8A4F5EF01F0F7EFAB
:1003E80001F0C4EF02F06000FBF2D9FF6000FFF2F9
:1003F800DAFF0C0EDF6EC4EF02F0B1C060F0B2C0DD
:1004080061F0AFEC21F02D0AD8A40DEF02F00FEF48
:1004180002F019EF02F06000FBF2D9FF6000FFF272
:10042800DAFF0F0EDF6EC4EF02F0B1C060F0B2C0A9
:1004380061F0AFEC21F02C0AD8A425EF02F027EFE9
:1004480002F0C4EF02F06000FBF2D9FF6000FFF297
:10045800DAFF0C0EDF6EC4EF02F0B1C060F0B2C07C
:1004680061F0AFEC21F02C0AD8A43DEF02F03FEF89
:1004780002F0C4EF02F06000FBF2D9FF6000FFF267
:10048800DAFF0C0EDF6EC4EF02F0B1C060F0B2C04C
:1004980061F0AFEC21F02C0AD8A455EF02F057EF29
:1004A80002F0C4EF02F06000FBF2D9FF6000FFF237
:1004B800DAFF0C0EDF6EC4EF02F0B1C060F0B2C01C
:1004C80061F0AFEC21F02C0AD8A46DEF02F06FEFC9
:1004D80002F0C4EF02F06000FBF2D9FF6000FFF207
:1004E800DAFF0C0EDF6EC4EF02F0B1C060F0B2C0EC
:1004F80061F0AFEC21F02C0AD8A485EF02F087EF69
:1005080002F0C4EF02F06000FBF2D9FF6000FFF2D6
:10051800DAFF0C0EDF6EC4EF02F06000FBF2D9FFC9
:100528006000FFF2DAFFDF50B36FB46BB451000A1A
:10053800D8B4A1EF02F0C4EF02F0B3510A0AD8B45C
:1005480023EF01F0010AD8B449EF02F0070AD8B442
:100558003BEF01F0010AD8B453EF01F0030AD8B415
:1005680001EF02F0010AD8B431EF02F01F0AD8B443
:1005780061EF02F0010AD8B479EF02F0C4EF02F09B
:100588006000FBF2D9FF6000FFF2DAFF0001BB5107
:10059800DE18D8B4D2EF02F0D4EF02F077EF04F00F
:1005A80044EF04F0BEC08AF0BFC08BF01E0E8C6F03
:1005B800000E8D6F290E8E6F000E906F320E8F6FAA
:1005C800000E916F000E926F000E936F000E946FE5
:1005D800000E956F000E966F000E976F000E986FC5
:1005E8001BEC18F077EF04F0BEC0A9F0BFC0AAF06A
:1005F800020EBE25AB6F000EBF21AC6FA3EC0CF052
:1006080077EF04F020EE10F0BE51D926BF51DA2260
:10061800DE04D8A412EF03F014EF03F036EF03F072
:10062800BEC08AF0BFC08BF01E0E8C6F000E8D6F9F
:100638002D0E8E6F000E906F000E8F6F000E916F53
:10064800000E926F000E936F000E946F000E956F60
:10065800000E966F000E976F000E986F1BEC18F047
:1006680077EF04F0BEC08CF0BFC08DF0020EBE253F
:100678008E6F000EBF218F6F6CEC14F0BEC08AF035
:10068800BFC08BF01E0E00018C6F000E8D6F2C0EFC
:100698008E6F000E906F000E8F6F000E916F000E20
:1006A800926F000E936F000E946F000E956F000E00
:1006B800966F000E976F000E986F1BEC18F077EF8F
:1006C80004F0BEC08EF0BFC08FF0B6EC1EF0BEC006
:1006D8008AF0BFC08BF01E0E00018C6F000E8D6F6C
:1006E8002C0E8E6F000E906F000E8F6F000E916FA4
:1006F800000E926F000E936F000E946F000E956FB0
:10070800000E966F000E976F000E986F1BEC18F096
:1007180077EF04F0BEC08CF0BFC08DF0020EBE258E
:100728008E6F000EBF218F6F56EC0AF0BEC08AF0A4
:10073800BFC08BF01E0E00018C6F000E8D6F2C0E4B
:100748008E6F000E906F000E8F6F000E916F000E6F
:10075800926F000E936F000E946F000E956F000E4F
:10076800966F000E976F000E986F1BEC18F0000143
:1007780020EE10F0BE51D926BF51DA22DE04D8A4EB
:10078800C8EF03F0CAEF03F0ECEF03F0BEC08AF045
:10079800BFC08BF01E0E8C6F000E8D6F2E0E8E6FED
:1007A800000E906F000E8F6F000E916F000E926F0B
:1007B800000E936F000E946F000E956F000E966FEB
:1007C800000E976F000E986F1BEC18F077EF04F08F
:1007D800BEC068F0BFC069F0020EBE256A6F000E89
:1007E800BF216B6F82EC1AF0BEC08AF0BFC08BF0DD
:1007F8001E0E00018C6F000E8D6F2C0E8E6F000E7A
:10080800906F000E8F6F000E916F000E926F000EAA
:10081800936F000E946F000E956F000E966F000E8A
:10082800976F000E986F1BEC18F077EF04F0BEC0BE
:1008380066F0BFC067F05FEC1BF0BEC08AF0BFC0B7
:100848008BF01E0E00018C6F000E8D6F2C0E8E6FBC
:10085800000E906F000E8F6F000E916F000E926F5A
:10086800000E936F000E946F000E956F000E966F3A
:10087800000E976F000E986F1BEC18F077EF04F0DE
:100888006000FBF2D9FF6000FFF2DAFFDF50B36FC0
:10089800B46BB451000AD8B454EF04F077EF04F005
:1008A800B3510A0AD8B477EF04F0010AD8B48EEF2E
:1008B80003F0070AD8B4D6EF02F0010AD8B4F8EF6B
:1008C80002F0030AD8B406EF03F0010AD8B465EFC2
:1008D80003F01F0AD8B4BBEF03F0010AD8B41BEF2A
:1008E80004F077EF04F01200000120EE03F0B1519C
:1008F800D926B251DA226F0078FFB6F06F0074FF84
:10090800B7F06000DBF2D9FF6000DFF2DAFFDF50FA
:10091800B56F28EF05F0B1C060F0B2C061F0AFEC80
:1009280021F00A0AD8A49BEF04F09DEF04F04FEFE2
:1009380005F06000DBF2D9FF6000DFF2DAFF010E9C
:10094800DF6E4FEF05F0B1C060F0B2C061F0AFEC00
:1009580021F00C0AD8A4B3EF04F0B5EF04F04FEF80
:1009680005F06000DBF2D9FF6000DFF2DAFF020E6B
:10097800DF6E4FEF05F0B1C060F0B2C061F0AFECD0
:1009880021F00B0AD8A4CBEF04F0CDEF04F04FEF21
:1009980005F0000120EE01F0B651D926B751DA2250
:1009A8006F0078FF60F06F0074FF61F05AEC17F089
:1009B800E806D8A4E2EF04F0E4EF04F0EEEF04F068
:1009C8006000DBF2D9FF6000DFF2DAFF030EDF6EB2
:1009D8004FEF05F06000DBF2D9FF6000DFF2DAFFCD
:1009E800040EDF6E4FEF05F0B1C060F0B2C061F0E9
:1009F800AFEC21F00B0AD8A404EF05F006EF05F0E0
:100A08004FEF05F06000DBF2D9FF6000DFF2DAFF9C
:100A1800010EDF6E4FEF05F0B1C060F0B2C061F0BB
:100A2800AFEC21F00B0AD8A41CEF05F01EEF05F07F
:100A38004FEF05F06000DBF2D9FF6000DFF2DAFF6C
:100A4800010EDF6E4FEF05F06000DBF2D9FF6000AA
:100A5800DFF2DAFFDF50B36FB46BB451000AD8B4D9
:100A680038EF05F04FEF05F0B351000AD8B48FEF17
:100A780004F0010AD8B4A7EF04F0030AD8B4BFEF12
:100A880004F0010AD8B4F8EF04F0070AD8B410EF5C
:100A980005F04FEF05F06000DBF2D9FF6000DFF2F0
:100AA800DAFF0001B551DE18D8B45DEF05F05FEF4D
:100AB80005F0C2EF06F09BEF06F0B6C08AF0B7C0AB
:100AC8008BF0F00E8C6F080E8D6F0C0E8E6F000E73
:100AD800906F320E8F6F000E916F000E926F000EA6
:100AE800936F000E946F000E956F000E966F000EB8
:100AF800976F000E986F1BEC18F0C2EF06F0B6C0A7
:100B08008AF0B7C08BF0F00E8C6F080E8D6F0B0E4D
:100B18008E6F000E906F000E8F6F000E916F000E9B
:100B2800926F000E936F000E946F000E956F000E7B
:100B3800966F000E976F000E986F1BEC18F0C2EFBF
:100B480006F0B6C08AF0B7C08BF0F00E8C6F080EB6
:100B58008D6F0B0E8E6F000E906F000E8F6F000E54
:100B6800916F000E926F000E936F000E946F000E3F
:100B7800956F000E966F000E976F000E986F1BEC26
:100B880018F0000120EE03F0B651D926B751DA2249
:100B9800030EDE18D8B4D3EF05F0D5EF05F0C2EF99
:100BA80006F020EE04F0B651D926B751DA22DE500D
:100BB800DE10D8B4E2EF05F0E4EF05F0C2EF06F07E
:100BC80020EE06F0B651D926B751DA226F0078FF29
:100BD80066F06F0074FF67F020EE01F0B651D92679
:100BE800B751DA226F0078FF60F06F0074FF61F090
:100BF800B7EC21F00001686F010E696F20EE04F078
:100C0800B651D926B751DA2202D815EF06F00500F9
:100C1800FA6EDE50FD6EDE50FE6EF850FF6EFA5032
:100C28001200000120EE03F0B651D926B751DA229E
:100C3800030EDF6EC2EF06F0B6C08AF0B7C08BF0C5
:100C4800F00E8C6F080E8D6F0B0E8E6F000E906F6E
:100C5800000E8F6F000E916F000E926F000E936F53
:100C6800000E946F000E956F000E966F000E976F32
:100C7800000E986F1BEC18F0000120EE03F0B6513F
:100C8800D926B751DA22040EDE18D8B44EEF06F092
:100C980050EF06F0C2EF06F020EE04F0B651D92668
:100CA800B751DA22DE50DE10D8B45DEF06F05FEF00
:100CB80006F0C2EF06F020EE06F0B651D926B7517D
:100CC800DA226F0078FF66F06F0074FF67F020EE9D
:100CD80001F0B651D926B751DA226F0078FF60F0DB
:100CE8006F0074FF61F0B7EC21F00001686F000E2F
:100CF800696F20EE04F0B651D926B751DA2202D82E
:100D080090EF06F00500FA6EDE50FD6EDE50FE6EC6
:100D1800F850FF6EFA501200000120EE03F0B651B1
:100D2800D926B751DA22040EDF6EC2EF06F0600052
:100D3800DBF2D9FF6000DFF2DAFFDF50B36FB46B8C
:100D4800B451000AD8B4ABEF06F0C2EF06F0B351C5
:100D5800000AD8B4C2EF06F0010AD8B461EF05F072
:100D6800030AD8B483EF05F0010AD8B4A5EF05F05B
:100D7800070AD8B420EF06F0C2EF06F01200000E02
:100D88000001776F000E786F000E796F000E7A6F92
:100D98003701E0B7D2EF06F0D4EF06F07CEF07F0AA
:100DA800000120EE01F07251D9267351DA226F004A
:100DB80078FF60F06F0078FF61F06F0078FF62F0F5
:100DC8006F0078FF63F06000CBF1D9FF6000CFF1CE
:100DD800DAFFDF50646F770E656F000E666F780E6E
:100DE800676F000E686F790E696F000E6A6F7A0E72
:100DF8006B6F000E6C6F22EC10F06000DFF1E3F710
:100E08006000E3F1E4F76000E7F1E1F76000EBF17F
:100E1800E2F7000120EE05F07251D9267351DA226B
:100E2800DF50746F20EE0EF07251D9267351DA221A
:100E3800DF50756F060E766FD8907537762F20EFD6
:100E480007F0755174113701E56F000120EE06F0C7
:100E58007251D9267351DA22DF503701E66F00014B
:100E680020EE07F07251D9267351DA22DF5037018C
:100E7800E76F000120EE08F07251D9267351DA228B
:100E8800DF503701E86F000120EE09F07251D926D2
:100E98007351DA22DF503701E96F000120EE0AF0C2
:100EA8007251D9267351DA22DF503701EA6F0001F7
:100EB80020EE0BF07251D9267351DA22DF50370138
:100EC800EB6F000120EE0CF07251D9267351DA2233
:100ED800DF503701EC6F000120EE0DF07251D9267A
:100EE8007351DA22DF503701ED6FE087DAEF08F04F
:100EF800D0B781EF07F083EF07F02BEF08F0000180
:100F080020EE01F07251D9267351DA226F0078FF72
:100F180060F06F0078FF61F06F0078FF62F06F009B
:100F280078FF63F06000CBF1D9FF6000CFF1DAFF02
:100F3800DF50646F770E656F000E666F780E676F0F
:100F4800000E686F790E696F000E6A6F7A0E6B6F0C
:100F5800000E6C6F22EC10F06000DFF1D3F7600038
:100F6800E3F1D4F76000E7F1D1F76000EBF1D2F7D5
:100F7800000120EE05F07251D9267351DA22DF50B4
:100F8800746F20EE0EF07251D9267351DA22DF50B9
:100F9800756F060E766FD8907537762FCFEF07F0FE
:100FA800755174113701D56F000120EE06F07251AA
:100FB800D9267351DA22DF503701D66F000120EEAF
:100FC80007F07251D9267351DA22DF503701D76FF3
:100FD800000120EE08F07251D9267351DA22DF5051
:100FE8003701D86F000120EE09F07251D9267351EC
:100FF800DA22DF503701D96F000120EE0AF0725172
:10100800D9267351DA22DF503701DA6F000120EE5A
:101018000BF07251D9267351DA22DF503701DB6F9A
:10102800000120EE0CF07251D9267351DA22DF50FC
:101038003701DC6F000120EE0DF07251D926735193
:10104800DA22DF503701DD6FD0877AEF07F0C0B7BB
:1010580030EF08F032EF08F0DAEF08F0000120EE88
:1010680001F07251D9267351DA226F0078FF60F0CF
:101078006F0078FF61F06F0078FF62F06F0078FF13
:1010880063F06000CBF1D9FF6000CFF1DAFFDF50E9
:10109800646F770E656F000E666F780E676F000ECF
:1010A800686F790E696F000E6A6F7A0E6B6F000EAB
:1010B8006C6F22EC10F06000DFF1C3F76000E3F121
:1010C800C4F76000E7F1C1F76000EBF1C2F7000177
:1010D80020EE05F07251D9267351DA22DF50746F71
:1010E80020EE0EF07251D9267351DA22DF50756F57
:1010F800060E766FD8907537762F7EEF08F075510B
:1011080074113701C56F000120EE06F07251D9261F
:101118007351DA22DF503701C66F000120EE07F065
:101128007251D9267351DA22DF503701C76F000197
:1011380020EE08F07251D9267351DA22DF503701B8
:10114800C86F000120EE09F07251D9267351DA22D6
:10115800DF503701C96F000120EE0AF07251D9261D
:101168007351DA22DF503701CA6F000120EE0BF00D
:101178007251D9267351DA22DF503701CB6F000143
:1011880020EE0CF07251D9267351DA22DF50370164
:10119800CC6F000120EE0DF07251D9267351DA227E
:1011A800DF503701CD6FC0877AEF07F01200000ECD
:1011B8000001756F80AEE3EF08F0E5EF08F097EFF8
:1011C80009F082A6EAEF08F0ECEF08F015EF09F055
:1011D8006000CFF1D9FF6000D3F1DAFF020EDF6EB5
:1011E8006F0010FE60F06F0004FE61F06F0008FEF3
:1011F80062F0835033EC13F0000120EE01F07351DC
:10120800D9267451DA22600083F1DEFF600087F18D
:10121800DEFF60008BF1DEFF60008FF1DEFF36EF4E
:1012280009F06000CFF1D9FF6000D3F1DAFF010EB9
:10123800DF6E6F0008FE60F08150ADEC1CF000011D
:1012480020EE01F07351D9267451DA22600083F13F
:10125800DEFF600087F1DEFF60008BF1DEFF6000DB
:101268008FF1DEFF20EE05F07351D9267451DA2292
:1012780085500F0BDF6E20EE0EF07351D926745196
:10128800DA228544E846030BDF6E20EE06F0735140
:10129800D9267451DA226F001BFEDFFF20EE07F01B
:1012A8007351D9267451DA226F001FFEDFFF20EE3A
:1012B80008F07351D9267451DA226F0023FEDFFF3C
:1012C80020EE09F07351D9267451DA226F0027FEF7
:1012D800DFFF20EE0AF07351D9267451DA226F002D
:1012E8002BFEDFFF20EE0BF07351D9267451DA2262
:1012F8006F002FFEDFFF20EE0CF07351D9267451DA
:10130800DA226F0033FEDFFF20EE0DF07351D9268D
:101318007451DA226F0037FEDFFF809E010E000154
:10132800756F53EF0AF03701F0AF9DEF09F09FEFAB
:1013380009F053EF0AF0F2A7A4EF09F0A6EF09F0BD
:10134800CFEF09F06000CFF1D9FF6000D3F1DAFFE9
:10135800020EDF6E6D00D0FF60F06D00C4FF61F01B
:101368006D00C8FF62F0F35133EC13F0000120EE7A
:1013780001F07351D9267451DA22600083F1DEFF3F
:10138800600087F1DEFF60008BF1DEFF60008FF107
:10139800DEFFF0EF09F06000CFF1D9FF6000D3F174
:1013A800DAFF010EDF6E6D00C8FF60F0F151ADECA1
:1013B8001CF0000120EE01F07351D9267451DA2295
:1013C800600083F1DEFF600087F1DEFF60008BF1D3
:1013D800DEFF60008FF1DEFF20EE05F07351D926A5
:1013E8007451DA223701F5510F0BDF6E000120EE40
:1013F8000EF07351D9267451DA223701F545E846C3
:10140800030BDF6E000120EE06F07351D9267451EC
:10141800DA226D00DBFFDFFF20EE07F07351D926DB
:101428007451DA226D00DFFFDFFF20EE08F0735100
:10143800D9267451DA226D00E3FFDFFF20EE09F0B0
:101448007351D9267451DA226D00E7FFDFFF20EED1
:101458000AF07351D9267451DA226D00EBFFDFFFD1
:1014680020EE0BF07351D9267451DA226D00EFFF8C
:10147800DFFF20EE0CF07351D9267451DA226D008B
:10148800F3FFDFFF20EE0DF07351D9267451DA22F5
:101498006D00F7FFDFFF3701F09F92EF09F00001C1
:1014A80075511200010E0001926F100E936F050E18
:1014B800946F000E956F000E966F020E976F630E75
:1014C800986F630E996F20EE06F08E51D9268F51D2
:1014D800DA22DF50D8B473EF0AF075EF0AF0C4EFE0
:1014E8000AF0CCEC21F060C07AF061C07BF0000E0D
:1014F80000017D6F000E7C6FB7EC11F0D00E00017B
:10150800906FC90EE82EFED7902FFCD700D0CCECF8
:1015180021F060C07AF061C07BF0000E00017D6FA1
:10152800060E7C6FB7EC11F0D00E0001906FC90E5B
:10153800E82EFED7902FFCD700D0CCEC21F060C06D
:101548007AF061C07BF0000E00017D6F070E7C6FA2
:10155800B7EC11F0D00E0001906FC90EE82EFED73F
:10156800902FFCD700D0CCEC21F060C07AF061C09D
:101578007BF0000E00017D6F0F0E7C6FB7EC11F051
:10158800000120EE07F08E51D9268F51DA22DF5064
:10159800D8B4D1EF0AF0D3EF0AF02AEF0BF0CCEC75
:1015A80021F060C07AF061C07BF0060E00017C6F0C
:1015B80079EC12F0010E0001986F010E996F920EEE
:1015C800726F000E736FC3EC06F0CCEC21F060C0B4
:1015D8007AF061C07BF0000E00017D6F040E7C6F15
:1015E800B7EC11F001EF0BF0D00E0001906FC90EAF
:1015F800E82EFED7902FFCD700D0CCEC21F060C0AD
:101608007AF061C07BF050EC0FF0070E00017B19F7
:101618007A11D8A412EF0BF014EF0BF0F8EF0AF0E0
:10162800020E986F000E996FD00E0001906FC90ED0
:10163800E82EFED7902FFCD700D0920E0001726FD3
:10164800000E736FC3EC06F030EF0BF0000E986FCE
:10165800020E996F18EF0BF0000120EE08F08E5182
:10166800D9268F51DA22DF50D8B43DEF0BF03FEF87
:101678000BF06EEF0BF0CCEC21F060C07AF061C09B
:101688007BF0900E00017C6F530E7D6F030E7E6F12
:10169800000E7F6F7BEC0EF05BEF0BF0D00E0001BD
:1016A800906FC90EE82EFED7902FFCD700D0CCEC57
:1016B80021F060C07AF061C07BF050EC0FF0020EB0
:1016C80000017B197A11D8A46CEF0BF06EEF0BF0C8
:1016D80052EF0BF020EE09F08E51D9268F51DA2205
:1016E800DF50916FC6EC21F060C064F061C065F016
:1016F800010E0001666F91C067F003EC20F0000155
:101708009151D8B48AEF0BF08CEF0BF092EF0BF0FD
:101718008CC07BF08DC07CF012EC1FF01200800EA4
:101728008F6E8E50E00B800AD8A49DEF0BF09FEFD0
:101738000BF095EF0BF0000E916E000E3701006F65
:10174800F00E0001606F000E616F000E626F000EF8
:10175800636F010E646FBA0E656F370E666FBB0E4E
:10176800676F370E686FB80E696F370E6A6FB90EFC
:101778006B6F370E6C6F22EC10F0000E0001606F7B
:10178800000E616F000E626F000E636F010E646FD2
:10179800A20E656F370E666FA30E676F370E686F00
:1017A800A00E696F370E6A6FA10E6B6F370E6C6FE4
:1017B80022EC10F0050E0001606F000E616F000E44
:1017C800626F000E636F010E646FA60E656F370EB1
:1017D800666FA70E676F370E686FA40E696F370EB6
:1017E8006A6FA50E6B6F370E6C6F22EC10F0F00E5F
:1017F8000001606F000E616F000E626F000E636F74
:10180800010E646FBE0E656F370E666FBF0E676F91
:10181800370E686FBC0E696F370E6A6FBD0E6B6F3F
:10182800370E6C6F22EC10F0050E0001606F000E91
:10183800616F000E626F000E636F010E646FAA0E77
:10184800656F370E666FAB0E676F370E686FA80E41
:10185800696F370E6A6FA90E6B6F370E6C6F22ECCB
:1018680010F0050E0001606F000E616F000E626FD0
:10187800000E636F010E646FAE0E656F370E666FF4
:10188800AF0E676F370E686FAC0E696F370E6A6FF1
:10189800AD0E6B6F370E6C6F22EC10F0050E000169
:1018A800606F000E616F000E626F000E636F010EB5
:1018B800646FB20E656F370E666FB30E676F370EC3
:1018C800686FB00E696F370E6A6FB10E6B6F370EA7
:1018D8006C6F22EC10F0050E0001606F000E616F56
:1018E800000E626F000E636F010E646FB60E656FB7
:1018F800370E666FB70E676F370E686FB40E696F75
:10190800370E6A6FB50E6B6F370E6C6F22EC10F0E6
:101918000F0E3701036F980E046F810E056F000ECE
:101928008F6E6F0038FE72F0E00E00017217D8A4B7
:10193800A0EF0CF0A2EF0CF095EF0CF01200ABC08A
:1019480073F0ACC074F0DBEC08F00009D8B4AFEF6A
:101958000CF0B1EF0CF079EF0DF03BEF0DF0A9C0F2
:101968008AF0AAC08BF01E0E8C6F000E8D6F2A0EA7
:101978008E6F000E906F000E8F6F500E916F010EDC
:10198800926F000E936F000E946F000E956F000E0D
:10199800966F000E976F000E986F1BEC18F09AEF79
:1019A8000DF0A9C08AF0AAC08BF01E0E8C6F000E35
:1019B8008D6F2A0E8E6F000E906F000E8F6F510E76
:1019C800916F010E926F000E936F000E946F000ED0
:1019D800956F000E966F000E976F000E986F1BECB8
:1019E80018F09AEF0DF0A9C08AF0AAC08BF01E0E6D
:1019F8008C6F000E8D6F2A0E8E6F000E906F000E8A
:101A08008F6F520E916F000E926F000E936F000E43
:101A1800946F000E956F000E966F000E976F000E74
:101A2800986F1BEC18F09AEF0DF0A9C08AF0AAC0C5
:101A38008BF01E0E8C6F000E8D6F2C0E8E6F000EAD
:101A4800906F000E8F6F000E916F000E926F000E58
:101A5800936F000E946F000E956F000E966F000E38
:101A6800976F000E986F1BEC18F09AEF0DF00001BD
:101A780020EE01F0AB51D926AC51DA226F0078FF85
:101A8800ADF06F0078FFAEF06F0078FFAFF06F0039
:101A980078FFB0F0B051000AD8B472EF0DF019EF2A
:101AA8000DF0AE51000AD8B460EF0DF0010AD8B4B9
:101AB80067EF0DF019EF0DF0AD51520AD8B4F7EFFA
:101AC8000CF019EF0DF0AD51500AD8B4B3EF0CF08B
:101AD800010AD8B4D5EF0CF019EF0DF0AF51000A98
:101AE800D8B455EF0DF019EF0DF0A9C08AF0AAC0CF
:101AF8008BF01E0E00018C6F000E8D6F2C0E8E6FFA
:101B0800000E906F000E8F6F000E916F000E926F97
:101B1800000E936F000E946F000E956F000E966F77
:101B2800000E976F000E986F1BEC18F01200600003
:101B3800EBF1D9FF6000EFF1DAFF600EDF6E000114
:101B480020EE01F07A51D9267B51DA22010EDF6EA0
:101B580020EE02F07A51D9267B51DA22640EDF6E2C
:101B680020EE03F07A51D9267B51DA22600EDF6E1F
:101B780020EE04F07A51D9267B51DA22000EDF6E6E
:101B880020EE05F07A51D9267B51DA22010EDF6E5C
:101B980020EE01F07A51D9267B51DA22DF50020F6C
:101BA800886F6000EBF1D9FF6000EFF1DAFFDF50DA
:101BB8007E6F7E51806F7F6B20EE01F07A51D926BF
:101BC8007B51DA22DF50816F81517F13000E801321
:101BD80020EE32F07A51D9267B51DA226000FFF1EB
:101BE800DEFF600003F2DDFF010E896F3AEF0EF0B1
:101BF8008951020D7AC07EF07BC07FF0F3507E27BA
:101C0800F4507F23010E7E25D96E000E7F21DA6EF7
:101C1800DF50806F8051826F816B8951836F846B35
:101C2800D8908337843783517A25D96E84517B21A4
:101C3800DA6EDF50856F85518113000E821389514A
:101C4800020D7AC086F07BC087F0F3508627F450E7
:101C58008723320E8625D96E000E8721DA6E600042
:101C680007F2DEFF60000BF2DDFF892B8851895DEA
:101C7800D8A041EF0EF043EF0EF0FCEF0DF07AC064
:101C880070F07BC071F088C072F0EFEC10F07AC091
:101C980061F07BC062F001EC15F0000120EE6AF003
:101CA8007A51D9267B51DA22DF508A6F20EE6BF009
:101CB8007A51D9267B51DA22DF508B6F20EE6CF0F7
:101CC8007A51D9267B51DA22DF508C6F20EE6DF0E5
:101CD8007A51D9267B51DA22DF508D6F8AC07AF08B
:101CE8008BC07BF08CC07CF08DC07DF01200600052
:101CF800EBF1D9FF6000EFF1DAFF680EDF6E00014B
:101D080020EE01F07A51D9267B51DA22030EDF6EDC
:101D180020EE02F07A51D9267B51DA22620EDF6E6C
:101D280020EE03F07A51D9267B51DA22200EDF6E9D
:101D380020EE04F07A51D9267B51DA22000EDF6EAC
:101D480020EE05F07A51D9267B51DA22010EDF6E9A
:101D580020EE06F07A51D9267B51DA226000F3F1A1
:101D6800DFFF20EE07F07A51D9267B51DA22600096
:101D7800F7F1DFFF20EE08F07A51D9267B51DA22FD
:101D88006000FBF1DFFF20EE09F07A51D9267B5184
:101D9800DA226000FFF1DFFF20EE01F07A51D92648
:101DA8007B51DA22DF50020F8A6F6000EBF1D9FF16
:101DB8006000EFF1DAFFDF50806F8051826F816B36
:101DC80020EE01F07A51D9267B51DA22DF50836F59
:101DD80083518113000E821320EE32F07A51D926F6
:101DE8007B51DA22600007F2DEFF60000BF2DDFFB4
:101DF800010E8B6F3EEF0FF08B51020D7AC080F011
:101E08007BC081F0F3508027F4508123010E802598
:101E1800D96E000E8121DA6EDF50826F8251846F95
:101E2800836B8B51856F866BD89085378637855144
:101E38007A25D96E86517B21DA6EDF50876F8751FC
:101E48008313000E84138B51020D7AC088F07BC077
:101E580089F0F3508827F4508923320E8825D96EEB
:101E6800000E8921DA6E60000FF2DEFF600013F2C7
:101E7800DDFF8B2B8A518B5DD8A045EF0FF047EF24
:101E88000FF000EF0FF07AC070F07BC071F08AC0DD
:101E980072F0EFEC10F012006000EBF1D9FF600077
:101EA800EFF1DAFF600EDF6E000120EE01F07A51EB
:101EB800D9267B51DA22010EDF6E20EE02F07A512C
:101EC800D9267B51DA22410EDF6E20EE03F07A51DB
:101ED800D9267B51DA22600EDF6E20EE04F07A51AB
:101EE800D9267B51DA22000EDF6E20EE05F07A51FA
:101EF800D9267B51DA22010EDF6E20EE01F07A51ED
:101F0800D9267B51DA22DF50020F866F6000EBF191
:101F1800D9FF6000EFF1DAFFDF507C6F7C517E6FF4
:101F28007D6B20EE01F07A51D9267B51DA22DF5001
:101F38007F6F7F517D13000E7E1320EE32F07A51B1
:101F4800D9267B51DA226000F7F1DEFF6000FBF151
:101F5800DDFF010E876FEFEF0FF08751020D7AC09A
:101F68007CF07BC07DF0F3507C27F4507D23010E7C
:101F78007C25D96E000E7D21DA6EDF507E6F7E5192
:101F8800806F7F6B8751816F826BD89081378237E2
:101F980081517A25D96E82517B21DA6EDF50836FA9
:101FA80083517F13000E80138751020D7AC084F08D
:101FB8007BC085F0F3508427F4508523320E8425A6
:101FC800D96E000E8521DA6E6000FFF1DEFF600039
:101FD80003F2DDFF872B8651875DD8A0F6EF0FF05F
:101FE800F8EF0FF0B1EF0FF07AC070F07BC071F02E
:101FF80086C072F0EFEC10F07AC061F07BC062F03E
:1020080001EC15F0000120EE6BF07A51D9267B51D6
:10201800DA22DF507C6F7C517E6F7D6B20EE6AF098
:102028007A51D9267B51DA22DF507F6F806B7D5140
:102038007F117A6F7E5180117B6F1200020E0001B2
:102048006419D8A42AEF10F02CEF10F0BAEF10F0B2
:1020580060009FF1D9FF6000A3F1DAFF600083F10F
:10206800DFFF60C06DF061C06EF062C06FF063C0EA
:1020780070F06EC06DF06FC06EF070C06FF0706B76
:102088006DC060F06EC061F06FC062F070C063F048
:10209800600097F1D9FF60009BF1DAFF600083F1DF
:1020A800DFFF60C06DF061C06EF062C06FF063C0AA
:1020B80070F06EC06DF06FC06EF070C06FF0706B36
:1020C8006DC060F06EC061F06FC062F070C063F008
:1020D8006051030B716F60C06DF061C06EF062C03B
:1020E8006FF063C070F0030ED8906D376E376F379E
:1020F8007037E82E78EF10F06DC060F06EC061F0B8
:102108006FC062F070C063F06051E00B7125716FB1
:102118007151080F716F7151EB0B6000AFF1D9FF6E
:102128006000B3F1DAFFDF6E60C06DF061C06EF081
:1021380062C06FF063C070F06EC06DF06FC06EF07B
:1021480070C06FF0706B6DC060F06EC061F06FC0F2
:1021580062F070C063F06000A7F1D9FF6000ABF1D6
:10216800DAFF600083F1DFFFEEEF10F0600097F117
:10217800D9FF60009BF1DAFF000EDF6E60009FF16F
:10218800D9FF6000A3F1DAFF000EDF6E60C06DF0CA
:1021980061C06EF062C06FF063C070F0050ED89039
:1021A8006D376E376F377037E82ED3EF10F06DC08C
:1021B80060F06EC061F06FC062F070C063F06000E4
:1021C800AFF1D9FF6000B3F1DAFF600083F1DFFF00
:1021D80098EF10F0120000017251020D70C073F0F8
:1021E80071C074F0F3507327F4507423320E7325C2
:1021F800D96E000E7421DA6E000EDE6E000EDD6EF2
:1022080070C060F071C061F0320E7025626F000E10
:102218007121636F010E7225646F656B000E652373
:10222800BBEC17F000017251020D70C073F071C061
:1022380074F0F3507327F4507423320E7325D96E5B
:10224800000E7421DA6E600083F1DEFF600087F112
:10225800DDFF7251020D70C073F071C074F0F3505D
:102268007327F4507423320E7325D96E000E74212F
:10227800DA6E7251756F766BD890753776377551FF
:102288007025E16E76517121E26E6F007FFFE7FFE6
:102298007251020D70C073F071C074F0F35073275F
:1022A800F4507423010E7325D96E000E7421DA6E72
:1022B8007251020D70C075F071C076F0F350752739
:1022C800F4507623320E7525E16E000E7621E26E0B
:1022D8006F0098FF77F06F0094FF78F078C077F080
:1022E800786B7751DF6E6000C3F1D9FF6000C7F1EA
:1022F800DAFFDF50FFEC20F030EC1AF04F0AD8B4C8
:1023080088EF11F08AEF11F08CEF11F0B6EF11F0B1
:10231800010E0001796F9CEF11F079517025D96E8B
:10232800000E7121DA6EDF50FFEC20F00001792BEE
:102338007951736F746B7251020D010EF326000E02
:10234800F4227351F35CF450800A756F7451800A5B
:102358007559D8B0B2EF11F0B4EF11F091EF11F058
:1023680030EC1AF012006000EBF1D9FF6000EFF1D9
:10237800DAFF680EDF6E000120EE01F07A51D926EF
:102388007B51DA22020EDF6E20EE02F07A51D92656
:102398007B51DA22400EDF6E20EE03F07A51D92607
:1023A8007B51DA22600EDF6E20EE04F07A51D926D6
:1023B8007B51DA22000EDF6E20EE05F07A51D92625
:1023C8007B51DA22010EDF6E20EE06F07A51D92613
:1023D8007B51DA226000F3F1DFFF20EE07F07A513B
:1023E800D9267B51DA227D51DF6E20EE01F07A5139
:1023F800D9267B51DA22DF50020F886F6000EBF19B
:10240800D9FF6000EFF1DAFFDF507E6F7E51806FF9
:102418007F6B20EE01F07A51D9267B51DA22DF500A
:10242800816F81517F13000E801320EE32F07A51B4
:10243800D9267B51DA226000FFF1DEFF600003F24B
:10244800DDFF010E896F67EF12F08951020D7AC026
:102458007EF07BC07FF0F3507E27F4507F23010E7F
:102468007E25D96E000E7F21DA6EDF50806F805195
:10247800826F816B8951836F846BD89083378437DF
:1024880083517A25D96E84517B21DA6EDF50856FAE
:1024980085518113000E82138951020D7AC086F08E
:1024A8007BC087F0F3508627F4508723320E8625A9
:1024B800D96E000E8721DA6E600007F2DEFF600039
:1024C8000BF2DDFF892B8851895DD8A06EEF12F0E1
:1024D80070EF12F029EF12F07AC070F07BC071F043
:1024E80088C072F0EFEC10F012006000EBF1D9FF39
:1024F8006000EFF1DAFF680EDF6E000120EE01F0F8
:102508007A51D9267B51DA22020EDF6E20EE02F0D4
:102518007A51D9267B51DA22600EDF6E20EE03F065
:102528007A51D9267B51DA22600EDF6E20EE04F054
:102538007A51D9267B51DA22000EDF6E20EE05F0A3
:102548007A51D9267B51DA22010EDF6E20EE06F091
:102558007A51D9267B51DA226000F3F1DFFF20EEB1
:1025680001F07A51D9267B51DA22DF50020F876FAA
:102578006000EBF1D9FF6000EFF1DAFFDF507D6F0B
:102588007D517F6F7E6B20EE01F07A51D9267B5109
:10259800DA22DF50806F80517E13000E7F1320EE09
:1025A80032F07A51D9267B51DA226000FBF1DEFF46
:1025B8006000FFF1DDFF010E886F21EF13F08851F5
:1025C800020D7AC07DF07BC07EF0F3507D27F45079
:1025D8007E23010E7D25D96E000E7E21DA6EDF5036
:1025E8007F6F7F51816F806B8851826F836BD8902A
:1025F8008237833782517A25D96E83517B21DA6EEF
:10260800DF50846F84518013000E81138851020DAE
:102618007AC085F07BC086F0F3508527F450862376
:10262800320E8525D96E000E8621DA6E600003F21F
:10263800DEFF600007F2DDFF882B8751885DD8A098
:1026480028EF13F02AEF13F0E3EF12F07AC070F0DE
:102658007BC071F087C072F0EFEC10F0120000013F
:10266800686F000E00016F6F000E706F000E716FC3
:10267800000E726F6251030B6D6F6239E842070BEF
:102688006E6F6151646F656BD89064376537D89009
:1026980064376537D8906437653764C06FF065C0B4
:1026A80070F0000E70BFFF0E716F726F6E516F2564
:1026B8006F6F000E7021706F000E7121716F000E28
:1026C8007221726F6FC064F070C065F071C066F0FF
:1026D80072C067F0020ED89064376537663767377F
:1026E800E82E6FEF13F064C06FF065C070F066C03D
:1026F80071F067C072F06D516F256F6F000E702119
:10270800706F000E7121716F000E7221726F6FC0B1
:1027180065F070C066F071C067F0646B64C06FF0FC
:1027280065C070F066C071F067C072F068516F25BF
:102738006F6F000E7021706F000E7121716F000EA7
:102748007221726F6FC065F070C066F071C067F07B
:10275800646B64C06FF065C070F066C071F067C0EC
:1027680072F060516F256F6F000E7021706F000E50
:102778007121716F000E7221726F6FC069F070C0A5
:102788006AF071C06BF072C06CF069C060F06AC02A
:1027980061F06BC062F06CC063F01200000E0001C3
:1027A800616F000E606FE0EC20F0A50AD8B4DFEF8F
:1027B80013F0E1EF13F017EF14F0000E0001616F52
:1027C800000E606FA50E626F3BEC1FF0000E00015B
:1027D800616F010E606F0A0E626F3BEC1FF0000E16
:1027E8000001616F020E606F050E626F3BEC1FF017
:1027F800000E0001616F030E606F050E626F3BEC07
:102808001FF0000E0001616F040E606F050E626F0D
:102818003BEC1FF0000E0001616F050E606F050EA6
:10282800626F3BEC1FF0000E0001616F000E606FDD
:10283800E0EC20F0600093F1D9FF600097F1DAFF37
:10284800DF6E000120EE01F06451D9266551DA22CD
:10285800000E616F010E606FE0EC20F0DF6E00018A
:1028680020EE02F06451D9266551DA22000E616F1C
:10287800020E606FE0EC20F0DF6E000120EE03F046
:102888006451D9266551DA22000E616F030E606F1C
:10289800E0EC20F0DF6E000120EE04F06451D92650
:1028A8006551DA22000E616F040E606FE0EC20F0D3
:1028B800DF6E000120EE05F06451D9266551DA2259
:1028C800000E616F050E606FE0EC20F0DF6E120005
:1028D800000120EE08F08E51D9268F51DA22DF5000
:1028E800906F90C091F0926B936B946B93C094F03F
:1028F80092C093F091C092F0916B20EE07F08E5148
:10290800D9268F51DA22DF50956F95C096F0976BD4
:10291800986B996B97C099F096C098F0976B966BE7
:1029280020EE06F08E51D9268F51DA22DF509A6FA9
:102938009AC09BF09C6B9D6B9E6B9BC09EF09D6BA1
:102948009C6B9B6B96519B259F6F97519C21A06F09
:1029580098519D21A16F99519E21A26F91519F2558
:10296800A36F9251A021A46F9351A121A56F9451F7
:10297800A221A66F20EE09F08E51D9268F51DA22B6
:10298800DF50A76FA751A325A86F000EA421A96F38
:10299800000EA521AA6F000EA621AB6FCCEC21F08A
:1029A80060C07AF061C07BF0A8C07CF0A9C07DF05F
:1029B800AAC07EF0ABC07FF07BEC0EF0EDEF14F018
:1029C800D00E0001906FC90EE82EFED7902FFCD7CD
:1029D80000D0CCEC21F060C07AF061C07BF050EC04
:1029E8000FF0020E00017B197A11D8A4FEEF14F043
:1029F80000EF15F0E4EF14F01200000E0001686F0C
:102A080068516125636F000E6221646F640E63254F
:102A1800D96E000E6421DA6E000EDF6E1A0E686140
:102A280018EF15F01AEF15F02EEF15F06851020D9A
:102A380061C063F062C064F0F3506327F45064230C
:102A4800960E6325D96E000E6421DA6E000EDE6ED6
:102A5800000EDD6E682B320E686535EF15F037EF26
:102A680015F004EF15F020EE64F06151D92662519B
:102A7800DA2230EC1AF0DF6E4F0EFFEC20F0000186
:102A880020EE65F06151D9266251DA2230EC1AF055
:102A9800DF6E020E0001676F63EF15F06751612565
:102AA800636F000E6221646F640E6325D96E000E99
:102AB8006421DA6E30EC1AF0DF6E0001672B20EE2D
:102AC80065F06151D9266251DA22DF50636F635194
:102AD800020D060EF326000EF4226751646F656B33
:102AE800F350645D6551800A666FF450800A665938
:102AF800D8A081EF15F083EF15F052EF15F04F0EC7
:102B0800FFEC20F01200740E0001606F000E616F80
:102B18001BEC21F060C087F061C088F0000187518C
:102B28008811D8B49AEF15F09CEF15F0C1EF15F0A5
:102B3800740E606F000E616F000E636F000E626F9F
:102B48000DEC21F087C061F088C062F020EE74F0CF
:102B580000EE63F00E0E6F006FFFEBFFE806FBE27E
:102B680083C072F019EC1BF0600013F2D9FF60000B
:102B780017F2DAFFDF6E03EF16F0835152EC21F003
:102B8800600094FC86F0010E00018625606F616B81
:102B9800000E6123000E636F0C0E626FD3EC18F009
:102BA80000016051896F20EE26F38951DE18D8A400
:102BB800E0EF15F0E2EF15F0E8EF15F0835145EC82
:102BC80021F0000E04EF16F020EE74F0600094FC83
:102BD80086F086510F0D710EF324E16E020EF4207B
:102BE800E26E0E0E6F006FFFE3FFE806FBE220EED9
:102BF80025F3600027F2DFFF835145EC21F0010E39
:102C08001200150E016E000E026E6CEC21F001C070
:102C180028F002C029F028502910D8B416EF16F071
:102C280018EF16F03DEF16F0150E016E000E026E4D
:102C3800000E046E000E036E5FEC21F028C002F057
:102C480029C003F020EE15F000EE04F00E0E6F0020
:102C58006FFFEBFFE806FBE224C013F0E6EC1BF085
:102C6800600097F0D9FF60009BF0DAFFDF6E7DEF20
:102C780016F0245090EC21F0600094FC27F0010E2F
:102C88002724016E026A000E0222000E046E0C0E4A
:102C9800036E2CEC19F001502A6E20EE26F32A5010
:102CA800DE18D8A45AEF16F05CEF16F062EF16F0B3
:102CB800245085EC21F0000E7EEF16F020EE15F082
:102CC800600094FC27F027500F0D710EF324E16E7D
:102CD800020EF420E26E0E0E6F006FFFE3FFE806AF
:102CE800FBE220EE25F36000ABF0DFFF245085EC1B
:102CF80021F0010E1200000E0001696F000E686FCE
:102D080068C060F069C061F0000E636F0F0E626FFB
:102D180068EC20F0710E00016025666F020E6121DB
:102D2800676FC1EC1DF00001684B692B69BFA6EF06
:102D380016F0695109E10C0E685DD8A0A6EF16F0EF
:102D4800A8EF16F084EF16F0000E696F000E686F9A
:102D580068C060F069C061F0000E636F110E626FA9
:102D680068EC20F0E90E00016025D96E010E6121A2
:102D7800DA6E000EDE6E000EDD6E68C060F069C0AF
:102D880061F0000E636F110E626F68EC20F0EB0EBD
:102D980000016025666F010E6121676FC1EC1DF0AF
:102DA8000001684B692B69BFE3EF16F0695109E12F
:102DB800080E685DD8A0E3EF16F0E5EF16F0ACEF6B
:102DC80016F0000E6F00A0FF25F3000E6F00A0FFA5
:102DD80026F31200000E2E6E2E50110DEB0EF3246A
:102DE800D96E010EF420DA6EDF50D8B4FEEF16F07B
:102DF80000EF17F050EF17F02E50110DE90EF324E5
:102E0800D96E010EF420DA6E0A0EDE5E000EDD5A6F
:102E18002E50110DE90EF324D96E010EF420DA6E4E
:102E2800DE50DE10D8A41BEF17F01DEF17F050EF9F
:102E380017F02E50110DEB0EF324D96E010EF4206D
:102E4800DA6E00EE15F00E0E6F006FFFEBFFE8066E
:102E5800FBE2010E246E2D0E256E000E266E05EC8B
:102E680016F0E806D8A43BEF17F03DEF17F044EF53
:102E780017F0010E036E2E50C8EC1FF050EF17F03C
:102E88002E50110DE90EF324D96E010EF420DA6EDE
:102E9800010EDE6E000EDD6E2E2A070E2E6457EF31
:102EA80017F059EF17F0F0EF16F01200000E0001BE
:102EB800646F65EF17F0000ECCB6010E646FA0EFDB
:102EC80017F0600083F1D9FF600087F1DAFFDF5067
:102ED800626F636B6351000AD8B475EF17F0A0EF07
:102EE80017F06251010AD8B45FEF17F0030AD8B49B
:102EF800A0EF17F0010AD8B4A0EF17F0070AD8B46A
:102F0800A0EF17F0010AD8B4A0EF17F0030AD8B45D
:102F1800A0EF17F0010AD8B4A0EF17F00F0AD8B441
:102F2800A0EF17F0010AD8B4A0EF17F0030AD8B43D
:102F3800A0EF17F0A0EF17F020EE01F06051D926AE
:102F48006151DA22DE04D8A4ACEF17F0AEEF17F027
:102F5800B9EF17F06451D8B4B4EF17F0B7EF17F022
:102F6800010EB8EF17F0000E646F64511200000EE6
:102F780000016F6F000E6E6F09EF18F0800E6D6F15
:102F8800000E6C6F60008BF1D9FF60008FF1DAFFE3
:102F98006F0078FF68F06F0074FF69F0020E622717
:102FA800000E6323000E6E156A6F800E6F156B6F2F
:102FB800D8906E376F376C516815666F6D5169150B
:102FC800676F66516711D8B4ECEF17F0EEEF17F0A2
:102FD800F0EF17F06E4B6F2B6A516B11D8B4F7EF07
:102FE80017F0F9EF17F0FDEF17F0210E6E1B100E1A
:102FF8006F1BD8906D336C336C516D11D8A407EFEB
:1030080018F009EF18F0D6EF17F06407D8A0650795
:10301800642906E16529D8A414EF18F016EF18F012
:10302800C2EF17F06EC060F06FC061F01200080EBA
:103038000001996F9A0E666F000E676FC1EC1DF064
:103048009A0E0001606F000E616F8AC062F08BC03B
:1030580063F029EC21F09A0E0001606F000E616F99
:103068008CC062F08DC063F037EC21F09A0E00013D
:10307800606F000E616F8EC062F09BEC21F09A0EBB
:103088000001606F000E616F8FC062F090C063F046
:103098000DEC21F09A0E0001606F000E616F91C077
:1030A80062F092C063F093C064F094C065F095C07C
:1030B80066F096C067F097C068F098C069F0A8EC11
:1030C8001FF020EE9AF000EE74F00E0E6F006FFF06
:1030D800EBFFE806FBE2000E0001836F990E846F98
:1030E800000E856F87EC15F012000001776F000E57
:1030F8000001786F000E7B6F000E7C6F000E796FF9
:10310800000E7A6F775152EC21F020EE26F310EE84
:1031180025F3DE50E618D8A494EF18F096EF18F0CF
:10312800A6EF18F00001775145EC21F020EE78F079
:1031380000EE66F00E0E6F006FFFEBFFE806FBE295
:10314800D2EF18F0600098FC75F0000175510F0D72
:10315800710EF324D96E020EF420DA6E10EE78F0B8
:103168000E0E6F006FFFE3FFE806FBE2600098FCBD
:1031780075F0010E7525606F616B000E6123000EFE
:10318800636F0C0E626FD3EC18F00001600080F1E1
:1031980026F3775145EC21F09AEF18F01200000E53
:1031A8000001656F61BFDDEF18F0DBEF18F0E3EFAA
:1031B80018F0606D611FD8B0612B010E656F63BF99
:1031C800EAEF18F0E8EF18F0EEEF18F0626D631F01
:1031D800D8B0632B62516311D8B4F5EF18F0F7EF4C
:1031E80018F01BEF19F0010E646FFFEF18F0D8907C
:1031F80062376337642B63AF04EF19F006EF19F0F9
:10320800FBEF18F06251605D63516159D8A00FEF70
:1032180019F011EF19F015EF19F06251605F635161
:10322800615BD89063336233642F06EF19F0655100
:10323800D8B421EF19F023EF19F027EF19F0606DDA
:10324800611FD8B0612B60C060F061C061F01200EE
:10325800000E066E02BE35EF19F033EF19F03BEFA2
:1032680019F0016C021ED8B0022A010E066E04BEC7
:1032780042EF19F040EF19F046EF19F0036C041E05
:10328800D8B0042A03500410D8B44DEF19F04FEF0A
:1032980019F073EF19F0010E056E57EF19F0D89079
:1032A80003360436052A04AE5CEF19F05EEF19F018
:1032B80053EF19F00350015C04500258D8A067EF8F
:1032C80019F069EF19F06DEF19F00350015E045021
:1032D800025AD89004320332052E5EEF19F00650D8
:1032E800D8B479EF19F07BEF19F07FEF19F0016C82
:1032F800021ED8B0022A01C001F002C002F012007A
:10330800D2EC21F060C062F061C063F0010E0001F0
:10331800646FA5EC21F0D2EC21F060C066F061C0CA
:1033280067F0BFEC21F0DEEC21F060C062F061C014
:1033380063F0010E0001646F010E656F93EC20F0DD
:10334800DEEC21F060C062F061C063F009EC22F0AD
:10335800E4EC21F060C062F061C063F0DEEC21F0C3
:1033680060C064F061C065F0F3EC1DF0EAEC21F098
:1033780060C062F061C063F00AEC22F0D8EC21F082
:1033880060C062F061C063F086EC1FF0C6EC21F00B
:1033980060C064F061C065F0D2EC13F0CCEC21F0B1
:1033A80060C062F061C063F0DBEC19F01200310E0E
:1033B80000016665E2EF19F0E4EF19F0E6EF19F0A5
:1033C8002FEF1AF066516225646F000E6321656F56
:1033D800640E6425D96E000E6521DA6E000EDF6E6C
:1033E80066516225D96E000E6321DA6E000EDF6E1B
:1033F800190E666102EF1AF004EF1AF02CEF1AF0BA
:103408006651020D62C064F063C065F0F350642732
:10341800F4506523960E6425D96E000E6521DA6E88
:10342800000EDE6E000EDD6E6651020D62C064F0A5
:1034380063C065F0F3506427F4506523320E6425A9
:10344800D96E000E6521DA6E000EDE6E000EDD6E9E
:10345800662BDBEF19F012003901A3A736EF1AF03B
:1034680038EF1AF030EF1AF0000E0001D56F3D0169
:10347800F9A741EF1AF043EF1AF052EF1AF00001E2
:10348800D58302D852EF1AF00500FA6ED351FD6EBB
:10349800D451FE6EF850FF6EFA5012003D01F9A3A8
:1034A80058EF1AF05AEF1AF069EF1AF00001D585B3
:1034B80002D869EF1AF00500FA6ED151FD6ED251AB
:1034C800FE6EF850FF6EFA5012000001D551D8B4C4
:1034D80070EF1AF072EF1AF07FEF1AF002D87FEF50
:1034E8001AF00500FA6ECF51FD6ED051FE6EF850FD
:1034F800FF6EFA5012003D01E8511200C6EC21F0AF
:1035080060C064F061C065F0020E0001666F20EED5
:1035180009F06A51D9266B51DA22DF50676F03EC44
:1035280020F0C6EC21F060C064F061C065F0030EC5
:103538000001666F20EE08F06A51D9266B51DA2235
:10354800DF50676F03EC20F0C6EC21F060C064F038
:1035580061C065F0040E0001666F20EE07F06A5145
:10356800D9266B51DA22DF50676F03EC20F0C6ECE6
:1035780021F060C064F061C065F0050E0001666F5F
:1035880020EE06F06A51D9266B51DA22DF50676FB8
:1035980003EC20F01200A9C08AF0AAC08BF0F00E4C
:1035A80000018C6F080E8D6F0A0E8E6F000E906FE3
:1035B800000E8F6F000E916F000E926F000E936FCA
:1035C800000E946F000E956F000E966F000E976FA9
:1035D800000E986F1BEC18F0000120EE01F0A951C5
:1035E800D926AA51DA226F0078FF60F06F0074FFC5
:1035F80061F05AEC17F0E806D8B405EF1BF007EFB6
:103608001BF00CEF1BF0040E0001AB6F0FEF1BF06B
:10361800030E0001AB6F20EE03F0A951D926AA5181
:10362800DA226000AFF2DFFF12000001725152ECA3
:1036380021F0000E0001736F7351110DEB0EF3248E
:10364800D96E010EF420DA6EDF50D8A42EEF1BF0ED
:1036580030EF1BF050EF1BF07351110DE90EF324FE
:10366800D96E010EF420DA6E600087F1DEFF60008B
:103678008BF1DDFF20EE63F07351110DEB0EF32497
:10368800E16E010EF420E26E0E0E6F006FFFE3FF95
:10369800E806FBE259EF1BF0732B070E736557EF33
:1036A8001BF059EF1BF020EF1BF0725145EC21F095
:1036B800000173511200010E0001686F110E696F4D
:1036C800050E6A6F000E6B6F000E6C6F040E6D6F47
:1036D800C6EC21F060C062F061C063F0050E000125
:1036E800646F7EEC20F000016E6FC6EC21F060C0C4
:1036F80062F061C063F0040E0001646F7EEC20F09C
:1037080000016F6FC6EC21F060C062F061C063F029
:10371800030E0001646F7EEC20F00001706FC6ECB0
:1037280021F060C062F061C063F0020E0001646FB6
:103738007EEC20F00001716F000E766F1200A9C0B8
:103748008AF0AAC08BF01E0E00018C6F000E8D6FE0
:103758002F0E8E6F000E906F000E8F6F000E916F00
:10376800000E926F000E936F000E946F000E956F0F
:10377800000E966F000E976F000E986F1BEC18F0F6
:10378800A9C08AF0AAC08BF01E0E00018C6F000E33
:103798008D6F280E8E6F000E906F000E8F6F000ECB
:1037A800916F000E926F000E936F000E946F000ED3
:1037B800956F000E966F000E976F000E986F1BECBA
:1037C80018F01200135090EC21F0000E146E1450F3
:1037D800110DEB0EF324D96E010EF420DA6EDF50D2
:1037E800D8A4F9EF1BF0FBEF1BF01BEF1CF01450F3
:1037F800110DE90EF324D96E010EF420DA6E600083
:103808000BF0DEFF60000FF0DDFF20EE04F0145037
:10381800110DEB0EF324E16E010EF420E26E0E0E94
:103828006F006FFFE3FFE806FBE224EF1CF0142AA9
:10383800070E146422EF1CF024EF1CF0EBEF1BF0D2
:10384800135085EC21F0145012002EEF1CF0BB82AF
:103858006AEF1CF060008BF1D9FF60008FF1DAFF8E
:10386800DF500001646F656B6551000AD8B43FEF03
:103878001CF06AEF1CF06451010AD8B42BEF1CF05D
:10388800030AD8B46AEF1CF0010AD8B46AEF1CF036
:10389800070AD8B46AEF1CF0010AD8B46AEF1CF022
:1038A800030AD8B46AEF1CF0010AD8B46AEF1CF016
:1038B8000F0AD8B46AEF1CF0010AD8B46AEF1CF0FA
:1038C800030AD8B46AEF1CF06AEF1CF0120070EF1C
:1038D8001CF0BB92ACEF1CF060008BF1D9FF6000CC
:1038E8008FF1DAFFDF500001646F656B6551000AE4
:1038F800D8B481EF1CF0ACEF1CF06451010AD8B4C5
:103908006DEF1CF0030AD8B4ACEF1CF0010AD8B470
:10391800ACEF1CF0070AD8B4ACEF1CF0010AD8B41D
:10392800ACEF1CF0030AD8B4ACEF1CF0010AD8B411
:10393800ACEF1CF00F0AD8B4ACEF1CF0010AD8B4F5
:10394800ACEF1CF0030AD8B4ACEF1CF0ACEF1CF0E1
:1039580012000001666F00016651646F656BD890B4
:1039680064376537D89064376537D89064376537DA
:1039780064C06BF065C06CF0000E6CBFFF0E6D6F1D
:103988006E6F60C064F0050E656FD8906433652F64
:10399800C9EF1CF064516B256B6F000E6C216C6FC6
:1039A800000E6D216D6F000E6E216E6F6BC067F09B
:1039B8006CC068F06DC069F06EC06AF067C060F0F6
:1039C80068C061F069C062F06AC063F01200000E5E
:1039D80079EC18F020EEC0F00E0E6F00AFFFDBFFA1
:1039E800E806FBE20001C051D8B4FDEF1CF0FFEF80
:1039F8001CF024EF1DF0C351C411D8B406EF1DF01C
:103A080008EF1DF024EF1DF0C151C211D8B40FEF1B
:103A18001DF011EF1DF024EF1DF0C00EB16F000E68
:103A2800B26F20EEC1F002D824EF1DF00500FA6E47
:103A3800DE50FD6EDE50FE6EF850FF6EFA5012003A
:103A48001200000E3D01EC6F000EED6F000EEE6FE0
:103A5800000EEF6F000EF06F000EF16FB00EF26FF8
:103A6800800EF36F000EF46F8A0EF56F000EF66F7E
:103A7800000EF76F000EF86F000EF96F000EFA6F68
:103A88000E0E0001606F440E616FF5EC21F00C0E14
:103A98000001606F440E616FF0EC21F0100E000120
:103AA800606F440E616FFAEC21F0000E0001D56FD3
:103AB8001200BBB062EF1DF065EF1DF0010E66EF5E
:103AC8001DF0000EFF0A0001A96FBB50A919FE0BDB
:103AD800A919BB6E000E8A6F010E8B6FBA0E8C6F20
:103AE8003A0E8D6F0B0E8E6F030E906FE80E8F6F70
:103AF800000E916F000E926F000E936F000E946F80
:103B0800000E956F000E966F000E976F000E986F5F
:103B18001BEC18F01200E4EC21F060C0A9F061C0C1
:103B2800AAF0CFEC1AF0D8EC21F060C0A9F061C07F
:103B3800AAF0A3EC1BF0000E00018A6F010E8B6F38
:103B4800BA0E8C6F3A0E8D6F0B0E8E6F030E906F40
:103B5800E80E8F6F000E916F000E926F000E936F3C
:103B6800000E946F000E956F000E966F000E976F03
:103B7800000E986F1BEC18F0120060009BF1D9FF43
:103B880060009FF1DAFF000EDF6E000120EE05F005
:103B98006651D9266751DA22000EDE6E000EDD6E00
:103BA80020EE03F06651D9266751DA22000EDE6E48
:103BB800000EDD6E20EE07F06651D9266751DA2235
:103BC800070EDE6AE806FDE220EE01F06651D9260E
:103BD8006751DA22000EDE6E000EDD6E1200600004
:103BE8008BF1D9FF60008FF1DAFF000EDF6E000164
:103BF80020EE01F06251D9266351DA22600093F178
:103C0800DEFF600097F1DDFF20EE03F06251D92658
:103C18006351DA22000EDF6E20EE06F06251D926DB
:103C28006351DA22000EDE6E000EDD6E20EE04F027
:103C38006251D9266351DA22000EDE6E000EDD6E67
:103C48001200600007F0D9FF60000BF0DAFF000EE9
:103C5800DF6E20EE05F00150D9260250DA22000E60
:103C6800DE6E000EDD6E20EE03F00150D926025004
:103C7800DA22000EDE6E000EDD6E20EE07F0015037
:103C8800D9260250DA22070EDE6AE806FDE220EEA7
:103C980001F00150D9260250DA22000EDE6E000E25
:103CA800DD6E1200000120EE07F06051D926615147
:103CB800DA226F0078FF68F06F0078FF69F06F0014
:103CC80078FF6AF06F0078FF6BF06F0078FF6CF098
:103CD8006F0078FF6DF06F0078FF6EF06F0078FF6F
:103CE8006FF068C060F069C061F06AC062F06BC0D4
:103CF80063F06CC064F06DC065F06EC066F06FC0B4
:103D080067F01200000EBA6E000EBB6E000EBC6E9D
:103D1800C268F80EC36EDF0EC46EA70E3A01606F5C
:103D2800F40E506F4069000E816F000E516F800EC7
:103D3800416F000E616F000E426F000E526F000E51
:103D4800626F436953696369446954696469080E19
:103D5800846F330E0A6F0B0EED6F130E156F160E70
:103D6800E76F1200CCEC21F060C07AF061C07BF004
:103D78009BEC0DF07AC090F07BC091F07CC092F083
:103D88007DC093F0010E0001946F120E956F050E21
:103D9800966F000E976F000E986F040E996F90C083
:103DA8009DF0000E9C6F000E9B6F000E9A6F000E28
:103DB800A26F940E726F000E736FC3EC06F01200C0
:103DC8006F00E8FF2FF06F00ECFF30F0390195AD80
:103DD800F0EF1EF0F2EF1EF0FBEF1EF0A5ADF7EFCF
:103DE8001EF0F9EF1EF0FBEF1EF00BEF1FF093AF84
:103DF80000EF1FF002EF1FF00BEF1FF0A3AF07EF6C
:103E08001FF009EF1FF00BEF1FF037EC20F06000F8
:103E1800C3F0FBFF6000BFF0FAFF1100C6EC21F011
:103E280060C062F061C063F0010E0001646F7EEC57
:103E380020F00009D8B423EF1FF025EF1FF03AEF68
:103E48001FF01F0E00017E6F050E7F6F000E806F42
:103E5800000E816F020E826FAA0E836FBB0E846FF5
:103E68007D0E726F000E736FC3EC06F01200000E29
:103E7800D2BE010E0001636F6151030B3901E16F7E
:103E8800600083F1E0F960008BF1E3F93F0EE5177C
:103E9800E585D29E550EE66FAA0EE66FE583E5B37B
:103EA80058EF1FF05AEF1FF053EF1FF0E595000190
:103EB80063B102D0D29E01D0D28E120000016805F3
:103EC800D8A469EF1FF06BEF1FF085EF1FF0695161
:103ED800D8B471EF1FF073EF1FF07DEF1FF0D2EC35
:103EE80021F060C062F061C063F029EC1CF085EF3E
:103EF8001FF0D2EC21F060C062F061C063F06BEC9F
:103F08001CF0120060008BF1D9FF60008FF1DAFF1E
:103F18000A0EDF6E000120EE01F06251D9266351CE
:103F2800DA221E0EDF6E20EE02F06251D9266351AE
:103F3800DA22010EDF6E20EE10F06251D9266351AD
:103F4800DA22000EDF6E1200000120EE07F0605149
:103F5800D9266151DA2260008BF1DEFF60008FF113
:103F6800DEFF600093F1DEFF600097F1DEFF600086
:103F78009BF1DEFF60009FF1DEFF6000A3F1DEFF32
:103F88006000A7F1DEFF1200046E035090EC21F0F0
:103F98000450110DE90EF324D96E010EF420DA6EE7
:103FA800000EDE6E000EDD6E0450110DEB0EF324D4
:103FB800016E010EF420026E25EC1EF0035085EC14
:103FC80021F0120000EEE9F110EE3EF1EE6AE55044
:103FD800E150FCE1E250FAE100EE00F1E90EEE6A90
:103FE800E806FDE10001D56B080ED56E000ED66E11
:103FF800000ED76E000EF86E000150EF20F0050E8F
:10400800000166610AEF20F00CEF20F01CEF20F0B1
:1040180066516425D96E000E6521DA6E60009FF145
:10402800DFFF66C060F0616B67C062F03BEC1FF0B9
:104038001200000120EE06F06251D9266351DA22FF
:10404800600093F1DEFF600097F1DDFF20EE04F0E1
:104058006251D9266351DA2260009BF1DEFF6000CD
:104068009FF1DDFF12003901A39F31503210D8B4FF
:1040780040EF20F042EF20F04FEF20F002D84FEF52
:1040880020F00500FA6E3150FD6E3250FE6EF85089
:10409800FF6EFA5012001200F0EC20F0D28E7FEC86
:1040A80016F084EC19F0A7EC20F08FEC1DF0DC0E74
:1040B8000001606F2D0E616FFFEC21F0EBEC1CF03E
:1040C80062EF20F00DEF00F00001605162036F0015
:1040D800CCFF64F06F00D0FF65F060516303F350CC
:1040E800652761516203F350652764C060F065C0BD
:1040F80061F01200000E0001656F050E646187EF24
:1041080020F089EF20F091EF20F064516225D96EFC
:10411800000E6321DA6EDF50656F65511200600092
:104128008BF1D9FF60008FF1DAFF600093F1DFFFB8
:10413800000120EE01F06251D9266351DA226000B5
:1041480097F1DFFF1200E4EC21F060C062F061C07B
:1041580063F0EAEC21F060C064F061C065F0C40E61
:104168000001666F3E0E676F1DEC20F01200460ED0
:10417800B96EF90EB76E000EB66E3901A39F938F14
:10418800160E0001606F440E616FFFEC21F0890E7E
:10419800B86E1200000E3901C06F000EC16F000E1C
:1041A800C26F000EC36F000EC46F000EC56F000E05
:1041B800C66F000EC76F120000016151030B390171
:1041C800E16F600083F1E0F93F0EE517E58100F04B
:1041D80000F03901E351120004EC22F0CEEC20F09B
:1041E80086EC1EF079EC21F0BBEC20F025EC1DF0FC
:1041F80093EC0BF012000001606F3901A3A907EFDF
:1042080021F009EF21F001EF21F0600083F1EAFDD0
:104218001200000120EE05F06051D9266151DA2222
:1042280060008BF1DEFF60008FF1DDFF12000001FE
:1042380020EE05F06051D9266151DA226F0078FF2F
:1042480060F06F0074FF61F01200000120EE03F0CF
:104258006051D9266151DA2260008BF1DEFF6000DF
:104268008FF1DDFF1200000120EE01F06051D92628
:104278006151DA2260008BF1DEFF60008FF1DDFF13
:1042880012000001606F00016051D8A44EEF21F0C8
:1042980050EF21F051EF21F0D28E12000001606F33
:1042A80000016051D8A45BEF21F05DEF21F05EEFD3
:1042B80021F0D29E120020EE05F00150D9260250BE
:1042C800DA2260000FF0DEFF600013F0DDFF12005D
:1042D80020EE05F00150D9260250DA226F0078FF4F
:1042E80001F06F0074FF02F01200600E3901D96FFF
:1042F800000EDB6F000EDD6F080EDF6F000EDE6F45
:104308001200016E0150D8A48CEF21F08EEF21F03D
:104318008FEF21F0D28E1200016E0150D8A497EFD2
:1043280021F099EF21F09AEF21F0D29E120060005F
:1043380083F1D9FF600087F1DAFF60008BF1DFFFBE
:10434800120060008BF1D9FF60008FF1DAFF600086
:1043580093F1DFFF1200600083F1D9FF600087F15D
:10436800DAFFDF501200600083F1D9FF600087F1A7
:10437800DAFFDF50120066C062F067C063F06BECD2
:104388001CF012001C0E0001606F010E616F12001C
:10439800210E0001606F010E616F1200000E000116
:1043A800606F010E616F12000B0E0001606F010E4D
:1043B800616F1200010E0001606F010E616F120043
:1043C800030E0001606F010E616F12000B0E0001F9
:1043D800606F010E616F120060C0D1F061C0D2F051
:1043E800120060C0D3F061C0D4F0120060C0CFF0FA
:1043F80061C0D0F0120060C031F061C032F012002C
:10440800D29A1200120012001200120012001200BA
:020000040020DA
:10000000FF0FFF0FFF0FFF0FFF0FFF0FFF0FFF0F80
:020000040030CA
:0A0000008CFFF7FF9FFFFFFFFFFFDB
:00000001FF
