:040000000DEF00F010
:040008008FEF1BF06B
:10001800FF007BEF1CF0000120EE03F0B151D92660
:10002800B251DA226F0078FFBEF06F0074FFBFF0A4
:10003800000EBD6F6000FBF2D9FF6000FFF2DAFF2F
:10004800DF50BB6F20EE01F0BE51D926BF51DA2236
:10005800DF50BC6F7BEF00F0B1C060F0B2C061F060
:1000680086EC1EF02F0AD8A43CEF00F03EEF00F01B
:100078009AEF00F0000120EE01F0BE51D926BF51E1
:10008800DA221F0EDF6E9AEF00F0B1C060F0B2C046
:1000980061F086EC1EF0300AD8A455EF00F057EF57
:1000A80000F09AEF00F0000120EE01F0BE51D926D1
:1000B800BF51DA22200EDF6E9AEF00F0B1C060F077
:1000C800B2C061F086EC1EF0310AD8A46EEF00F0E1
:1000D80070EF00F09AEF00F0000120EE01F0BE5141
:1000E800D926BF51DA221F0EDF6E9AEF00F020EEFC
:1000F80001F0BE51D926BF51DA22DF50B36FB46B7D
:10010800B451000AD8B48BEF00F09AEF00F0B35165
:100118001E0AD8B430EF00F0010AD8B449EF00F055
:100128003F0AD8B462EF00F09AEF00F0000120EE29
:1001380001F0BE51D926BF51DA22BC51DE18D8B41D
:10014800A8EF00F0AAEF00F018EF01F0010EBD6F64
:10015800F9EF00F0BEC08AF0BFC08BF01E0E8C6FA6
:10016800000E8D6F300E8E6F000E906F320E8F6FF7
:10017800000E916F000E926F000E936F000E946F39
:10018800000E956F000E966F000E976F000E986F19
:1001980051EC15F018EF01F0BEC07BF0BFC07CF049
:1001A800BDEC1BF0BEC08AF0BFC08BF01E0E000174
:1001B8008C6F000E8D6F310E8E6F000E906F320EA9
:1001C8008F6F000E916F000E926F000E936F000EEE
:1001D800946F000E956F000E966F000E976F000ECD
:1001E800986F51EC15F018EF01F020EE01F0BE51B8
:1001F800D926BF51DA22DF50B36FB46BB451000A6D
:10020800D8B409EF01F018EF01F0B3511E0AD8B4C1
:1002180018EF01F0010AD8B4AEEF00F03F0AD8B4E5
:10022800D0EF00F018EF01F00001BD51D8A41FEF86
:1002380001F021EF01F077EF04F091EF02F0B1C087
:1002480060F0B2C061F086EC1EF0280AD8A42FEF47
:1002580001F031EF01F0C4EF02F06000FBF2D9FFCA
:100268006000FFF2DAFF0C0EDF6EC4EF02F0B1C0DF
:1002780060F0B2C061F086EC1EF0290AD8A447EFFE
:1002880001F049EF01F0C4EF02F06000FBF2D9FF82
:100298006000FFF2DAFF0D0EDF6EC4EF02F0B1C0AE
:1002A80060F0B2C061F086EC1EF02A0AD8A45FEFB5
:1002B80001F061EF01F0E9EF01F08BEF01F0600070
:1002C800FBF2D9FF6000FFF2DAFF0B0EDF6EC4EF1E
:1002D80002F06000FBF2D9FF6000FFF2DAFF0E0EB9
:1002E800DF6EC4EF02F06000FBF2D9FF6000FFF29E
:1002F800DAFF100EDF6EC4EF02F06000FBF2D9FFE8
:100308006000FFF2DAFF0C0EDF6EC4EF02F0B1C03E
:1003180060F0B2C061F02FEC1BF060C0B3F061C0B8
:10032800B4F062C0B5F063C0B6F064C0B7F065C0A1
:10033800B8F066C0B9F067C0BAF00001BA51000A57
:10034800D8B4E2EF01F081EF01F0B651000AD8B459
:10035800CDEF01F081EF01F0B451000AD8B4BBEF42
:1003680001F0010AD8B4C2EF01F081EF01F0B351F6
:10037800520AD8B477EF01F081EF01F0B351500A77
:10038800D8B463EF01F0010AD8B46DEF01F081EF42
:1003980001F0B551000AD8B4B0EF01F081EF01F0D7
:1003A800B851000AD8B4DBEF01F081EF01F0B75182
:1003B800000AD8B4A9EF01F081EF01F0B951000AA1
:1003C800D8B4D4EF01F081EF01F0B1C060F0B2C051
:1003D80061F086EC1EF02C0AD8A4F5EF01F0F7EFD7
:1003E80001F0C4EF02F06000FBF2D9FF6000FFF2F9
:1003F800DAFF0C0EDF6EC4EF02F0B1C060F0B2C0DD
:1004080061F086EC1EF02D0AD8A40DEF02F00FEF74
:1004180002F019EF02F06000FBF2D9FF6000FFF272
:10042800DAFF0F0EDF6EC4EF02F0B1C060F0B2C0A9
:1004380061F086EC1EF02C0AD8A425EF02F027EF15
:1004480002F0C4EF02F06000FBF2D9FF6000FFF297
:10045800DAFF0C0EDF6EC4EF02F0B1C060F0B2C07C
:1004680061F086EC1EF02C0AD8A43DEF02F03FEFB5
:1004780002F0C4EF02F06000FBF2D9FF6000FFF267
:10048800DAFF0C0EDF6EC4EF02F0B1C060F0B2C04C
:1004980061F086EC1EF02C0AD8A455EF02F057EF55
:1004A80002F0C4EF02F06000FBF2D9FF6000FFF237
:1004B800DAFF0C0EDF6EC4EF02F0B1C060F0B2C01C
:1004C80061F086EC1EF02C0AD8A46DEF02F06FEFF5
:1004D80002F0C4EF02F06000FBF2D9FF6000FFF207
:1004E800DAFF0C0EDF6EC4EF02F0B1C060F0B2C0EC
:1004F80061F086EC1EF02C0AD8A485EF02F087EF95
:1005080002F0C4EF02F06000FBF2D9FF6000FFF2D6
:10051800DAFF0C0EDF6EC4EF02F06000FBF2D9FFC9
:100528006000FFF2DAFFDF50B36FB46BB451000A1A
:10053800D8B4A1EF02F0C4EF02F0B3510A0AD8B45C
:1005480023EF01F0010AD8B449EF02F0070AD8B442
:100558003BEF01F0010AD8B453EF01F0030AD8B415
:1005680001EF02F0010AD8B431EF02F01F0AD8B443
:1005780061EF02F0010AD8B479EF02F0C4EF02F09B
:100588006000FBF2D9FF6000FFF2DAFF0001BB5107
:10059800DE18D8B4D2EF02F0D4EF02F077EF04F00F
:1005A80044EF04F0BEC08AF0BFC08BF01E0E8C6F03
:1005B800000E8D6F290E8E6F000E906F320E8F6FAA
:1005C800000E916F000E926F000E936F000E946FE5
:1005D800000E956F000E966F000E976F000E986FC5
:1005E80051EC15F077EF04F0BEC0A9F0BFC0AAF037
:1005F800020EBE25AB6F000EBF21AC6F44EC0CF0B1
:1006080077EF04F020EE10F0BE51D926BF51DA2260
:10061800DE04D8A412EF03F014EF03F036EF03F072
:10062800BEC08AF0BFC08BF01E0E8C6F000E8D6F9F
:100638002D0E8E6F000E906F000E8F6F000E916F53
:10064800000E926F000E936F000E946F000E956F60
:10065800000E966F000E976F000E986F51EC15F014
:1006680077EF04F0BEC07FF0BFC080F0020EBE2559
:10067800816F000EBF21826FB8EC0FF0BEC08AF008
:10068800BFC08BF01E0E00018C6F000E8D6F2C0EFC
:100698008E6F000E906F000E8F6F000E916F000E20
:1006A800926F000E936F000E946F000E956F000E00
:1006B800966F000E976F000E986F51EC15F077EF5C
:1006C80004F0BEC083F0BFC084F0E6EC1BF0BEC0EF
:1006D8008AF0BFC08BF01E0E00018C6F000E8D6F6C
:1006E8002C0E8E6F000E906F000E8F6F000E916FA4
:1006F800000E926F000E936F000E946F000E956FB0
:10070800000E966F000E976F000E986F51EC15F063
:1007180077EF04F0BEC08CF0BFC08DF0020EBE258E
:100728008E6F000EBF218F6F66EC0BF0BEC08AF093
:10073800BFC08BF01E0E00018C6F000E8D6F2C0E4B
:100748008E6F000E906F000E8F6F000E916F000E6F
:10075800926F000E936F000E946F000E956F000E4F
:10076800966F000E976F000E986F51EC15F0000110
:1007780020EE10F0BE51D926BF51DA22DE04D8A4EB
:10078800C8EF03F0CAEF03F0ECEF03F0BEC08AF045
:10079800BFC08BF01E0E8C6F000E8D6F2E0E8E6FED
:1007A800000E906F000E8F6F000E916F000E926F0B
:1007B800000E936F000E946F000E956F000E966FEB
:1007C800000E976F000E986F51EC15F077EF04F05C
:1007D800BEC068F0BFC069F0020EBE256A6F000E89
:1007E800BF216B6F5BEC17F0BEC08AF0BFC08BF007
:1007F8001E0E00018C6F000E8D6F2C0E8E6F000E7A
:10080800906F000E8F6F000E916F000E926F000EAA
:10081800936F000E946F000E956F000E966F000E8A
:10082800976F000E986F51EC15F077EF04F0BEC08B
:1008380066F0BFC067F038EC18F0BEC08AF0BFC0E1
:100848008BF01E0E00018C6F000E8D6F2C0E8E6FBC
:10085800000E906F000E8F6F000E916F000E926F5A
:10086800000E936F000E946F000E956F000E966F3A
:10087800000E976F000E986F51EC15F077EF04F0AB
:100888006000FBF2D9FF6000FFF2DAFFDF50B36FC0
:10089800B46BB451000AD8B454EF04F077EF04F005
:1008A800B3510A0AD8B477EF04F0010AD8B48EEF2E
:1008B80003F0070AD8B4D6EF02F0010AD8B4F8EF6B
:1008C80002F0030AD8B406EF03F0010AD8B465EFC2
:1008D80003F01F0AD8B4BBEF03F0010AD8B41BEF2A
:1008E80004F077EF04F01200000120EE03F0B1519C
:1008F800D926B251DA226F0078FFB6F06F0074FF84
:10090800B7F06000DBF2D9FF6000DFF2DAFFDF50FA
:10091800B56F28EF05F0B1C060F0B2C061F086ECA9
:100928001EF00A0AD8A49BEF04F09DEF04F04FEFE5
:1009380005F06000DBF2D9FF6000DFF2DAFF010E9C
:10094800DF6E4FEF05F0B1C060F0B2C061F086EC29
:100958001EF00C0AD8A4B3EF04F0B5EF04F04FEF83
:1009680005F06000DBF2D9FF6000DFF2DAFF020E6B
:10097800DF6E4FEF05F0B1C060F0B2C061F086ECF9
:100988001EF00B0AD8A4CBEF04F0CDEF04F04FEF24
:1009980005F0000120EE01F0B651D926B751DA2250
:1009A8006F0078FF60F06F0074FF61F090EC14F056
:1009B800E806D8A4E2EF04F0E4EF04F0EEEF04F068
:1009C8006000DBF2D9FF6000DFF2DAFF030EDF6EB2
:1009D8004FEF05F06000DBF2D9FF6000DFF2DAFFCD
:1009E800040EDF6E4FEF05F0B1C060F0B2C061F0E9
:1009F80086EC1EF00B0AD8A404EF05F006EF05F00C
:100A08004FEF05F06000DBF2D9FF6000DFF2DAFF9C
:100A1800010EDF6E4FEF05F0B1C060F0B2C061F0BB
:100A280086EC1EF00B0AD8A41CEF05F01EEF05F0AB
:100A38004FEF05F06000DBF2D9FF6000DFF2DAFF6C
:100A4800010EDF6E4FEF05F06000DBF2D9FF6000AA
:100A5800DFF2DAFFDF50B36FB46BB451000AD8B4D9
:100A680038EF05F04FEF05F0B351000AD8B48FEF17
:100A780004F0010AD8B4A7EF04F0030AD8B4BFEF12
:100A880004F0010AD8B4F8EF04F0070AD8B410EF5C
:100A980005F04FEF05F06000DBF2D9FF6000DFF2F0
:100AA800DAFF0001B551DE18D8B45DEF05F05FEF4D
:100AB80005F0C2EF06F09BEF06F0B6C08AF0B7C0AB
:100AC8008BF0F00E8C6F080E8D6F0C0E8E6F000E73
:100AD800906F320E8F6F000E916F000E926F000EA6
:100AE800936F000E946F000E956F000E966F000EB8
:100AF800976F000E986F51EC15F0C2EF06F0B6C074
:100B08008AF0B7C08BF0F00E8C6F080E8D6F0B0E4D
:100B18008E6F000E906F000E8F6F000E916F000E9B
:100B2800926F000E936F000E946F000E956F000E7B
:100B3800966F000E976F000E986F51EC15F0C2EF8C
:100B480006F0B6C08AF0B7C08BF0F00E8C6F080EB6
:100B58008D6F0B0E8E6F000E906F000E8F6F000E54
:100B6800916F000E926F000E936F000E946F000E3F
:100B7800956F000E966F000E976F000E986F51ECF0
:100B880015F0000120EE03F0B651D926B751DA224C
:100B9800030EDE18D8B4D3EF05F0D5EF05F0C2EF99
:100BA80006F020EE04F0B651D926B751DA22DE500D
:100BB800DE10D8B4E2EF05F0E4EF05F0C2EF06F07E
:100BC80020EE06F0B651D926B751DA226F0078FF29
:100BD80066F06F0074FF67F020EE01F0B651D92679
:100BE800B751DA226F0078FF60F06F0074FF61F090
:100BF8008EEC1EF00001686F010E696F20EE04F0A4
:100C0800B651D926B751DA2202D815EF06F00500F9
:100C1800FA6EDE50FD6EDE50FE6EF850FF6EFA5032
:100C28001200000120EE03F0B651D926B751DA229E
:100C3800030EDF6EC2EF06F0B6C08AF0B7C08BF0C5
:100C4800F00E8C6F080E8D6F0B0E8E6F000E906F6E
:100C5800000E8F6F000E916F000E926F000E936F53
:100C6800000E946F000E956F000E966F000E976F32
:100C7800000E986F51EC15F0000120EE03F0B6510C
:100C8800D926B751DA22040EDE18D8B44EEF06F092
:100C980050EF06F0C2EF06F020EE04F0B651D92668
:100CA800B751DA22DE50DE10D8B45DEF06F05FEF00
:100CB80006F0C2EF06F020EE06F0B651D926B7517D
:100CC800DA226F0078FF66F06F0074FF67F020EE9D
:100CD80001F0B651D926B751DA226F0078FF60F0DB
:100CE8006F0074FF61F08EEC1EF00001686F000E5B
:100CF800696F20EE04F0B651D926B751DA2202D82E
:100D080090EF06F00500FA6EDE50FD6EDE50FE6EC6
:100D1800F850FF6EFA501200000120EE03F0B651B1
:100D2800D926B751DA22040EDF6EC2EF06F0600052
:100D3800DBF2D9FF6000DFF2DAFFDF50B36FB46B8C
:100D4800B451000AD8B4ABEF06F0C2EF06F0B351C5
:100D5800000AD8B4C2EF06F0010AD8B461EF05F072
:100D6800030AD8B483EF05F0010AD8B4A5EF05F05B
:100D7800070AD8B420EF06F0C2EF06F01200000E02
:100D88000001776F000E786F000E796F000E7A6F92
:100D98003701E0B7D2EF06F0D4EF06F07CEF07F0AA
:100DA800000120EE01F07251D9267351DA226F004A
:100DB80078FF60F06F0078FF61F06F0078FF62F0F5
:100DC8006F0078FF63F06000CBF1D9FF6000CFF1CE
:100DD800DAFFDF50646F770E656F000E666F780E6E
:100DE800676F000E686F790E696F000E6A6F7A0E72
:100DF8006B6F000E6C6F1BEC0DF06000DFF1E3F71A
:100E08006000E3F1E4F76000E7F1E1F76000EBF17F
:100E1800E2F7000120EE05F07251D9267351DA226B
:100E2800DF50746F20EE0EF07251D9267351DA221A
:100E3800DF50756F060E766FD8907537762F20EFD6
:100E480007F0755174113701E56F000120EE06F0C7
:100E58007251D9267351DA22DF503701E66F00014B
:100E680020EE07F07251D9267351DA22DF5037018C
:100E7800E76F000120EE08F07251D9267351DA228B
:100E8800DF503701E86F000120EE09F07251D926D2
:100E98007351DA22DF503701E96F000120EE0AF0C2
:100EA8007251D9267351DA22DF503701EA6F0001F7
:100EB80020EE0BF07251D9267351DA22DF50370138
:100EC800EB6F000120EE0CF07251D9267351DA2233
:100ED800DF503701EC6F000120EE0DF07251D9267A
:100EE8007351DA22DF503701ED6FE087DAEF08F04F
:100EF800D0B781EF07F083EF07F02BEF08F0000180
:100F080020EE01F07251D9267351DA226F0078FF72
:100F180060F06F0078FF61F06F0078FF62F06F009B
:100F280078FF63F06000CBF1D9FF6000CFF1DAFF02
:100F3800DF50646F770E656F000E666F780E676F0F
:100F4800000E686F790E696F000E6A6F7A0E6B6F0C
:100F5800000E6C6F1BEC0DF06000DFF1D3F7600042
:100F6800E3F1D4F76000E7F1D1F76000EBF1D2F7D5
:100F7800000120EE05F07251D9267351DA22DF50B4
:100F8800746F20EE0EF07251D9267351DA22DF50B9
:100F9800756F060E766FD8907537762FCFEF07F0FE
:100FA800755174113701D56F000120EE06F07251AA
:100FB800D9267351DA22DF503701D66F000120EEAF
:100FC80007F07251D9267351DA22DF503701D76FF3
:100FD800000120EE08F07251D9267351DA22DF5051
:100FE8003701D86F000120EE09F07251D9267351EC
:100FF800DA22DF503701D96F000120EE0AF0725172
:10100800D9267351DA22DF503701DA6F000120EE5A
:101018000BF07251D9267351DA22DF503701DB6F9A
:10102800000120EE0CF07251D9267351DA22DF50FC
:101038003701DC6F000120EE0DF07251D926735193
:10104800DA22DF503701DD6FD0877AEF07F0C0B7BB
:1010580030EF08F032EF08F0DAEF08F0000120EE88
:1010680001F07251D9267351DA226F0078FF60F0CF
:101078006F0078FF61F06F0078FF62F06F0078FF13
:1010880063F06000CBF1D9FF6000CFF1DAFFDF50E9
:10109800646F770E656F000E666F780E676F000ECF
:1010A800686F790E696F000E6A6F7A0E6B6F000EAB
:1010B8006C6F1BEC0DF06000DFF1C3F76000E3F12B
:1010C800C4F76000E7F1C1F76000EBF1C2F7000177
:1010D80020EE05F07251D9267351DA22DF50746F71
:1010E80020EE0EF07251D9267351DA22DF50756F57
:1010F800060E766FD8907537762F7EEF08F075510B
:1011080074113701C56F000120EE06F07251D9261F
:101118007351DA22DF503701C66F000120EE07F065
:101128007251D9267351DA22DF503701C76F000197
:1011380020EE08F07251D9267351DA22DF503701B8
:10114800C86F000120EE09F07251D9267351DA22D6
:10115800DF503701C96F000120EE0AF07251D9261D
:101168007351DA22DF503701CA6F000120EE0BF00D
:101178007251D9267351DA22DF503701CB6F000143
:1011880020EE0CF07251D9267351DA22DF50370164
:10119800CC6F000120EE0DF07251D9267351DA227E
:1011A800DF503701CD6FC0877AEF07F01200000ECD
:1011B8000001756F80AEE3EF08F0E5EF08F097EFF8
:1011C80009F082A6EAEF08F0ECEF08F015EF09F055
:1011D8006000CFF1D9FF6000D3F1DAFF020EDF6EB5
:1011E8006F0010FE60F06F0004FE61F06F0008FEF3
:1011F80062F08350E8EC0DF0000120EE01F073512D
:10120800D9267451DA22600083F1DEFF600087F18D
:10121800DEFF60008BF1DEFF60008FF1DEFF36EF4E
:1012280009F06000CFF1D9FF6000D3F1DAFF010EB9
:10123800DF6E6F0008FE60F0815086EC19F0000147
:1012480020EE01F07351D9267451DA22600083F13F
:10125800DEFF600087F1DEFF60008BF1DEFF6000DB
:101268008FF1DEFF20EE05F07351D9267451DA2292
:1012780085500F0BDF6E20EE0EF07351D926745196
:10128800DA228544E846030BDF6E20EE06F0735140
:10129800D9267451DA226F001BFEDFFF20EE07F01B
:1012A8007351D9267451DA226F001FFEDFFF20EE3A
:1012B80008F07351D9267451DA226F0023FEDFFF3C
:1012C80020EE09F07351D9267451DA226F0027FEF7
:1012D800DFFF20EE0AF07351D9267451DA226F002D
:1012E8002BFEDFFF20EE0BF07351D9267451DA2262
:1012F8006F002FFEDFFF20EE0CF07351D9267451DA
:10130800DA226F0033FEDFFF20EE0DF07351D9268D
:101318007451DA226F0037FEDFFF809E010E000154
:10132800756F53EF0AF03701F0AF9DEF09F09FEFAB
:1013380009F053EF0AF0F2A7A4EF09F0A6EF09F0BD
:10134800CFEF09F06000CFF1D9FF6000D3F1DAFFE9
:10135800020EDF6E6D00D0FF60F06D00C4FF61F01B
:101368006D00C8FF62F0F351E8EC0DF0000120EECB
:1013780001F07351D9267451DA22600083F1DEFF3F
:10138800600087F1DEFF60008BF1DEFF60008FF107
:10139800DEFFF0EF09F06000CFF1D9FF6000D3F174
:1013A800DAFF010EDF6E6D00C8FF60F0F15186ECC8
:1013B80019F0000120EE01F07351D9267451DA2298
:1013C800600083F1DEFF600087F1DEFF60008BF1D3
:1013D800DEFF60008FF1DEFF20EE05F07351D926A5
:1013E8007451DA223701F5510F0BDF6E000120EE40
:1013F8000EF07351D9267451DA223701F545E846C3
:10140800030BDF6E000120EE06F07351D9267451EC
:10141800DA226D00DBFFDFFF20EE07F07351D926DB
:101428007451DA226D00DFFFDFFF20EE08F0735100
:10143800D9267451DA226D00E3FFDFFF20EE09F0B0
:101448007351D9267451DA226D00E7FFDFFF20EED1
:101458000AF07351D9267451DA226D00EBFFDFFFD1
:1014680020EE0BF07351D9267451DA226D00EFFF8C
:10147800DFFF20EE0CF07351D9267451DA226D008B
:10148800F3FFDFFF20EE0DF07351D9267451DA22F5
:101498006D00F7FFDFFF3701F09F92EF09F00001C1
:1014A80075511200800E8F6E8E50E00B800AD8A402
:1014B80060EF0AF062EF0AF058EF0AF0000E916E42
:1014C800000E3701006FF00E0001606F000E616FB3
:1014D800000E626F000E636F010E646FBA0E656FC7
:1014E800370E666FBB0E676F370E686FB80E696F81
:1014F800370E6A6FB90E6B6F370E6C6F1BEC0DF001
:10150800000E0001606F000E616F000E626F000E2A
:10151800636F010E646FA20E656F370E666FA30EC0
:10152800676F370E686FA00E696F370E6A6FA10E6E
:101538006B6F370E6C6F1BEC0DF0050E0001606FC2
:10154800000E616F000E626F000E636F010E646F14
:10155800A60E656F370E666FA70E676F370E686F3A
:10156800A40E696F370E6A6FA50E6B6F370E6C6F1E
:101578001BEC0DF0F00E0001606F000E616F000EA5
:10158800626F000E636F010E646FBE0E656F370EDB
:10159800666FBF0E676F370E686FBC0E696F370EC8
:1015A8006A6FBD0E6B6F370E6C6F1BEC0DF0050E7E
:1015B8000001606F000E616F000E626F000E636FB6
:1015C800010E646FAA0E656F370E666FAB0E676FFC
:1015D800370E686FA80E696F370E6A6FA90E6B6FAA
:1015E800370E6C6F1BEC0DF0050E0001606F000EDE
:1015F800616F000E626F000E636F010E646FAE0EB6
:10160800656F370E666FAF0E676F370E686FAC0E7B
:10161800696F370E6A6FAD0E6B6F370E6C6F1BEC10
:101628000DF0050E0001606F000E616F000E626F15
:10163800000E636F010E646FB20E656F370E666F32
:10164800B30E676F370E686FB00E696F370E6A6F2B
:10165800B10E6B6F370E6C6F1BEC0DF0050E0001B1
:10166800606F000E616F000E626F000E636F010EF7
:10167800646FB60E656F370E666FB70E676F370EFD
:10168800686FB40E696F370E6A6FB50E6B6F370EE1
:101698006C6F1BEC0DF00F0E3701036F980E046F83
:1016A800810E056F000E8F6E6F0038FE72F0E00E2F
:1016B80000017217D8A463EF0BF065EF0BF058EF39
:1016C8000BF01200010E0001926F100E936F050EC1
:1016D800946F000E956F000E966F020E976F630E53
:1016E800986F630E996F20EE06F08E51D9268F51B0
:1016F800DA22DF50D8B483EF0BF085EF0BF0A0EFC0
:101708000BF0000E746F000E736F63EC13F0000E95
:101718000001746F060E736F63EC13F0000E000186
:10172800746F070E736F63EC13F0000E0001746F93
:101738000F0E736F63EC13F0000120EE07F08E516B
:10174800D9268F51DA22DF50D8B4ADEF0BF0AFEFC6
:101758000BF0E8EF0BF0060ECAEC13F0010E0001D7
:10176800986F010E996F920E726F000E736FC3EC33
:1017780006F0000E0001746F040E736F63EC13F033
:10178800CFEF0BF0D00E0001906FC90EE82EFED7F8
:10179800902FFCD700D039EC11F0070E0001741916
:1017A8007311D8A4DAEF0BF0DCEF0BF0C6EF0BF0F7
:1017B800020E986F000E996F920E726F000E736F83
:1017C800C3EC06F0EEEF0BF0000E986F020E996F67
:1017D800E0EF0BF0000120EE08F08E51D9268F5172
:1017E800DA22DF50D8B4FBEF0BF0FDEF0BF01FEF60
:1017F8000CF0900E736F530E746F030E756F000E1E
:10180800766FFAEC12F012EF0CF0D00E0001906F28
:10181800C90EE82EFED7902FFCD700D039EC11F076
:10182800020E000174197311D8A41DEF0CF01FEFFC
:101838000CF009EF0CF020EE09F08E51D9268F51EB
:10184800DA22DF50916F9DEC1EF060C064F061C039
:1018580065F0010E0001666F91C067F0DAEC1CF0CC
:1018680000019151D8B43BEF0CF03DEF0CF043EF81
:101878000CF08CC07BF08DC07CF0BDEC1BF012002E
:10188800ABC073F0ACC074F0DBEC08F00009D8B45E
:1018980050EF0CF052EF0CF01AEF0DF0DCEF0CF0FB
:1018A800A9C08AF0AAC08BF01E0E8C6F000E8D6F37
:1018B8002A0E8E6F000E906F000E8F6F500E916F74
:1018C800010E926F000E936F000E946F000E956FCD
:1018D800000E966F000E976F000E986F51EC15F082
:1018E8001AEF0DF0A9C08AF0AAC08BF01E0E8C6FFB
:1018F800000E8D6F2A0E8E6F000E906F000E8F6F88
:10190800510E916F010E926F000E936F000E946F3F
:10191800000E956F000E966F000E976F000E986F71
:1019280051EC15F01AEF0DF0A9C08AF0AAC08BF09F
:101938001E0E8C6F000E8D6F2A0E8E6F000E906F2C
:10194800000E8F6F520E916F000E926F000E936F04
:10195800000E946F000E956F000E966F000E976F35
:10196800000E986F51EC15F01AEF0DF0A9C08AF02F
:10197800AAC08BF01E0E8C6F000E8D6F2C0E8E6F12
:10198800000E906F000E8F6F000E916F000E926F19
:10199800000E936F000E946F000E956F000E966FF9
:1019A800000E976F000E986F51EC15F01AEF0DF0BE
:1019B800000120EE01F0AB51D926AC51DA226F00BC
:1019C80078FFADF06F0078FFAEF06F0078FFAFF0F2
:1019D8006F0078FFB0F0B051000AD8B413EF0DF0E3
:1019E800BAEF0CF0AE51000AD8B401EF0DF0010ABD
:1019F800D8B408EF0DF0BAEF0CF0AD51520AD8B4D4
:101A080098EF0CF0BAEF0CF0AD51500AD8B454EF7F
:101A18000CF0010AD8B476EF0CF0BAEF0CF0AF5125
:101A2800000AD8B4F6EF0CF0BAEF0CF01200020E70
:101A380000016419D8A423EF0DF025EF0DF0B3EFE2
:101A48000DF060009FF1D9FF6000A3F1DAFF60009C
:101A580083F1DFFF60C06DF061C06EF062C06FF0AF
:101A680063C070F06EC06DF06FC06EF070C06FF044
:101A7800706B6DC060F06EC061F06FC062F070C0D6
:101A880063F0600097F1D9FF60009BF1DAFF600016
:101A980083F1DFFF60C06DF061C06EF062C06FF06F
:101AA80063C070F06EC06DF06FC06EF070C06FF004
:101AB800706B6DC060F06EC061F06FC062F070C096
:101AC80063F06051030B716F60C06DF061C06EF020
:101AD80062C06FF063C070F0030ED8906D376E3738
:101AE8006F377037E82E71EF0DF06DC060F06EC083
:101AF80061F06FC062F070C063F06051E00B712557
:101B0800716F7151080F716F7151EB0B6000AFF17C
:101B1800D9FF6000B3F1DAFFDF6E60C06DF061C01D
:101B28006EF062C06FF063C070F06EC06DF06FC091
:101B38006EF070C06FF0706B6DC060F06EC061F0D9
:101B48006FC062F070C063F06000A7F1D9FF600059
:101B5800ABF1DAFF600083F1DFFFE7EF0DF0600023
:101B680097F1D9FF60009BF1DAFF000EDF6E60008D
:101B78009FF1D9FF6000A3F1DAFF000EDF6E60C0AD
:101B88006DF061C06EF062C06FF063C070F0050E5A
:101B9800D8906D376E376F377037E82ECCEF0DF071
:101BA8006DC060F06EC061F06FC062F070C063F02D
:101BB8006000AFF1D9FF6000B3F1DAFF600083F194
:101BC800DFFF91EF0DF012000001686F000E0001B9
:101BD8006F6F000E706F000E716F000E726F6251A2
:101BE800030B6D6F6239E842070B6E6F6151646FCA
:101BF800656BD89064376537D89064376537D89067
:101C08006437653764C06FF065C070F0000E70BF50
:101C1800FF0E716F726F6E516F256F6F000E70211E
:101C2800706F000E7121716F000E7221726F6FC09C
:101C380064F070C065F071C066F072C067F0020EA3
:101C4800D8906437653766376737E82E24EF0EF08B
:101C580064C06FF065C070F066C071F067C072F064
:101C68006D516F256F6F000E7021706F000E71211E
:101C7800716F000E7221726F6FC065F070C066F0F0
:101C880071C067F0646B64C06FF065C070F066C0C7
:101C980071F067C072F068516F256F6F000E702188
:101CA800706F000E7121716F000E7221726F6FC01C
:101CB80065F070C066F071C067F0646B64C06FF067
:101CC80065C070F066C071F067C072F060516F2532
:101CD8006F6F000E7021706F000E7121716F000E12
:101CE8007221726F6FC069F070C06AF071C06BF0DA
:101CF80072C06CF069C060F06AC061F06BC062F0DD
:101D08006CC063F01200000E0001616F000E606F7E
:101D1800B7EC1DF0A50AD8B494EF0EF096EF0EF0CC
:101D2800CCEF0EF0000E0001616F000E606FA50E83
:101D3800626F0EEC1CF0000E0001616F010E606F07
:101D48000A0E626F0EEC1CF0000E0001616F020EAD
:101D5800606F050E626F0EEC1CF0000E0001616FE3
:101D6800030E606F050E626F0EEC1CF0000E000192
:101D7800616F040E606F050E626F0EEC1CF0000EB2
:101D88000001616F050E606F050E626F0EEC1CF0AE
:101D9800000E0001616F000E606FB7EC1DF060006F
:101DA80093F1D9FF600097F1DAFFDF6E000120EEB2
:101DB80001F06451D9266551DA22000E616F010ED7
:101DC800606FB7EC1DF0DF6E000120EE02F0645189
:101DD800D9266551DA22000E616F020E606FB7ECEA
:101DE8001DF0DF6E000120EE03F06451D926655125
:101DF800DA22000E616F030E606FB7EC1DF0DF6E24
:101E0800000120EE04F06451D9266551DA22000E53
:101E1800616F040E606FB7EC1DF0DF6E000120EEFD
:101E280005F06451D9266551DA22000E616F050E5E
:101E3800606FB7EC1DF0DF6E12000001726F0001D9
:101E48007251020D960EF324D96E010EF420DA6E4B
:101E5800000EDE6E000EDD6E960E606F010E616F75
:101E6800010E7225626F636B000E6323F1EC14F0B0
:101E780000017251020D960EF324D96E010EF42062
:101E8800DA6E600083F1DEFF600087F1DDFF7251DA
:101E9800020D960EF324D96E010EF420DA6E7251FB
:101EA8006E6F6F6BD8906E376F37640E6E25E16E6C
:101EB800010E6F21E26E6F007FFFE7FF7251020D86
:101EC800650EF324D96E010EF420DA6E7251020DFC
:101ED800960EF324E16E010EF420E26E6F0098FF77
:101EE8006EF06F0094FF6FF06FC06EF06F6B6E5105
:101EF800DF6E01016451D6EC1DF0BAEC16F04F0A02
:101F0800D8B489EF0FF08BEF0FF08DEF0FF0B7EF2C
:101F18000FF0010E0001716F9DEF0FF0640E712537
:101F2800D96EDA6A010EDA22DF50D6EC1DF0000114
:101F3800712B71516E6F6F6B7251020D010EF3268A
:101F4800000EF4226E51F35CF450800A706F6F51EA
:101F5800800A7059D8B0B3EF0FF0B5EF0FF092EFD9
:101F68000FF0BAEC16F01200000120EE08F08151D3
:101F7800D9268251DA22DF50836F83C084F0856BC3
:101F8800866B876B86C087F085C086F084C085F035
:101F9800846B20EE07F08151D9268251DA22DF5076
:101FA800886F88C089F08A6B8B6B8C6B8AC08CF0C9
:101FB80089C08BF08A6B896B20EE06F08151D92697
:101FC8008251DA22DF508D6F8DC08EF08F6B906B4F
:101FD800916B8EC091F0906B8F6B8E6B89518E25B3
:101FE800926F8A518F21936F8B519021946F8C51EE
:101FF8009121956F84519225966F85519321976F02
:1020080086519421986F87519521996F20EE09F098
:102018008151D9268251DA22DF509A6F9A5196253A
:102028009B6F000E97219C6F000E98219D6F000EEC
:1020380099219E6F9BC073F09CC074F09DC075F091
:102048009EC076F0FAEC12F033EF10F0D00E0001DB
:10205800836FC90EE82EFED7832FFCD700D039EC4A
:1020680011F0020E000174197311D8A43EEF10F09C
:1020780040EF10F02AEF10F01200740E0001606FAC
:10208800000E616FF2EC1DF060C087F061C088F04F
:10209800000187518811D8B454EF10F056EF10F0B2
:1020A8007BEF10F0740E606F000E616F000E636FAF
:1020B800000E626FE4EC1DF087C061F088C062F02A
:1020C80020EE74F000EE63F00E0E6F006FFFEBFF72
:1020D800E806FBE283C072F0F2EC17F0600013F23E
:1020E800D9FF600017F2DAFFDF6EBDEF10F0835101
:1020F80029EC1EF0600010FC86F0010E0001862518
:10210800606F616B000E6123000E636F0C0E626FCF
:1021180009EC16F000016051896F20EE05F3895132
:10212800DE18D8A49AEF10F09CEF10F0A2EF10F090
:1021380083511CEC1EF0000EBEEF10F020EE74F080
:10214800600010FC86F086510F0D500EF324E16EEE
:10215800020EF420E26E0E0E6F006FFFE3FFE8063A
:10216800FBE220EE04F3600027F2DFFF83511CEC52
:102178001EF0010E1200150E016E000E026E43ECE9
:102188001EF001C028F002C029F028502910D8B448
:10219800D0EF10F0D2EF10F0F7EF10F0150E016E3F
:1021A800000E026E000E046E000E036E36EC1EF07A
:1021B80028C002F029C003F020EE15F000EE04F06C
:1021C8000E0E6F006FFFEBFFE806FBE224C013F072
:1021D800BFEC18F0600097F0D9FF60009BF0DAFFC1
:1021E800DF6E37EF11F0245067EC1EF0600010FC32
:1021F80027F0010E2724016E026A000E0222000E4B
:10220800046E0C0E036E62EC16F001502A6E20EE7E
:1022180005F32A50DE18D8A414EF11F016EF11F0C8
:102228001CEF11F024505CEC1EF0000E38EF11F09A
:1022380020EE15F0600010FC27F027500F0D500E0F
:10224800F324E16E020EF420E26E0E0E6F006FFFB3
:10225800E3FFE806FBE220EE04F36000ABF0DFFFEB
:1022680024505CEC1EF0010E1200100E0101646F88
:10227800010E656F410E666F600E676F000E686F26
:10228800010E696F6551020F00017B6F01016551F5
:1022980064C175F00001766B75C076F0756B7511C9
:1022A8000101966F000176510101976F010E00013F
:1022B8007C6F8DEF11F07C51020D650EF324D96E01
:1022C800010EF420DA6EDF50756F7551776F766BFB
:1022D8007C51786F796BD89078377937640E782588
:1022E800D96E010E7921DA6EDF507A6F7A51761342
:1022F800000E77137C51020D960EF324D96E010E51
:10230800F420DA6E6000DBF1DEFF6000DFF1DDFF54
:102318007C2B7B517C5DD8A094EF11F096EF11F0E7
:102328005FEF11F07B5121EC0FF02FEC14F001015D
:1023380039510001766F756B010138510001776FD3
:10234800786B75517711736F76517811746F12002D
:10235800100E0101646F010E656F640E666F600EEA
:10236800676F000E686F010E696F6551020F0001FB
:102378007D6F0101655164C177F00001786B77C00A
:1023880078F0776B77110101966F000178510101A0
:10239800976F010E00017E6F00EF12F07E51020D63
:1023A800650EF324D96E010EF420DA6EDF50776FD4
:1023B8007751796F786B7E517A6F7B6BD8907A37CB
:1023C8007B37640E7A25D96E010E7B21DA6EDF50D9
:1023D8007C6F7C517813000E79137E51020D960E96
:1023E800F324D96E010EF420DA6E6000E3F1DEFF0B
:1023F8006000E7F1DDFF7E2B7D517E5DD8A007EF01
:1024080012F009EF12F0D2EF11F07D5121EC0FF02C
:102418002FEC14F038C17FF039C180F03AC181F057
:102428003BC182F07FC073F080C074F081C075F04A
:1024380082C076F01200000E0001696F000E686F0E
:1024480068C060F069C061F0000E636F0F0E626FC4
:102458003FEC1DF0500E00016025666F020E6121F1
:10246800676F9AEC1AF00001684B692B69BF46EF59
:1024780012F0695109E10C0E685DD8A046EF12F020
:1024880048EF12F024EF12F0000E696F000E686F2B
:1024980068C060F069C061F0000E636F110E626F72
:1024A8003FEC1DF0C80E00016025D96E010E6121B8
:1024B800DA6E000EDE6E000EDD6E68C060F069C078
:1024C80061F0000E636F110E626F3FEC1DF0CA0ED3
:1024D80000016025666F010E6121676F9AEC1AF0A2
:1024E8000001684B692B69BF83EF12F0695109E15C
:1024F800080E685DD8A083EF12F085EF12F04CEF5C
:1025080012F0000E6F00A0FF04F3000E6F00A0FF92
:1025180005F31200000E2E6E2E50110DCA0EF32474
:10252800D96E010EF420DA6EDF50D8B49EEF12F0A7
:10253800A0EF12F0F0EF12F02E50110DC80EF32498
:10254800D96E010EF420DA6E0A0EDE5E000EDD5A38
:102558002E50110DC80EF324D96E010EF420DA6E38
:10256800DE50DE10D8A4BBEF12F0BDEF12F0F0EF92
:1025780012F02E50110DCA0EF324D96E010EF4205C
:10258800DA6E00EE15F00E0E6F006FFFEBFFE80637
:10259800FBE2010E246E2D0E256E000E266EBFEC9A
:1025A80010F0E806D8A4DBEF12F0DDEF12F0E4EF4C
:1025B80012F0010E036E2E50BCEC1CF0F0EF12F07E
:1025C8002E50110DC80EF324D96E010EF420DA6EC8
:1025D800010EDE6E000EDD6E2E2A070E2E64F7EF5A
:1025E80012F0F9EF12F090EF12F01200110E010143
:1025F800646F030E656F620E666F200E676F000EC4
:10260800686F010E696F73C06AF174C06BF175C0B1
:102618006CF176C06DF16551020F00017D6F01010B
:10262800655164C177F00001786B77C078F0776BFB
:1026380077110101966F000178510101976F010E22
:1026480000017E6F56EF13F07E51020D650EF324E4
:10265800D96E010EF420DA6EDF50776F7751796FFB
:10266800786B7E517A6F7B6BD8907A377B37640EA4
:102678007A25D96E010E7B21DA6EDF507C6F7C5192
:102688007813000E79137E51020D960EF324D96E3D
:10269800010EF420DA6E6000E3F1DEFF6000E7F17E
:1026A800DDFF7E2B7D517E5DD8A05DEF13F05FEFDF
:1026B80013F028EF13F07D5121EC0FF01200110EEA
:1026C8000101646F020E656F400E666F600E676FE2
:1026D800000E686F010E696F73C06AF100017451D2
:1026E80001016B6F6551020F00017B6F010165519C
:1026F80064C175F00001766B75C076F0756B751165
:102708000101966F000176510101976F010E0001DA
:102718007C6FBDEF13F07C51020D650EF324D96E6A
:10272800010EF420DA6EDF50756F7551776F766B96
:102738007C51786F796BD89078377937640E782523
:10274800D96E010E7921DA6EDF507A6F7A517613DD
:10275800000E77137C51020D960EF324D96E010EEC
:10276800F420DA6E6000DBF1DEFF6000DFF1DDFFF0
:102778007C2B7B517C5DD8A0C4EF13F0C6EF13F01F
:102788008FEF13F07B5121EC0FF012000001796FED
:10279800110E0101646F020E656F600E666F600EA8
:1027A800676F000E686F010E696F79C06AF1655135
:1027B800020F00017A6F0101655164C173F00001D5
:1027C800746B73C074F0736B73110101966F000121
:1027D80074510101976F010E00017B6F22EF14F015
:1027E8007B51020D650EF324D96E010EF420DA6ECA
:1027F800DF50736F7351756F746B7B51766F776BA6
:10280800D89076377737640E7625D96E010E772102
:10281800DA6EDF50786F78517413000E75137B51A0
:10282800020D960EF324D96E010EF420DA6E6000C4
:10283800D3F1DEFF6000D7F1DDFF7B2B7A517B5DA2
:10284800D8A029EF14F02BEF14F0F4EF13F07A511D
:1028580021EC0FF01200000E0001656F320E6525A5
:10286800D96EDA6A010EDA22000EDF6E1A0E656181
:1028780040EF14F042EF14F04EEF14F06551020DE2
:10288800000EF324D96E010EF420DA6E000EDE6E0F
:10289800000EDD6E652B320E656555EF14F057EFAF
:1028A80014F032EF14F0BAEC16F00101326F4F0E4B
:1028B800D6EC1DF0BAEC16F00101336F020E0001E0
:1028C800646F72EF14F0320E6425D96EDA6A010E65
:1028D800DA22BAEC16F0DF6E0001642B01013351E5
:1028E800020D060EF326000EF42200016451616FFA
:1028F800626BF350615D6251800A636FF450800A25
:102908006359D8A08AEF14F08CEF14F067EF14F035
:102918004F0ED6EC1DF01200000E0001646F9BEF05
:1029280014F0000ECCB6010E646FD6EF14F0600000
:1029380083F1D9FF600087F1DAFFDF50626F636BC4
:102948006351000AD8B4ABEF14F0D6EF14F062511B
:10295800010AD8B495EF14F0030AD8B4D6EF14F0EE
:10296800010AD8B4D6EF14F0070AD8B4D6EF14F099
:10297800010AD8B4D6EF14F0030AD8B4D6EF14F08D
:10298800010AD8B4D6EF14F00F0AD8B4D6EF14F071
:10299800010AD8B4D6EF14F0030AD8B4D6EF14F06D
:1029A800D6EF14F020EE01F06051D9266151DA22F9
:1029B800DE04D8A4E2EF14F0E4EF14F0EFEF14F023
:1029C8006451D8B4EAEF14F0EDEF14F0010EEEEF15
:1029D80014F0000E646F64511200000E00016D6F58
:1029E800000E6C6F3FEF15F0800E6B6F000E6A6F74
:1029F800600083F1D9FF600087F1DAFF6F0078FF8C
:102A080066F06F0074FF67F0020E6027000E612306
:102A1800000E6C15686F800E6D15696FD8906C3755
:102A28006D376A516615646F6B516715656F645130
:102A38006511D8B422EF15F024EF15F026EF15F044
:102A48006C4B6D2B68516911D8B42DEF15F02FEF31
:102A580015F033EF15F0210E6C1B100E6D1BD8907E
:102A68006B336A336A516B11D8A43DEF15F03FEF11
:102A780015F00CEF15F06207D8A06307622906E18C
:102A88006329D8A44AEF15F04CEF15F0F8EF14F0CD
:102A98006CC060F06DC061F01200080E0001996F03
:102AA8009A0E666F000E676F9AEC1AF09A0E000184
:102AB800606F000E616F8AC062F08BC063F000EC3B
:102AC8001EF09A0E0001606F000E616F8CC062F0FC
:102AD8008DC063F00EEC1EF09A0E0001606F000EC0
:102AE800616F8EC062F072EC1EF09A0E0001606F8A
:102AF800000E616F8FC062F090C063F0E4EC1DF0CF
:102B08009A0E0001606F000E616F91C062F092C072
:102B180063F093C064F094C065F095C066F096C009
:102B280067F097C068F098C069F09CEC1CF020EE44
:102B38009AF000EE74F00E0E6F006FFFEBFFE806E0
:102B4800FBE2000E0001836F990E846F000E856F03
:102B580041EC10F012000001776F000E0001786F51
:102B6800000E7B6F000E7C6F000E796F000E7A6F7F
:102B7800775129EC1EF020EE05F310EE04F3DE5039
:102B8800E618D8A4CAEF15F0CCEF15F0DCEF15F075
:102B9800000177511CEC1EF020EE78F000EE66F094
:102BA8000E0E6F006FFFEBFFE806FBE208EF16F072
:102BB800600014FC75F0000175510F0D500EF324E0
:102BC800D96E020EF420DA6E10EE78F00E0E6F0059
:102BD8006FFFE3FFE806FBE2600014FC75F0010EEE
:102BE8007525606F616B000E6123000E636F0C0E1C
:102BF800626F09EC16F00001600080F105F377516F
:102C08001CEC1EF0D0EF15F01200000E0001656FED
:102C180061BF13EF16F011EF16F019EF16F0606DA3
:102C2800611FD8B0612B010E656F63BF20EF16F0EE
:102C38001EEF16F024EF16F0626D631FD8B0632BF9
:102C480062516311D8B42BEF16F02DEF16F051EF47
:102C580016F0010E646F35EF16F0D89062376337BF
:102C6800642B63AF3AEF16F03CEF16F031EF16F035
:102C78006251605D63516159D8A045EF16F047EF86
:102C880016F04BEF16F06251605F6351615BD890AC
:102C980063336233642F3CEF16F06551D8B457EFB5
:102CA80016F059EF16F05DEF16F0606D611FD8B0A1
:102CB800612B60C060F061C061F01200000E066E0A
:102CC80002BE6BEF16F069EF16F071EF16F0016CAB
:102CD800021ED8B0022A010E066E04BE78EF16F066
:102CE80076EF16F07CEF16F0036C041ED8B0042AB9
:102CF80003500410D8B483EF16F085EF16F0A9EF4F
:102D080016F0010E056E8DEF16F0D89003360436D6
:102D1800052A04AE92EF16F094EF16F089EF16F03C
:102D28000350015C04500258D8A09DEF16F09FEFA5
:102D380016F0A3EF16F00350015E0450025AD89023
:102D480004320332052E94EF16F00650D8B4AFEFD4
:102D580016F0B1EF16F0B5EF16F0016C021ED8B000
:102D6800022A01C001F002C002F012003901A3A733
:102D7800C0EF16F0C2EF16F0BAEF16F0000E000121
:102D8800CF6F3D01F9A7CBEF16F0CDEF16F0DCEFD2
:102D980016F00001CF8302D8DCEF16F00500FA6EBA
:102DA800F551FD6EF651FE6EF850FF6EFA501200A6
:102DB8003D01F9A3E2EF16F0E4EF16F0F3EF16F099
:102DC8000001CF8502D8F3EF16F00500FA6EF35133
:102DD800FD6EF451FE6EF850FF6EFA5012000001BD
:102DE800CF51D8B4FAEF16F0FCEF16F009EF17F050
:102DF80002D809EF17F00500FA6EF151FD6EF25195
:102E0800FE6EF850FF6EFA5012003D01E8511200B4
:102E1800A3EC1EF060C062F061C063F0010E000117
:102E2800646F7CEC1EF0A3EC1EF060C066F061C01D
:102E380067F096EC1EF0AFEC1EF060C062F061C067
:102E480063F0010E0001646F010E656F6AEC1DF0FE
:102E5800AFEC1EF060C062F061C063F0DAEC1EF007
:102E6800B5EC1EF060C062F061C063F0AFEC1EF01C
:102E780060C064F061C065F0CCEC1AF0BBEC1EF0E9
:102E880060C062F061C063F0DBEC1EF0A9EC1EF0DC
:102E980060C062F061C063F059EC1CF09DEC1EF05C
:102EA80060C064F061C065F087EC0EF012009DEC24
:102EB8001EF060C064F061C065F0020E0001666F2C
:102EC80020EE09F06A51D9266B51DA22DF50676F7C
:102ED800DAEC1CF09DEC1EF060C064F061C065F097
:102EE800030E0001666F20EE08F06A51D9266B5177
:102EF800DA22DF50676FDAEC1CF09DEC1EF060C040
:102F080064F061C065F0040E0001666F20EE07F002
:102F18006A51D9266B51DA22DF50676FDAEC1CF060
:102F28009DEC1EF060C064F061C065F0050E000104
:102F3800666F20EE06F06A51D9266B51DA22DF500F
:102F4800676FDAEC1CF01200A9C08AF0AAC08BF0F7
:102F5800F00E00018C6F080E8D6F0A0E8E6F000E3A
:102F6800906F000E8F6F000E916F000E926F000E23
:102F7800936F000E946F000E956F000E966F000E03
:102F8800976F000E986F51EC15F0000120EE01F0DC
:102F9800A951D926AA51DA226F0078FF60F06F0094
:102FA80074FF61F090EC14F0E806D8B4DEEF17F087
:102FB800E0EF17F0E5EF17F0040E0001AB6FE8EF54
:102FC80017F0030E0001AB6F20EE03F0A951D926CC
:102FD800AA51DA226000AFF2DFFF1200000172513D
:102FE80029EC1EF0000E0001736F7351110DCA0E0B
:102FF800F324D96E010EF420DA6EDF50D8A407EF5F
:1030080018F009EF18F029EF18F07351110DC80ED8
:10301800F324D96E010EF420DA6E600087F1DEFF2A
:1030280060008BF1DDFF20EE63F07351110DCA0EC5
:10303800F324E16E010EF420E26E0E0E6F006FFFB6
:10304800E3FFE806FBE232EF18F0732B070E736517
:1030580030EF18F032EF18F0F9EF17F072511CEC5E
:103068001EF0000173511200010E0001686F110E6D
:10307800696F050E6A6F000E6B6F000E6C6F040EA1
:103088006D6F9DEC1EF060C062F061C063F0050ECC
:103098000001646F55EC1DF000016E6F9DEC1EF091
:1030A80060C062F061C063F0040E0001646F55EC0B
:1030B8001DF000016F6F9DEC1EF060C062F061C0F2
:1030C80063F0030E0001646F55EC1DF00001706F92
:1030D8009DEC1EF060C062F061C063F0020E00015A
:1030E800646F55EC1DF00001716F000E766F1200D1
:1030F800A9C08AF0AAC08BF01E0E00018C6F000ECA
:103108008D6F2F0E8E6F000E906F000E8F6F000E5A
:10311800916F000E926F000E936F000E946F000E69
:10312800956F000E966F000E976F000E986F51EC1A
:1031380015F0A9C08AF0AAC08BF01E0E00018C6F92
:10314800000E8D6F280E8E6F000E906F000E8F6F21
:10315800000E916F000E926F000E936F000E946F29
:10316800000E956F000E966F000E976F000E986F09
:1031780051EC15F01200135067EC1EF0000E146E9F
:103188001450110DCA0EF324D96E010EF420DA6E14
:10319800DF50D8A4D2EF18F0D4EF18F0F4EF18F0FD
:1031A8001450110DC80EF324D96E010EF420DA6EF6
:1031B80060000BF0DEFF60000FF0DDFF20EE04F092
:1031C8001450110DCA0EF324E16E010EF420E26EC4
:1031D8000E0E6F006FFFE3FFE806FBE2FDEF18F04D
:1031E800142A070E1464FBEF18F0FDEF18F0C4EF73
:1031F80018F013505CEC1EF01450120007EF19F091
:10320800BB8243EF19F060008BF1D9FF60008FF1AA
:10321800DAFFDF500001646F656B6551000AD8B4AE
:1032280018EF19F043EF19F06451010AD8B404EF0C
:1032380019F0030AD8B443EF19F0010AD8B443EFE0
:1032480019F0070AD8B443EF19F0010AD8B443EFCC
:1032580019F0030AD8B443EF19F0010AD8B443EFC0
:1032680019F00F0AD8B443EF19F0010AD8B443EFA4
:1032780019F0030AD8B443EF19F043EF19F012001C
:1032880049EF19F0BB9285EF19F060008BF1D9FF77
:1032980060008FF1DAFFDF500001646F656B6551E4
:1032A800000AD8B45AEF19F085EF19F06451010AF1
:1032B800D8B446EF19F0030AD8B485EF19F0010A1B
:1032C800D8B485EF19F0070AD8B485EF19F0010AC8
:1032D800D8B485EF19F0030AD8B485EF19F0010ABC
:1032E800D8B485EF19F00F0AD8B485EF19F0010AA0
:1032F800D8B485EF19F0030AD8B485EF19F085EF33
:1033080019F012000001666F00016651646F656B69
:10331800D89064376537D89064376537D890643764
:10332800653764C06BF065C06CF0000E6CBFFF0EB3
:103338006D6F6E6F60C064F0050E656FD890643372
:10334800652FA2EF19F064516B256B6F000E6C218D
:103358006C6F000E6D216D6F000E6E216E6F6BC06D
:1033680067F06CC068F06DC069F06EC06AF067C045
:1033780060F068C061F069C062F06AC063F0120072
:10338800000EAFEC15F020EEC0F00E0E6F00AFFF90
:10339800DBFFE806FBE20001C051D8B4D6EF19F014
:1033A800D8EF19F0FDEF19F0C351C411D8B4DFEF0D
:1033B80019F0E1EF19F0FDEF19F0C151C211D8B4BD
:1033C800E8EF19F0EAEF19F0FDEF19F0C00EB16F50
:1033D800000EB26F20EEC1F002D8FDEF19F0050023
:1033E800FA6EDE50FD6EDE50FE6EF850FF6EFA503B
:1033F80012001200000E3D01EC6F000EED6F000E82
:10340800EE6F000EEF6F000EF06F000EF16FB00E52
:10341800F26F800EF36F000EF46F8A0EF56F000ED8
:10342800F66F000EF76F000EF86F000EF96F000EC2
:10343800FA6FB00E0001606F3D0E616FC6EC1EF0B2
:10344800AE0E0001606F3D0E616FC1EC1EF0B20E52
:103458000001606F3D0E616FCBEC1EF0000E0001A5
:10346800CF6F1200BBB03BEF1AF03EEF1AF0010E1F
:103478003FEF1AF0000EFF0A0001A96FBB50A9190F
:10348800FE0BA919BB6ED00E8A6F000E8B6F6C0EE7
:103498008C6F340E8D6F0B0E8E6F030E906FE80ECF
:1034A8008F6F000E916F000E926F000E936F000EDB
:1034B800946F000E956F000E966F000E976F000EBA
:1034C800986F51EC15F01200B5EC1EF060C0A9F031
:1034D80061C0AAF0A8EC17F0A9EC1EF060C0A9F032
:1034E80061C0AAF07CEC18F0D00E00018A6F000EC3
:1034F8008B6F6C0E8C6F340E8D6F0B0E8E6F030EF0
:10350800906FE80E8F6F000E916F000E926F000E95
:10351800936F000E946F000E956F000E966F000E5D
:10352800976F000E986F51EC15F0120060009BF138
:10353800D9FF60009FF1DAFF000EDF6E000120EE78
:1035480005F06651D9266751DA22000EDE6E000EAC
:10355800DD6E20EE03F06651D9266751DA22000E9F
:10356800DE6E000EDD6E20EE07F06651D92667513B
:10357800DA22070EDE6AE806FDE220EE01F0665167
:10358800D9266751DA22000EDE6E000EDD6E1200BB
:1035980060008BF1D9FF60008FF1DAFF000EDF6E5B
:1035A800000120EE01F06251D9266351DA22600051
:1035B80093F1DEFF600097F1DDFF20EE03F062512A
:1035C800D9266351DA22000EDF6E20EE06F0625132
:1035D800D9266351DA22000EDE6E000EDD6E20EE73
:1035E80004F06251D9266351DA22000EDE6E000E15
:1035F800DD6E1200600007F0D9FF60000BF0DAFF03
:10360800000EDF6E20EE05F00150D9260250DA22B6
:10361800000EDE6E000EDD6E20EE03F00150D9269E
:103628000250DA22000EDE6E000EDD6E20EE07F08C
:103638000150D9260250DA22070EDE6AE806FDE2BA
:1036480020EE01F00150D9260250DA22000EDE6E7B
:10365800000EDD6E1200000120EE07F06051D92641
:103668006151DA226F0078FF68F06F0078FF69F027
:103678006F0078FF6AF06F0078FF6BF06F0078FFDB
:103688006CF06F0078FF6DF06F0078FF6EF06F00E0
:1036980078FF6FF068C060F069C061F06AC062F0DE
:1036A8006BC063F06CC064F06DC065F06EC066F00E
:1036B8006FC067F01200000EBA6E000EBB6E000EEF
:1036C800BC6EC268F80EC36EDF0EC46EA70E3A0158
:1036D800606FF40E506F4069000E816F000E516FDD
:1036E800800E416F000E616F000E426F000E526F28
:1036F800000E626F43695369636944695469646978
:10370800080E846F330E0A6F0B0EED6F130E156FD4
:10371800160EE76F12006F00E8FF2FF06F00ECFF46
:1037280030F0390195AD9BEF1BF09DEF1BF0A6EF34
:103738001BF0A5ADA2EF1BF0A4EF1BF0A6EF1BF04A
:10374800B6EF1BF093AFABEF1BF0ADEF1BF0B6EF8E
:103758001BF0A3AFB2EF1BF0B4EF1BF0B6EF1BF0FA
:103768000EEC1DF06000C3F0FBFF6000BFF0FAFF35
:1037780011009DEC1EF060C062F061C063F0010EA4
:103788000001646F55EC1DF00009D8B4CEEF1BF0B2
:10379800D0EF1BF0E5EF1BF01F0E00017E6F050E4A
:1037A8007F6F000E806F000E816F020E826FAA0E6F
:1037B800836FBB0E846F7D0E726F000E736FC3EC48
:1037C80006F01200ACEC11F073C085F074C086F0FE
:1037D80075C087F076C088F0010E0001896F120E5F
:1037E8008A6F050E8B6F000E8C6F000E8D6F040EA6
:1037F8008E6F85C092F0000E916F000E906F000ED4
:103808008F6F000E976F890E726F000E736FC3EC87
:1038180006F01200000ED2BE010E0001636F615166
:10382800030B3901E16F600083F1E0F960008BF16F
:10383800E3F93F0EE517E585D29E550EE66FAA0E11
:10384800E66FE583E5B32BEF1CF02DEF1CF026EFB8
:103858001CF0E595000163B102D0D29E01D0D28E52
:10386800120000016805D8A43CEF1CF03EEF1CF0E4
:1038780058EF1CF06951D8B444EF1CF046EF1CF027
:1038880050EF1CF0A3EC1EF060C062F061C063F062
:1038980002EC19F058EF1CF0A3EC1EF060C062F0C7
:1038A80061C063F044EC19F0120060008BF1D9FF9D
:1038B80060008FF1DAFF0A0EDF6E000120EE01F0E2
:1038C8006251D9266351DA221E0EDF6E20EE02F015
:1038D8006251D9266351DA22010EDF6E20EE10F014
:1038E8006251D9266351DA22000EDF6E120000EE13
:1038F800C8F110EE3EF1EE6AE550E150FCE1E2500D
:10390800FAE100EE00F1C80EEE6AE806FDE100EE0D
:10391800CFF0220EEE6AE806FDE1080ED56E000E25
:10392800D66E000ED76E000EF86E000127EF1DF060
:10393800000120EE07F06051D9266151DA226000BB
:103948008BF1DEFF60008FF1DEFF600093F1DEFF98
:10395800600097F1DEFF60009BF1DEFF60009FF1E1
:10396800DEFF6000A3F1DEFF6000A7F1DEFF1200BA
:10397800046E035067EC1EF00450110DC80EF324BA
:10398800D96E010EF420DA6E000EDE6E000EDD6ECA
:103998000450110DCA0EF324016E010EF420026EBC
:1039A800FEEC1AF003505CEC1EF01200050E00014C
:1039B8006661E1EF1CF0E3EF1CF0F3EF1CF06651D9
:1039C8006425D96E000E6521DA6E60009FF1DFFF75
:1039D80066C060F0616B67C062F00EEC1CF012000C
:1039E800000120EE06F06251D9266351DA22600008
:1039F80093F1DEFF600097F1DDFF20EE04F06251E5
:103A0800D9266351DA2260009BF1DEFF60009FF146
:103A1800DDFF12003901A39F31503210D8B417EFDF
:103A28001DF019EF1DF026EF1DF002D826EF1DF04E
:103A38000500FA6E3150FD6E3250FE6EF850FF6E82
:103A4800FA5012001200C7EC1DF0D28E1FEC12F0D3
:103A58000CEC17F07EEC1DF068EC1AF01C0E00015F
:103A6800606F250E616FD0EC1EF0C4EC19F039EFD1
:103A78001DF00DEF00F00001605162036F00CCFFF4
:103A880064F06F00D0FF65F060516303F350652761
:103A980061516203F350652764C060F065C061F04E
:103AA8001200000E0001656F050E64615EEF1DF0E7
:103AB80060EF1DF068EF1DF064516225D96E000EAD
:103AC8006321DA6EDF50656F6551120060008BF17B
:103AD800D9FF60008FF1DAFF600093F1DFFF00018A
:103AE80020EE01F06251D9266351DA22600097F185
:103AF800DFFF1200B5EC1EF060C062F061C063F039
:103B0800BBEC1EF060C064F061C065F06A0E000195
:103B1800666F380E676FF4EC1CF01200460EB96E33
:103B2800F90EB76E000EB66E3901A39F938FB80ECB
:103B38000001606F3D0E616FD0EC1EF0890EB86E0B
:103B48001200000E3901C06F000EC16F000EC26F67
:103B5800000EC36F000EC46F000EC56F000EC66F57
:103B6800000EC76F120000016151030B3901E16FAC
:103B7800600083F1E0F93F0EE517E58100F000F001
:103B88003901E3511200D5EC1EF0A5EC1DF05FECF5
:103B98001BF050EC1EF092EC1DF0FEEC19F056EC08
:103BA8000AF012000001606F3901A3A9DEEF1DF0D1
:103BB800E0EF1DF0D8EF1DF0600083F1EAFD120080
:103BC800000120EE05F06051D9266151DA2260002B
:103BD8008BF1DEFF60008FF1DDFF1200000120EEA7
:103BE80005F06051D9266151DA226F0078FF60F044
:103BF8006F0074FF61F01200000120EE03F06051C5
:103C0800D9266151DA2260008BF1DEFF60008FF166
:103C1800DDFF1200000120EE01F06051D92661514C
:103C2800DA2260008BF1DEFF60008FF1DDFF120009
:103C38000001606F00016051D8A425EF1EF027EF46
:103C48001EF028EF1EF0D28E12000001606F0001F6
:103C58006051D8A432EF1EF034EF1EF035EF1EF09D
:103C6800D29E120020EE05F00150D9260250DA2229
:103C780060000FF0DEFF600013F0DDFF120020EEA1
:103C880005F00150D9260250DA226F0078FF01F0C2
:103C98006F0074FF02F01200600E3901D96F000E38
:103CA800DB6F000EDD6F080EDF6F000EDE6F120097
:103CB800016E0150D8A463EF1EF065EF1EF066EFA9
:103CC8001EF0D28E1200016E0150D8A46EEF1EF0C5
:103CD80070EF1EF071EF1EF0D29E1200600083F1AB
:103CE800D9FF600087F1DAFF60008BF1DFFF120077
:103CF80060008BF1D9FF60008FF1DAFF600093F16B
:103D0800DFFF1200600083F1D9FF600087F1DAFF5E
:103D1800DF501200600083F1D9FF600087F1DAFFFD
:103D2800DF50120066C062F067C063F044EC19F01F
:103D38001200EC0E0001606F000E616F1200D00ED1
:103D48000001606F000E616F1200DB0E0001606FF2
:103D5800000E616F1200D10E0001606F000E616FDE
:103D68001200D30E0001606F000E616F1200DB0EAF
:103D78000001606F000E616F120060C0F3F061C057
:103D8800F4F0120060C0F5F061C0F6F0120060C0F7
:103D9800F1F061C0F2F0120060C031F061C032F0A1
:103DA8001200D29A12001200120012001200120021
:023DB8001200F7
:020000040020DA
:10000000FF0FFF0FFF0FFF0FFF0FFF0FFF0FFF0F80
:020000040030CA
:0A0000008CFFF7FF9FFFFFFFFFFFDB
:00000001FF
